{"contracts/Employees.sol":{"Employees":{"abi":[{"inputs":[{"internalType":"address","name":"_BEN","type":"address"},{"internalType":"address","name":"_payroll","type":"address"}],"stateMutability":"nonpayable","type":"constructor"},{"anonymous":false,"inputs":[{"indexed":false,"internalType":"uint256","name":"_employeeID","type":"uint256"},{"indexed":false,"internalType":"uint256","name":"_rank","type":"uint256"}],"name":"AssignRank","type":"event"},{"anonymous":false,"inputs":[{"indexed":true,"internalType":"string","name":"_name","type":"string"},{"indexed":false,"internalType":"uint256","name":"_rank","type":"uint256"},{"indexed":false,"internalType":"uint256","name":"_dob","type":"uint256"},{"indexed":false,"internalType":"uint256","name":"_salary","type":"uint256"},{"indexed":true,"internalType":"address","name":"_wallet","type":"address"}],"name":"EmpoloyeeCreated","type":"event"},{"anonymous":false,"inputs":[{"indexed":false,"internalType":"string","name":"_name","type":"string"},{"indexed":false,"internalType":"uint256","name":"_rank","type":"uint256"},{"indexed":false,"internalType":"uint256","name":"_dob","type":"uint256"},{"indexed":false,"internalType":"uint256","name":"_salary","type":"uint256"},{"indexed":true,"internalType":"address","name":"_wallet","type":"address"}],"name":"EmpoloyeeReleased","type":"event"},{"anonymous":false,"inputs":[{"indexed":true,"internalType":"address","name":"previousOwner","type":"address"},{"indexed":true,"internalType":"address","name":"newOwner","type":"address"}],"name":"OwnershipTransferred","type":"event"},{"inputs":[],"name":"BEN","outputs":[{"internalType":"contract BenefitsToken","name":"","type":"address"}],"stateMutability":"view","type":"function"},{"inputs":[{"internalType":"string","name":"_name","type":"string"},{"internalType":"uint256","name":"_rank","type":"uint256"},{"internalType":"uint256","name":"_dob","type":"uint256"},{"internalType":"uint256","name":"_salary","type":"uint256"},{"internalType":"address","name":"_wallet","type":"address"}],"name":"addEmployee","outputs":[],"stateMutability":"nonpayable","type":"function"},{"inputs":[{"internalType":"uint256","name":"_employeeId","type":"uint256"},{"internalType":"uint256","name":"_rank","type":"uint256"}],"name":"assignRank","outputs":[],"stateMutability":"nonpayable","type":"function"},{"inputs":[],"name":"employeeCounter","outputs":[{"internalType":"uint256","name":"","type":"uint256"}],"stateMutability":"view","type":"function"},{"inputs":[{"internalType":"uint256","name":"","type":"uint256"}],"name":"employees","outputs":[{"internalType":"string","name":"name","type":"string"},{"internalType":"uint256","name":"rank","type":"uint256"},{"internalType":"uint256","name":"dateOfBirth","type":"uint256"},{"internalType":"uint256","name":"salary","type":"uint256"},{"internalType":"address","name":"walletAddress","type":"address"},{"internalType":"bool","name":"active","type":"bool"}],"stateMutability":"view","type":"function"},{"inputs":[],"name":"getActiveEmployees","outputs":[{"components":[{"internalType":"string","name":"name","type":"string"},{"internalType":"uint256","name":"rank","type":"uint256"},{"internalType":"uint256","name":"dateOfBirth","type":"uint256"},{"internalType":"uint256","name":"salary","type":"uint256"},{"internalType":"address","name":"walletAddress","type":"address"},{"internalType":"bool","name":"active","type":"bool"}],"internalType":"struct Employees.Employee[]","name":"","type":"tuple[]"}],"stateMutability":"view","type":"function"},{"inputs":[{"internalType":"uint256","name":"_employeeId","type":"uint256"}],"name":"getEmployee","outputs":[{"components":[{"internalType":"string","name":"name","type":"string"},{"internalType":"uint256","name":"rank","type":"uint256"},{"internalType":"uint256","name":"dateOfBirth","type":"uint256"},{"internalType":"uint256","name":"salary","type":"uint256"},{"internalType":"address","name":"walletAddress","type":"address"},{"internalType":"bool","name":"active","type":"bool"}],"internalType":"struct Employees.Employee","name":"","type":"tuple"}],"stateMutability":"view","type":"function"},{"inputs":[{"internalType":"address","name":"","type":"address"}],"name":"isAdmin","outputs":[{"internalType":"bool","name":"","type":"bool"}],"stateMutability":"view","type":"function"},{"inputs":[],"name":"owner","outputs":[{"internalType":"address","name":"","type":"address"}],"stateMutability":"view","type":"function"},{"inputs":[],"name":"payroll","outputs":[{"internalType":"contract EmployeePayroll","name":"","type":"address"}],"stateMutability":"view","type":"function"},{"inputs":[{"internalType":"uint256","name":"_employeeId","type":"uint256"}],"name":"releaseEmployee","outputs":[],"stateMutability":"nonpayable","type":"function"},{"inputs":[],"name":"renounceOwnership","outputs":[],"stateMutability":"nonpayable","type":"function"},{"inputs":[],"name":"replenishEmployeeTokens","outputs":[],"stateMutability":"nonpayable","type":"function"},{"inputs":[{"internalType":"address","name":"_address","type":"address"},{"internalType":"bool","name":"_isAdmin","type":"bool"}],"name":"setAdmin","outputs":[],"stateMutability":"nonpayable","type":"function"},{"inputs":[{"internalType":"address","name":"newOwner","type":"address"}],"name":"transferOwnership","outputs":[],"stateMutability":"nonpayable","type":"function"}],"evm":{"bytecode":{"linkReferences":{},"object":"60806040523480156200001157600080fd5b50604051620023753803806200237583398181016040528101906200003791906200026f565b620000576200004b6200013960201b60201c565b6200014160201b60201c565b81600160006101000a81548173ffffffffffffffffffffffffffffffffffffffff021916908373ffffffffffffffffffffffffffffffffffffffff16021790555080600260006101000a81548173ffffffffffffffffffffffffffffffffffffffff021916908373ffffffffffffffffffffffffffffffffffffffff1602179055506001600560003373ffffffffffffffffffffffffffffffffffffffff1673ffffffffffffffffffffffffffffffffffffffff16815260200190815260200160002060006101000a81548160ff0219169083151502179055505050620002b6565b600033905090565b60008060009054906101000a900473ffffffffffffffffffffffffffffffffffffffff169050816000806101000a81548173ffffffffffffffffffffffffffffffffffffffff021916908373ffffffffffffffffffffffffffffffffffffffff1602179055508173ffffffffffffffffffffffffffffffffffffffff168173ffffffffffffffffffffffffffffffffffffffff167f8be0079c531659141344cd1fd0a4f28419497f9722a3daafe3b4186f6b6457e060405160405180910390a35050565b600080fd5b600073ffffffffffffffffffffffffffffffffffffffff82169050919050565b600062000237826200020a565b9050919050565b62000249816200022a565b81146200025557600080fd5b50565b60008151905062000269816200023e565b92915050565b6000806040838503121562000289576200028862000205565b5b6000620002998582860162000258565b9250506020620002ac8582860162000258565b9150509250929050565b6120af80620002c66000396000f3fe608060405234801561001057600080fd5b50600436106100f55760003560e01c806379dd81e111610097578063bca9a5c511610066578063bca9a5c514610241578063d9c4bb5014610271578063f01aefaa1461028d578063f2fde38b146102a9576100f5565b806379dd81e1146101dd5780638da5cb5b146101fb5780639716030714610219578063b7c97fa014610223576100f5565b806347e23df9116100d357806347e23df91461017b5780634b0bddd214610199578063562a5d06146101b5578063715018a6146101d3576100f5565b806324d7806c146100fa5780632b7851401461012a5780634739326b14610146575b600080fd5b610114600480360381019061010f9190611112565b6102c5565b604051610121919061115a565b60405180910390f35b610144600480360381019061013f91906112f1565b6102e5565b005b610160600480360381019061015b9190611388565b610550565b60405161017296959493929190611452565b60405180910390f35b610183610641565b604051610190919061167c565b60405180910390f35b6101b360048036038101906101ae91906116ca565b6106fd565b005b6101bd610760565b6040516101ca9190611769565b60405180910390f35b6101db610786565b005b6101e561079a565b6040516101f29190611784565b60405180910390f35b6102036107a0565b604051610210919061179f565b60405180910390f35b6102216107c9565b005b61022b610a39565b60405161023891906117db565b60405180910390f35b61025b60048036038101906102569190611388565b610a5f565b604051610268919061187f565b60405180910390f35b61028b600480360381019061028691906118a1565b610bb3565b005b6102a760048036038101906102a29190611388565b610ce2565b005b6102c360048036038101906102be9190611112565b610e85565b005b60056020528060005260406000206000915054906101000a900460ff1681565b600560003373ffffffffffffffffffffffffffffffffffffffff1673ffffffffffffffffffffffffffffffffffffffff16815260200190815260200160002060009054906101000a900460ff16610371576040517f08c379a000000000000000000000000000000000000000000000000000000000815260040161036890611953565b60405180910390fd5b600060046000600354815260200190815260200160002090508581600001908161039b9190611b75565b50848160010181905550838160020181905550828160030181905550818160040160006101000a81548173ffffffffffffffffffffffffffffffffffffffff021916908373ffffffffffffffffffffffffffffffffffffffff16021790555060018160040160146101000a81548160ff021916908315150217905550600360008154809291906001019190505550600160009054906101000a900473ffffffffffffffffffffffffffffffffffffffff1673ffffffffffffffffffffffffffffffffffffffff166340c10f198260040160009054906101000a900473ffffffffffffffffffffffffffffffffffffffff1683600101546040518363ffffffff1660e01b81526004016104ae929190611c47565b600060405180830381600087803b1580156104c857600080fd5b505af11580156104dc573d6000803e3d6000fd5b505050508173ffffffffffffffffffffffffffffffffffffffff16866040516105059190611cac565b60405180910390207fe67918e2ebfa86773ad1d6eb76d22fb813c41ac83ee857b3220b45f10e2ad7df87878760405161054093929190611cc3565b60405180910390a3505050505050565b6004602052806000526040600020600091509050806000018054610573906119a2565b80601f016020809104026020016040519081016040528092919081815260200182805461059f906119a2565b80156105ec5780601f106105c1576101008083540402835291602001916105ec565b820191906000526020600020905b8154815290600101906020018083116105cf57829003601f168201915b5050505050908060010154908060020154908060030154908060040160009054906101000a900473ffffffffffffffffffffffffffffffffffffffff16908060040160149054906101000a900460ff16905086565b6060600060035467ffffffffffffffff81111561066157610660611190565b5b60405190808252806020026020018201604052801561069a57816020015b610687611052565b81526020019060019003908161067f5790505b50905060005b6003548110156106f55760006106b582610a5f565b90508060a00151156106e157808383815181106106d5576106d4611cfa565b5b60200260200101819052505b5080806106ed90611d58565b9150506106a0565b508091505090565b610705610f08565b80600560008473ffffffffffffffffffffffffffffffffffffffff1673ffffffffffffffffffffffffffffffffffffffff16815260200190815260200160002060006101000a81548160ff0219169083151502179055505050565b600260009054906101000a900473ffffffffffffffffffffffffffffffffffffffff1681565b61078e610f08565b6107986000610f86565b565b60035481565b60008060009054906101000a900473ffffffffffffffffffffffffffffffffffffffff16905090565b60006107d3610641565b905060005b8151811015610a35576000600160009054906101000a900473ffffffffffffffffffffffffffffffffffffffff1673ffffffffffffffffffffffffffffffffffffffff166370a0823184848151811061083457610833611cfa565b5b6020026020010151608001516040518263ffffffff1660e01b815260040161085c919061179f565b602060405180830381865afa158015610879573d6000803e3d6000fd5b505050506040513d601f19601f8201168201806040525081019061089d9190611db5565b90506000600160009054906101000a900473ffffffffffffffffffffffffffffffffffffffff1673ffffffffffffffffffffffffffffffffffffffff1663962d28098585815181106108f2576108f1611cfa565b5b6020026020010151602001516040518263ffffffff1660e01b815260040161091a9190611784565b6020604051808303816000875af1158015610939573d6000803e3d6000fd5b505050506040513d601f19601f8201168201806040525081019061095d9190611db5565b905080821015610a2057600160009054906101000a900473ffffffffffffffffffffffffffffffffffffffff1673ffffffffffffffffffffffffffffffffffffffff1663564074558585815181106109b8576109b7611cfa565b5b60200260200101516080015184846109d09190611de2565b6040518363ffffffff1660e01b81526004016109ed929190611c47565b600060405180830381600087803b158015610a0757600080fd5b505af1158015610a1b573d6000803e3d6000fd5b505050505b50508080610a2d90611d58565b9150506107d8565b5050565b600160009054906101000a900473ffffffffffffffffffffffffffffffffffffffff1681565b610a67611052565b6000600460008481526020019081526020016000209050806040518060c0016040529081600082018054610a9a906119a2565b80601f0160208091040260200160405190810160405280929190818152602001828054610ac6906119a2565b8015610b135780601f10610ae857610100808354040283529160200191610b13565b820191906000526020600020905b815481529060010190602001808311610af657829003601f168201915b505050505081526020016001820154815260200160028201548152602001600382015481526020016004820160009054906101000a900473ffffffffffffffffffffffffffffffffffffffff1673ffffffffffffffffffffffffffffffffffffffff1673ffffffffffffffffffffffffffffffffffffffff1681526020016004820160149054906101000a900460ff161515151581525050915050919050565b600560003373ffffffffffffffffffffffffffffffffffffffff1673ffffffffffffffffffffffffffffffffffffffff16815260200190815260200160002060009054906101000a900460ff16610c3f576040517f08c379a0000000000000000000000000000000000000000000000000000000008152600401610c3690611953565b60405180910390fd5b600354821115610c84576040517f08c379a0000000000000000000000000000000000000000000000000000000008152600401610c7b90611e62565b60405180910390fd5b60006004600084815260200190815260200160002090508181600101819055507f01a10ae1a7477e7dfccf5728f4ce8c0aa13f0a793496d84b02164fa4c91115c98383604051610cd5929190611e82565b60405180910390a1505050565b600560003373ffffffffffffffffffffffffffffffffffffffff1673ffffffffffffffffffffffffffffffffffffffff16815260200190815260200160002060009054906101000a900460ff16610d6e576040517f08c379a0000000000000000000000000000000000000000000000000000000008152600401610d6590611953565b60405180910390fd5b600354811115610db3576040517f08c379a0000000000000000000000000000000000000000000000000000000008152600401610daa90611e62565b60405180910390fd5b600060046000838152602001908152602001600020905060008160040160146101000a81548160ff0219169083151502179055508060040160009054906101000a900473ffffffffffffffffffffffffffffffffffffffff1673ffffffffffffffffffffffffffffffffffffffff167f1c887c9bd8e75db22f26656b9571aff01bf0a0538598bdcbe11e71b1206c4f6582600001836001015484600201548560030154604051610e669493929190611f2f565b60405180910390a2600360008154809291906001900391905055505050565b610e8d610f08565b600073ffffffffffffffffffffffffffffffffffffffff168173ffffffffffffffffffffffffffffffffffffffff1603610efc576040517f08c379a0000000000000000000000000000000000000000000000000000000008152600401610ef390611fed565b60405180910390fd5b610f0581610f86565b50565b610f1061104a565b73ffffffffffffffffffffffffffffffffffffffff16610f2e6107a0565b73ffffffffffffffffffffffffffffffffffffffff1614610f84576040517f08c379a0000000000000000000000000000000000000000000000000000000008152600401610f7b90612059565b60405180910390fd5b565b60008060009054906101000a900473ffffffffffffffffffffffffffffffffffffffff169050816000806101000a81548173ffffffffffffffffffffffffffffffffffffffff021916908373ffffffffffffffffffffffffffffffffffffffff1602179055508173ffffffffffffffffffffffffffffffffffffffff168173ffffffffffffffffffffffffffffffffffffffff167f8be0079c531659141344cd1fd0a4f28419497f9722a3daafe3b4186f6b6457e060405160405180910390a35050565b600033905090565b6040518060c0016040528060608152602001600081526020016000815260200160008152602001600073ffffffffffffffffffffffffffffffffffffffff1681526020016000151581525090565b6000604051905090565b600080fd5b600080fd5b600073ffffffffffffffffffffffffffffffffffffffff82169050919050565b60006110df826110b4565b9050919050565b6110ef816110d4565b81146110fa57600080fd5b50565b60008135905061110c816110e6565b92915050565b600060208284031215611128576111276110aa565b5b6000611136848285016110fd565b91505092915050565b60008115159050919050565b6111548161113f565b82525050565b600060208201905061116f600083018461114b565b92915050565b600080fd5b600080fd5b6000601f19601f8301169050919050565b7f4e487b7100000000000000000000000000000000000000000000000000000000600052604160045260246000fd5b6111c88261117f565b810181811067ffffffffffffffff821117156111e7576111e6611190565b5b80604052505050565b60006111fa6110a0565b905061120682826111bf565b919050565b600067ffffffffffffffff82111561122657611225611190565b5b61122f8261117f565b9050602081019050919050565b82818337600083830152505050565b600061125e6112598461120b565b6111f0565b90508281526020810184848401111561127a5761127961117a565b5b61128584828561123c565b509392505050565b600082601f8301126112a2576112a1611175565b5b81356112b284826020860161124b565b91505092915050565b6000819050919050565b6112ce816112bb565b81146112d957600080fd5b50565b6000813590506112eb816112c5565b92915050565b600080600080600060a0868803121561130d5761130c6110aa565b5b600086013567ffffffffffffffff81111561132b5761132a6110af565b5b6113378882890161128d565b9550506020611348888289016112dc565b9450506040611359888289016112dc565b935050606061136a888289016112dc565b925050608061137b888289016110fd565b9150509295509295909350565b60006020828403121561139e5761139d6110aa565b5b60006113ac848285016112dc565b91505092915050565b600081519050919050565b600082825260208201905092915050565b60005b838110156113ef5780820151818401526020810190506113d4565b60008484015250505050565b6000611406826113b5565b61141081856113c0565b93506114208185602086016113d1565b6114298161117f565b840191505092915050565b61143d816112bb565b82525050565b61144c816110d4565b82525050565b600060c082019050818103600083015261146c81896113fb565b905061147b6020830188611434565b6114886040830187611434565b6114956060830186611434565b6114a26080830185611443565b6114af60a083018461114b565b979650505050505050565b600081519050919050565b600082825260208201905092915050565b6000819050602082019050919050565b600082825260208201905092915050565b6000611502826113b5565b61150c81856114e6565b935061151c8185602086016113d1565b6115258161117f565b840191505092915050565b611539816112bb565b82525050565b611548816110d4565b82525050565b6115578161113f565b82525050565b600060c083016000830151848203600086015261157a82826114f7565b915050602083015161158f6020860182611530565b5060408301516115a26040860182611530565b5060608301516115b56060860182611530565b5060808301516115c8608086018261153f565b5060a08301516115db60a086018261154e565b508091505092915050565b60006115f2838361155d565b905092915050565b6000602082019050919050565b6000611612826114ba565b61161c81856114c5565b93508360208202850161162e856114d6565b8060005b8581101561166a578484038952815161164b85826115e6565b9450611656836115fa565b925060208a01995050600181019050611632565b50829750879550505050505092915050565b600060208201905081810360008301526116968184611607565b905092915050565b6116a78161113f565b81146116b257600080fd5b50565b6000813590506116c48161169e565b92915050565b600080604083850312156116e1576116e06110aa565b5b60006116ef858286016110fd565b9250506020611700858286016116b5565b9150509250929050565b6000819050919050565b600061172f61172a611725846110b4565b61170a565b6110b4565b9050919050565b600061174182611714565b9050919050565b600061175382611736565b9050919050565b61176381611748565b82525050565b600060208201905061177e600083018461175a565b92915050565b60006020820190506117996000830184611434565b92915050565b60006020820190506117b46000830184611443565b92915050565b60006117c582611736565b9050919050565b6117d5816117ba565b82525050565b60006020820190506117f060008301846117cc565b92915050565b600060c083016000830151848203600086015261181382826114f7565b91505060208301516118286020860182611530565b50604083015161183b6040860182611530565b50606083015161184e6060860182611530565b506080830151611861608086018261153f565b5060a083015161187460a086018261154e565b508091505092915050565b6000602082019050818103600083015261189981846117f6565b905092915050565b600080604083850312156118b8576118b76110aa565b5b60006118c6858286016112dc565b92505060206118d7858286016112dc565b9150509250929050565b7f4f6e6c7920416d696e732063616e2063616c6c20746869732066756e6374696f60008201527f6e00000000000000000000000000000000000000000000000000000000000000602082015250565b600061193d6021836113c0565b9150611948826118e1565b604082019050919050565b6000602082019050818103600083015261196c81611930565b9050919050565b7f4e487b7100000000000000000000000000000000000000000000000000000000600052602260045260246000fd5b600060028204905060018216806119ba57607f821691505b6020821081036119cd576119cc611973565b5b50919050565b60008190508160005260206000209050919050565b60006020601f8301049050919050565b600082821b905092915050565b600060088302611a357fffffffffffffffffffffffffffffffffffffffffffffffffffffffffffffffff826119f8565b611a3f86836119f8565b95508019841693508086168417925050509392505050565b6000611a72611a6d611a68846112bb565b61170a565b6112bb565b9050919050565b6000819050919050565b611a8c83611a57565b611aa0611a9882611a79565b848454611a05565b825550505050565b600090565b611ab5611aa8565b611ac0818484611a83565b505050565b5b81811015611ae457611ad9600082611aad565b600181019050611ac6565b5050565b601f821115611b2957611afa816119d3565b611b03846119e8565b81016020851015611b12578190505b611b26611b1e856119e8565b830182611ac5565b50505b505050565b600082821c905092915050565b6000611b4c60001984600802611b2e565b1980831691505092915050565b6000611b658383611b3b565b9150826002028217905092915050565b611b7e826113b5565b67ffffffffffffffff811115611b9757611b96611190565b5b611ba182546119a2565b611bac828285611ae8565b600060209050601f831160018114611bdf5760008415611bcd578287015190505b611bd78582611b59565b865550611c3f565b601f198416611bed866119d3565b60005b82811015611c1557848901518255600182019150602085019450602081019050611bf0565b86831015611c325784890151611c2e601f891682611b3b565b8355505b6001600288020188555050505b505050505050565b6000604082019050611c5c6000830185611443565b611c696020830184611434565b9392505050565b600081905092915050565b6000611c86826113b5565b611c908185611c70565b9350611ca08185602086016113d1565b80840191505092915050565b6000611cb88284611c7b565b915081905092915050565b6000606082019050611cd86000830186611434565b611ce56020830185611434565b611cf26040830184611434565b949350505050565b7f4e487b7100000000000000000000000000000000000000000000000000000000600052603260045260246000fd5b7f4e487b7100000000000000000000000000000000000000000000000000000000600052601160045260246000fd5b6000611d63826112bb565b91507fffffffffffffffffffffffffffffffffffffffffffffffffffffffffffffffff8203611d9557611d94611d29565b5b600182019050919050565b600081519050611daf816112c5565b92915050565b600060208284031215611dcb57611dca6110aa565b5b6000611dd984828501611da0565b91505092915050565b6000611ded826112bb565b9150611df8836112bb565b9250828203905081811115611e1057611e0f611d29565b5b92915050565b7f456d706c6f79656520494420646f6573206e6f74206578697374000000000000600082015250565b6000611e4c601a836113c0565b9150611e5782611e16565b602082019050919050565b60006020820190508181036000830152611e7b81611e3f565b9050919050565b6000604082019050611e976000830185611434565b611ea46020830184611434565b9392505050565b60008154611eb8816119a2565b611ec281866113c0565b94506001821660008114611edd5760018114611ef357611f26565b60ff198316865281151560200286019350611f26565b611efc856119d3565b60005b83811015611f1e57815481890152600182019150602081019050611eff565b808801955050505b50505092915050565b60006080820190508181036000830152611f498187611eab565b9050611f586020830186611434565b611f656040830185611434565b611f726060830184611434565b95945050505050565b7f4f776e61626c653a206e6577206f776e657220697320746865207a65726f206160008201527f6464726573730000000000000000000000000000000000000000000000000000602082015250565b6000611fd76026836113c0565b9150611fe282611f7b565b604082019050919050565b6000602082019050818103600083015261200681611fca565b9050919050565b7f4f776e61626c653a2063616c6c6572206973206e6f7420746865206f776e6572600082015250565b60006120436020836113c0565b915061204e8261200d565b602082019050919050565b6000602082019050818103600083015261207281612036565b905091905056fea2646970667358221220e14b77fb845e725360654fc3fb4217d2e1a62f783ed66bc5a6ca55db134cdcbe64736f6c63430008110033","opcodes":"PUSH1 0x80 PUSH1 0x40 MSTORE CALLVALUE DUP1 ISZERO PUSH3 0x11 JUMPI PUSH1 0x0 DUP1 REVERT JUMPDEST POP PUSH1 0x40 MLOAD PUSH3 0x2375 CODESIZE SUB DUP1 PUSH3 0x2375 DUP4 CODECOPY DUP2 DUP2 ADD PUSH1 0x40 MSTORE DUP2 ADD SWAP1 PUSH3 0x37 SWAP2 SWAP1 PUSH3 0x26F JUMP JUMPDEST PUSH3 0x57 PUSH3 0x4B PUSH3 0x139 PUSH1 0x20 SHL PUSH1 0x20 SHR JUMP JUMPDEST PUSH3 0x141 PUSH1 0x20 SHL PUSH1 0x20 SHR JUMP JUMPDEST DUP2 PUSH1 0x1 PUSH1 0x0 PUSH2 0x100 EXP DUP2 SLOAD DUP2 PUSH20 0xFFFFFFFFFFFFFFFFFFFFFFFFFFFFFFFFFFFFFFFF MUL NOT AND SWAP1 DUP4 PUSH20 0xFFFFFFFFFFFFFFFFFFFFFFFFFFFFFFFFFFFFFFFF AND MUL OR SWAP1 SSTORE POP DUP1 PUSH1 0x2 PUSH1 0x0 PUSH2 0x100 EXP DUP2 SLOAD DUP2 PUSH20 0xFFFFFFFFFFFFFFFFFFFFFFFFFFFFFFFFFFFFFFFF MUL NOT AND SWAP1 DUP4 PUSH20 0xFFFFFFFFFFFFFFFFFFFFFFFFFFFFFFFFFFFFFFFF AND MUL OR SWAP1 SSTORE POP PUSH1 0x1 PUSH1 0x5 PUSH1 0x0 CALLER PUSH20 0xFFFFFFFFFFFFFFFFFFFFFFFFFFFFFFFFFFFFFFFF AND PUSH20 0xFFFFFFFFFFFFFFFFFFFFFFFFFFFFFFFFFFFFFFFF AND DUP2 MSTORE PUSH1 0x20 ADD SWAP1 DUP2 MSTORE PUSH1 0x20 ADD PUSH1 0x0 KECCAK256 PUSH1 0x0 PUSH2 0x100 EXP DUP2 SLOAD DUP2 PUSH1 0xFF MUL NOT AND SWAP1 DUP4 ISZERO ISZERO MUL OR SWAP1 SSTORE POP POP POP PUSH3 0x2B6 JUMP JUMPDEST PUSH1 0x0 CALLER SWAP1 POP SWAP1 JUMP JUMPDEST PUSH1 0x0 DUP1 PUSH1 0x0 SWAP1 SLOAD SWAP1 PUSH2 0x100 EXP SWAP1 DIV PUSH20 0xFFFFFFFFFFFFFFFFFFFFFFFFFFFFFFFFFFFFFFFF AND SWAP1 POP DUP2 PUSH1 0x0 DUP1 PUSH2 0x100 EXP DUP2 SLOAD DUP2 PUSH20 0xFFFFFFFFFFFFFFFFFFFFFFFFFFFFFFFFFFFFFFFF MUL NOT AND SWAP1 DUP4 PUSH20 0xFFFFFFFFFFFFFFFFFFFFFFFFFFFFFFFFFFFFFFFF AND MUL OR SWAP1 SSTORE POP DUP2 PUSH20 0xFFFFFFFFFFFFFFFFFFFFFFFFFFFFFFFFFFFFFFFF AND DUP2 PUSH20 0xFFFFFFFFFFFFFFFFFFFFFFFFFFFFFFFFFFFFFFFF AND PUSH32 0x8BE0079C531659141344CD1FD0A4F28419497F9722A3DAAFE3B4186F6B6457E0 PUSH1 0x40 MLOAD PUSH1 0x40 MLOAD DUP1 SWAP2 SUB SWAP1 LOG3 POP POP JUMP JUMPDEST PUSH1 0x0 DUP1 REVERT JUMPDEST PUSH1 0x0 PUSH20 0xFFFFFFFFFFFFFFFFFFFFFFFFFFFFFFFFFFFFFFFF DUP3 AND SWAP1 POP SWAP2 SWAP1 POP JUMP JUMPDEST PUSH1 0x0 PUSH3 0x237 DUP3 PUSH3 0x20A JUMP JUMPDEST SWAP1 POP SWAP2 SWAP1 POP JUMP JUMPDEST PUSH3 0x249 DUP2 PUSH3 0x22A JUMP JUMPDEST DUP2 EQ PUSH3 0x255 JUMPI PUSH1 0x0 DUP1 REVERT JUMPDEST POP JUMP JUMPDEST PUSH1 0x0 DUP2 MLOAD SWAP1 POP PUSH3 0x269 DUP2 PUSH3 0x23E JUMP JUMPDEST SWAP3 SWAP2 POP POP JUMP JUMPDEST PUSH1 0x0 DUP1 PUSH1 0x40 DUP4 DUP6 SUB SLT ISZERO PUSH3 0x289 JUMPI PUSH3 0x288 PUSH3 0x205 JUMP JUMPDEST JUMPDEST PUSH1 0x0 PUSH3 0x299 DUP6 DUP3 DUP7 ADD PUSH3 0x258 JUMP JUMPDEST SWAP3 POP POP PUSH1 0x20 PUSH3 0x2AC DUP6 DUP3 DUP7 ADD PUSH3 0x258 JUMP JUMPDEST SWAP2 POP POP SWAP3 POP SWAP3 SWAP1 POP JUMP JUMPDEST PUSH2 0x20AF DUP1 PUSH3 0x2C6 PUSH1 0x0 CODECOPY PUSH1 0x0 RETURN INVALID PUSH1 0x80 PUSH1 0x40 MSTORE CALLVALUE DUP1 ISZERO PUSH2 0x10 JUMPI PUSH1 0x0 DUP1 REVERT JUMPDEST POP PUSH1 0x4 CALLDATASIZE LT PUSH2 0xF5 JUMPI PUSH1 0x0 CALLDATALOAD PUSH1 0xE0 SHR DUP1 PUSH4 0x79DD81E1 GT PUSH2 0x97 JUMPI DUP1 PUSH4 0xBCA9A5C5 GT PUSH2 0x66 JUMPI DUP1 PUSH4 0xBCA9A5C5 EQ PUSH2 0x241 JUMPI DUP1 PUSH4 0xD9C4BB50 EQ PUSH2 0x271 JUMPI DUP1 PUSH4 0xF01AEFAA EQ PUSH2 0x28D JUMPI DUP1 PUSH4 0xF2FDE38B EQ PUSH2 0x2A9 JUMPI PUSH2 0xF5 JUMP JUMPDEST DUP1 PUSH4 0x79DD81E1 EQ PUSH2 0x1DD JUMPI DUP1 PUSH4 0x8DA5CB5B EQ PUSH2 0x1FB JUMPI DUP1 PUSH4 0x97160307 EQ PUSH2 0x219 JUMPI DUP1 PUSH4 0xB7C97FA0 EQ PUSH2 0x223 JUMPI PUSH2 0xF5 JUMP JUMPDEST DUP1 PUSH4 0x47E23DF9 GT PUSH2 0xD3 JUMPI DUP1 PUSH4 0x47E23DF9 EQ PUSH2 0x17B JUMPI DUP1 PUSH4 0x4B0BDDD2 EQ PUSH2 0x199 JUMPI DUP1 PUSH4 0x562A5D06 EQ PUSH2 0x1B5 JUMPI DUP1 PUSH4 0x715018A6 EQ PUSH2 0x1D3 JUMPI PUSH2 0xF5 JUMP JUMPDEST DUP1 PUSH4 0x24D7806C EQ PUSH2 0xFA JUMPI DUP1 PUSH4 0x2B785140 EQ PUSH2 0x12A JUMPI DUP1 PUSH4 0x4739326B EQ PUSH2 0x146 JUMPI JUMPDEST PUSH1 0x0 DUP1 REVERT JUMPDEST PUSH2 0x114 PUSH1 0x4 DUP1 CALLDATASIZE SUB DUP2 ADD SWAP1 PUSH2 0x10F SWAP2 SWAP1 PUSH2 0x1112 JUMP JUMPDEST PUSH2 0x2C5 JUMP JUMPDEST PUSH1 0x40 MLOAD PUSH2 0x121 SWAP2 SWAP1 PUSH2 0x115A JUMP JUMPDEST PUSH1 0x40 MLOAD DUP1 SWAP2 SUB SWAP1 RETURN JUMPDEST PUSH2 0x144 PUSH1 0x4 DUP1 CALLDATASIZE SUB DUP2 ADD SWAP1 PUSH2 0x13F SWAP2 SWAP1 PUSH2 0x12F1 JUMP JUMPDEST PUSH2 0x2E5 JUMP JUMPDEST STOP JUMPDEST PUSH2 0x160 PUSH1 0x4 DUP1 CALLDATASIZE SUB DUP2 ADD SWAP1 PUSH2 0x15B SWAP2 SWAP1 PUSH2 0x1388 JUMP JUMPDEST PUSH2 0x550 JUMP JUMPDEST PUSH1 0x40 MLOAD PUSH2 0x172 SWAP7 SWAP6 SWAP5 SWAP4 SWAP3 SWAP2 SWAP1 PUSH2 0x1452 JUMP JUMPDEST PUSH1 0x40 MLOAD DUP1 SWAP2 SUB SWAP1 RETURN JUMPDEST PUSH2 0x183 PUSH2 0x641 JUMP JUMPDEST PUSH1 0x40 MLOAD PUSH2 0x190 SWAP2 SWAP1 PUSH2 0x167C JUMP JUMPDEST PUSH1 0x40 MLOAD DUP1 SWAP2 SUB SWAP1 RETURN JUMPDEST PUSH2 0x1B3 PUSH1 0x4 DUP1 CALLDATASIZE SUB DUP2 ADD SWAP1 PUSH2 0x1AE SWAP2 SWAP1 PUSH2 0x16CA JUMP JUMPDEST PUSH2 0x6FD JUMP JUMPDEST STOP JUMPDEST PUSH2 0x1BD PUSH2 0x760 JUMP JUMPDEST PUSH1 0x40 MLOAD PUSH2 0x1CA SWAP2 SWAP1 PUSH2 0x1769 JUMP JUMPDEST PUSH1 0x40 MLOAD DUP1 SWAP2 SUB SWAP1 RETURN JUMPDEST PUSH2 0x1DB PUSH2 0x786 JUMP JUMPDEST STOP JUMPDEST PUSH2 0x1E5 PUSH2 0x79A JUMP JUMPDEST PUSH1 0x40 MLOAD PUSH2 0x1F2 SWAP2 SWAP1 PUSH2 0x1784 JUMP JUMPDEST PUSH1 0x40 MLOAD DUP1 SWAP2 SUB SWAP1 RETURN JUMPDEST PUSH2 0x203 PUSH2 0x7A0 JUMP JUMPDEST PUSH1 0x40 MLOAD PUSH2 0x210 SWAP2 SWAP1 PUSH2 0x179F JUMP JUMPDEST PUSH1 0x40 MLOAD DUP1 SWAP2 SUB SWAP1 RETURN JUMPDEST PUSH2 0x221 PUSH2 0x7C9 JUMP JUMPDEST STOP JUMPDEST PUSH2 0x22B PUSH2 0xA39 JUMP JUMPDEST PUSH1 0x40 MLOAD PUSH2 0x238 SWAP2 SWAP1 PUSH2 0x17DB JUMP JUMPDEST PUSH1 0x40 MLOAD DUP1 SWAP2 SUB SWAP1 RETURN JUMPDEST PUSH2 0x25B PUSH1 0x4 DUP1 CALLDATASIZE SUB DUP2 ADD SWAP1 PUSH2 0x256 SWAP2 SWAP1 PUSH2 0x1388 JUMP JUMPDEST PUSH2 0xA5F JUMP JUMPDEST PUSH1 0x40 MLOAD PUSH2 0x268 SWAP2 SWAP1 PUSH2 0x187F JUMP JUMPDEST PUSH1 0x40 MLOAD DUP1 SWAP2 SUB SWAP1 RETURN JUMPDEST PUSH2 0x28B PUSH1 0x4 DUP1 CALLDATASIZE SUB DUP2 ADD SWAP1 PUSH2 0x286 SWAP2 SWAP1 PUSH2 0x18A1 JUMP JUMPDEST PUSH2 0xBB3 JUMP JUMPDEST STOP JUMPDEST PUSH2 0x2A7 PUSH1 0x4 DUP1 CALLDATASIZE SUB DUP2 ADD SWAP1 PUSH2 0x2A2 SWAP2 SWAP1 PUSH2 0x1388 JUMP JUMPDEST PUSH2 0xCE2 JUMP JUMPDEST STOP JUMPDEST PUSH2 0x2C3 PUSH1 0x4 DUP1 CALLDATASIZE SUB DUP2 ADD SWAP1 PUSH2 0x2BE SWAP2 SWAP1 PUSH2 0x1112 JUMP JUMPDEST PUSH2 0xE85 JUMP JUMPDEST STOP JUMPDEST PUSH1 0x5 PUSH1 0x20 MSTORE DUP1 PUSH1 0x0 MSTORE PUSH1 0x40 PUSH1 0x0 KECCAK256 PUSH1 0x0 SWAP2 POP SLOAD SWAP1 PUSH2 0x100 EXP SWAP1 DIV PUSH1 0xFF AND DUP2 JUMP JUMPDEST PUSH1 0x5 PUSH1 0x0 CALLER PUSH20 0xFFFFFFFFFFFFFFFFFFFFFFFFFFFFFFFFFFFFFFFF AND PUSH20 0xFFFFFFFFFFFFFFFFFFFFFFFFFFFFFFFFFFFFFFFF AND DUP2 MSTORE PUSH1 0x20 ADD SWAP1 DUP2 MSTORE PUSH1 0x20 ADD PUSH1 0x0 KECCAK256 PUSH1 0x0 SWAP1 SLOAD SWAP1 PUSH2 0x100 EXP SWAP1 DIV PUSH1 0xFF AND PUSH2 0x371 JUMPI PUSH1 0x40 MLOAD PUSH32 0x8C379A000000000000000000000000000000000000000000000000000000000 DUP2 MSTORE PUSH1 0x4 ADD PUSH2 0x368 SWAP1 PUSH2 0x1953 JUMP JUMPDEST PUSH1 0x40 MLOAD DUP1 SWAP2 SUB SWAP1 REVERT JUMPDEST PUSH1 0x0 PUSH1 0x4 PUSH1 0x0 PUSH1 0x3 SLOAD DUP2 MSTORE PUSH1 0x20 ADD SWAP1 DUP2 MSTORE PUSH1 0x20 ADD PUSH1 0x0 KECCAK256 SWAP1 POP DUP6 DUP2 PUSH1 0x0 ADD SWAP1 DUP2 PUSH2 0x39B SWAP2 SWAP1 PUSH2 0x1B75 JUMP JUMPDEST POP DUP5 DUP2 PUSH1 0x1 ADD DUP2 SWAP1 SSTORE POP DUP4 DUP2 PUSH1 0x2 ADD DUP2 SWAP1 SSTORE POP DUP3 DUP2 PUSH1 0x3 ADD DUP2 SWAP1 SSTORE POP DUP2 DUP2 PUSH1 0x4 ADD PUSH1 0x0 PUSH2 0x100 EXP DUP2 SLOAD DUP2 PUSH20 0xFFFFFFFFFFFFFFFFFFFFFFFFFFFFFFFFFFFFFFFF MUL NOT AND SWAP1 DUP4 PUSH20 0xFFFFFFFFFFFFFFFFFFFFFFFFFFFFFFFFFFFFFFFF AND MUL OR SWAP1 SSTORE POP PUSH1 0x1 DUP2 PUSH1 0x4 ADD PUSH1 0x14 PUSH2 0x100 EXP DUP2 SLOAD DUP2 PUSH1 0xFF MUL NOT AND SWAP1 DUP4 ISZERO ISZERO MUL OR SWAP1 SSTORE POP PUSH1 0x3 PUSH1 0x0 DUP2 SLOAD DUP1 SWAP3 SWAP2 SWAP1 PUSH1 0x1 ADD SWAP2 SWAP1 POP SSTORE POP PUSH1 0x1 PUSH1 0x0 SWAP1 SLOAD SWAP1 PUSH2 0x100 EXP SWAP1 DIV PUSH20 0xFFFFFFFFFFFFFFFFFFFFFFFFFFFFFFFFFFFFFFFF AND PUSH20 0xFFFFFFFFFFFFFFFFFFFFFFFFFFFFFFFFFFFFFFFF AND PUSH4 0x40C10F19 DUP3 PUSH1 0x4 ADD PUSH1 0x0 SWAP1 SLOAD SWAP1 PUSH2 0x100 EXP SWAP1 DIV PUSH20 0xFFFFFFFFFFFFFFFFFFFFFFFFFFFFFFFFFFFFFFFF AND DUP4 PUSH1 0x1 ADD SLOAD PUSH1 0x40 MLOAD DUP4 PUSH4 0xFFFFFFFF AND PUSH1 0xE0 SHL DUP2 MSTORE PUSH1 0x4 ADD PUSH2 0x4AE SWAP3 SWAP2 SWAP1 PUSH2 0x1C47 JUMP JUMPDEST PUSH1 0x0 PUSH1 0x40 MLOAD DUP1 DUP4 SUB DUP2 PUSH1 0x0 DUP8 DUP1 EXTCODESIZE ISZERO DUP1 ISZERO PUSH2 0x4C8 JUMPI PUSH1 0x0 DUP1 REVERT JUMPDEST POP GAS CALL ISZERO DUP1 ISZERO PUSH2 0x4DC JUMPI RETURNDATASIZE PUSH1 0x0 DUP1 RETURNDATACOPY RETURNDATASIZE PUSH1 0x0 REVERT JUMPDEST POP POP POP POP DUP2 PUSH20 0xFFFFFFFFFFFFFFFFFFFFFFFFFFFFFFFFFFFFFFFF AND DUP7 PUSH1 0x40 MLOAD PUSH2 0x505 SWAP2 SWAP1 PUSH2 0x1CAC JUMP JUMPDEST PUSH1 0x40 MLOAD DUP1 SWAP2 SUB SWAP1 KECCAK256 PUSH32 0xE67918E2EBFA86773AD1D6EB76D22FB813C41AC83EE857B3220B45F10E2AD7DF DUP8 DUP8 DUP8 PUSH1 0x40 MLOAD PUSH2 0x540 SWAP4 SWAP3 SWAP2 SWAP1 PUSH2 0x1CC3 JUMP JUMPDEST PUSH1 0x40 MLOAD DUP1 SWAP2 SUB SWAP1 LOG3 POP POP POP POP POP POP JUMP JUMPDEST PUSH1 0x4 PUSH1 0x20 MSTORE DUP1 PUSH1 0x0 MSTORE PUSH1 0x40 PUSH1 0x0 KECCAK256 PUSH1 0x0 SWAP2 POP SWAP1 POP DUP1 PUSH1 0x0 ADD DUP1 SLOAD PUSH2 0x573 SWAP1 PUSH2 0x19A2 JUMP JUMPDEST DUP1 PUSH1 0x1F ADD PUSH1 0x20 DUP1 SWAP2 DIV MUL PUSH1 0x20 ADD PUSH1 0x40 MLOAD SWAP1 DUP2 ADD PUSH1 0x40 MSTORE DUP1 SWAP3 SWAP2 SWAP1 DUP2 DUP2 MSTORE PUSH1 0x20 ADD DUP3 DUP1 SLOAD PUSH2 0x59F SWAP1 PUSH2 0x19A2 JUMP JUMPDEST DUP1 ISZERO PUSH2 0x5EC JUMPI DUP1 PUSH1 0x1F LT PUSH2 0x5C1 JUMPI PUSH2 0x100 DUP1 DUP4 SLOAD DIV MUL DUP4 MSTORE SWAP2 PUSH1 0x20 ADD SWAP2 PUSH2 0x5EC JUMP JUMPDEST DUP3 ADD SWAP2 SWAP1 PUSH1 0x0 MSTORE PUSH1 0x20 PUSH1 0x0 KECCAK256 SWAP1 JUMPDEST DUP2 SLOAD DUP2 MSTORE SWAP1 PUSH1 0x1 ADD SWAP1 PUSH1 0x20 ADD DUP1 DUP4 GT PUSH2 0x5CF JUMPI DUP3 SWAP1 SUB PUSH1 0x1F AND DUP3 ADD SWAP2 JUMPDEST POP POP POP POP POP SWAP1 DUP1 PUSH1 0x1 ADD SLOAD SWAP1 DUP1 PUSH1 0x2 ADD SLOAD SWAP1 DUP1 PUSH1 0x3 ADD SLOAD SWAP1 DUP1 PUSH1 0x4 ADD PUSH1 0x0 SWAP1 SLOAD SWAP1 PUSH2 0x100 EXP SWAP1 DIV PUSH20 0xFFFFFFFFFFFFFFFFFFFFFFFFFFFFFFFFFFFFFFFF AND SWAP1 DUP1 PUSH1 0x4 ADD PUSH1 0x14 SWAP1 SLOAD SWAP1 PUSH2 0x100 EXP SWAP1 DIV PUSH1 0xFF AND SWAP1 POP DUP7 JUMP JUMPDEST PUSH1 0x60 PUSH1 0x0 PUSH1 0x3 SLOAD PUSH8 0xFFFFFFFFFFFFFFFF DUP2 GT ISZERO PUSH2 0x661 JUMPI PUSH2 0x660 PUSH2 0x1190 JUMP JUMPDEST JUMPDEST PUSH1 0x40 MLOAD SWAP1 DUP1 DUP3 MSTORE DUP1 PUSH1 0x20 MUL PUSH1 0x20 ADD DUP3 ADD PUSH1 0x40 MSTORE DUP1 ISZERO PUSH2 0x69A JUMPI DUP2 PUSH1 0x20 ADD JUMPDEST PUSH2 0x687 PUSH2 0x1052 JUMP JUMPDEST DUP2 MSTORE PUSH1 0x20 ADD SWAP1 PUSH1 0x1 SWAP1 SUB SWAP1 DUP2 PUSH2 0x67F JUMPI SWAP1 POP JUMPDEST POP SWAP1 POP PUSH1 0x0 JUMPDEST PUSH1 0x3 SLOAD DUP2 LT ISZERO PUSH2 0x6F5 JUMPI PUSH1 0x0 PUSH2 0x6B5 DUP3 PUSH2 0xA5F JUMP JUMPDEST SWAP1 POP DUP1 PUSH1 0xA0 ADD MLOAD ISZERO PUSH2 0x6E1 JUMPI DUP1 DUP4 DUP4 DUP2 MLOAD DUP2 LT PUSH2 0x6D5 JUMPI PUSH2 0x6D4 PUSH2 0x1CFA JUMP JUMPDEST JUMPDEST PUSH1 0x20 MUL PUSH1 0x20 ADD ADD DUP2 SWAP1 MSTORE POP JUMPDEST POP DUP1 DUP1 PUSH2 0x6ED SWAP1 PUSH2 0x1D58 JUMP JUMPDEST SWAP2 POP POP PUSH2 0x6A0 JUMP JUMPDEST POP DUP1 SWAP2 POP POP SWAP1 JUMP JUMPDEST PUSH2 0x705 PUSH2 0xF08 JUMP JUMPDEST DUP1 PUSH1 0x5 PUSH1 0x0 DUP5 PUSH20 0xFFFFFFFFFFFFFFFFFFFFFFFFFFFFFFFFFFFFFFFF AND PUSH20 0xFFFFFFFFFFFFFFFFFFFFFFFFFFFFFFFFFFFFFFFF AND DUP2 MSTORE PUSH1 0x20 ADD SWAP1 DUP2 MSTORE PUSH1 0x20 ADD PUSH1 0x0 KECCAK256 PUSH1 0x0 PUSH2 0x100 EXP DUP2 SLOAD DUP2 PUSH1 0xFF MUL NOT AND SWAP1 DUP4 ISZERO ISZERO MUL OR SWAP1 SSTORE POP POP POP JUMP JUMPDEST PUSH1 0x2 PUSH1 0x0 SWAP1 SLOAD SWAP1 PUSH2 0x100 EXP SWAP1 DIV PUSH20 0xFFFFFFFFFFFFFFFFFFFFFFFFFFFFFFFFFFFFFFFF AND DUP2 JUMP JUMPDEST PUSH2 0x78E PUSH2 0xF08 JUMP JUMPDEST PUSH2 0x798 PUSH1 0x0 PUSH2 0xF86 JUMP JUMPDEST JUMP JUMPDEST PUSH1 0x3 SLOAD DUP2 JUMP JUMPDEST PUSH1 0x0 DUP1 PUSH1 0x0 SWAP1 SLOAD SWAP1 PUSH2 0x100 EXP SWAP1 DIV PUSH20 0xFFFFFFFFFFFFFFFFFFFFFFFFFFFFFFFFFFFFFFFF AND SWAP1 POP SWAP1 JUMP JUMPDEST PUSH1 0x0 PUSH2 0x7D3 PUSH2 0x641 JUMP JUMPDEST SWAP1 POP PUSH1 0x0 JUMPDEST DUP2 MLOAD DUP2 LT ISZERO PUSH2 0xA35 JUMPI PUSH1 0x0 PUSH1 0x1 PUSH1 0x0 SWAP1 SLOAD SWAP1 PUSH2 0x100 EXP SWAP1 DIV PUSH20 0xFFFFFFFFFFFFFFFFFFFFFFFFFFFFFFFFFFFFFFFF AND PUSH20 0xFFFFFFFFFFFFFFFFFFFFFFFFFFFFFFFFFFFFFFFF AND PUSH4 0x70A08231 DUP5 DUP5 DUP2 MLOAD DUP2 LT PUSH2 0x834 JUMPI PUSH2 0x833 PUSH2 0x1CFA JUMP JUMPDEST JUMPDEST PUSH1 0x20 MUL PUSH1 0x20 ADD ADD MLOAD PUSH1 0x80 ADD MLOAD PUSH1 0x40 MLOAD DUP3 PUSH4 0xFFFFFFFF AND PUSH1 0xE0 SHL DUP2 MSTORE PUSH1 0x4 ADD PUSH2 0x85C SWAP2 SWAP1 PUSH2 0x179F JUMP JUMPDEST PUSH1 0x20 PUSH1 0x40 MLOAD DUP1 DUP4 SUB DUP2 DUP7 GAS STATICCALL ISZERO DUP1 ISZERO PUSH2 0x879 JUMPI RETURNDATASIZE PUSH1 0x0 DUP1 RETURNDATACOPY RETURNDATASIZE PUSH1 0x0 REVERT JUMPDEST POP POP POP POP PUSH1 0x40 MLOAD RETURNDATASIZE PUSH1 0x1F NOT PUSH1 0x1F DUP3 ADD AND DUP3 ADD DUP1 PUSH1 0x40 MSTORE POP DUP2 ADD SWAP1 PUSH2 0x89D SWAP2 SWAP1 PUSH2 0x1DB5 JUMP JUMPDEST SWAP1 POP PUSH1 0x0 PUSH1 0x1 PUSH1 0x0 SWAP1 SLOAD SWAP1 PUSH2 0x100 EXP SWAP1 DIV PUSH20 0xFFFFFFFFFFFFFFFFFFFFFFFFFFFFFFFFFFFFFFFF AND PUSH20 0xFFFFFFFFFFFFFFFFFFFFFFFFFFFFFFFFFFFFFFFF AND PUSH4 0x962D2809 DUP6 DUP6 DUP2 MLOAD DUP2 LT PUSH2 0x8F2 JUMPI PUSH2 0x8F1 PUSH2 0x1CFA JUMP JUMPDEST JUMPDEST PUSH1 0x20 MUL PUSH1 0x20 ADD ADD MLOAD PUSH1 0x20 ADD MLOAD PUSH1 0x40 MLOAD DUP3 PUSH4 0xFFFFFFFF AND PUSH1 0xE0 SHL DUP2 MSTORE PUSH1 0x4 ADD PUSH2 0x91A SWAP2 SWAP1 PUSH2 0x1784 JUMP JUMPDEST PUSH1 0x20 PUSH1 0x40 MLOAD DUP1 DUP4 SUB DUP2 PUSH1 0x0 DUP8 GAS CALL ISZERO DUP1 ISZERO PUSH2 0x939 JUMPI RETURNDATASIZE PUSH1 0x0 DUP1 RETURNDATACOPY RETURNDATASIZE PUSH1 0x0 REVERT JUMPDEST POP POP POP POP PUSH1 0x40 MLOAD RETURNDATASIZE PUSH1 0x1F NOT PUSH1 0x1F DUP3 ADD AND DUP3 ADD DUP1 PUSH1 0x40 MSTORE POP DUP2 ADD SWAP1 PUSH2 0x95D SWAP2 SWAP1 PUSH2 0x1DB5 JUMP JUMPDEST SWAP1 POP DUP1 DUP3 LT ISZERO PUSH2 0xA20 JUMPI PUSH1 0x1 PUSH1 0x0 SWAP1 SLOAD SWAP1 PUSH2 0x100 EXP SWAP1 DIV PUSH20 0xFFFFFFFFFFFFFFFFFFFFFFFFFFFFFFFFFFFFFFFF AND PUSH20 0xFFFFFFFFFFFFFFFFFFFFFFFFFFFFFFFFFFFFFFFF AND PUSH4 0x56407455 DUP6 DUP6 DUP2 MLOAD DUP2 LT PUSH2 0x9B8 JUMPI PUSH2 0x9B7 PUSH2 0x1CFA JUMP JUMPDEST JUMPDEST PUSH1 0x20 MUL PUSH1 0x20 ADD ADD MLOAD PUSH1 0x80 ADD MLOAD DUP5 DUP5 PUSH2 0x9D0 SWAP2 SWAP1 PUSH2 0x1DE2 JUMP JUMPDEST PUSH1 0x40 MLOAD DUP4 PUSH4 0xFFFFFFFF AND PUSH1 0xE0 SHL DUP2 MSTORE PUSH1 0x4 ADD PUSH2 0x9ED SWAP3 SWAP2 SWAP1 PUSH2 0x1C47 JUMP JUMPDEST PUSH1 0x0 PUSH1 0x40 MLOAD DUP1 DUP4 SUB DUP2 PUSH1 0x0 DUP8 DUP1 EXTCODESIZE ISZERO DUP1 ISZERO PUSH2 0xA07 JUMPI PUSH1 0x0 DUP1 REVERT JUMPDEST POP GAS CALL ISZERO DUP1 ISZERO PUSH2 0xA1B JUMPI RETURNDATASIZE PUSH1 0x0 DUP1 RETURNDATACOPY RETURNDATASIZE PUSH1 0x0 REVERT JUMPDEST POP POP POP POP JUMPDEST POP POP DUP1 DUP1 PUSH2 0xA2D SWAP1 PUSH2 0x1D58 JUMP JUMPDEST SWAP2 POP POP PUSH2 0x7D8 JUMP JUMPDEST POP POP JUMP JUMPDEST PUSH1 0x1 PUSH1 0x0 SWAP1 SLOAD SWAP1 PUSH2 0x100 EXP SWAP1 DIV PUSH20 0xFFFFFFFFFFFFFFFFFFFFFFFFFFFFFFFFFFFFFFFF AND DUP2 JUMP JUMPDEST PUSH2 0xA67 PUSH2 0x1052 JUMP JUMPDEST PUSH1 0x0 PUSH1 0x4 PUSH1 0x0 DUP5 DUP2 MSTORE PUSH1 0x20 ADD SWAP1 DUP2 MSTORE PUSH1 0x20 ADD PUSH1 0x0 KECCAK256 SWAP1 POP DUP1 PUSH1 0x40 MLOAD DUP1 PUSH1 0xC0 ADD PUSH1 0x40 MSTORE SWAP1 DUP2 PUSH1 0x0 DUP3 ADD DUP1 SLOAD PUSH2 0xA9A SWAP1 PUSH2 0x19A2 JUMP JUMPDEST DUP1 PUSH1 0x1F ADD PUSH1 0x20 DUP1 SWAP2 DIV MUL PUSH1 0x20 ADD PUSH1 0x40 MLOAD SWAP1 DUP2 ADD PUSH1 0x40 MSTORE DUP1 SWAP3 SWAP2 SWAP1 DUP2 DUP2 MSTORE PUSH1 0x20 ADD DUP3 DUP1 SLOAD PUSH2 0xAC6 SWAP1 PUSH2 0x19A2 JUMP JUMPDEST DUP1 ISZERO PUSH2 0xB13 JUMPI DUP1 PUSH1 0x1F LT PUSH2 0xAE8 JUMPI PUSH2 0x100 DUP1 DUP4 SLOAD DIV MUL DUP4 MSTORE SWAP2 PUSH1 0x20 ADD SWAP2 PUSH2 0xB13 JUMP JUMPDEST DUP3 ADD SWAP2 SWAP1 PUSH1 0x0 MSTORE PUSH1 0x20 PUSH1 0x0 KECCAK256 SWAP1 JUMPDEST DUP2 SLOAD DUP2 MSTORE SWAP1 PUSH1 0x1 ADD SWAP1 PUSH1 0x20 ADD DUP1 DUP4 GT PUSH2 0xAF6 JUMPI DUP3 SWAP1 SUB PUSH1 0x1F AND DUP3 ADD SWAP2 JUMPDEST POP POP POP POP POP DUP2 MSTORE PUSH1 0x20 ADD PUSH1 0x1 DUP3 ADD SLOAD DUP2 MSTORE PUSH1 0x20 ADD PUSH1 0x2 DUP3 ADD SLOAD DUP2 MSTORE PUSH1 0x20 ADD PUSH1 0x3 DUP3 ADD SLOAD DUP2 MSTORE PUSH1 0x20 ADD PUSH1 0x4 DUP3 ADD PUSH1 0x0 SWAP1 SLOAD SWAP1 PUSH2 0x100 EXP SWAP1 DIV PUSH20 0xFFFFFFFFFFFFFFFFFFFFFFFFFFFFFFFFFFFFFFFF AND PUSH20 0xFFFFFFFFFFFFFFFFFFFFFFFFFFFFFFFFFFFFFFFF AND PUSH20 0xFFFFFFFFFFFFFFFFFFFFFFFFFFFFFFFFFFFFFFFF AND DUP2 MSTORE PUSH1 0x20 ADD PUSH1 0x4 DUP3 ADD PUSH1 0x14 SWAP1 SLOAD SWAP1 PUSH2 0x100 EXP SWAP1 DIV PUSH1 0xFF AND ISZERO ISZERO ISZERO ISZERO DUP2 MSTORE POP POP SWAP2 POP POP SWAP2 SWAP1 POP JUMP JUMPDEST PUSH1 0x5 PUSH1 0x0 CALLER PUSH20 0xFFFFFFFFFFFFFFFFFFFFFFFFFFFFFFFFFFFFFFFF AND PUSH20 0xFFFFFFFFFFFFFFFFFFFFFFFFFFFFFFFFFFFFFFFF AND DUP2 MSTORE PUSH1 0x20 ADD SWAP1 DUP2 MSTORE PUSH1 0x20 ADD PUSH1 0x0 KECCAK256 PUSH1 0x0 SWAP1 SLOAD SWAP1 PUSH2 0x100 EXP SWAP1 DIV PUSH1 0xFF AND PUSH2 0xC3F JUMPI PUSH1 0x40 MLOAD PUSH32 0x8C379A000000000000000000000000000000000000000000000000000000000 DUP2 MSTORE PUSH1 0x4 ADD PUSH2 0xC36 SWAP1 PUSH2 0x1953 JUMP JUMPDEST PUSH1 0x40 MLOAD DUP1 SWAP2 SUB SWAP1 REVERT JUMPDEST PUSH1 0x3 SLOAD DUP3 GT ISZERO PUSH2 0xC84 JUMPI PUSH1 0x40 MLOAD PUSH32 0x8C379A000000000000000000000000000000000000000000000000000000000 DUP2 MSTORE PUSH1 0x4 ADD PUSH2 0xC7B SWAP1 PUSH2 0x1E62 JUMP JUMPDEST PUSH1 0x40 MLOAD DUP1 SWAP2 SUB SWAP1 REVERT JUMPDEST PUSH1 0x0 PUSH1 0x4 PUSH1 0x0 DUP5 DUP2 MSTORE PUSH1 0x20 ADD SWAP1 DUP2 MSTORE PUSH1 0x20 ADD PUSH1 0x0 KECCAK256 SWAP1 POP DUP2 DUP2 PUSH1 0x1 ADD DUP2 SWAP1 SSTORE POP PUSH32 0x1A10AE1A7477E7DFCCF5728F4CE8C0AA13F0A793496D84B02164FA4C91115C9 DUP4 DUP4 PUSH1 0x40 MLOAD PUSH2 0xCD5 SWAP3 SWAP2 SWAP1 PUSH2 0x1E82 JUMP JUMPDEST PUSH1 0x40 MLOAD DUP1 SWAP2 SUB SWAP1 LOG1 POP POP POP JUMP JUMPDEST PUSH1 0x5 PUSH1 0x0 CALLER PUSH20 0xFFFFFFFFFFFFFFFFFFFFFFFFFFFFFFFFFFFFFFFF AND PUSH20 0xFFFFFFFFFFFFFFFFFFFFFFFFFFFFFFFFFFFFFFFF AND DUP2 MSTORE PUSH1 0x20 ADD SWAP1 DUP2 MSTORE PUSH1 0x20 ADD PUSH1 0x0 KECCAK256 PUSH1 0x0 SWAP1 SLOAD SWAP1 PUSH2 0x100 EXP SWAP1 DIV PUSH1 0xFF AND PUSH2 0xD6E JUMPI PUSH1 0x40 MLOAD PUSH32 0x8C379A000000000000000000000000000000000000000000000000000000000 DUP2 MSTORE PUSH1 0x4 ADD PUSH2 0xD65 SWAP1 PUSH2 0x1953 JUMP JUMPDEST PUSH1 0x40 MLOAD DUP1 SWAP2 SUB SWAP1 REVERT JUMPDEST PUSH1 0x3 SLOAD DUP2 GT ISZERO PUSH2 0xDB3 JUMPI PUSH1 0x40 MLOAD PUSH32 0x8C379A000000000000000000000000000000000000000000000000000000000 DUP2 MSTORE PUSH1 0x4 ADD PUSH2 0xDAA SWAP1 PUSH2 0x1E62 JUMP JUMPDEST PUSH1 0x40 MLOAD DUP1 SWAP2 SUB SWAP1 REVERT JUMPDEST PUSH1 0x0 PUSH1 0x4 PUSH1 0x0 DUP4 DUP2 MSTORE PUSH1 0x20 ADD SWAP1 DUP2 MSTORE PUSH1 0x20 ADD PUSH1 0x0 KECCAK256 SWAP1 POP PUSH1 0x0 DUP2 PUSH1 0x4 ADD PUSH1 0x14 PUSH2 0x100 EXP DUP2 SLOAD DUP2 PUSH1 0xFF MUL NOT AND SWAP1 DUP4 ISZERO ISZERO MUL OR SWAP1 SSTORE POP DUP1 PUSH1 0x4 ADD PUSH1 0x0 SWAP1 SLOAD SWAP1 PUSH2 0x100 EXP SWAP1 DIV PUSH20 0xFFFFFFFFFFFFFFFFFFFFFFFFFFFFFFFFFFFFFFFF AND PUSH20 0xFFFFFFFFFFFFFFFFFFFFFFFFFFFFFFFFFFFFFFFF AND PUSH32 0x1C887C9BD8E75DB22F26656B9571AFF01BF0A0538598BDCBE11E71B1206C4F65 DUP3 PUSH1 0x0 ADD DUP4 PUSH1 0x1 ADD SLOAD DUP5 PUSH1 0x2 ADD SLOAD DUP6 PUSH1 0x3 ADD SLOAD PUSH1 0x40 MLOAD PUSH2 0xE66 SWAP5 SWAP4 SWAP3 SWAP2 SWAP1 PUSH2 0x1F2F JUMP JUMPDEST PUSH1 0x40 MLOAD DUP1 SWAP2 SUB SWAP1 LOG2 PUSH1 0x3 PUSH1 0x0 DUP2 SLOAD DUP1 SWAP3 SWAP2 SWAP1 PUSH1 0x1 SWAP1 SUB SWAP2 SWAP1 POP SSTORE POP POP POP JUMP JUMPDEST PUSH2 0xE8D PUSH2 0xF08 JUMP JUMPDEST PUSH1 0x0 PUSH20 0xFFFFFFFFFFFFFFFFFFFFFFFFFFFFFFFFFFFFFFFF AND DUP2 PUSH20 0xFFFFFFFFFFFFFFFFFFFFFFFFFFFFFFFFFFFFFFFF AND SUB PUSH2 0xEFC JUMPI PUSH1 0x40 MLOAD PUSH32 0x8C379A000000000000000000000000000000000000000000000000000000000 DUP2 MSTORE PUSH1 0x4 ADD PUSH2 0xEF3 SWAP1 PUSH2 0x1FED JUMP JUMPDEST PUSH1 0x40 MLOAD DUP1 SWAP2 SUB SWAP1 REVERT JUMPDEST PUSH2 0xF05 DUP2 PUSH2 0xF86 JUMP JUMPDEST POP JUMP JUMPDEST PUSH2 0xF10 PUSH2 0x104A JUMP JUMPDEST PUSH20 0xFFFFFFFFFFFFFFFFFFFFFFFFFFFFFFFFFFFFFFFF AND PUSH2 0xF2E PUSH2 0x7A0 JUMP JUMPDEST PUSH20 0xFFFFFFFFFFFFFFFFFFFFFFFFFFFFFFFFFFFFFFFF AND EQ PUSH2 0xF84 JUMPI PUSH1 0x40 MLOAD PUSH32 0x8C379A000000000000000000000000000000000000000000000000000000000 DUP2 MSTORE PUSH1 0x4 ADD PUSH2 0xF7B SWAP1 PUSH2 0x2059 JUMP JUMPDEST PUSH1 0x40 MLOAD DUP1 SWAP2 SUB SWAP1 REVERT JUMPDEST JUMP JUMPDEST PUSH1 0x0 DUP1 PUSH1 0x0 SWAP1 SLOAD SWAP1 PUSH2 0x100 EXP SWAP1 DIV PUSH20 0xFFFFFFFFFFFFFFFFFFFFFFFFFFFFFFFFFFFFFFFF AND SWAP1 POP DUP2 PUSH1 0x0 DUP1 PUSH2 0x100 EXP DUP2 SLOAD DUP2 PUSH20 0xFFFFFFFFFFFFFFFFFFFFFFFFFFFFFFFFFFFFFFFF MUL NOT AND SWAP1 DUP4 PUSH20 0xFFFFFFFFFFFFFFFFFFFFFFFFFFFFFFFFFFFFFFFF AND MUL OR SWAP1 SSTORE POP DUP2 PUSH20 0xFFFFFFFFFFFFFFFFFFFFFFFFFFFFFFFFFFFFFFFF AND DUP2 PUSH20 0xFFFFFFFFFFFFFFFFFFFFFFFFFFFFFFFFFFFFFFFF AND PUSH32 0x8BE0079C531659141344CD1FD0A4F28419497F9722A3DAAFE3B4186F6B6457E0 PUSH1 0x40 MLOAD PUSH1 0x40 MLOAD DUP1 SWAP2 SUB SWAP1 LOG3 POP POP JUMP JUMPDEST PUSH1 0x0 CALLER SWAP1 POP SWAP1 JUMP JUMPDEST PUSH1 0x40 MLOAD DUP1 PUSH1 0xC0 ADD PUSH1 0x40 MSTORE DUP1 PUSH1 0x60 DUP2 MSTORE PUSH1 0x20 ADD PUSH1 0x0 DUP2 MSTORE PUSH1 0x20 ADD PUSH1 0x0 DUP2 MSTORE PUSH1 0x20 ADD PUSH1 0x0 DUP2 MSTORE PUSH1 0x20 ADD PUSH1 0x0 PUSH20 0xFFFFFFFFFFFFFFFFFFFFFFFFFFFFFFFFFFFFFFFF AND DUP2 MSTORE PUSH1 0x20 ADD PUSH1 0x0 ISZERO ISZERO DUP2 MSTORE POP SWAP1 JUMP JUMPDEST PUSH1 0x0 PUSH1 0x40 MLOAD SWAP1 POP SWAP1 JUMP JUMPDEST PUSH1 0x0 DUP1 REVERT JUMPDEST PUSH1 0x0 DUP1 REVERT JUMPDEST PUSH1 0x0 PUSH20 0xFFFFFFFFFFFFFFFFFFFFFFFFFFFFFFFFFFFFFFFF DUP3 AND SWAP1 POP SWAP2 SWAP1 POP JUMP JUMPDEST PUSH1 0x0 PUSH2 0x10DF DUP3 PUSH2 0x10B4 JUMP JUMPDEST SWAP1 POP SWAP2 SWAP1 POP JUMP JUMPDEST PUSH2 0x10EF DUP2 PUSH2 0x10D4 JUMP JUMPDEST DUP2 EQ PUSH2 0x10FA JUMPI PUSH1 0x0 DUP1 REVERT JUMPDEST POP JUMP JUMPDEST PUSH1 0x0 DUP2 CALLDATALOAD SWAP1 POP PUSH2 0x110C DUP2 PUSH2 0x10E6 JUMP JUMPDEST SWAP3 SWAP2 POP POP JUMP JUMPDEST PUSH1 0x0 PUSH1 0x20 DUP3 DUP5 SUB SLT ISZERO PUSH2 0x1128 JUMPI PUSH2 0x1127 PUSH2 0x10AA JUMP JUMPDEST JUMPDEST PUSH1 0x0 PUSH2 0x1136 DUP5 DUP3 DUP6 ADD PUSH2 0x10FD JUMP JUMPDEST SWAP2 POP POP SWAP3 SWAP2 POP POP JUMP JUMPDEST PUSH1 0x0 DUP2 ISZERO ISZERO SWAP1 POP SWAP2 SWAP1 POP JUMP JUMPDEST PUSH2 0x1154 DUP2 PUSH2 0x113F JUMP JUMPDEST DUP3 MSTORE POP POP JUMP JUMPDEST PUSH1 0x0 PUSH1 0x20 DUP3 ADD SWAP1 POP PUSH2 0x116F PUSH1 0x0 DUP4 ADD DUP5 PUSH2 0x114B JUMP JUMPDEST SWAP3 SWAP2 POP POP JUMP JUMPDEST PUSH1 0x0 DUP1 REVERT JUMPDEST PUSH1 0x0 DUP1 REVERT JUMPDEST PUSH1 0x0 PUSH1 0x1F NOT PUSH1 0x1F DUP4 ADD AND SWAP1 POP SWAP2 SWAP1 POP JUMP JUMPDEST PUSH32 0x4E487B7100000000000000000000000000000000000000000000000000000000 PUSH1 0x0 MSTORE PUSH1 0x41 PUSH1 0x4 MSTORE PUSH1 0x24 PUSH1 0x0 REVERT JUMPDEST PUSH2 0x11C8 DUP3 PUSH2 0x117F JUMP JUMPDEST DUP2 ADD DUP2 DUP2 LT PUSH8 0xFFFFFFFFFFFFFFFF DUP3 GT OR ISZERO PUSH2 0x11E7 JUMPI PUSH2 0x11E6 PUSH2 0x1190 JUMP JUMPDEST JUMPDEST DUP1 PUSH1 0x40 MSTORE POP POP POP JUMP JUMPDEST PUSH1 0x0 PUSH2 0x11FA PUSH2 0x10A0 JUMP JUMPDEST SWAP1 POP PUSH2 0x1206 DUP3 DUP3 PUSH2 0x11BF JUMP JUMPDEST SWAP2 SWAP1 POP JUMP JUMPDEST PUSH1 0x0 PUSH8 0xFFFFFFFFFFFFFFFF DUP3 GT ISZERO PUSH2 0x1226 JUMPI PUSH2 0x1225 PUSH2 0x1190 JUMP JUMPDEST JUMPDEST PUSH2 0x122F DUP3 PUSH2 0x117F JUMP JUMPDEST SWAP1 POP PUSH1 0x20 DUP2 ADD SWAP1 POP SWAP2 SWAP1 POP JUMP JUMPDEST DUP3 DUP2 DUP4 CALLDATACOPY PUSH1 0x0 DUP4 DUP4 ADD MSTORE POP POP POP JUMP JUMPDEST PUSH1 0x0 PUSH2 0x125E PUSH2 0x1259 DUP5 PUSH2 0x120B JUMP JUMPDEST PUSH2 0x11F0 JUMP JUMPDEST SWAP1 POP DUP3 DUP2 MSTORE PUSH1 0x20 DUP2 ADD DUP5 DUP5 DUP5 ADD GT ISZERO PUSH2 0x127A JUMPI PUSH2 0x1279 PUSH2 0x117A JUMP JUMPDEST JUMPDEST PUSH2 0x1285 DUP5 DUP3 DUP6 PUSH2 0x123C JUMP JUMPDEST POP SWAP4 SWAP3 POP POP POP JUMP JUMPDEST PUSH1 0x0 DUP3 PUSH1 0x1F DUP4 ADD SLT PUSH2 0x12A2 JUMPI PUSH2 0x12A1 PUSH2 0x1175 JUMP JUMPDEST JUMPDEST DUP2 CALLDATALOAD PUSH2 0x12B2 DUP5 DUP3 PUSH1 0x20 DUP7 ADD PUSH2 0x124B JUMP JUMPDEST SWAP2 POP POP SWAP3 SWAP2 POP POP JUMP JUMPDEST PUSH1 0x0 DUP2 SWAP1 POP SWAP2 SWAP1 POP JUMP JUMPDEST PUSH2 0x12CE DUP2 PUSH2 0x12BB JUMP JUMPDEST DUP2 EQ PUSH2 0x12D9 JUMPI PUSH1 0x0 DUP1 REVERT JUMPDEST POP JUMP JUMPDEST PUSH1 0x0 DUP2 CALLDATALOAD SWAP1 POP PUSH2 0x12EB DUP2 PUSH2 0x12C5 JUMP JUMPDEST SWAP3 SWAP2 POP POP JUMP JUMPDEST PUSH1 0x0 DUP1 PUSH1 0x0 DUP1 PUSH1 0x0 PUSH1 0xA0 DUP7 DUP9 SUB SLT ISZERO PUSH2 0x130D JUMPI PUSH2 0x130C PUSH2 0x10AA JUMP JUMPDEST JUMPDEST PUSH1 0x0 DUP7 ADD CALLDATALOAD PUSH8 0xFFFFFFFFFFFFFFFF DUP2 GT ISZERO PUSH2 0x132B JUMPI PUSH2 0x132A PUSH2 0x10AF JUMP JUMPDEST JUMPDEST PUSH2 0x1337 DUP9 DUP3 DUP10 ADD PUSH2 0x128D JUMP JUMPDEST SWAP6 POP POP PUSH1 0x20 PUSH2 0x1348 DUP9 DUP3 DUP10 ADD PUSH2 0x12DC JUMP JUMPDEST SWAP5 POP POP PUSH1 0x40 PUSH2 0x1359 DUP9 DUP3 DUP10 ADD PUSH2 0x12DC JUMP JUMPDEST SWAP4 POP POP PUSH1 0x60 PUSH2 0x136A DUP9 DUP3 DUP10 ADD PUSH2 0x12DC JUMP JUMPDEST SWAP3 POP POP PUSH1 0x80 PUSH2 0x137B DUP9 DUP3 DUP10 ADD PUSH2 0x10FD JUMP JUMPDEST SWAP2 POP POP SWAP3 SWAP6 POP SWAP3 SWAP6 SWAP1 SWAP4 POP JUMP JUMPDEST PUSH1 0x0 PUSH1 0x20 DUP3 DUP5 SUB SLT ISZERO PUSH2 0x139E JUMPI PUSH2 0x139D PUSH2 0x10AA JUMP JUMPDEST JUMPDEST PUSH1 0x0 PUSH2 0x13AC DUP5 DUP3 DUP6 ADD PUSH2 0x12DC JUMP JUMPDEST SWAP2 POP POP SWAP3 SWAP2 POP POP JUMP JUMPDEST PUSH1 0x0 DUP2 MLOAD SWAP1 POP SWAP2 SWAP1 POP JUMP JUMPDEST PUSH1 0x0 DUP3 DUP3 MSTORE PUSH1 0x20 DUP3 ADD SWAP1 POP SWAP3 SWAP2 POP POP JUMP JUMPDEST PUSH1 0x0 JUMPDEST DUP4 DUP2 LT ISZERO PUSH2 0x13EF JUMPI DUP1 DUP3 ADD MLOAD DUP2 DUP5 ADD MSTORE PUSH1 0x20 DUP2 ADD SWAP1 POP PUSH2 0x13D4 JUMP JUMPDEST PUSH1 0x0 DUP5 DUP5 ADD MSTORE POP POP POP POP JUMP JUMPDEST PUSH1 0x0 PUSH2 0x1406 DUP3 PUSH2 0x13B5 JUMP JUMPDEST PUSH2 0x1410 DUP2 DUP6 PUSH2 0x13C0 JUMP JUMPDEST SWAP4 POP PUSH2 0x1420 DUP2 DUP6 PUSH1 0x20 DUP7 ADD PUSH2 0x13D1 JUMP JUMPDEST PUSH2 0x1429 DUP2 PUSH2 0x117F JUMP JUMPDEST DUP5 ADD SWAP2 POP POP SWAP3 SWAP2 POP POP JUMP JUMPDEST PUSH2 0x143D DUP2 PUSH2 0x12BB JUMP JUMPDEST DUP3 MSTORE POP POP JUMP JUMPDEST PUSH2 0x144C DUP2 PUSH2 0x10D4 JUMP JUMPDEST DUP3 MSTORE POP POP JUMP JUMPDEST PUSH1 0x0 PUSH1 0xC0 DUP3 ADD SWAP1 POP DUP2 DUP2 SUB PUSH1 0x0 DUP4 ADD MSTORE PUSH2 0x146C DUP2 DUP10 PUSH2 0x13FB JUMP JUMPDEST SWAP1 POP PUSH2 0x147B PUSH1 0x20 DUP4 ADD DUP9 PUSH2 0x1434 JUMP JUMPDEST PUSH2 0x1488 PUSH1 0x40 DUP4 ADD DUP8 PUSH2 0x1434 JUMP JUMPDEST PUSH2 0x1495 PUSH1 0x60 DUP4 ADD DUP7 PUSH2 0x1434 JUMP JUMPDEST PUSH2 0x14A2 PUSH1 0x80 DUP4 ADD DUP6 PUSH2 0x1443 JUMP JUMPDEST PUSH2 0x14AF PUSH1 0xA0 DUP4 ADD DUP5 PUSH2 0x114B JUMP JUMPDEST SWAP8 SWAP7 POP POP POP POP POP POP POP JUMP JUMPDEST PUSH1 0x0 DUP2 MLOAD SWAP1 POP SWAP2 SWAP1 POP JUMP JUMPDEST PUSH1 0x0 DUP3 DUP3 MSTORE PUSH1 0x20 DUP3 ADD SWAP1 POP SWAP3 SWAP2 POP POP JUMP JUMPDEST PUSH1 0x0 DUP2 SWAP1 POP PUSH1 0x20 DUP3 ADD SWAP1 POP SWAP2 SWAP1 POP JUMP JUMPDEST PUSH1 0x0 DUP3 DUP3 MSTORE PUSH1 0x20 DUP3 ADD SWAP1 POP SWAP3 SWAP2 POP POP JUMP JUMPDEST PUSH1 0x0 PUSH2 0x1502 DUP3 PUSH2 0x13B5 JUMP JUMPDEST PUSH2 0x150C DUP2 DUP6 PUSH2 0x14E6 JUMP JUMPDEST SWAP4 POP PUSH2 0x151C DUP2 DUP6 PUSH1 0x20 DUP7 ADD PUSH2 0x13D1 JUMP JUMPDEST PUSH2 0x1525 DUP2 PUSH2 0x117F JUMP JUMPDEST DUP5 ADD SWAP2 POP POP SWAP3 SWAP2 POP POP JUMP JUMPDEST PUSH2 0x1539 DUP2 PUSH2 0x12BB JUMP JUMPDEST DUP3 MSTORE POP POP JUMP JUMPDEST PUSH2 0x1548 DUP2 PUSH2 0x10D4 JUMP JUMPDEST DUP3 MSTORE POP POP JUMP JUMPDEST PUSH2 0x1557 DUP2 PUSH2 0x113F JUMP JUMPDEST DUP3 MSTORE POP POP JUMP JUMPDEST PUSH1 0x0 PUSH1 0xC0 DUP4 ADD PUSH1 0x0 DUP4 ADD MLOAD DUP5 DUP3 SUB PUSH1 0x0 DUP7 ADD MSTORE PUSH2 0x157A DUP3 DUP3 PUSH2 0x14F7 JUMP JUMPDEST SWAP2 POP POP PUSH1 0x20 DUP4 ADD MLOAD PUSH2 0x158F PUSH1 0x20 DUP7 ADD DUP3 PUSH2 0x1530 JUMP JUMPDEST POP PUSH1 0x40 DUP4 ADD MLOAD PUSH2 0x15A2 PUSH1 0x40 DUP7 ADD DUP3 PUSH2 0x1530 JUMP JUMPDEST POP PUSH1 0x60 DUP4 ADD MLOAD PUSH2 0x15B5 PUSH1 0x60 DUP7 ADD DUP3 PUSH2 0x1530 JUMP JUMPDEST POP PUSH1 0x80 DUP4 ADD MLOAD PUSH2 0x15C8 PUSH1 0x80 DUP7 ADD DUP3 PUSH2 0x153F JUMP JUMPDEST POP PUSH1 0xA0 DUP4 ADD MLOAD PUSH2 0x15DB PUSH1 0xA0 DUP7 ADD DUP3 PUSH2 0x154E JUMP JUMPDEST POP DUP1 SWAP2 POP POP SWAP3 SWAP2 POP POP JUMP JUMPDEST PUSH1 0x0 PUSH2 0x15F2 DUP4 DUP4 PUSH2 0x155D JUMP JUMPDEST SWAP1 POP SWAP3 SWAP2 POP POP JUMP JUMPDEST PUSH1 0x0 PUSH1 0x20 DUP3 ADD SWAP1 POP SWAP2 SWAP1 POP JUMP JUMPDEST PUSH1 0x0 PUSH2 0x1612 DUP3 PUSH2 0x14BA JUMP JUMPDEST PUSH2 0x161C DUP2 DUP6 PUSH2 0x14C5 JUMP JUMPDEST SWAP4 POP DUP4 PUSH1 0x20 DUP3 MUL DUP6 ADD PUSH2 0x162E DUP6 PUSH2 0x14D6 JUMP JUMPDEST DUP1 PUSH1 0x0 JUMPDEST DUP6 DUP2 LT ISZERO PUSH2 0x166A JUMPI DUP5 DUP5 SUB DUP10 MSTORE DUP2 MLOAD PUSH2 0x164B DUP6 DUP3 PUSH2 0x15E6 JUMP JUMPDEST SWAP5 POP PUSH2 0x1656 DUP4 PUSH2 0x15FA JUMP JUMPDEST SWAP3 POP PUSH1 0x20 DUP11 ADD SWAP10 POP POP PUSH1 0x1 DUP2 ADD SWAP1 POP PUSH2 0x1632 JUMP JUMPDEST POP DUP3 SWAP8 POP DUP8 SWAP6 POP POP POP POP POP POP SWAP3 SWAP2 POP POP JUMP JUMPDEST PUSH1 0x0 PUSH1 0x20 DUP3 ADD SWAP1 POP DUP2 DUP2 SUB PUSH1 0x0 DUP4 ADD MSTORE PUSH2 0x1696 DUP2 DUP5 PUSH2 0x1607 JUMP JUMPDEST SWAP1 POP SWAP3 SWAP2 POP POP JUMP JUMPDEST PUSH2 0x16A7 DUP2 PUSH2 0x113F JUMP JUMPDEST DUP2 EQ PUSH2 0x16B2 JUMPI PUSH1 0x0 DUP1 REVERT JUMPDEST POP JUMP JUMPDEST PUSH1 0x0 DUP2 CALLDATALOAD SWAP1 POP PUSH2 0x16C4 DUP2 PUSH2 0x169E JUMP JUMPDEST SWAP3 SWAP2 POP POP JUMP JUMPDEST PUSH1 0x0 DUP1 PUSH1 0x40 DUP4 DUP6 SUB SLT ISZERO PUSH2 0x16E1 JUMPI PUSH2 0x16E0 PUSH2 0x10AA JUMP JUMPDEST JUMPDEST PUSH1 0x0 PUSH2 0x16EF DUP6 DUP3 DUP7 ADD PUSH2 0x10FD JUMP JUMPDEST SWAP3 POP POP PUSH1 0x20 PUSH2 0x1700 DUP6 DUP3 DUP7 ADD PUSH2 0x16B5 JUMP JUMPDEST SWAP2 POP POP SWAP3 POP SWAP3 SWAP1 POP JUMP JUMPDEST PUSH1 0x0 DUP2 SWAP1 POP SWAP2 SWAP1 POP JUMP JUMPDEST PUSH1 0x0 PUSH2 0x172F PUSH2 0x172A PUSH2 0x1725 DUP5 PUSH2 0x10B4 JUMP JUMPDEST PUSH2 0x170A JUMP JUMPDEST PUSH2 0x10B4 JUMP JUMPDEST SWAP1 POP SWAP2 SWAP1 POP JUMP JUMPDEST PUSH1 0x0 PUSH2 0x1741 DUP3 PUSH2 0x1714 JUMP JUMPDEST SWAP1 POP SWAP2 SWAP1 POP JUMP JUMPDEST PUSH1 0x0 PUSH2 0x1753 DUP3 PUSH2 0x1736 JUMP JUMPDEST SWAP1 POP SWAP2 SWAP1 POP JUMP JUMPDEST PUSH2 0x1763 DUP2 PUSH2 0x1748 JUMP JUMPDEST DUP3 MSTORE POP POP JUMP JUMPDEST PUSH1 0x0 PUSH1 0x20 DUP3 ADD SWAP1 POP PUSH2 0x177E PUSH1 0x0 DUP4 ADD DUP5 PUSH2 0x175A JUMP JUMPDEST SWAP3 SWAP2 POP POP JUMP JUMPDEST PUSH1 0x0 PUSH1 0x20 DUP3 ADD SWAP1 POP PUSH2 0x1799 PUSH1 0x0 DUP4 ADD DUP5 PUSH2 0x1434 JUMP JUMPDEST SWAP3 SWAP2 POP POP JUMP JUMPDEST PUSH1 0x0 PUSH1 0x20 DUP3 ADD SWAP1 POP PUSH2 0x17B4 PUSH1 0x0 DUP4 ADD DUP5 PUSH2 0x1443 JUMP JUMPDEST SWAP3 SWAP2 POP POP JUMP JUMPDEST PUSH1 0x0 PUSH2 0x17C5 DUP3 PUSH2 0x1736 JUMP JUMPDEST SWAP1 POP SWAP2 SWAP1 POP JUMP JUMPDEST PUSH2 0x17D5 DUP2 PUSH2 0x17BA JUMP JUMPDEST DUP3 MSTORE POP POP JUMP JUMPDEST PUSH1 0x0 PUSH1 0x20 DUP3 ADD SWAP1 POP PUSH2 0x17F0 PUSH1 0x0 DUP4 ADD DUP5 PUSH2 0x17CC JUMP JUMPDEST SWAP3 SWAP2 POP POP JUMP JUMPDEST PUSH1 0x0 PUSH1 0xC0 DUP4 ADD PUSH1 0x0 DUP4 ADD MLOAD DUP5 DUP3 SUB PUSH1 0x0 DUP7 ADD MSTORE PUSH2 0x1813 DUP3 DUP3 PUSH2 0x14F7 JUMP JUMPDEST SWAP2 POP POP PUSH1 0x20 DUP4 ADD MLOAD PUSH2 0x1828 PUSH1 0x20 DUP7 ADD DUP3 PUSH2 0x1530 JUMP JUMPDEST POP PUSH1 0x40 DUP4 ADD MLOAD PUSH2 0x183B PUSH1 0x40 DUP7 ADD DUP3 PUSH2 0x1530 JUMP JUMPDEST POP PUSH1 0x60 DUP4 ADD MLOAD PUSH2 0x184E PUSH1 0x60 DUP7 ADD DUP3 PUSH2 0x1530 JUMP JUMPDEST POP PUSH1 0x80 DUP4 ADD MLOAD PUSH2 0x1861 PUSH1 0x80 DUP7 ADD DUP3 PUSH2 0x153F JUMP JUMPDEST POP PUSH1 0xA0 DUP4 ADD MLOAD PUSH2 0x1874 PUSH1 0xA0 DUP7 ADD DUP3 PUSH2 0x154E JUMP JUMPDEST POP DUP1 SWAP2 POP POP SWAP3 SWAP2 POP POP JUMP JUMPDEST PUSH1 0x0 PUSH1 0x20 DUP3 ADD SWAP1 POP DUP2 DUP2 SUB PUSH1 0x0 DUP4 ADD MSTORE PUSH2 0x1899 DUP2 DUP5 PUSH2 0x17F6 JUMP JUMPDEST SWAP1 POP SWAP3 SWAP2 POP POP JUMP JUMPDEST PUSH1 0x0 DUP1 PUSH1 0x40 DUP4 DUP6 SUB SLT ISZERO PUSH2 0x18B8 JUMPI PUSH2 0x18B7 PUSH2 0x10AA JUMP JUMPDEST JUMPDEST PUSH1 0x0 PUSH2 0x18C6 DUP6 DUP3 DUP7 ADD PUSH2 0x12DC JUMP JUMPDEST SWAP3 POP POP PUSH1 0x20 PUSH2 0x18D7 DUP6 DUP3 DUP7 ADD PUSH2 0x12DC JUMP JUMPDEST SWAP2 POP POP SWAP3 POP SWAP3 SWAP1 POP JUMP JUMPDEST PUSH32 0x4F6E6C7920416D696E732063616E2063616C6C20746869732066756E6374696F PUSH1 0x0 DUP3 ADD MSTORE PUSH32 0x6E00000000000000000000000000000000000000000000000000000000000000 PUSH1 0x20 DUP3 ADD MSTORE POP JUMP JUMPDEST PUSH1 0x0 PUSH2 0x193D PUSH1 0x21 DUP4 PUSH2 0x13C0 JUMP JUMPDEST SWAP2 POP PUSH2 0x1948 DUP3 PUSH2 0x18E1 JUMP JUMPDEST PUSH1 0x40 DUP3 ADD SWAP1 POP SWAP2 SWAP1 POP JUMP JUMPDEST PUSH1 0x0 PUSH1 0x20 DUP3 ADD SWAP1 POP DUP2 DUP2 SUB PUSH1 0x0 DUP4 ADD MSTORE PUSH2 0x196C DUP2 PUSH2 0x1930 JUMP JUMPDEST SWAP1 POP SWAP2 SWAP1 POP JUMP JUMPDEST PUSH32 0x4E487B7100000000000000000000000000000000000000000000000000000000 PUSH1 0x0 MSTORE PUSH1 0x22 PUSH1 0x4 MSTORE PUSH1 0x24 PUSH1 0x0 REVERT JUMPDEST PUSH1 0x0 PUSH1 0x2 DUP3 DIV SWAP1 POP PUSH1 0x1 DUP3 AND DUP1 PUSH2 0x19BA JUMPI PUSH1 0x7F DUP3 AND SWAP2 POP JUMPDEST PUSH1 0x20 DUP3 LT DUP2 SUB PUSH2 0x19CD JUMPI PUSH2 0x19CC PUSH2 0x1973 JUMP JUMPDEST JUMPDEST POP SWAP2 SWAP1 POP JUMP JUMPDEST PUSH1 0x0 DUP2 SWAP1 POP DUP2 PUSH1 0x0 MSTORE PUSH1 0x20 PUSH1 0x0 KECCAK256 SWAP1 POP SWAP2 SWAP1 POP JUMP JUMPDEST PUSH1 0x0 PUSH1 0x20 PUSH1 0x1F DUP4 ADD DIV SWAP1 POP SWAP2 SWAP1 POP JUMP JUMPDEST PUSH1 0x0 DUP3 DUP3 SHL SWAP1 POP SWAP3 SWAP2 POP POP JUMP JUMPDEST PUSH1 0x0 PUSH1 0x8 DUP4 MUL PUSH2 0x1A35 PUSH32 0xFFFFFFFFFFFFFFFFFFFFFFFFFFFFFFFFFFFFFFFFFFFFFFFFFFFFFFFFFFFFFFFF DUP3 PUSH2 0x19F8 JUMP JUMPDEST PUSH2 0x1A3F DUP7 DUP4 PUSH2 0x19F8 JUMP JUMPDEST SWAP6 POP DUP1 NOT DUP5 AND SWAP4 POP DUP1 DUP7 AND DUP5 OR SWAP3 POP POP POP SWAP4 SWAP3 POP POP POP JUMP JUMPDEST PUSH1 0x0 PUSH2 0x1A72 PUSH2 0x1A6D PUSH2 0x1A68 DUP5 PUSH2 0x12BB JUMP JUMPDEST PUSH2 0x170A JUMP JUMPDEST PUSH2 0x12BB JUMP JUMPDEST SWAP1 POP SWAP2 SWAP1 POP JUMP JUMPDEST PUSH1 0x0 DUP2 SWAP1 POP SWAP2 SWAP1 POP JUMP JUMPDEST PUSH2 0x1A8C DUP4 PUSH2 0x1A57 JUMP JUMPDEST PUSH2 0x1AA0 PUSH2 0x1A98 DUP3 PUSH2 0x1A79 JUMP JUMPDEST DUP5 DUP5 SLOAD PUSH2 0x1A05 JUMP JUMPDEST DUP3 SSTORE POP POP POP POP JUMP JUMPDEST PUSH1 0x0 SWAP1 JUMP JUMPDEST PUSH2 0x1AB5 PUSH2 0x1AA8 JUMP JUMPDEST PUSH2 0x1AC0 DUP2 DUP5 DUP5 PUSH2 0x1A83 JUMP JUMPDEST POP POP POP JUMP JUMPDEST JUMPDEST DUP2 DUP2 LT ISZERO PUSH2 0x1AE4 JUMPI PUSH2 0x1AD9 PUSH1 0x0 DUP3 PUSH2 0x1AAD JUMP JUMPDEST PUSH1 0x1 DUP2 ADD SWAP1 POP PUSH2 0x1AC6 JUMP JUMPDEST POP POP JUMP JUMPDEST PUSH1 0x1F DUP3 GT ISZERO PUSH2 0x1B29 JUMPI PUSH2 0x1AFA DUP2 PUSH2 0x19D3 JUMP JUMPDEST PUSH2 0x1B03 DUP5 PUSH2 0x19E8 JUMP JUMPDEST DUP2 ADD PUSH1 0x20 DUP6 LT ISZERO PUSH2 0x1B12 JUMPI DUP2 SWAP1 POP JUMPDEST PUSH2 0x1B26 PUSH2 0x1B1E DUP6 PUSH2 0x19E8 JUMP JUMPDEST DUP4 ADD DUP3 PUSH2 0x1AC5 JUMP JUMPDEST POP POP JUMPDEST POP POP POP JUMP JUMPDEST PUSH1 0x0 DUP3 DUP3 SHR SWAP1 POP SWAP3 SWAP2 POP POP JUMP JUMPDEST PUSH1 0x0 PUSH2 0x1B4C PUSH1 0x0 NOT DUP5 PUSH1 0x8 MUL PUSH2 0x1B2E JUMP JUMPDEST NOT DUP1 DUP4 AND SWAP2 POP POP SWAP3 SWAP2 POP POP JUMP JUMPDEST PUSH1 0x0 PUSH2 0x1B65 DUP4 DUP4 PUSH2 0x1B3B JUMP JUMPDEST SWAP2 POP DUP3 PUSH1 0x2 MUL DUP3 OR SWAP1 POP SWAP3 SWAP2 POP POP JUMP JUMPDEST PUSH2 0x1B7E DUP3 PUSH2 0x13B5 JUMP JUMPDEST PUSH8 0xFFFFFFFFFFFFFFFF DUP2 GT ISZERO PUSH2 0x1B97 JUMPI PUSH2 0x1B96 PUSH2 0x1190 JUMP JUMPDEST JUMPDEST PUSH2 0x1BA1 DUP3 SLOAD PUSH2 0x19A2 JUMP JUMPDEST PUSH2 0x1BAC DUP3 DUP3 DUP6 PUSH2 0x1AE8 JUMP JUMPDEST PUSH1 0x0 PUSH1 0x20 SWAP1 POP PUSH1 0x1F DUP4 GT PUSH1 0x1 DUP2 EQ PUSH2 0x1BDF JUMPI PUSH1 0x0 DUP5 ISZERO PUSH2 0x1BCD JUMPI DUP3 DUP8 ADD MLOAD SWAP1 POP JUMPDEST PUSH2 0x1BD7 DUP6 DUP3 PUSH2 0x1B59 JUMP JUMPDEST DUP7 SSTORE POP PUSH2 0x1C3F JUMP JUMPDEST PUSH1 0x1F NOT DUP5 AND PUSH2 0x1BED DUP7 PUSH2 0x19D3 JUMP JUMPDEST PUSH1 0x0 JUMPDEST DUP3 DUP2 LT ISZERO PUSH2 0x1C15 JUMPI DUP5 DUP10 ADD MLOAD DUP3 SSTORE PUSH1 0x1 DUP3 ADD SWAP2 POP PUSH1 0x20 DUP6 ADD SWAP5 POP PUSH1 0x20 DUP2 ADD SWAP1 POP PUSH2 0x1BF0 JUMP JUMPDEST DUP7 DUP4 LT ISZERO PUSH2 0x1C32 JUMPI DUP5 DUP10 ADD MLOAD PUSH2 0x1C2E PUSH1 0x1F DUP10 AND DUP3 PUSH2 0x1B3B JUMP JUMPDEST DUP4 SSTORE POP JUMPDEST PUSH1 0x1 PUSH1 0x2 DUP9 MUL ADD DUP9 SSTORE POP POP POP JUMPDEST POP POP POP POP POP POP JUMP JUMPDEST PUSH1 0x0 PUSH1 0x40 DUP3 ADD SWAP1 POP PUSH2 0x1C5C PUSH1 0x0 DUP4 ADD DUP6 PUSH2 0x1443 JUMP JUMPDEST PUSH2 0x1C69 PUSH1 0x20 DUP4 ADD DUP5 PUSH2 0x1434 JUMP JUMPDEST SWAP4 SWAP3 POP POP POP JUMP JUMPDEST PUSH1 0x0 DUP2 SWAP1 POP SWAP3 SWAP2 POP POP JUMP JUMPDEST PUSH1 0x0 PUSH2 0x1C86 DUP3 PUSH2 0x13B5 JUMP JUMPDEST PUSH2 0x1C90 DUP2 DUP6 PUSH2 0x1C70 JUMP JUMPDEST SWAP4 POP PUSH2 0x1CA0 DUP2 DUP6 PUSH1 0x20 DUP7 ADD PUSH2 0x13D1 JUMP JUMPDEST DUP1 DUP5 ADD SWAP2 POP POP SWAP3 SWAP2 POP POP JUMP JUMPDEST PUSH1 0x0 PUSH2 0x1CB8 DUP3 DUP5 PUSH2 0x1C7B JUMP JUMPDEST SWAP2 POP DUP2 SWAP1 POP SWAP3 SWAP2 POP POP JUMP JUMPDEST PUSH1 0x0 PUSH1 0x60 DUP3 ADD SWAP1 POP PUSH2 0x1CD8 PUSH1 0x0 DUP4 ADD DUP7 PUSH2 0x1434 JUMP JUMPDEST PUSH2 0x1CE5 PUSH1 0x20 DUP4 ADD DUP6 PUSH2 0x1434 JUMP JUMPDEST PUSH2 0x1CF2 PUSH1 0x40 DUP4 ADD DUP5 PUSH2 0x1434 JUMP JUMPDEST SWAP5 SWAP4 POP POP POP POP JUMP JUMPDEST PUSH32 0x4E487B7100000000000000000000000000000000000000000000000000000000 PUSH1 0x0 MSTORE PUSH1 0x32 PUSH1 0x4 MSTORE PUSH1 0x24 PUSH1 0x0 REVERT JUMPDEST PUSH32 0x4E487B7100000000000000000000000000000000000000000000000000000000 PUSH1 0x0 MSTORE PUSH1 0x11 PUSH1 0x4 MSTORE PUSH1 0x24 PUSH1 0x0 REVERT JUMPDEST PUSH1 0x0 PUSH2 0x1D63 DUP3 PUSH2 0x12BB JUMP JUMPDEST SWAP2 POP PUSH32 0xFFFFFFFFFFFFFFFFFFFFFFFFFFFFFFFFFFFFFFFFFFFFFFFFFFFFFFFFFFFFFFFF DUP3 SUB PUSH2 0x1D95 JUMPI PUSH2 0x1D94 PUSH2 0x1D29 JUMP JUMPDEST JUMPDEST PUSH1 0x1 DUP3 ADD SWAP1 POP SWAP2 SWAP1 POP JUMP JUMPDEST PUSH1 0x0 DUP2 MLOAD SWAP1 POP PUSH2 0x1DAF DUP2 PUSH2 0x12C5 JUMP JUMPDEST SWAP3 SWAP2 POP POP JUMP JUMPDEST PUSH1 0x0 PUSH1 0x20 DUP3 DUP5 SUB SLT ISZERO PUSH2 0x1DCB JUMPI PUSH2 0x1DCA PUSH2 0x10AA JUMP JUMPDEST JUMPDEST PUSH1 0x0 PUSH2 0x1DD9 DUP5 DUP3 DUP6 ADD PUSH2 0x1DA0 JUMP JUMPDEST SWAP2 POP POP SWAP3 SWAP2 POP POP JUMP JUMPDEST PUSH1 0x0 PUSH2 0x1DED DUP3 PUSH2 0x12BB JUMP JUMPDEST SWAP2 POP PUSH2 0x1DF8 DUP4 PUSH2 0x12BB JUMP JUMPDEST SWAP3 POP DUP3 DUP3 SUB SWAP1 POP DUP2 DUP2 GT ISZERO PUSH2 0x1E10 JUMPI PUSH2 0x1E0F PUSH2 0x1D29 JUMP JUMPDEST JUMPDEST SWAP3 SWAP2 POP POP JUMP JUMPDEST PUSH32 0x456D706C6F79656520494420646F6573206E6F74206578697374000000000000 PUSH1 0x0 DUP3 ADD MSTORE POP JUMP JUMPDEST PUSH1 0x0 PUSH2 0x1E4C PUSH1 0x1A DUP4 PUSH2 0x13C0 JUMP JUMPDEST SWAP2 POP PUSH2 0x1E57 DUP3 PUSH2 0x1E16 JUMP JUMPDEST PUSH1 0x20 DUP3 ADD SWAP1 POP SWAP2 SWAP1 POP JUMP JUMPDEST PUSH1 0x0 PUSH1 0x20 DUP3 ADD SWAP1 POP DUP2 DUP2 SUB PUSH1 0x0 DUP4 ADD MSTORE PUSH2 0x1E7B DUP2 PUSH2 0x1E3F JUMP JUMPDEST SWAP1 POP SWAP2 SWAP1 POP JUMP JUMPDEST PUSH1 0x0 PUSH1 0x40 DUP3 ADD SWAP1 POP PUSH2 0x1E97 PUSH1 0x0 DUP4 ADD DUP6 PUSH2 0x1434 JUMP JUMPDEST PUSH2 0x1EA4 PUSH1 0x20 DUP4 ADD DUP5 PUSH2 0x1434 JUMP JUMPDEST SWAP4 SWAP3 POP POP POP JUMP JUMPDEST PUSH1 0x0 DUP2 SLOAD PUSH2 0x1EB8 DUP2 PUSH2 0x19A2 JUMP JUMPDEST PUSH2 0x1EC2 DUP2 DUP7 PUSH2 0x13C0 JUMP JUMPDEST SWAP5 POP PUSH1 0x1 DUP3 AND PUSH1 0x0 DUP2 EQ PUSH2 0x1EDD JUMPI PUSH1 0x1 DUP2 EQ PUSH2 0x1EF3 JUMPI PUSH2 0x1F26 JUMP JUMPDEST PUSH1 0xFF NOT DUP4 AND DUP7 MSTORE DUP2 ISZERO ISZERO PUSH1 0x20 MUL DUP7 ADD SWAP4 POP PUSH2 0x1F26 JUMP JUMPDEST PUSH2 0x1EFC DUP6 PUSH2 0x19D3 JUMP JUMPDEST PUSH1 0x0 JUMPDEST DUP4 DUP2 LT ISZERO PUSH2 0x1F1E JUMPI DUP2 SLOAD DUP2 DUP10 ADD MSTORE PUSH1 0x1 DUP3 ADD SWAP2 POP PUSH1 0x20 DUP2 ADD SWAP1 POP PUSH2 0x1EFF JUMP JUMPDEST DUP1 DUP9 ADD SWAP6 POP POP POP JUMPDEST POP POP POP SWAP3 SWAP2 POP POP JUMP JUMPDEST PUSH1 0x0 PUSH1 0x80 DUP3 ADD SWAP1 POP DUP2 DUP2 SUB PUSH1 0x0 DUP4 ADD MSTORE PUSH2 0x1F49 DUP2 DUP8 PUSH2 0x1EAB JUMP JUMPDEST SWAP1 POP PUSH2 0x1F58 PUSH1 0x20 DUP4 ADD DUP7 PUSH2 0x1434 JUMP JUMPDEST PUSH2 0x1F65 PUSH1 0x40 DUP4 ADD DUP6 PUSH2 0x1434 JUMP JUMPDEST PUSH2 0x1F72 PUSH1 0x60 DUP4 ADD DUP5 PUSH2 0x1434 JUMP JUMPDEST SWAP6 SWAP5 POP POP POP POP POP JUMP JUMPDEST PUSH32 0x4F776E61626C653A206E6577206F776E657220697320746865207A65726F2061 PUSH1 0x0 DUP3 ADD MSTORE PUSH32 0x6464726573730000000000000000000000000000000000000000000000000000 PUSH1 0x20 DUP3 ADD MSTORE POP JUMP JUMPDEST PUSH1 0x0 PUSH2 0x1FD7 PUSH1 0x26 DUP4 PUSH2 0x13C0 JUMP JUMPDEST SWAP2 POP PUSH2 0x1FE2 DUP3 PUSH2 0x1F7B JUMP JUMPDEST PUSH1 0x40 DUP3 ADD SWAP1 POP SWAP2 SWAP1 POP JUMP JUMPDEST PUSH1 0x0 PUSH1 0x20 DUP3 ADD SWAP1 POP DUP2 DUP2 SUB PUSH1 0x0 DUP4 ADD MSTORE PUSH2 0x2006 DUP2 PUSH2 0x1FCA JUMP JUMPDEST SWAP1 POP SWAP2 SWAP1 POP JUMP JUMPDEST PUSH32 0x4F776E61626C653A2063616C6C6572206973206E6F7420746865206F776E6572 PUSH1 0x0 DUP3 ADD MSTORE POP JUMP JUMPDEST PUSH1 0x0 PUSH2 0x2043 PUSH1 0x20 DUP4 PUSH2 0x13C0 JUMP JUMPDEST SWAP2 POP PUSH2 0x204E DUP3 PUSH2 0x200D JUMP JUMPDEST PUSH1 0x20 DUP3 ADD SWAP1 POP SWAP2 SWAP1 POP JUMP JUMPDEST PUSH1 0x0 PUSH1 0x20 DUP3 ADD SWAP1 POP DUP2 DUP2 SUB PUSH1 0x0 DUP4 ADD MSTORE PUSH2 0x2072 DUP2 PUSH2 0x2036 JUMP JUMPDEST SWAP1 POP SWAP2 SWAP1 POP JUMP INVALID LOG2 PUSH5 0x6970667358 0x22 SLT KECCAK256 0xE1 0x4B PUSH24 0xFB845E725360654FC3FB4217D2E1A62F783ED66BC5A6CA55 0xDB SGT 0x4C 0xDC 0xBE PUSH5 0x736F6C6343 STOP ADDMOD GT STOP CALLER "},"methodIdentifiers":{"BEN()":"b7c97fa0","addEmployee(string,uint256,uint256,uint256,address)":"2b785140","assignRank(uint256,uint256)":"d9c4bb50","employeeCounter()":"79dd81e1","employees(uint256)":"4739326b","getActiveEmployees()":"47e23df9","getEmployee(uint256)":"bca9a5c5","isAdmin(address)":"24d7806c","owner()":"8da5cb5b","payroll()":"562a5d06","releaseEmployee(uint256)":"f01aefaa","renounceOwnership()":"715018a6","replenishEmployeeTokens()":"97160307","setAdmin(address,bool)":"4b0bddd2","transferOwnership(address)":"f2fde38b"}}}}}