{
  "_format": "hh-sol-artifact-1",
  "contractName": "BenefitsToken",
  "sourceName": "contracts/BenefitsToken.sol",
  "abi": [
    {
      "inputs": [],
      "stateMutability": "nonpayable",
      "type": "constructor"
    },
    {
      "anonymous": false,
      "inputs": [
        {
          "indexed": true,
          "internalType": "address",
          "name": "owner",
          "type": "address"
        },
        {
          "indexed": true,
          "internalType": "address",
          "name": "spender",
          "type": "address"
        },
        {
          "indexed": false,
          "internalType": "uint256",
          "name": "value",
          "type": "uint256"
        }
      ],
      "name": "Approval",
      "type": "event"
    },
    {
      "anonymous": false,
      "inputs": [
        {
          "indexed": true,
          "internalType": "address",
          "name": "previousOwner",
          "type": "address"
        },
        {
          "indexed": true,
          "internalType": "address",
          "name": "newOwner",
          "type": "address"
        }
      ],
      "name": "OwnershipTransferred",
      "type": "event"
    },
    {
      "anonymous": false,
      "inputs": [
        {
          "indexed": true,
          "internalType": "address",
          "name": "from",
          "type": "address"
        },
        {
          "indexed": true,
          "internalType": "address",
          "name": "to",
          "type": "address"
        },
        {
          "indexed": false,
          "internalType": "uint256",
          "name": "value",
          "type": "uint256"
        }
      ],
      "name": "Transfer",
      "type": "event"
    },
    {
      "inputs": [
        {
          "internalType": "address",
          "name": "owner",
          "type": "address"
        },
        {
          "internalType": "address",
          "name": "spender",
          "type": "address"
        }
      ],
      "name": "allowance",
      "outputs": [
        {
          "internalType": "uint256",
          "name": "",
          "type": "uint256"
        }
      ],
      "stateMutability": "view",
      "type": "function"
    },
    {
      "inputs": [
        {
          "internalType": "address",
          "name": "spender",
          "type": "address"
        },
        {
          "internalType": "uint256",
          "name": "amount",
          "type": "uint256"
        }
      ],
      "name": "approve",
      "outputs": [
        {
          "internalType": "bool",
          "name": "",
          "type": "bool"
        }
      ],
      "stateMutability": "nonpayable",
      "type": "function"
    },
    {
      "inputs": [
        {
          "internalType": "address",
          "name": "account",
          "type": "address"
        }
      ],
      "name": "balanceOf",
      "outputs": [
        {
          "internalType": "uint256",
          "name": "",
          "type": "uint256"
        }
      ],
      "stateMutability": "view",
      "type": "function"
    },
    {
      "inputs": [
        {
          "internalType": "uint256",
          "name": "amount",
          "type": "uint256"
        }
      ],
      "name": "burn",
      "outputs": [],
      "stateMutability": "nonpayable",
      "type": "function"
    },
    {
      "inputs": [
        {
          "internalType": "address",
          "name": "account",
          "type": "address"
        },
        {
          "internalType": "uint256",
          "name": "amount",
          "type": "uint256"
        }
      ],
      "name": "burnFrom",
      "outputs": [],
      "stateMutability": "nonpayable",
      "type": "function"
    },
    {
      "inputs": [],
      "name": "buyBreakfast",
      "outputs": [],
      "stateMutability": "nonpayable",
      "type": "function"
    },
    {
      "inputs": [],
      "name": "buyDayOff",
      "outputs": [],
      "stateMutability": "nonpayable",
      "type": "function"
    },
    {
      "inputs": [],
      "name": "buyExtraBreak",
      "outputs": [],
      "stateMutability": "nonpayable",
      "type": "function"
    },
    {
      "inputs": [],
      "name": "buyHourOfMassage",
      "outputs": [],
      "stateMutability": "nonpayable",
      "type": "function"
    },
    {
      "inputs": [],
      "name": "buyLunch",
      "outputs": [],
      "stateMutability": "nonpayable",
      "type": "function"
    },
    {
      "inputs": [],
      "name": "buyPlayRoomTime",
      "outputs": [],
      "stateMutability": "nonpayable",
      "type": "function"
    },
    {
      "inputs": [],
      "name": "buyYogaSession",
      "outputs": [],
      "stateMutability": "nonpayable",
      "type": "function"
    },
    {
      "inputs": [],
      "name": "decimals",
      "outputs": [
        {
          "internalType": "uint8",
          "name": "",
          "type": "uint8"
        }
      ],
      "stateMutability": "view",
      "type": "function"
    },
    {
      "inputs": [
        {
          "internalType": "address",
          "name": "spender",
          "type": "address"
        },
        {
          "internalType": "uint256",
          "name": "subtractedValue",
          "type": "uint256"
        }
      ],
      "name": "decreaseAllowance",
      "outputs": [
        {
          "internalType": "bool",
          "name": "",
          "type": "bool"
        }
      ],
      "stateMutability": "nonpayable",
      "type": "function"
    },
    {
      "inputs": [
        {
          "internalType": "uint256",
          "name": "_rank",
          "type": "uint256"
        }
      ],
      "name": "getAmountToRank",
      "outputs": [
        {
          "internalType": "uint256",
          "name": "",
          "type": "uint256"
        }
      ],
      "stateMutability": "pure",
      "type": "function"
    },
    {
      "inputs": [
        {
          "internalType": "address",
          "name": "spender",
          "type": "address"
        },
        {
          "internalType": "uint256",
          "name": "addedValue",
          "type": "uint256"
        }
      ],
      "name": "increaseAllowance",
      "outputs": [
        {
          "internalType": "bool",
          "name": "",
          "type": "bool"
        }
      ],
      "stateMutability": "nonpayable",
      "type": "function"
    },
    {
      "inputs": [
        {
          "internalType": "address",
          "name": "",
          "type": "address"
        }
      ],
      "name": "isAdmin",
      "outputs": [
        {
          "internalType": "bool",
          "name": "",
          "type": "bool"
        }
      ],
      "stateMutability": "view",
      "type": "function"
    },
    {
      "inputs": [
        {
          "internalType": "address",
          "name": "to",
          "type": "address"
        },
        {
          "internalType": "uint256",
          "name": "_rank",
          "type": "uint256"
        }
      ],
      "name": "mint",
      "outputs": [],
      "stateMutability": "nonpayable",
      "type": "function"
    },
    {
      "inputs": [],
      "name": "name",
      "outputs": [
        {
          "internalType": "string",
          "name": "",
          "type": "string"
        }
      ],
      "stateMutability": "view",
      "type": "function"
    },
    {
      "inputs": [],
      "name": "owner",
      "outputs": [
        {
          "internalType": "address",
          "name": "",
          "type": "address"
        }
      ],
      "stateMutability": "view",
      "type": "function"
    },
    {
      "inputs": [],
      "name": "rank1Amount",
      "outputs": [
        {
          "internalType": "uint256",
          "name": "",
          "type": "uint256"
        }
      ],
      "stateMutability": "view",
      "type": "function"
    },
    {
      "inputs": [],
      "name": "rank2Amount",
      "outputs": [
        {
          "internalType": "uint256",
          "name": "",
          "type": "uint256"
        }
      ],
      "stateMutability": "view",
      "type": "function"
    },
    {
      "inputs": [],
      "name": "rank3Amount",
      "outputs": [
        {
          "internalType": "uint256",
          "name": "",
          "type": "uint256"
        }
      ],
      "stateMutability": "view",
      "type": "function"
    },
    {
      "inputs": [],
      "name": "rank4Amount",
      "outputs": [
        {
          "internalType": "uint256",
          "name": "",
          "type": "uint256"
        }
      ],
      "stateMutability": "view",
      "type": "function"
    },
    {
      "inputs": [],
      "name": "renounceOwnership",
      "outputs": [],
      "stateMutability": "nonpayable",
      "type": "function"
    },
    {
      "inputs": [
        {
          "internalType": "address",
          "name": "_address",
          "type": "address"
        },
        {
          "internalType": "uint256",
          "name": "_amount",
          "type": "uint256"
        }
      ],
      "name": "replenish",
      "outputs": [],
      "stateMutability": "nonpayable",
      "type": "function"
    },
    {
      "inputs": [
        {
          "internalType": "uint256",
          "name": "amount",
          "type": "uint256"
        }
      ],
      "name": "resignEmployeeTokens",
      "outputs": [],
      "stateMutability": "nonpayable",
      "type": "function"
    },
    {
      "inputs": [],
      "name": "symbol",
      "outputs": [
        {
          "internalType": "string",
          "name": "",
          "type": "string"
        }
      ],
      "stateMutability": "view",
      "type": "function"
    },
    {
      "inputs": [],
      "name": "totalSupply",
      "outputs": [
        {
          "internalType": "uint256",
          "name": "",
          "type": "uint256"
        }
      ],
      "stateMutability": "view",
      "type": "function"
    },
    {
      "inputs": [
        {
          "internalType": "address",
          "name": "to",
          "type": "address"
        },
        {
          "internalType": "uint256",
          "name": "amount",
          "type": "uint256"
        }
      ],
      "name": "transfer",
      "outputs": [
        {
          "internalType": "bool",
          "name": "",
          "type": "bool"
        }
      ],
      "stateMutability": "nonpayable",
      "type": "function"
    },
    {
      "inputs": [
        {
          "internalType": "address",
          "name": "from",
          "type": "address"
        },
        {
          "internalType": "address",
          "name": "to",
          "type": "address"
        },
        {
          "internalType": "uint256",
          "name": "amount",
          "type": "uint256"
        }
      ],
      "name": "transferFrom",
      "outputs": [
        {
          "internalType": "bool",
          "name": "",
          "type": "bool"
        }
      ],
      "stateMutability": "nonpayable",
      "type": "function"
    },
    {
      "inputs": [
        {
          "internalType": "address",
          "name": "newOwner",
          "type": "address"
        }
      ],
      "name": "transferOwnership",
      "outputs": [],
      "stateMutability": "nonpayable",
      "type": "function"
    },
    {
      "inputs": [
        {
          "internalType": "address",
          "name": "_address",
          "type": "address"
        }
      ],
      "name": "updateEmployeeContract",
      "outputs": [],
      "stateMutability": "nonpayable",
      "type": "function"
    }
  ],
  "bytecode": "0x610100604052620186a0608090815250620249f060a09081525062030d4060c090815250620493e060e0908152503480156200003a57600080fd5b506040518060400160405280600d81526020017f456d706c6f796565546f6b656e000000000000000000000000000000000000008152506040518060400160405280600381526020017f454d5000000000000000000000000000000000000000000000000000000000008152508160039081620000b8919062000493565b508060049081620000ca919062000493565b505050620000ed620000e16200014b60201b60201c565b6200015360201b60201c565b6001600860003373ffffffffffffffffffffffffffffffffffffffff1673ffffffffffffffffffffffffffffffffffffffff16815260200190815260200160002060006101000a81548160ff0219169083151502179055506200057a565b600033905090565b6000600560009054906101000a900473ffffffffffffffffffffffffffffffffffffffff16905081600560006101000a81548173ffffffffffffffffffffffffffffffffffffffff021916908373ffffffffffffffffffffffffffffffffffffffff1602179055508173ffffffffffffffffffffffffffffffffffffffff168173ffffffffffffffffffffffffffffffffffffffff167f8be0079c531659141344cd1fd0a4f28419497f9722a3daafe3b4186f6b6457e060405160405180910390a35050565b600081519050919050565b7f4e487b7100000000000000000000000000000000000000000000000000000000600052604160045260246000fd5b7f4e487b7100000000000000000000000000000000000000000000000000000000600052602260045260246000fd5b600060028204905060018216806200029b57607f821691505b602082108103620002b157620002b062000253565b5b50919050565b60008190508160005260206000209050919050565b60006020601f8301049050919050565b600082821b905092915050565b6000600883026200031b7fffffffffffffffffffffffffffffffffffffffffffffffffffffffffffffffff82620002dc565b620003278683620002dc565b95508019841693508086168417925050509392505050565b6000819050919050565b6000819050919050565b6000620003746200036e62000368846200033f565b62000349565b6200033f565b9050919050565b6000819050919050565b620003908362000353565b620003a86200039f826200037b565b848454620002e9565b825550505050565b600090565b620003bf620003b0565b620003cc81848462000385565b505050565b5b81811015620003f457620003e8600082620003b5565b600181019050620003d2565b5050565b601f82111562000443576200040d81620002b7565b6200041884620002cc565b8101602085101562000428578190505b620004406200043785620002cc565b830182620003d1565b50505b505050565b600082821c905092915050565b6000620004686000198460080262000448565b1980831691505092915050565b600062000483838362000455565b9150826002028217905092915050565b6200049e8262000219565b67ffffffffffffffff811115620004ba57620004b962000224565b5b620004c6825462000282565b620004d3828285620003f8565b600060209050601f8311600181146200050b5760008415620004f6578287015190505b62000502858262000475565b86555062000572565b601f1984166200051b86620002b7565b60005b8281101562000545578489015182556001820191506020850194506020810190506200051e565b8683101562000565578489015162000561601f89168262000455565b8355505b6001600288020188555050505b505050505050565b60805160a05160c05160e0516127a4620005ec60003960008181610a2001528181610e8a0152610fad0152600081816109f101528181610c370152610e620152600081816109ba01528181610b4d0152610e3201526000818161098301528181610ac90152610e0201526127a46000f3fe608060405234801561001057600080fd5b50600436106101fb5760003560e01c8063702eba281161011a5780638da5cb5b116100ad578063a9059cbb1161007c578063a9059cbb1461052e578063b0bdf9011461055e578063ce1c159714610568578063dd62ed3e14610586578063f2fde38b146105b6576101fb565b80638da5cb5b1461049257806395d89b41146104b0578063962d2809146104ce578063a457c2d7146104fe576101fb565b806375bc0f75116100e957806375bc0f751461044457806379cc6790146104625780638343f72a1461047e5780638bca141614610488576101fb565b8063702eba28146103d057806370a08231146103ee578063715018a61461041e57806372bd489014610428576101fb565b806335cb59291161019257806342966c681161016157806342966c6814610370578063564074551461038c5780635933af43146103a85780636e90996b146103c6576101fb565b806335cb592914610310578063395093511461031a5780633b022e5f1461034a57806340c10f1914610354576101fb565b806323b872dd116101ce57806323b872dd1461027657806323f6f422146102a657806324d7806c146102c2578063313ce567146102f2576101fb565b806306c7ff651461020057806306fdde031461020a578063095ea7b31461022857806318160ddd14610258575b600080fd5b6102086105d2565b005b610212610632565b60405161021f9190611c24565b60405180910390f35b610242600480360381019061023d9190611cdf565b6106c4565b60405161024f9190611d3a565b60405180910390f35b6102606106e7565b60405161026d9190611d64565b60405180910390f35b610290600480360381019061028b9190611d7f565b6106f1565b60405161029d9190611d3a565b60405180910390f35b6102c060048036038101906102bb9190611dd2565b610720565b005b6102dc60048036038101906102d79190611dd2565b6107fb565b6040516102e99190611d3a565b60405180910390f35b6102fa61081b565b6040516103079190611e1b565b60405180910390f35b610318610824565b005b610334600480360381019061032f9190611cdf565b610884565b6040516103419190611d3a565b60405180910390f35b6103526108bb565b005b61036e60048036038101906103699190611cdf565b61091b565b005b61038a60048036038101906103859190611e36565b610a4b565b005b6103a660048036038101906103a19190611cdf565b610a5f565b005b6103b0610ac7565b6040516103bd9190611d64565b60405180910390f35b6103ce610aeb565b005b6103d8610b4b565b6040516103e59190611d64565b60405180910390f35b61040860048036038101906104039190611dd2565b610b6f565b6040516104159190611d64565b60405180910390f35b610426610bb7565b005b610442600480360381019061043d9190611e36565b610bcb565b005b61044c610c35565b6040516104599190611d64565b60405180910390f35b61047c60048036038101906104779190611cdf565b610c59565b005b610486610c79565b005b610490610cda565b005b61049a610d3a565b6040516104a79190611e72565b60405180910390f35b6104b8610d64565b6040516104c59190611c24565b60405180910390f35b6104e860048036038101906104e39190611e36565b610df6565b6040516104f59190611d64565b60405180910390f35b61051860048036038101906105139190611cdf565b610eb1565b6040516105259190611d3a565b60405180910390f35b61054860048036038101906105439190611cdf565b610f28565b6040516105559190611d3a565b60405180910390f35b610566610f4b565b005b610570610fab565b60405161057d9190611d64565b60405180910390f35b6105a0600480360381019061059b9190611e8d565b610fcf565b6040516105ad9190611d64565b60405180910390f35b6105d060048036038101906105cb9190611dd2565b611056565b005b60006105dd33610b6f565b1161061d576040517f08c379a000000000000000000000000000000000000000000000000000000000815260040161061490611f19565b60405180910390fd5b6106306106286110d9565b6127106110e1565b565b60606003805461064190611f68565b80601f016020809104026020016040519081016040528092919081815260200182805461066d90611f68565b80156106ba5780601f1061068f576101008083540402835291602001916106ba565b820191906000526020600020905b81548152906001019060200180831161069d57829003601f168201915b5050505050905090565b6000806106cf6110d9565b90506106dc8185856112b7565b600191505092915050565b6000600254905090565b6000806106fc6110d9565b9050610709858285611480565b61071485858561150c565b60019150509392505050565b600860003373ffffffffffffffffffffffffffffffffffffffff1673ffffffffffffffffffffffffffffffffffffffff16815260200190815260200160002060009054906101000a900460ff1661077657600080fd5b80600760006101000a81548173ffffffffffffffffffffffffffffffffffffffff021916908373ffffffffffffffffffffffffffffffffffffffff16021790555080600660006101000a81548173ffffffffffffffffffffffffffffffffffffffff021916908373ffffffffffffffffffffffffffffffffffffffff16021790555050565b60086020528060005260406000206000915054906101000a900460ff1681565b60006012905090565b600061082f33610b6f565b1161086f576040517f08c379a000000000000000000000000000000000000000000000000000000000815260040161086690611f19565b60405180910390fd5b61088261087a6110d9565b6127106110e1565b565b60008061088f6110d9565b90506108b08185856108a18589610fcf565b6108ab9190611fc8565b6112b7565b600191505092915050565b60006108c633610b6f565b11610906576040517f08c379a00000000000000000000000000000000000000000000000000000000081526004016108fd90611f19565b60405180910390fd5b6109196109116110d9565b6127106110e1565b565b600760009054906101000a900473ffffffffffffffffffffffffffffffffffffffff1673ffffffffffffffffffffffffffffffffffffffff163373ffffffffffffffffffffffffffffffffffffffff161461097557600080fd5b600181036109ac576109a7827f0000000000000000000000000000000000000000000000000000000000000000611668565b610a47565b600281036109e3576109de827f0000000000000000000000000000000000000000000000000000000000000000611668565b610a46565b60038103610a1a57610a15827f0000000000000000000000000000000000000000000000000000000000000000611668565b610a45565b610a44827f0000000000000000000000000000000000000000000000000000000000000000611668565b5b5b5b5050565b610a5c610a566110d9565b826110e1565b50565b600760009054906101000a900473ffffffffffffffffffffffffffffffffffffffff1673ffffffffffffffffffffffffffffffffffffffff163373ffffffffffffffffffffffffffffffffffffffff1614610ab957600080fd5b610ac38282611668565b5050565b7f000000000000000000000000000000000000000000000000000000000000000081565b6000610af633610b6f565b11610b36576040517f08c379a0000000000000000000000000000000000000000000000000000000008152600401610b2d90611f19565b60405180910390fd5b610b49610b416110d9565b6127106110e1565b565b7f000000000000000000000000000000000000000000000000000000000000000081565b60008060008373ffffffffffffffffffffffffffffffffffffffff1673ffffffffffffffffffffffffffffffffffffffff168152602001908152602001600020549050919050565b610bbf6117c7565b610bc96000611845565b565b6000610bd633610b6f565b11610c16576040517f08c379a0000000000000000000000000000000000000000000000000000000008152600401610c0d90612048565b60405180910390fd5b610c1f33610b6f565b9050610c32610c2c6110d9565b826110e1565b50565b7f000000000000000000000000000000000000000000000000000000000000000081565b610c6b82610c656110d9565b83611480565b610c7582826110e1565b5050565b6000610c8433610b6f565b11610cc4576040517f08c379a0000000000000000000000000000000000000000000000000000000008152600401610cbb90611f19565b60405180910390fd5b610cd8610ccf6110d9565b620186a06110e1565b565b6000610ce533610b6f565b11610d25576040517f08c379a0000000000000000000000000000000000000000000000000000000008152600401610d1c90611f19565b60405180910390fd5b610d38610d306110d9565b6127106110e1565b565b6000600560009054906101000a900473ffffffffffffffffffffffffffffffffffffffff16905090565b606060048054610d7390611f68565b80601f0160208091040260200160405190810160405280929190818152602001828054610d9f90611f68565b8015610dec5780601f10610dc157610100808354040283529160200191610dec565b820191906000526020600020905b815481529060010190602001808311610dcf57829003601f168201915b5050505050905090565b600060018203610e28577f00000000000000000000000000000000000000000000000000000000000000009050610eac565b60028203610e58577f00000000000000000000000000000000000000000000000000000000000000009050610eac565b60038203610e88577f00000000000000000000000000000000000000000000000000000000000000009050610eac565b7f000000000000000000000000000000000000000000000000000000000000000090505b919050565b600080610ebc6110d9565b90506000610eca8286610fcf565b905083811015610f0f576040517f08c379a0000000000000000000000000000000000000000000000000000000008152600401610f06906120da565b60405180910390fd5b610f1c82868684036112b7565b60019250505092915050565b600080610f336110d9565b9050610f4081858561150c565b600191505092915050565b6000610f5633610b6f565b11610f96576040517f08c379a0000000000000000000000000000000000000000000000000000000008152600401610f8d90611f19565b60405180910390fd5b610fa9610fa16110d9565b6127106110e1565b565b7f000000000000000000000000000000000000000000000000000000000000000081565b6000600160008473ffffffffffffffffffffffffffffffffffffffff1673ffffffffffffffffffffffffffffffffffffffff16815260200190815260200160002060008373ffffffffffffffffffffffffffffffffffffffff1673ffffffffffffffffffffffffffffffffffffffff16815260200190815260200160002054905092915050565b61105e6117c7565b600073ffffffffffffffffffffffffffffffffffffffff168173ffffffffffffffffffffffffffffffffffffffff16036110cd576040517f08c379a00000000000000000000000000000000000000000000000000000000081526004016110c49061216c565b60405180910390fd5b6110d681611845565b50565b600033905090565b600073ffffffffffffffffffffffffffffffffffffffff168273ffffffffffffffffffffffffffffffffffffffff1603611150576040517f08c379a0000000000000000000000000000000000000000000000000000000008152600401611147906121fe565b60405180910390fd5b61115c8260008361190b565b60008060008473ffffffffffffffffffffffffffffffffffffffff1673ffffffffffffffffffffffffffffffffffffffff168152602001908152602001600020549050818110156111e2576040517f08c379a00000000000000000000000000000000000000000000000000000000081526004016111d990612290565b60405180910390fd5b8181036000808573ffffffffffffffffffffffffffffffffffffffff1673ffffffffffffffffffffffffffffffffffffffff16815260200190815260200160002081905550816002600082825461123991906122b0565b92505081905550600073ffffffffffffffffffffffffffffffffffffffff168373ffffffffffffffffffffffffffffffffffffffff167fddf252ad1be2c89b69c2b068fc378daa952ba7f163c4a11628f55a4df523b3ef8460405161129e9190611d64565b60405180910390a36112b283600084611910565b505050565b600073ffffffffffffffffffffffffffffffffffffffff168373ffffffffffffffffffffffffffffffffffffffff1603611326576040517f08c379a000000000000000000000000000000000000000000000000000000000815260040161131d90612356565b60405180910390fd5b600073ffffffffffffffffffffffffffffffffffffffff168273ffffffffffffffffffffffffffffffffffffffff1603611395576040517f08c379a000000000000000000000000000000000000000000000000000000000815260040161138c906123e8565b60405180910390fd5b80600160008573ffffffffffffffffffffffffffffffffffffffff1673ffffffffffffffffffffffffffffffffffffffff16815260200190815260200160002060008473ffffffffffffffffffffffffffffffffffffffff1673ffffffffffffffffffffffffffffffffffffffff168152602001908152602001600020819055508173ffffffffffffffffffffffffffffffffffffffff168373ffffffffffffffffffffffffffffffffffffffff167f8c5be1e5ebec7d5bd14f71427d1e84f3dd0314c0f7b2291e5b200ac8c7c3b925836040516114739190611d64565b60405180910390a3505050565b600061148c8484610fcf565b90507fffffffffffffffffffffffffffffffffffffffffffffffffffffffffffffffff811461150657818110156114f8576040517f08c379a00000000000000000000000000000000000000000000000000000000081526004016114ef90612454565b60405180910390fd5b61150584848484036112b7565b5b50505050565b600073ffffffffffffffffffffffffffffffffffffffff168373ffffffffffffffffffffffffffffffffffffffff160361157b576040517f08c379a0000000000000000000000000000000000000000000000000000000008152600401611572906124e6565b60405180910390fd5b600073ffffffffffffffffffffffffffffffffffffffff168273ffffffffffffffffffffffffffffffffffffffff16036115ea576040517f08c379a00000000000000000000000000000000000000000000000000000000081526004016115e190612578565b60405180910390fd5b3073ffffffffffffffffffffffffffffffffffffffff168273ffffffffffffffffffffffffffffffffffffffff1614611658576040517f08c379a000000000000000000000000000000000000000000000000000000000815260040161164f906125e4565b60405180910390fd5b611663838383611915565b505050565b600073ffffffffffffffffffffffffffffffffffffffff168273ffffffffffffffffffffffffffffffffffffffff16036116d7576040517f08c379a00000000000000000000000000000000000000000000000000000000081526004016116ce90612650565b60405180910390fd5b6116e36000838361190b565b80600260008282546116f59190611fc8565b92505081905550806000808473ffffffffffffffffffffffffffffffffffffffff1673ffffffffffffffffffffffffffffffffffffffff168152602001908152602001600020600082825461174a9190611fc8565b925050819055508173ffffffffffffffffffffffffffffffffffffffff16600073ffffffffffffffffffffffffffffffffffffffff167fddf252ad1be2c89b69c2b068fc378daa952ba7f163c4a11628f55a4df523b3ef836040516117af9190611d64565b60405180910390a36117c360008383611910565b5050565b6117cf6110d9565b73ffffffffffffffffffffffffffffffffffffffff166117ed610d3a565b73ffffffffffffffffffffffffffffffffffffffff1614611843576040517f08c379a000000000000000000000000000000000000000000000000000000000815260040161183a906126bc565b60405180910390fd5b565b6000600560009054906101000a900473ffffffffffffffffffffffffffffffffffffffff16905081600560006101000a81548173ffffffffffffffffffffffffffffffffffffffff021916908373ffffffffffffffffffffffffffffffffffffffff1602179055508173ffffffffffffffffffffffffffffffffffffffff168173ffffffffffffffffffffffffffffffffffffffff167f8be0079c531659141344cd1fd0a4f28419497f9722a3daafe3b4186f6b6457e060405160405180910390a35050565b505050565b505050565b600073ffffffffffffffffffffffffffffffffffffffff168373ffffffffffffffffffffffffffffffffffffffff1603611984576040517f08c379a000000000000000000000000000000000000000000000000000000000815260040161197b906124e6565b60405180910390fd5b600073ffffffffffffffffffffffffffffffffffffffff168273ffffffffffffffffffffffffffffffffffffffff16036119f3576040517f08c379a00000000000000000000000000000000000000000000000000000000081526004016119ea90612578565b60405180910390fd5b6119fe83838361190b565b60008060008573ffffffffffffffffffffffffffffffffffffffff1673ffffffffffffffffffffffffffffffffffffffff16815260200190815260200160002054905081811015611a84576040517f08c379a0000000000000000000000000000000000000000000000000000000008152600401611a7b9061274e565b60405180910390fd5b8181036000808673ffffffffffffffffffffffffffffffffffffffff1673ffffffffffffffffffffffffffffffffffffffff16815260200190815260200160002081905550816000808573ffffffffffffffffffffffffffffffffffffffff1673ffffffffffffffffffffffffffffffffffffffff1681526020019081526020016000206000828254611b179190611fc8565b925050819055508273ffffffffffffffffffffffffffffffffffffffff168473ffffffffffffffffffffffffffffffffffffffff167fddf252ad1be2c89b69c2b068fc378daa952ba7f163c4a11628f55a4df523b3ef84604051611b7b9190611d64565b60405180910390a3611b8e848484611910565b50505050565b600081519050919050565b600082825260208201905092915050565b60005b83811015611bce578082015181840152602081019050611bb3565b60008484015250505050565b6000601f19601f8301169050919050565b6000611bf682611b94565b611c008185611b9f565b9350611c10818560208601611bb0565b611c1981611bda565b840191505092915050565b60006020820190508181036000830152611c3e8184611beb565b905092915050565b600080fd5b600073ffffffffffffffffffffffffffffffffffffffff82169050919050565b6000611c7682611c4b565b9050919050565b611c8681611c6b565b8114611c9157600080fd5b50565b600081359050611ca381611c7d565b92915050565b6000819050919050565b611cbc81611ca9565b8114611cc757600080fd5b50565b600081359050611cd981611cb3565b92915050565b60008060408385031215611cf657611cf5611c46565b5b6000611d0485828601611c94565b9250506020611d1585828601611cca565b9150509250929050565b60008115159050919050565b611d3481611d1f565b82525050565b6000602082019050611d4f6000830184611d2b565b92915050565b611d5e81611ca9565b82525050565b6000602082019050611d796000830184611d55565b92915050565b600080600060608486031215611d9857611d97611c46565b5b6000611da686828701611c94565b9350506020611db786828701611c94565b9250506040611dc886828701611cca565b9150509250925092565b600060208284031215611de857611de7611c46565b5b6000611df684828501611c94565b91505092915050565b600060ff82169050919050565b611e1581611dff565b82525050565b6000602082019050611e306000830184611e0c565b92915050565b600060208284031215611e4c57611e4b611c46565b5b6000611e5a84828501611cca565b91505092915050565b611e6c81611c6b565b82525050565b6000602082019050611e876000830184611e63565b92915050565b60008060408385031215611ea457611ea3611c46565b5b6000611eb285828601611c94565b9250506020611ec385828601611c94565b9150509250929050565b7f4e6f20746f6b656e7320746f206c656674000000000000000000000000000000600082015250565b6000611f03601183611b9f565b9150611f0e82611ecd565b602082019050919050565b60006020820190508181036000830152611f3281611ef6565b9050919050565b7f4e487b7100000000000000000000000000000000000000000000000000000000600052602260045260246000fd5b60006002820490506001821680611f8057607f821691505b602082108103611f9357611f92611f39565b5b50919050565b7f4e487b7100000000000000000000000000000000000000000000000000000000600052601160045260246000fd5b6000611fd382611ca9565b9150611fde83611ca9565b9250828201905080821115611ff657611ff5611f99565b5b92915050565b7f4e6f20746f6b656e7320746f206275726e000000000000000000000000000000600082015250565b6000612032601183611b9f565b915061203d82611ffc565b602082019050919050565b6000602082019050818103600083015261206181612025565b9050919050565b7f45524332303a2064656372656173656420616c6c6f77616e63652062656c6f7760008201527f207a65726f000000000000000000000000000000000000000000000000000000602082015250565b60006120c4602583611b9f565b91506120cf82612068565b604082019050919050565b600060208201905081810360008301526120f3816120b7565b9050919050565b7f4f776e61626c653a206e6577206f776e657220697320746865207a65726f206160008201527f6464726573730000000000000000000000000000000000000000000000000000602082015250565b6000612156602683611b9f565b9150612161826120fa565b604082019050919050565b6000602082019050818103600083015261218581612149565b9050919050565b7f45524332303a206275726e2066726f6d20746865207a65726f2061646472657360008201527f7300000000000000000000000000000000000000000000000000000000000000602082015250565b60006121e8602183611b9f565b91506121f38261218c565b604082019050919050565b60006020820190508181036000830152612217816121db565b9050919050565b7f45524332303a206275726e20616d6f756e7420657863656564732062616c616e60008201527f6365000000000000000000000000000000000000000000000000000000000000602082015250565b600061227a602283611b9f565b91506122858261221e565b604082019050919050565b600060208201905081810360008301526122a98161226d565b9050919050565b60006122bb82611ca9565b91506122c683611ca9565b92508282039050818111156122de576122dd611f99565b5b92915050565b7f45524332303a20617070726f76652066726f6d20746865207a65726f2061646460008201527f7265737300000000000000000000000000000000000000000000000000000000602082015250565b6000612340602483611b9f565b915061234b826122e4565b604082019050919050565b6000602082019050818103600083015261236f81612333565b9050919050565b7f45524332303a20617070726f766520746f20746865207a65726f20616464726560008201527f7373000000000000000000000000000000000000000000000000000000000000602082015250565b60006123d2602283611b9f565b91506123dd82612376565b604082019050919050565b60006020820190508181036000830152612401816123c5565b9050919050565b7f45524332303a20696e73756666696369656e7420616c6c6f77616e6365000000600082015250565b600061243e601d83611b9f565b915061244982612408565b602082019050919050565b6000602082019050818103600083015261246d81612431565b9050919050565b7f45524332303a207472616e736665722066726f6d20746865207a65726f20616460008201527f6472657373000000000000000000000000000000000000000000000000000000602082015250565b60006124d0602583611b9f565b91506124db82612474565b604082019050919050565b600060208201905081810360008301526124ff816124c3565b9050919050565b7f45524332303a207472616e7366657220746f20746865207a65726f206164647260008201527f6573730000000000000000000000000000000000000000000000000000000000602082015250565b6000612562602383611b9f565b915061256d82612506565b604082019050919050565b6000602082019050818103600083015261259181612555565b9050919050565b7f596f752063616e6e6f74207472616e7366657220746f6b656e73000000000000600082015250565b60006125ce601a83611b9f565b91506125d982612598565b602082019050919050565b600060208201905081810360008301526125fd816125c1565b9050919050565b7f45524332303a206d696e7420746f20746865207a65726f206164647265737300600082015250565b600061263a601f83611b9f565b915061264582612604565b602082019050919050565b600060208201905081810360008301526126698161262d565b9050919050565b7f4f776e61626c653a2063616c6c6572206973206e6f7420746865206f776e6572600082015250565b60006126a6602083611b9f565b91506126b182612670565b602082019050919050565b600060208201905081810360008301526126d581612699565b9050919050565b7f45524332303a207472616e7366657220616d6f756e742065786365656473206260008201527f616c616e63650000000000000000000000000000000000000000000000000000602082015250565b6000612738602683611b9f565b9150612743826126dc565b604082019050919050565b600060208201905081810360008301526127678161272b565b905091905056fea264697066735822122072a90efb36ecd38aff5763b20b4e7a24cc1ac86b1a62d700e920185b999b707e64736f6c63430008110033",
  "linkReferences": {},
  "deployedLinkReferences": {}
}