{
  "_format": "hh-sol-artifact-1",
  "contractName": "BenefitsToken",
  "sourceName": "contracts/BenefitsToken.sol",
  "abi": [
    {
      "inputs": [],
      "stateMutability": "nonpayable",
      "type": "constructor"
    },
    {
      "anonymous": false,
      "inputs": [
        {
          "indexed": true,
          "internalType": "address",
          "name": "owner",
          "type": "address"
        },
        {
          "indexed": true,
          "internalType": "address",
          "name": "spender",
          "type": "address"
        },
        {
          "indexed": false,
          "internalType": "uint256",
          "name": "value",
          "type": "uint256"
        }
      ],
      "name": "Approval",
      "type": "event"
    },
    {
      "anonymous": false,
      "inputs": [
        {
          "indexed": true,
          "internalType": "address",
          "name": "previousOwner",
          "type": "address"
        },
        {
          "indexed": true,
          "internalType": "address",
          "name": "newOwner",
          "type": "address"
        }
      ],
      "name": "OwnershipTransferred",
      "type": "event"
    },
    {
      "anonymous": false,
      "inputs": [
        {
          "indexed": true,
          "internalType": "address",
          "name": "from",
          "type": "address"
        },
        {
          "indexed": true,
          "internalType": "address",
          "name": "to",
          "type": "address"
        },
        {
          "indexed": false,
          "internalType": "uint256",
          "name": "value",
          "type": "uint256"
        }
      ],
      "name": "Transfer",
      "type": "event"
    },
    {
      "inputs": [
        {
          "internalType": "address",
          "name": "owner",
          "type": "address"
        },
        {
          "internalType": "address",
          "name": "spender",
          "type": "address"
        }
      ],
      "name": "allowance",
      "outputs": [
        {
          "internalType": "uint256",
          "name": "",
          "type": "uint256"
        }
      ],
      "stateMutability": "view",
      "type": "function"
    },
    {
      "inputs": [
        {
          "internalType": "address",
          "name": "spender",
          "type": "address"
        },
        {
          "internalType": "uint256",
          "name": "amount",
          "type": "uint256"
        }
      ],
      "name": "approve",
      "outputs": [
        {
          "internalType": "bool",
          "name": "",
          "type": "bool"
        }
      ],
      "stateMutability": "nonpayable",
      "type": "function"
    },
    {
      "inputs": [
        {
          "internalType": "address",
          "name": "account",
          "type": "address"
        }
      ],
      "name": "balanceOf",
      "outputs": [
        {
          "internalType": "uint256",
          "name": "",
          "type": "uint256"
        }
      ],
      "stateMutability": "view",
      "type": "function"
    },
    {
      "inputs": [
        {
          "internalType": "uint256",
          "name": "amount",
          "type": "uint256"
        }
      ],
      "name": "burn",
      "outputs": [],
      "stateMutability": "nonpayable",
      "type": "function"
    },
    {
      "inputs": [
        {
          "internalType": "address",
          "name": "account",
          "type": "address"
        },
        {
          "internalType": "uint256",
          "name": "amount",
          "type": "uint256"
        }
      ],
      "name": "burnFrom",
      "outputs": [],
      "stateMutability": "nonpayable",
      "type": "function"
    },
    {
      "inputs": [],
      "name": "buyBreakfast",
      "outputs": [],
      "stateMutability": "nonpayable",
      "type": "function"
    },
    {
      "inputs": [],
      "name": "buyDayOff",
      "outputs": [],
      "stateMutability": "nonpayable",
      "type": "function"
    },
    {
      "inputs": [],
      "name": "buyExtraBreak",
      "outputs": [],
      "stateMutability": "nonpayable",
      "type": "function"
    },
    {
      "inputs": [],
      "name": "buyHourOfMassage",
      "outputs": [],
      "stateMutability": "nonpayable",
      "type": "function"
    },
    {
      "inputs": [],
      "name": "buyLunch",
      "outputs": [],
      "stateMutability": "nonpayable",
      "type": "function"
    },
    {
      "inputs": [],
      "name": "buyPlayRoomTime",
      "outputs": [],
      "stateMutability": "nonpayable",
      "type": "function"
    },
    {
      "inputs": [],
      "name": "buyYogaSession",
      "outputs": [],
      "stateMutability": "nonpayable",
      "type": "function"
    },
    {
      "inputs": [],
      "name": "decimals",
      "outputs": [
        {
          "internalType": "uint8",
          "name": "",
          "type": "uint8"
        }
      ],
      "stateMutability": "view",
      "type": "function"
    },
    {
      "inputs": [
        {
          "internalType": "address",
          "name": "spender",
          "type": "address"
        },
        {
          "internalType": "uint256",
          "name": "subtractedValue",
          "type": "uint256"
        }
      ],
      "name": "decreaseAllowance",
      "outputs": [
        {
          "internalType": "bool",
          "name": "",
          "type": "bool"
        }
      ],
      "stateMutability": "nonpayable",
      "type": "function"
    },
    {
      "inputs": [
        {
          "internalType": "uint256",
          "name": "_rank",
          "type": "uint256"
        }
      ],
      "name": "getAmountToRank",
      "outputs": [
        {
          "internalType": "uint256",
          "name": "",
          "type": "uint256"
        }
      ],
      "stateMutability": "pure",
      "type": "function"
    },
    {
      "inputs": [
        {
          "internalType": "address",
          "name": "spender",
          "type": "address"
        },
        {
          "internalType": "uint256",
          "name": "addedValue",
          "type": "uint256"
        }
      ],
      "name": "increaseAllowance",
      "outputs": [
        {
          "internalType": "bool",
          "name": "",
          "type": "bool"
        }
      ],
      "stateMutability": "nonpayable",
      "type": "function"
    },
    {
      "inputs": [
        {
          "internalType": "address",
          "name": "",
          "type": "address"
        }
      ],
      "name": "isAdmin",
      "outputs": [
        {
          "internalType": "bool",
          "name": "",
          "type": "bool"
        }
      ],
      "stateMutability": "view",
      "type": "function"
    },
    {
      "inputs": [
        {
          "internalType": "address",
          "name": "to",
          "type": "address"
        },
        {
          "internalType": "uint256",
          "name": "_rank",
          "type": "uint256"
        }
      ],
      "name": "mint",
      "outputs": [],
      "stateMutability": "nonpayable",
      "type": "function"
    },
    {
      "inputs": [],
      "name": "name",
      "outputs": [
        {
          "internalType": "string",
          "name": "",
          "type": "string"
        }
      ],
      "stateMutability": "view",
      "type": "function"
    },
    {
      "inputs": [],
      "name": "owner",
      "outputs": [
        {
          "internalType": "address",
          "name": "",
          "type": "address"
        }
      ],
      "stateMutability": "view",
      "type": "function"
    },
    {
      "inputs": [],
      "name": "rank1Amount",
      "outputs": [
        {
          "internalType": "uint256",
          "name": "",
          "type": "uint256"
        }
      ],
      "stateMutability": "view",
      "type": "function"
    },
    {
      "inputs": [],
      "name": "rank2Amount",
      "outputs": [
        {
          "internalType": "uint256",
          "name": "",
          "type": "uint256"
        }
      ],
      "stateMutability": "view",
      "type": "function"
    },
    {
      "inputs": [],
      "name": "rank3Amount",
      "outputs": [
        {
          "internalType": "uint256",
          "name": "",
          "type": "uint256"
        }
      ],
      "stateMutability": "view",
      "type": "function"
    },
    {
      "inputs": [],
      "name": "rank4Amount",
      "outputs": [
        {
          "internalType": "uint256",
          "name": "",
          "type": "uint256"
        }
      ],
      "stateMutability": "view",
      "type": "function"
    },
    {
      "inputs": [],
      "name": "renounceOwnership",
      "outputs": [],
      "stateMutability": "nonpayable",
      "type": "function"
    },
    {
      "inputs": [
        {
          "internalType": "address",
          "name": "_address",
          "type": "address"
        },
        {
          "internalType": "uint256",
          "name": "_amount",
          "type": "uint256"
        }
      ],
      "name": "replenish",
      "outputs": [],
      "stateMutability": "nonpayable",
      "type": "function"
    },
    {
      "inputs": [
        {
          "internalType": "uint256",
          "name": "amount",
          "type": "uint256"
        }
      ],
      "name": "resignEmployeeTokens",
      "outputs": [],
      "stateMutability": "nonpayable",
      "type": "function"
    },
    {
      "inputs": [],
      "name": "symbol",
      "outputs": [
        {
          "internalType": "string",
          "name": "",
          "type": "string"
        }
      ],
      "stateMutability": "view",
      "type": "function"
    },
    {
      "inputs": [],
      "name": "totalSupply",
      "outputs": [
        {
          "internalType": "uint256",
          "name": "",
          "type": "uint256"
        }
      ],
      "stateMutability": "view",
      "type": "function"
    },
    {
      "inputs": [
        {
          "internalType": "address",
          "name": "to",
          "type": "address"
        },
        {
          "internalType": "uint256",
          "name": "amount",
          "type": "uint256"
        }
      ],
      "name": "transfer",
      "outputs": [
        {
          "internalType": "bool",
          "name": "",
          "type": "bool"
        }
      ],
      "stateMutability": "nonpayable",
      "type": "function"
    },
    {
      "inputs": [
        {
          "internalType": "address",
          "name": "from",
          "type": "address"
        },
        {
          "internalType": "address",
          "name": "to",
          "type": "address"
        },
        {
          "internalType": "uint256",
          "name": "amount",
          "type": "uint256"
        }
      ],
      "name": "transferFrom",
      "outputs": [
        {
          "internalType": "bool",
          "name": "",
          "type": "bool"
        }
      ],
      "stateMutability": "nonpayable",
      "type": "function"
    },
    {
      "inputs": [
        {
          "internalType": "address",
          "name": "newOwner",
          "type": "address"
        }
      ],
      "name": "transferOwnership",
      "outputs": [],
      "stateMutability": "nonpayable",
      "type": "function"
    },
    {
      "inputs": [
        {
          "internalType": "address",
          "name": "_address",
          "type": "address"
        }
      ],
      "name": "updateEmployeeContract",
      "outputs": [],
      "stateMutability": "nonpayable",
      "type": "function"
    }
  ],
  "bytecode": "0x61010060405269152d02c7e14af6800000608090815250691fc3842bd1f071c0000060a090815250692a5a058fc295ed00000060c090815250693f870857a3e0e380000060e0908152503480156200005657600080fd5b506040518060400160405280600d81526020017f456d706c6f796565546f6b656e000000000000000000000000000000000000008152506040518060400160405280600381526020017f454d5000000000000000000000000000000000000000000000000000000000008152508160039081620000d49190620004af565b508060049081620000e69190620004af565b50505062000109620000fd6200016760201b60201c565b6200016f60201b60201c565b6001600860003373ffffffffffffffffffffffffffffffffffffffff1673ffffffffffffffffffffffffffffffffffffffff16815260200190815260200160002060006101000a81548160ff02191690831515021790555062000596565b600033905090565b6000600560009054906101000a900473ffffffffffffffffffffffffffffffffffffffff16905081600560006101000a81548173ffffffffffffffffffffffffffffffffffffffff021916908373ffffffffffffffffffffffffffffffffffffffff1602179055508173ffffffffffffffffffffffffffffffffffffffff168173ffffffffffffffffffffffffffffffffffffffff167f8be0079c531659141344cd1fd0a4f28419497f9722a3daafe3b4186f6b6457e060405160405180910390a35050565b600081519050919050565b7f4e487b7100000000000000000000000000000000000000000000000000000000600052604160045260246000fd5b7f4e487b7100000000000000000000000000000000000000000000000000000000600052602260045260246000fd5b60006002820490506001821680620002b757607f821691505b602082108103620002cd57620002cc6200026f565b5b50919050565b60008190508160005260206000209050919050565b60006020601f8301049050919050565b600082821b905092915050565b600060088302620003377fffffffffffffffffffffffffffffffffffffffffffffffffffffffffffffffff82620002f8565b620003438683620002f8565b95508019841693508086168417925050509392505050565b6000819050919050565b6000819050919050565b6000620003906200038a62000384846200035b565b62000365565b6200035b565b9050919050565b6000819050919050565b620003ac836200036f565b620003c4620003bb8262000397565b84845462000305565b825550505050565b600090565b620003db620003cc565b620003e8818484620003a1565b505050565b5b81811015620004105762000404600082620003d1565b600181019050620003ee565b5050565b601f8211156200045f576200042981620002d3565b6200043484620002e8565b8101602085101562000444578190505b6200045c6200045385620002e8565b830182620003ed565b50505b505050565b600082821c905092915050565b6000620004846000198460080262000464565b1980831691505092915050565b60006200049f838362000471565b9150826002028217905092915050565b620004ba8262000235565b67ffffffffffffffff811115620004d657620004d562000240565b5b620004e282546200029e565b620004ef82828562000414565b600060209050601f83116001811462000527576000841562000512578287015190505b6200051e858262000491565b8655506200058e565b601f1984166200053786620002d3565b60005b8281101562000561578489015182556001820191506020850194506020810190506200053a565b868310156200058157848901516200057d601f89168262000471565b8355505b6001600288020188555050505b505050505050565b60805160a05160c05160e0516127db6200060860003960008181610a3801528181610eb90152610fe4015260008181610a0901528181610c570152610e910152600081816109d201528181610b6d0152610e6101526000818161099b01528181610ae10152610e3101526127db6000f3fe608060405234801561001057600080fd5b50600436106101fb5760003560e01c8063702eba281161011a5780638da5cb5b116100ad578063a9059cbb1161007c578063a9059cbb1461052e578063b0bdf9011461055e578063ce1c159714610568578063dd62ed3e14610586578063f2fde38b146105b6576101fb565b80638da5cb5b1461049257806395d89b41146104b0578063962d2809146104ce578063a457c2d7146104fe576101fb565b806375bc0f75116100e957806375bc0f751461044457806379cc6790146104625780638343f72a1461047e5780638bca141614610488576101fb565b8063702eba28146103d057806370a08231146103ee578063715018a61461041e57806372bd489014610428576101fb565b806335cb59291161019257806342966c681161016157806342966c6814610370578063564074551461038c5780635933af43146103a85780636e90996b146103c6576101fb565b806335cb592914610310578063395093511461031a5780633b022e5f1461034a57806340c10f1914610354576101fb565b806323b872dd116101ce57806323b872dd1461027657806323f6f422146102a657806324d7806c146102c2578063313ce567146102f2576101fb565b806306c7ff651461020057806306fdde031461020a578063095ea7b31461022857806318160ddd14610258575b600080fd5b6102086105d2565b005b61021261063a565b60405161021f9190611c5b565b60405180910390f35b610242600480360381019061023d9190611d16565b6106cc565b60405161024f9190611d71565b60405180910390f35b6102606106ef565b60405161026d9190611d9b565b60405180910390f35b610290600480360381019061028b9190611db6565b6106f9565b60405161029d9190611d71565b60405180910390f35b6102c060048036038101906102bb9190611e09565b610728565b005b6102dc60048036038101906102d79190611e09565b610803565b6040516102e99190611d71565b60405180910390f35b6102fa610823565b6040516103079190611e52565b60405180910390f35b61031861082c565b005b610334600480360381019061032f9190611d16565b610894565b6040516103419190611d71565b60405180910390f35b6103526108cb565b005b61036e60048036038101906103699190611d16565b610933565b005b61038a60048036038101906103859190611e6d565b610a63565b005b6103a660048036038101906103a19190611d16565b610a77565b005b6103b0610adf565b6040516103bd9190611d9b565b60405180910390f35b6103ce610b03565b005b6103d8610b6b565b6040516103e59190611d9b565b60405180910390f35b61040860048036038101906104039190611e09565b610b8f565b6040516104159190611d9b565b60405180910390f35b610426610bd7565b005b610442600480360381019061043d9190611e6d565b610beb565b005b61044c610c55565b6040516104599190611d9b565b60405180910390f35b61047c60048036038101906104779190611d16565b610c79565b005b610486610c99565b005b610490610d01565b005b61049a610d69565b6040516104a79190611ea9565b60405180910390f35b6104b8610d93565b6040516104c59190611c5b565b60405180910390f35b6104e860048036038101906104e39190611e6d565b610e25565b6040516104f59190611d9b565b60405180910390f35b61051860048036038101906105139190611d16565b610ee0565b6040516105259190611d71565b60405180910390f35b61054860048036038101906105439190611d16565b610f57565b6040516105559190611d71565b60405180910390f35b610566610f7a565b005b610570610fe2565b60405161057d9190611d9b565b60405180910390f35b6105a0600480360381019061059b9190611ec4565b611006565b6040516105ad9190611d9b565b60405180910390f35b6105d060048036038101906105cb9190611e09565b61108d565b005b60006105dd33610b8f565b1161061d576040517f08c379a000000000000000000000000000000000000000000000000000000000815260040161061490611f50565b60405180910390fd5b610638610628611110565b69021e19e0c9bab2400000611118565b565b60606003805461064990611f9f565b80601f016020809104026020016040519081016040528092919081815260200182805461067590611f9f565b80156106c25780601f10610697576101008083540402835291602001916106c2565b820191906000526020600020905b8154815290600101906020018083116106a557829003601f168201915b5050505050905090565b6000806106d7611110565b90506106e48185856112ee565b600191505092915050565b6000600254905090565b600080610704611110565b90506107118582856114b7565b61071c858585611543565b60019150509392505050565b600860003373ffffffffffffffffffffffffffffffffffffffff1673ffffffffffffffffffffffffffffffffffffffff16815260200190815260200160002060009054906101000a900460ff1661077e57600080fd5b80600760006101000a81548173ffffffffffffffffffffffffffffffffffffffff021916908373ffffffffffffffffffffffffffffffffffffffff16021790555080600660006101000a81548173ffffffffffffffffffffffffffffffffffffffff021916908373ffffffffffffffffffffffffffffffffffffffff16021790555050565b60086020528060005260406000206000915054906101000a900460ff1681565b60006012905090565b600061083733610b8f565b11610877576040517f08c379a000000000000000000000000000000000000000000000000000000000815260040161086e90611f50565b60405180910390fd5b610892610882611110565b69021e19e0c9bab2400000611118565b565b60008061089f611110565b90506108c08185856108b18589611006565b6108bb9190611fff565b6112ee565b600191505092915050565b60006108d633610b8f565b11610916576040517f08c379a000000000000000000000000000000000000000000000000000000000815260040161090d90611f50565b60405180910390fd5b610931610921611110565b69021e19e0c9bab2400000611118565b565b600760009054906101000a900473ffffffffffffffffffffffffffffffffffffffff1673ffffffffffffffffffffffffffffffffffffffff163373ffffffffffffffffffffffffffffffffffffffff161461098d57600080fd5b600181036109c4576109bf827f000000000000000000000000000000000000000000000000000000000000000061169f565b610a5f565b600281036109fb576109f6827f000000000000000000000000000000000000000000000000000000000000000061169f565b610a5e565b60038103610a3257610a2d827f000000000000000000000000000000000000000000000000000000000000000061169f565b610a5d565b610a5c827f000000000000000000000000000000000000000000000000000000000000000061169f565b5b5b5b5050565b610a74610a6e611110565b82611118565b50565b600760009054906101000a900473ffffffffffffffffffffffffffffffffffffffff1673ffffffffffffffffffffffffffffffffffffffff163373ffffffffffffffffffffffffffffffffffffffff1614610ad157600080fd5b610adb828261169f565b5050565b7f000000000000000000000000000000000000000000000000000000000000000081565b6000610b0e33610b8f565b11610b4e576040517f08c379a0000000000000000000000000000000000000000000000000000000008152600401610b4590611f50565b60405180910390fd5b610b69610b59611110565b69021e19e0c9bab2400000611118565b565b7f000000000000000000000000000000000000000000000000000000000000000081565b60008060008373ffffffffffffffffffffffffffffffffffffffff1673ffffffffffffffffffffffffffffffffffffffff168152602001908152602001600020549050919050565b610bdf6117fe565b610be9600061187c565b565b6000610bf633610b8f565b11610c36576040517f08c379a0000000000000000000000000000000000000000000000000000000008152600401610c2d9061207f565b60405180910390fd5b610c3f33610b8f565b9050610c52610c4c611110565b82611118565b50565b7f000000000000000000000000000000000000000000000000000000000000000081565b610c8b82610c85611110565b836114b7565b610c958282611118565b5050565b6000610ca433610b8f565b11610ce4576040517f08c379a0000000000000000000000000000000000000000000000000000000008152600401610cdb90611f50565b60405180910390fd5b610cff610cef611110565b69152d02c7e14af6800000611118565b565b6000610d0c33610b8f565b11610d4c576040517f08c379a0000000000000000000000000000000000000000000000000000000008152600401610d4390611f50565b60405180910390fd5b610d67610d57611110565b69021e19e0c9bab2400000611118565b565b6000600560009054906101000a900473ffffffffffffffffffffffffffffffffffffffff16905090565b606060048054610da290611f9f565b80601f0160208091040260200160405190810160405280929190818152602001828054610dce90611f9f565b8015610e1b5780601f10610df057610100808354040283529160200191610e1b565b820191906000526020600020905b815481529060010190602001808311610dfe57829003601f168201915b5050505050905090565b600060018203610e57577f00000000000000000000000000000000000000000000000000000000000000009050610edb565b60028203610e87577f00000000000000000000000000000000000000000000000000000000000000009050610edb565b60038203610eb7577f00000000000000000000000000000000000000000000000000000000000000009050610edb565b7f000000000000000000000000000000000000000000000000000000000000000090505b919050565b600080610eeb611110565b90506000610ef98286611006565b905083811015610f3e576040517f08c379a0000000000000000000000000000000000000000000000000000000008152600401610f3590612111565b60405180910390fd5b610f4b82868684036112ee565b60019250505092915050565b600080610f62611110565b9050610f6f818585611543565b600191505092915050565b6000610f8533610b8f565b11610fc5576040517f08c379a0000000000000000000000000000000000000000000000000000000008152600401610fbc90611f50565b60405180910390fd5b610fe0610fd0611110565b69021e19e0c9bab2400000611118565b565b7f000000000000000000000000000000000000000000000000000000000000000081565b6000600160008473ffffffffffffffffffffffffffffffffffffffff1673ffffffffffffffffffffffffffffffffffffffff16815260200190815260200160002060008373ffffffffffffffffffffffffffffffffffffffff1673ffffffffffffffffffffffffffffffffffffffff16815260200190815260200160002054905092915050565b6110956117fe565b600073ffffffffffffffffffffffffffffffffffffffff168173ffffffffffffffffffffffffffffffffffffffff1603611104576040517f08c379a00000000000000000000000000000000000000000000000000000000081526004016110fb906121a3565b60405180910390fd5b61110d8161187c565b50565b600033905090565b600073ffffffffffffffffffffffffffffffffffffffff168273ffffffffffffffffffffffffffffffffffffffff1603611187576040517f08c379a000000000000000000000000000000000000000000000000000000000815260040161117e90612235565b60405180910390fd5b61119382600083611942565b60008060008473ffffffffffffffffffffffffffffffffffffffff1673ffffffffffffffffffffffffffffffffffffffff16815260200190815260200160002054905081811015611219576040517f08c379a0000000000000000000000000000000000000000000000000000000008152600401611210906122c7565b60405180910390fd5b8181036000808573ffffffffffffffffffffffffffffffffffffffff1673ffffffffffffffffffffffffffffffffffffffff16815260200190815260200160002081905550816002600082825461127091906122e7565b92505081905550600073ffffffffffffffffffffffffffffffffffffffff168373ffffffffffffffffffffffffffffffffffffffff167fddf252ad1be2c89b69c2b068fc378daa952ba7f163c4a11628f55a4df523b3ef846040516112d59190611d9b565b60405180910390a36112e983600084611947565b505050565b600073ffffffffffffffffffffffffffffffffffffffff168373ffffffffffffffffffffffffffffffffffffffff160361135d576040517f08c379a00000000000000000000000000000000000000000000000000000000081526004016113549061238d565b60405180910390fd5b600073ffffffffffffffffffffffffffffffffffffffff168273ffffffffffffffffffffffffffffffffffffffff16036113cc576040517f08c379a00000000000000000000000000000000000000000000000000000000081526004016113c39061241f565b60405180910390fd5b80600160008573ffffffffffffffffffffffffffffffffffffffff1673ffffffffffffffffffffffffffffffffffffffff16815260200190815260200160002060008473ffffffffffffffffffffffffffffffffffffffff1673ffffffffffffffffffffffffffffffffffffffff168152602001908152602001600020819055508173ffffffffffffffffffffffffffffffffffffffff168373ffffffffffffffffffffffffffffffffffffffff167f8c5be1e5ebec7d5bd14f71427d1e84f3dd0314c0f7b2291e5b200ac8c7c3b925836040516114aa9190611d9b565b60405180910390a3505050565b60006114c38484611006565b90507fffffffffffffffffffffffffffffffffffffffffffffffffffffffffffffffff811461153d578181101561152f576040517f08c379a00000000000000000000000000000000000000000000000000000000081526004016115269061248b565b60405180910390fd5b61153c84848484036112ee565b5b50505050565b600073ffffffffffffffffffffffffffffffffffffffff168373ffffffffffffffffffffffffffffffffffffffff16036115b2576040517f08c379a00000000000000000000000000000000000000000000000000000000081526004016115a99061251d565b60405180910390fd5b600073ffffffffffffffffffffffffffffffffffffffff168273ffffffffffffffffffffffffffffffffffffffff1603611621576040517f08c379a0000000000000000000000000000000000000000000000000000000008152600401611618906125af565b60405180910390fd5b3073ffffffffffffffffffffffffffffffffffffffff168273ffffffffffffffffffffffffffffffffffffffff161461168f576040517f08c379a00000000000000000000000000000000000000000000000000000000081526004016116869061261b565b60405180910390fd5b61169a83838361194c565b505050565b600073ffffffffffffffffffffffffffffffffffffffff168273ffffffffffffffffffffffffffffffffffffffff160361170e576040517f08c379a000000000000000000000000000000000000000000000000000000000815260040161170590612687565b60405180910390fd5b61171a60008383611942565b806002600082825461172c9190611fff565b92505081905550806000808473ffffffffffffffffffffffffffffffffffffffff1673ffffffffffffffffffffffffffffffffffffffff16815260200190815260200160002060008282546117819190611fff565b925050819055508173ffffffffffffffffffffffffffffffffffffffff16600073ffffffffffffffffffffffffffffffffffffffff167fddf252ad1be2c89b69c2b068fc378daa952ba7f163c4a11628f55a4df523b3ef836040516117e69190611d9b565b60405180910390a36117fa60008383611947565b5050565b611806611110565b73ffffffffffffffffffffffffffffffffffffffff16611824610d69565b73ffffffffffffffffffffffffffffffffffffffff161461187a576040517f08c379a0000000000000000000000000000000000000000000000000000000008152600401611871906126f3565b60405180910390fd5b565b6000600560009054906101000a900473ffffffffffffffffffffffffffffffffffffffff16905081600560006101000a81548173ffffffffffffffffffffffffffffffffffffffff021916908373ffffffffffffffffffffffffffffffffffffffff1602179055508173ffffffffffffffffffffffffffffffffffffffff168173ffffffffffffffffffffffffffffffffffffffff167f8be0079c531659141344cd1fd0a4f28419497f9722a3daafe3b4186f6b6457e060405160405180910390a35050565b505050565b505050565b600073ffffffffffffffffffffffffffffffffffffffff168373ffffffffffffffffffffffffffffffffffffffff16036119bb576040517f08c379a00000000000000000000000000000000000000000000000000000000081526004016119b29061251d565b60405180910390fd5b600073ffffffffffffffffffffffffffffffffffffffff168273ffffffffffffffffffffffffffffffffffffffff1603611a2a576040517f08c379a0000000000000000000000000000000000000000000000000000000008152600401611a21906125af565b60405180910390fd5b611a35838383611942565b60008060008573ffffffffffffffffffffffffffffffffffffffff1673ffffffffffffffffffffffffffffffffffffffff16815260200190815260200160002054905081811015611abb576040517f08c379a0000000000000000000000000000000000000000000000000000000008152600401611ab290612785565b60405180910390fd5b8181036000808673ffffffffffffffffffffffffffffffffffffffff1673ffffffffffffffffffffffffffffffffffffffff16815260200190815260200160002081905550816000808573ffffffffffffffffffffffffffffffffffffffff1673ffffffffffffffffffffffffffffffffffffffff1681526020019081526020016000206000828254611b4e9190611fff565b925050819055508273ffffffffffffffffffffffffffffffffffffffff168473ffffffffffffffffffffffffffffffffffffffff167fddf252ad1be2c89b69c2b068fc378daa952ba7f163c4a11628f55a4df523b3ef84604051611bb29190611d9b565b60405180910390a3611bc5848484611947565b50505050565b600081519050919050565b600082825260208201905092915050565b60005b83811015611c05578082015181840152602081019050611bea565b60008484015250505050565b6000601f19601f8301169050919050565b6000611c2d82611bcb565b611c378185611bd6565b9350611c47818560208601611be7565b611c5081611c11565b840191505092915050565b60006020820190508181036000830152611c758184611c22565b905092915050565b600080fd5b600073ffffffffffffffffffffffffffffffffffffffff82169050919050565b6000611cad82611c82565b9050919050565b611cbd81611ca2565b8114611cc857600080fd5b50565b600081359050611cda81611cb4565b92915050565b6000819050919050565b611cf381611ce0565b8114611cfe57600080fd5b50565b600081359050611d1081611cea565b92915050565b60008060408385031215611d2d57611d2c611c7d565b5b6000611d3b85828601611ccb565b9250506020611d4c85828601611d01565b9150509250929050565b60008115159050919050565b611d6b81611d56565b82525050565b6000602082019050611d866000830184611d62565b92915050565b611d9581611ce0565b82525050565b6000602082019050611db06000830184611d8c565b92915050565b600080600060608486031215611dcf57611dce611c7d565b5b6000611ddd86828701611ccb565b9350506020611dee86828701611ccb565b9250506040611dff86828701611d01565b9150509250925092565b600060208284031215611e1f57611e1e611c7d565b5b6000611e2d84828501611ccb565b91505092915050565b600060ff82169050919050565b611e4c81611e36565b82525050565b6000602082019050611e676000830184611e43565b92915050565b600060208284031215611e8357611e82611c7d565b5b6000611e9184828501611d01565b91505092915050565b611ea381611ca2565b82525050565b6000602082019050611ebe6000830184611e9a565b92915050565b60008060408385031215611edb57611eda611c7d565b5b6000611ee985828601611ccb565b9250506020611efa85828601611ccb565b9150509250929050565b7f4e6f20746f6b656e7320746f206c656674000000000000000000000000000000600082015250565b6000611f3a601183611bd6565b9150611f4582611f04565b602082019050919050565b60006020820190508181036000830152611f6981611f2d565b9050919050565b7f4e487b7100000000000000000000000000000000000000000000000000000000600052602260045260246000fd5b60006002820490506001821680611fb757607f821691505b602082108103611fca57611fc9611f70565b5b50919050565b7f4e487b7100000000000000000000000000000000000000000000000000000000600052601160045260246000fd5b600061200a82611ce0565b915061201583611ce0565b925082820190508082111561202d5761202c611fd0565b5b92915050565b7f4e6f20746f6b656e7320746f206275726e000000000000000000000000000000600082015250565b6000612069601183611bd6565b915061207482612033565b602082019050919050565b600060208201905081810360008301526120988161205c565b9050919050565b7f45524332303a2064656372656173656420616c6c6f77616e63652062656c6f7760008201527f207a65726f000000000000000000000000000000000000000000000000000000602082015250565b60006120fb602583611bd6565b91506121068261209f565b604082019050919050565b6000602082019050818103600083015261212a816120ee565b9050919050565b7f4f776e61626c653a206e6577206f776e657220697320746865207a65726f206160008201527f6464726573730000000000000000000000000000000000000000000000000000602082015250565b600061218d602683611bd6565b915061219882612131565b604082019050919050565b600060208201905081810360008301526121bc81612180565b9050919050565b7f45524332303a206275726e2066726f6d20746865207a65726f2061646472657360008201527f7300000000000000000000000000000000000000000000000000000000000000602082015250565b600061221f602183611bd6565b915061222a826121c3565b604082019050919050565b6000602082019050818103600083015261224e81612212565b9050919050565b7f45524332303a206275726e20616d6f756e7420657863656564732062616c616e60008201527f6365000000000000000000000000000000000000000000000000000000000000602082015250565b60006122b1602283611bd6565b91506122bc82612255565b604082019050919050565b600060208201905081810360008301526122e0816122a4565b9050919050565b60006122f282611ce0565b91506122fd83611ce0565b925082820390508181111561231557612314611fd0565b5b92915050565b7f45524332303a20617070726f76652066726f6d20746865207a65726f2061646460008201527f7265737300000000000000000000000000000000000000000000000000000000602082015250565b6000612377602483611bd6565b91506123828261231b565b604082019050919050565b600060208201905081810360008301526123a68161236a565b9050919050565b7f45524332303a20617070726f766520746f20746865207a65726f20616464726560008201527f7373000000000000000000000000000000000000000000000000000000000000602082015250565b6000612409602283611bd6565b9150612414826123ad565b604082019050919050565b60006020820190508181036000830152612438816123fc565b9050919050565b7f45524332303a20696e73756666696369656e7420616c6c6f77616e6365000000600082015250565b6000612475601d83611bd6565b91506124808261243f565b602082019050919050565b600060208201905081810360008301526124a481612468565b9050919050565b7f45524332303a207472616e736665722066726f6d20746865207a65726f20616460008201527f6472657373000000000000000000000000000000000000000000000000000000602082015250565b6000612507602583611bd6565b9150612512826124ab565b604082019050919050565b60006020820190508181036000830152612536816124fa565b9050919050565b7f45524332303a207472616e7366657220746f20746865207a65726f206164647260008201527f6573730000000000000000000000000000000000000000000000000000000000602082015250565b6000612599602383611bd6565b91506125a48261253d565b604082019050919050565b600060208201905081810360008301526125c88161258c565b9050919050565b7f596f752063616e6e6f74207472616e7366657220746f6b656e73000000000000600082015250565b6000612605601a83611bd6565b9150612610826125cf565b602082019050919050565b60006020820190508181036000830152612634816125f8565b9050919050565b7f45524332303a206d696e7420746f20746865207a65726f206164647265737300600082015250565b6000612671601f83611bd6565b915061267c8261263b565b602082019050919050565b600060208201905081810360008301526126a081612664565b9050919050565b7f4f776e61626c653a2063616c6c6572206973206e6f7420746865206f776e6572600082015250565b60006126dd602083611bd6565b91506126e8826126a7565b602082019050919050565b6000602082019050818103600083015261270c816126d0565b9050919050565b7f45524332303a207472616e7366657220616d6f756e742065786365656473206260008201527f616c616e63650000000000000000000000000000000000000000000000000000602082015250565b600061276f602683611bd6565b915061277a82612713565b604082019050919050565b6000602082019050818103600083015261279e81612762565b905091905056fea264697066735822122049109e8158740c16b9b6fbd0f9d805480a9eb263e989bf6cdb2fa2d76c40981464736f6c63430008110033",
  "linkReferences": {},
  "deployedLinkReferences": {}
}