{
  "_format": "hh-sol-artifact-1",
  "contractName": "EmployeePayroll",
  "sourceName": "contracts/EmployeePayroll.sol",
  "abi": [
    {
      "inputs": [],
      "stateMutability": "nonpayable",
      "type": "constructor"
    },
    {
      "anonymous": false,
      "inputs": [
        {
          "indexed": true,
          "internalType": "address",
          "name": "owner",
          "type": "address"
        },
        {
          "indexed": true,
          "internalType": "address",
          "name": "spender",
          "type": "address"
        },
        {
          "indexed": false,
          "internalType": "uint256",
          "name": "value",
          "type": "uint256"
        }
      ],
      "name": "Approval",
      "type": "event"
    },
    {
      "anonymous": false,
      "inputs": [
        {
          "indexed": true,
          "internalType": "address",
          "name": "previousOwner",
          "type": "address"
        },
        {
          "indexed": true,
          "internalType": "address",
          "name": "newOwner",
          "type": "address"
        }
      ],
      "name": "OwnershipTransferred",
      "type": "event"
    },
    {
      "anonymous": false,
      "inputs": [
        {
          "indexed": true,
          "internalType": "address",
          "name": "from",
          "type": "address"
        },
        {
          "indexed": true,
          "internalType": "address",
          "name": "to",
          "type": "address"
        },
        {
          "indexed": false,
          "internalType": "uint256",
          "name": "value",
          "type": "uint256"
        }
      ],
      "name": "Transfer",
      "type": "event"
    },
    {
      "inputs": [
        {
          "internalType": "address",
          "name": "owner",
          "type": "address"
        },
        {
          "internalType": "address",
          "name": "spender",
          "type": "address"
        }
      ],
      "name": "allowance",
      "outputs": [
        {
          "internalType": "uint256",
          "name": "",
          "type": "uint256"
        }
      ],
      "stateMutability": "view",
      "type": "function"
    },
    {
      "inputs": [
        {
          "internalType": "address",
          "name": "spender",
          "type": "address"
        },
        {
          "internalType": "uint256",
          "name": "amount",
          "type": "uint256"
        }
      ],
      "name": "approve",
      "outputs": [
        {
          "internalType": "bool",
          "name": "",
          "type": "bool"
        }
      ],
      "stateMutability": "nonpayable",
      "type": "function"
    },
    {
      "inputs": [
        {
          "internalType": "address",
          "name": "account",
          "type": "address"
        }
      ],
      "name": "balanceOf",
      "outputs": [
        {
          "internalType": "uint256",
          "name": "",
          "type": "uint256"
        }
      ],
      "stateMutability": "view",
      "type": "function"
    },
    {
      "inputs": [
        {
          "internalType": "uint256",
          "name": "amount",
          "type": "uint256"
        }
      ],
      "name": "burn",
      "outputs": [],
      "stateMutability": "nonpayable",
      "type": "function"
    },
    {
      "inputs": [
        {
          "internalType": "address",
          "name": "account",
          "type": "address"
        },
        {
          "internalType": "uint256",
          "name": "amount",
          "type": "uint256"
        }
      ],
      "name": "burnFrom",
      "outputs": [],
      "stateMutability": "nonpayable",
      "type": "function"
    },
    {
      "inputs": [],
      "name": "decimals",
      "outputs": [
        {
          "internalType": "uint8",
          "name": "",
          "type": "uint8"
        }
      ],
      "stateMutability": "view",
      "type": "function"
    },
    {
      "inputs": [
        {
          "internalType": "address",
          "name": "spender",
          "type": "address"
        },
        {
          "internalType": "uint256",
          "name": "subtractedValue",
          "type": "uint256"
        }
      ],
      "name": "decreaseAllowance",
      "outputs": [
        {
          "internalType": "bool",
          "name": "",
          "type": "bool"
        }
      ],
      "stateMutability": "nonpayable",
      "type": "function"
    },
    {
      "inputs": [
        {
          "internalType": "uint256",
          "name": "",
          "type": "uint256"
        }
      ],
      "name": "employeeArray",
      "outputs": [
        {
          "internalType": "string",
          "name": "name",
          "type": "string"
        },
        {
          "internalType": "uint256",
          "name": "rank",
          "type": "uint256"
        },
        {
          "internalType": "uint256",
          "name": "dateOfBirth",
          "type": "uint256"
        },
        {
          "internalType": "uint256",
          "name": "salary",
          "type": "uint256"
        },
        {
          "internalType": "address",
          "name": "walletAddress",
          "type": "address"
        },
        {
          "internalType": "bool",
          "name": "active",
          "type": "bool"
        }
      ],
      "stateMutability": "view",
      "type": "function"
    },
    {
      "inputs": [],
      "name": "employeeContract",
      "outputs": [
        {
          "internalType": "contract Employees",
          "name": "",
          "type": "address"
        }
      ],
      "stateMutability": "view",
      "type": "function"
    },
    {
      "inputs": [
        {
          "internalType": "address",
          "name": "spender",
          "type": "address"
        },
        {
          "internalType": "uint256",
          "name": "addedValue",
          "type": "uint256"
        }
      ],
      "name": "increaseAllowance",
      "outputs": [
        {
          "internalType": "bool",
          "name": "",
          "type": "bool"
        }
      ],
      "stateMutability": "nonpayable",
      "type": "function"
    },
    {
      "inputs": [
        {
          "internalType": "address",
          "name": "",
          "type": "address"
        }
      ],
      "name": "isAdmin",
      "outputs": [
        {
          "internalType": "bool",
          "name": "",
          "type": "bool"
        }
      ],
      "stateMutability": "view",
      "type": "function"
    },
    {
      "inputs": [
        {
          "internalType": "address",
          "name": "_to",
          "type": "address"
        },
        {
          "internalType": "uint256",
          "name": "_amount",
          "type": "uint256"
        }
      ],
      "name": "mint",
      "outputs": [],
      "stateMutability": "nonpayable",
      "type": "function"
    },
    {
      "inputs": [],
      "name": "name",
      "outputs": [
        {
          "internalType": "string",
          "name": "",
          "type": "string"
        }
      ],
      "stateMutability": "view",
      "type": "function"
    },
    {
      "inputs": [],
      "name": "owner",
      "outputs": [
        {
          "internalType": "address",
          "name": "",
          "type": "address"
        }
      ],
      "stateMutability": "view",
      "type": "function"
    },
    {
      "inputs": [],
      "name": "renounceOwnership",
      "outputs": [],
      "stateMutability": "nonpayable",
      "type": "function"
    },
    {
      "inputs": [
        {
          "internalType": "address",
          "name": "_address",
          "type": "address"
        },
        {
          "internalType": "bool",
          "name": "_isAdmin",
          "type": "bool"
        }
      ],
      "name": "setAdmin",
      "outputs": [],
      "stateMutability": "nonpayable",
      "type": "function"
    },
    {
      "inputs": [],
      "name": "symbol",
      "outputs": [
        {
          "internalType": "string",
          "name": "",
          "type": "string"
        }
      ],
      "stateMutability": "view",
      "type": "function"
    },
    {
      "inputs": [],
      "name": "totalSupply",
      "outputs": [
        {
          "internalType": "uint256",
          "name": "",
          "type": "uint256"
        }
      ],
      "stateMutability": "view",
      "type": "function"
    },
    {
      "inputs": [
        {
          "internalType": "address",
          "name": "to",
          "type": "address"
        },
        {
          "internalType": "uint256",
          "name": "amount",
          "type": "uint256"
        }
      ],
      "name": "transfer",
      "outputs": [
        {
          "internalType": "bool",
          "name": "",
          "type": "bool"
        }
      ],
      "stateMutability": "nonpayable",
      "type": "function"
    },
    {
      "inputs": [
        {
          "internalType": "address",
          "name": "from",
          "type": "address"
        },
        {
          "internalType": "address",
          "name": "to",
          "type": "address"
        },
        {
          "internalType": "uint256",
          "name": "amount",
          "type": "uint256"
        }
      ],
      "name": "transferFrom",
      "outputs": [
        {
          "internalType": "bool",
          "name": "",
          "type": "bool"
        }
      ],
      "stateMutability": "nonpayable",
      "type": "function"
    },
    {
      "inputs": [
        {
          "internalType": "address",
          "name": "newOwner",
          "type": "address"
        }
      ],
      "name": "transferOwnership",
      "outputs": [],
      "stateMutability": "nonpayable",
      "type": "function"
    },
    {
      "inputs": [
        {
          "internalType": "address",
          "name": "_address",
          "type": "address"
        }
      ],
      "name": "updateEmployeeContract",
      "outputs": [],
      "stateMutability": "nonpayable",
      "type": "function"
    },
    {
      "inputs": [
        {
          "internalType": "address",
          "name": "_address",
          "type": "address"
        }
      ],
      "name": "updateEmployeeContractAddress",
      "outputs": [],
      "stateMutability": "nonpayable",
      "type": "function"
    }
  ],
  "bytecode": "0x60806040523480156200001157600080fd5b506040518060400160405280600b81526020017f456d706c6f7965655553440000000000000000000000000000000000000000008152506040518060400160405280600681526020017f454d50555344000000000000000000000000000000000000000000000000000081525081600390816200008f91906200046a565b508060049081620000a191906200046a565b505050620000c4620000b86200012260201b60201c565b6200012a60201b60201c565b6001600860003373ffffffffffffffffffffffffffffffffffffffff1673ffffffffffffffffffffffffffffffffffffffff16815260200190815260200160002060006101000a81548160ff02191690831515021790555062000551565b600033905090565b6000600560009054906101000a900473ffffffffffffffffffffffffffffffffffffffff16905081600560006101000a81548173ffffffffffffffffffffffffffffffffffffffff021916908373ffffffffffffffffffffffffffffffffffffffff1602179055508173ffffffffffffffffffffffffffffffffffffffff168173ffffffffffffffffffffffffffffffffffffffff167f8be0079c531659141344cd1fd0a4f28419497f9722a3daafe3b4186f6b6457e060405160405180910390a35050565b600081519050919050565b7f4e487b7100000000000000000000000000000000000000000000000000000000600052604160045260246000fd5b7f4e487b7100000000000000000000000000000000000000000000000000000000600052602260045260246000fd5b600060028204905060018216806200027257607f821691505b6020821081036200028857620002876200022a565b5b50919050565b60008190508160005260206000209050919050565b60006020601f8301049050919050565b600082821b905092915050565b600060088302620002f27fffffffffffffffffffffffffffffffffffffffffffffffffffffffffffffffff82620002b3565b620002fe8683620002b3565b95508019841693508086168417925050509392505050565b6000819050919050565b6000819050919050565b60006200034b620003456200033f8462000316565b62000320565b62000316565b9050919050565b6000819050919050565b62000367836200032a565b6200037f620003768262000352565b848454620002c0565b825550505050565b600090565b6200039662000387565b620003a38184846200035c565b505050565b5b81811015620003cb57620003bf6000826200038c565b600181019050620003a9565b5050565b601f8211156200041a57620003e4816200028e565b620003ef84620002a3565b81016020851015620003ff578190505b620004176200040e85620002a3565b830182620003a8565b50505b505050565b600082821c905092915050565b60006200043f600019846008026200041f565b1980831691505092915050565b60006200045a83836200042c565b9150826002028217905092915050565b6200047582620001f0565b67ffffffffffffffff811115620004915762000490620001fb565b5b6200049d825462000259565b620004aa828285620003cf565b600060209050601f831160018114620004e25760008415620004cd578287015190505b620004d985826200044c565b86555062000549565b601f198416620004f2866200028e565b60005b828110156200051c57848901518255600182019150602085019450602081019050620004f5565b868310156200053c578489015162000538601f8916826200042c565b8355505b6001600288020188555050505b505050505050565b6122f680620005616000396000f3fe608060405234801561001057600080fd5b506004361061014d5760003560e01c806350878ebe116100c357806395d89b411161007c57806395d89b41146103a35780639de572b8146103c1578063a457c2d7146103dd578063a9059cbb1461040d578063dd62ed3e1461043d578063f2fde38b1461046d5761014d565b806350878ebe146102dc57806370a08231146102fa578063715018a61461032a57806379cc6790146103345780638618801e146103505780638da5cb5b146103855761014d565b806324d7806c1161011557806324d7806c1461020a578063313ce5671461023a578063395093511461025857806340c10f191461028857806342966c68146102a45780634b0bddd2146102c05761014d565b806306fdde0314610152578063095ea7b31461017057806318160ddd146101a057806323b872dd146101be57806323f6f422146101ee575b600080fd5b61015a610489565b60405161016791906115ac565b60405180910390f35b61018a60048036038101906101859190611667565b61051b565b60405161019791906116c2565b60405180910390f35b6101a861053e565b6040516101b591906116ec565b60405180910390f35b6101d860048036038101906101d39190611707565b610548565b6040516101e591906116c2565b60405180910390f35b6102086004803603810190610203919061175a565b610577565b005b610224600480360381019061021f919061175a565b6105c3565b60405161023191906116c2565b60405180910390f35b6102426105e3565b60405161024f91906117a3565b60405180910390f35b610272600480360381019061026d9190611667565b6105ec565b60405161027f91906116c2565b60405180910390f35b6102a2600480360381019061029d9190611667565b610623565b005b6102be60048036038101906102b991906117be565b6106a9565b005b6102da60048036038101906102d59190611817565b6106bd565b005b6102e4610720565b6040516102f191906118b6565b60405180910390f35b610314600480360381019061030f919061175a565b610746565b60405161032191906116ec565b60405180910390f35b61033261078e565b005b61034e60048036038101906103499190611667565b6107a2565b005b61036a600480360381019061036591906117be565b6107c2565b60405161037c969594939291906118e0565b60405180910390f35b61038d6108c3565b60405161039a9190611948565b60405180910390f35b6103ab6108ed565b6040516103b891906115ac565b60405180910390f35b6103db60048036038101906103d6919061175a565b61097f565b005b6103f760048036038101906103f29190611667565b610a19565b60405161040491906116c2565b60405180910390f35b61042760048036038101906104229190611667565b610a90565b60405161043491906116c2565b60405180910390f35b61045760048036038101906104529190611963565b610ab3565b60405161046491906116ec565b60405180910390f35b6104876004803603810190610482919061175a565b610b3a565b005b606060038054610498906119d2565b80601f01602080910402602001604051908101604052809291908181526020018280546104c4906119d2565b80156105115780601f106104e657610100808354040283529160200191610511565b820191906000526020600020905b8154815290600101906020018083116104f457829003601f168201915b5050505050905090565b600080610526610bbd565b9050610533818585610bc5565b600191505092915050565b6000600254905090565b600080610553610bbd565b9050610560858285610d8e565b61056b858585610e1a565b60019150509392505050565b61057f611099565b80600660006101000a81548173ffffffffffffffffffffffffffffffffffffffff021916908373ffffffffffffffffffffffffffffffffffffffff16021790555050565b60086020528060005260406000206000915054906101000a900460ff1681565b60006012905090565b6000806105f7610bbd565b90506106188185856106098589610ab3565b6106139190611a32565b610bc5565b600191505092915050565b600760009054906101000a900473ffffffffffffffffffffffffffffffffffffffff1673ffffffffffffffffffffffffffffffffffffffff163373ffffffffffffffffffffffffffffffffffffffff161461067d57600080fd5b6106a5826106896105e3565b600a6106959190611b99565b836106a09190611be4565b611117565b5050565b6106ba6106b4610bbd565b82611276565b50565b6106c5611099565b80600860008473ffffffffffffffffffffffffffffffffffffffff1673ffffffffffffffffffffffffffffffffffffffff16815260200190815260200160002060006101000a81548160ff0219169083151502179055505050565b600660009054906101000a900473ffffffffffffffffffffffffffffffffffffffff1681565b60008060008373ffffffffffffffffffffffffffffffffffffffff1673ffffffffffffffffffffffffffffffffffffffff168152602001908152602001600020549050919050565b610796611099565b6107a0600061144c565b565b6107b4826107ae610bbd565b83610d8e565b6107be8282611276565b5050565b600981815481106107d257600080fd5b90600052602060002090600502016000915090508060000180546107f5906119d2565b80601f0160208091040260200160405190810160405280929190818152602001828054610821906119d2565b801561086e5780601f106108435761010080835404028352916020019161086e565b820191906000526020600020905b81548152906001019060200180831161085157829003601f168201915b5050505050908060010154908060020154908060030154908060040160009054906101000a900473ffffffffffffffffffffffffffffffffffffffff16908060040160149054906101000a900460ff16905086565b6000600560009054906101000a900473ffffffffffffffffffffffffffffffffffffffff16905090565b6060600480546108fc906119d2565b80601f0160208091040260200160405190810160405280929190818152602001828054610928906119d2565b80156109755780601f1061094a57610100808354040283529160200191610975565b820191906000526020600020905b81548152906001019060200180831161095857829003601f168201915b5050505050905090565b600860003373ffffffffffffffffffffffffffffffffffffffff1673ffffffffffffffffffffffffffffffffffffffff16815260200190815260200160002060009054906101000a900460ff166109d557600080fd5b80600760006101000a81548173ffffffffffffffffffffffffffffffffffffffff021916908373ffffffffffffffffffffffffffffffffffffffff16021790555050565b600080610a24610bbd565b90506000610a328286610ab3565b905083811015610a77576040517f08c379a0000000000000000000000000000000000000000000000000000000008152600401610a6e90611c98565b60405180910390fd5b610a848286868403610bc5565b60019250505092915050565b600080610a9b610bbd565b9050610aa8818585610e1a565b600191505092915050565b6000600160008473ffffffffffffffffffffffffffffffffffffffff1673ffffffffffffffffffffffffffffffffffffffff16815260200190815260200160002060008373ffffffffffffffffffffffffffffffffffffffff1673ffffffffffffffffffffffffffffffffffffffff16815260200190815260200160002054905092915050565b610b42611099565b600073ffffffffffffffffffffffffffffffffffffffff168173ffffffffffffffffffffffffffffffffffffffff1603610bb1576040517f08c379a0000000000000000000000000000000000000000000000000000000008152600401610ba890611d2a565b60405180910390fd5b610bba8161144c565b50565b600033905090565b600073ffffffffffffffffffffffffffffffffffffffff168373ffffffffffffffffffffffffffffffffffffffff1603610c34576040517f08c379a0000000000000000000000000000000000000000000000000000000008152600401610c2b90611dbc565b60405180910390fd5b600073ffffffffffffffffffffffffffffffffffffffff168273ffffffffffffffffffffffffffffffffffffffff1603610ca3576040517f08c379a0000000000000000000000000000000000000000000000000000000008152600401610c9a90611e4e565b60405180910390fd5b80600160008573ffffffffffffffffffffffffffffffffffffffff1673ffffffffffffffffffffffffffffffffffffffff16815260200190815260200160002060008473ffffffffffffffffffffffffffffffffffffffff1673ffffffffffffffffffffffffffffffffffffffff168152602001908152602001600020819055508173ffffffffffffffffffffffffffffffffffffffff168373ffffffffffffffffffffffffffffffffffffffff167f8c5be1e5ebec7d5bd14f71427d1e84f3dd0314c0f7b2291e5b200ac8c7c3b92583604051610d8191906116ec565b60405180910390a3505050565b6000610d9a8484610ab3565b90507fffffffffffffffffffffffffffffffffffffffffffffffffffffffffffffffff8114610e145781811015610e06576040517f08c379a0000000000000000000000000000000000000000000000000000000008152600401610dfd90611eba565b60405180910390fd5b610e138484848403610bc5565b5b50505050565b600073ffffffffffffffffffffffffffffffffffffffff168373ffffffffffffffffffffffffffffffffffffffff1603610e89576040517f08c379a0000000000000000000000000000000000000000000000000000000008152600401610e8090611f4c565b60405180910390fd5b600073ffffffffffffffffffffffffffffffffffffffff168273ffffffffffffffffffffffffffffffffffffffff1603610ef8576040517f08c379a0000000000000000000000000000000000000000000000000000000008152600401610eef90611fde565b60405180910390fd5b610f03838383611512565b60008060008573ffffffffffffffffffffffffffffffffffffffff1673ffffffffffffffffffffffffffffffffffffffff16815260200190815260200160002054905081811015610f89576040517f08c379a0000000000000000000000000000000000000000000000000000000008152600401610f8090612070565b60405180910390fd5b8181036000808673ffffffffffffffffffffffffffffffffffffffff1673ffffffffffffffffffffffffffffffffffffffff16815260200190815260200160002081905550816000808573ffffffffffffffffffffffffffffffffffffffff1673ffffffffffffffffffffffffffffffffffffffff168152602001908152602001600020600082825461101c9190611a32565b925050819055508273ffffffffffffffffffffffffffffffffffffffff168473ffffffffffffffffffffffffffffffffffffffff167fddf252ad1be2c89b69c2b068fc378daa952ba7f163c4a11628f55a4df523b3ef8460405161108091906116ec565b60405180910390a3611093848484611517565b50505050565b6110a1610bbd565b73ffffffffffffffffffffffffffffffffffffffff166110bf6108c3565b73ffffffffffffffffffffffffffffffffffffffff1614611115576040517f08c379a000000000000000000000000000000000000000000000000000000000815260040161110c906120dc565b60405180910390fd5b565b600073ffffffffffffffffffffffffffffffffffffffff168273ffffffffffffffffffffffffffffffffffffffff1603611186576040517f08c379a000000000000000000000000000000000000000000000000000000000815260040161117d90612148565b60405180910390fd5b61119260008383611512565b80600260008282546111a49190611a32565b92505081905550806000808473ffffffffffffffffffffffffffffffffffffffff1673ffffffffffffffffffffffffffffffffffffffff16815260200190815260200160002060008282546111f99190611a32565b925050819055508173ffffffffffffffffffffffffffffffffffffffff16600073ffffffffffffffffffffffffffffffffffffffff167fddf252ad1be2c89b69c2b068fc378daa952ba7f163c4a11628f55a4df523b3ef8360405161125e91906116ec565b60405180910390a361127260008383611517565b5050565b600073ffffffffffffffffffffffffffffffffffffffff168273ffffffffffffffffffffffffffffffffffffffff16036112e5576040517f08c379a00000000000000000000000000000000000000000000000000000000081526004016112dc906121da565b60405180910390fd5b6112f182600083611512565b60008060008473ffffffffffffffffffffffffffffffffffffffff1673ffffffffffffffffffffffffffffffffffffffff16815260200190815260200160002054905081811015611377576040517f08c379a000000000000000000000000000000000000000000000000000000000815260040161136e9061226c565b60405180910390fd5b8181036000808573ffffffffffffffffffffffffffffffffffffffff1673ffffffffffffffffffffffffffffffffffffffff1681526020019081526020016000208190555081600260008282546113ce919061228c565b92505081905550600073ffffffffffffffffffffffffffffffffffffffff168373ffffffffffffffffffffffffffffffffffffffff167fddf252ad1be2c89b69c2b068fc378daa952ba7f163c4a11628f55a4df523b3ef8460405161143391906116ec565b60405180910390a361144783600084611517565b505050565b6000600560009054906101000a900473ffffffffffffffffffffffffffffffffffffffff16905081600560006101000a81548173ffffffffffffffffffffffffffffffffffffffff021916908373ffffffffffffffffffffffffffffffffffffffff1602179055508173ffffffffffffffffffffffffffffffffffffffff168173ffffffffffffffffffffffffffffffffffffffff167f8be0079c531659141344cd1fd0a4f28419497f9722a3daafe3b4186f6b6457e060405160405180910390a35050565b505050565b505050565b600081519050919050565b600082825260208201905092915050565b60005b8381101561155657808201518184015260208101905061153b565b60008484015250505050565b6000601f19601f8301169050919050565b600061157e8261151c565b6115888185611527565b9350611598818560208601611538565b6115a181611562565b840191505092915050565b600060208201905081810360008301526115c68184611573565b905092915050565b600080fd5b600073ffffffffffffffffffffffffffffffffffffffff82169050919050565b60006115fe826115d3565b9050919050565b61160e816115f3565b811461161957600080fd5b50565b60008135905061162b81611605565b92915050565b6000819050919050565b61164481611631565b811461164f57600080fd5b50565b6000813590506116618161163b565b92915050565b6000806040838503121561167e5761167d6115ce565b5b600061168c8582860161161c565b925050602061169d85828601611652565b9150509250929050565b60008115159050919050565b6116bc816116a7565b82525050565b60006020820190506116d760008301846116b3565b92915050565b6116e681611631565b82525050565b600060208201905061170160008301846116dd565b92915050565b6000806000606084860312156117205761171f6115ce565b5b600061172e8682870161161c565b935050602061173f8682870161161c565b925050604061175086828701611652565b9150509250925092565b6000602082840312156117705761176f6115ce565b5b600061177e8482850161161c565b91505092915050565b600060ff82169050919050565b61179d81611787565b82525050565b60006020820190506117b86000830184611794565b92915050565b6000602082840312156117d4576117d36115ce565b5b60006117e284828501611652565b91505092915050565b6117f4816116a7565b81146117ff57600080fd5b50565b600081359050611811816117eb565b92915050565b6000806040838503121561182e5761182d6115ce565b5b600061183c8582860161161c565b925050602061184d85828601611802565b9150509250929050565b6000819050919050565b600061187c611877611872846115d3565b611857565b6115d3565b9050919050565b600061188e82611861565b9050919050565b60006118a082611883565b9050919050565b6118b081611895565b82525050565b60006020820190506118cb60008301846118a7565b92915050565b6118da816115f3565b82525050565b600060c08201905081810360008301526118fa8189611573565b905061190960208301886116dd565b61191660408301876116dd565b61192360608301866116dd565b61193060808301856118d1565b61193d60a08301846116b3565b979650505050505050565b600060208201905061195d60008301846118d1565b92915050565b6000806040838503121561197a576119796115ce565b5b60006119888582860161161c565b92505060206119998582860161161c565b9150509250929050565b7f4e487b7100000000000000000000000000000000000000000000000000000000600052602260045260246000fd5b600060028204905060018216806119ea57607f821691505b6020821081036119fd576119fc6119a3565b5b50919050565b7f4e487b7100000000000000000000000000000000000000000000000000000000600052601160045260246000fd5b6000611a3d82611631565b9150611a4883611631565b9250828201905080821115611a6057611a5f611a03565b5b92915050565b60008160011c9050919050565b6000808291508390505b6001851115611abd57808604811115611a9957611a98611a03565b5b6001851615611aa85780820291505b8081029050611ab685611a66565b9450611a7d565b94509492505050565b600082611ad65760019050611b92565b81611ae45760009050611b92565b8160018114611afa5760028114611b0457611b33565b6001915050611b92565b60ff841115611b1657611b15611a03565b5b8360020a915084821115611b2d57611b2c611a03565b5b50611b92565b5060208310610133831016604e8410600b8410161715611b685782820a905083811115611b6357611b62611a03565b5b611b92565b611b758484846001611a73565b92509050818404811115611b8c57611b8b611a03565b5b81810290505b9392505050565b6000611ba482611631565b9150611baf83611787565b9250611bdc7fffffffffffffffffffffffffffffffffffffffffffffffffffffffffffffffff8484611ac6565b905092915050565b6000611bef82611631565b9150611bfa83611631565b9250828202611c0881611631565b91508282048414831517611c1f57611c1e611a03565b5b5092915050565b7f45524332303a2064656372656173656420616c6c6f77616e63652062656c6f7760008201527f207a65726f000000000000000000000000000000000000000000000000000000602082015250565b6000611c82602583611527565b9150611c8d82611c26565b604082019050919050565b60006020820190508181036000830152611cb181611c75565b9050919050565b7f4f776e61626c653a206e6577206f776e657220697320746865207a65726f206160008201527f6464726573730000000000000000000000000000000000000000000000000000602082015250565b6000611d14602683611527565b9150611d1f82611cb8565b604082019050919050565b60006020820190508181036000830152611d4381611d07565b9050919050565b7f45524332303a20617070726f76652066726f6d20746865207a65726f2061646460008201527f7265737300000000000000000000000000000000000000000000000000000000602082015250565b6000611da6602483611527565b9150611db182611d4a565b604082019050919050565b60006020820190508181036000830152611dd581611d99565b9050919050565b7f45524332303a20617070726f766520746f20746865207a65726f20616464726560008201527f7373000000000000000000000000000000000000000000000000000000000000602082015250565b6000611e38602283611527565b9150611e4382611ddc565b604082019050919050565b60006020820190508181036000830152611e6781611e2b565b9050919050565b7f45524332303a20696e73756666696369656e7420616c6c6f77616e6365000000600082015250565b6000611ea4601d83611527565b9150611eaf82611e6e565b602082019050919050565b60006020820190508181036000830152611ed381611e97565b9050919050565b7f45524332303a207472616e736665722066726f6d20746865207a65726f20616460008201527f6472657373000000000000000000000000000000000000000000000000000000602082015250565b6000611f36602583611527565b9150611f4182611eda565b604082019050919050565b60006020820190508181036000830152611f6581611f29565b9050919050565b7f45524332303a207472616e7366657220746f20746865207a65726f206164647260008201527f6573730000000000000000000000000000000000000000000000000000000000602082015250565b6000611fc8602383611527565b9150611fd382611f6c565b604082019050919050565b60006020820190508181036000830152611ff781611fbb565b9050919050565b7f45524332303a207472616e7366657220616d6f756e742065786365656473206260008201527f616c616e63650000000000000000000000000000000000000000000000000000602082015250565b600061205a602683611527565b915061206582611ffe565b604082019050919050565b600060208201905081810360008301526120898161204d565b9050919050565b7f4f776e61626c653a2063616c6c6572206973206e6f7420746865206f776e6572600082015250565b60006120c6602083611527565b91506120d182612090565b602082019050919050565b600060208201905081810360008301526120f5816120b9565b9050919050565b7f45524332303a206d696e7420746f20746865207a65726f206164647265737300600082015250565b6000612132601f83611527565b915061213d826120fc565b602082019050919050565b6000602082019050818103600083015261216181612125565b9050919050565b7f45524332303a206275726e2066726f6d20746865207a65726f2061646472657360008201527f7300000000000000000000000000000000000000000000000000000000000000602082015250565b60006121c4602183611527565b91506121cf82612168565b604082019050919050565b600060208201905081810360008301526121f3816121b7565b9050919050565b7f45524332303a206275726e20616d6f756e7420657863656564732062616c616e60008201527f6365000000000000000000000000000000000000000000000000000000000000602082015250565b6000612256602283611527565b9150612261826121fa565b604082019050919050565b6000602082019050818103600083015261228581612249565b9050919050565b600061229782611631565b91506122a283611631565b92508282039050818111156122ba576122b9611a03565b5b9291505056fea2646970667358221220611fd5906b7f8ad6f272dc660638a64372797c0e4e9e2a461631d46c45b3b26064736f6c63430008110033",
  "linkReferences": {},
  "deployedLinkReferences": {}
}