{
  "_format": "hh-sol-artifact-1",
  "contractName": "EmployeePayroll",
  "sourceName": "contracts/EmployeePayroll.sol",
  "abi": [
    {
      "inputs": [],
      "stateMutability": "nonpayable",
      "type": "constructor"
    },
    {
      "anonymous": false,
      "inputs": [
        {
          "indexed": true,
          "internalType": "address",
          "name": "owner",
          "type": "address"
        },
        {
          "indexed": true,
          "internalType": "address",
          "name": "spender",
          "type": "address"
        },
        {
          "indexed": false,
          "internalType": "uint256",
          "name": "value",
          "type": "uint256"
        }
      ],
      "name": "Approval",
      "type": "event"
    },
    {
      "anonymous": false,
      "inputs": [
        {
          "indexed": true,
          "internalType": "address",
          "name": "previousOwner",
          "type": "address"
        },
        {
          "indexed": true,
          "internalType": "address",
          "name": "newOwner",
          "type": "address"
        }
      ],
      "name": "OwnershipTransferred",
      "type": "event"
    },
    {
      "anonymous": false,
      "inputs": [
        {
          "indexed": true,
          "internalType": "address",
          "name": "from",
          "type": "address"
        },
        {
          "indexed": true,
          "internalType": "address",
          "name": "to",
          "type": "address"
        },
        {
          "indexed": false,
          "internalType": "uint256",
          "name": "value",
          "type": "uint256"
        }
      ],
      "name": "Transfer",
      "type": "event"
    },
    {
      "inputs": [
        {
          "internalType": "address",
          "name": "owner",
          "type": "address"
        },
        {
          "internalType": "address",
          "name": "spender",
          "type": "address"
        }
      ],
      "name": "allowance",
      "outputs": [
        {
          "internalType": "uint256",
          "name": "",
          "type": "uint256"
        }
      ],
      "stateMutability": "view",
      "type": "function"
    },
    {
      "inputs": [
        {
          "internalType": "address",
          "name": "spender",
          "type": "address"
        },
        {
          "internalType": "uint256",
          "name": "amount",
          "type": "uint256"
        }
      ],
      "name": "approve",
      "outputs": [
        {
          "internalType": "bool",
          "name": "",
          "type": "bool"
        }
      ],
      "stateMutability": "nonpayable",
      "type": "function"
    },
    {
      "inputs": [
        {
          "internalType": "address",
          "name": "account",
          "type": "address"
        }
      ],
      "name": "balanceOf",
      "outputs": [
        {
          "internalType": "uint256",
          "name": "",
          "type": "uint256"
        }
      ],
      "stateMutability": "view",
      "type": "function"
    },
    {
      "inputs": [
        {
          "internalType": "uint256",
          "name": "amount",
          "type": "uint256"
        }
      ],
      "name": "burn",
      "outputs": [],
      "stateMutability": "nonpayable",
      "type": "function"
    },
    {
      "inputs": [
        {
          "internalType": "address",
          "name": "account",
          "type": "address"
        },
        {
          "internalType": "uint256",
          "name": "amount",
          "type": "uint256"
        }
      ],
      "name": "burnFrom",
      "outputs": [],
      "stateMutability": "nonpayable",
      "type": "function"
    },
    {
      "inputs": [],
      "name": "decimals",
      "outputs": [
        {
          "internalType": "uint8",
          "name": "",
          "type": "uint8"
        }
      ],
      "stateMutability": "view",
      "type": "function"
    },
    {
      "inputs": [
        {
          "internalType": "address",
          "name": "spender",
          "type": "address"
        },
        {
          "internalType": "uint256",
          "name": "subtractedValue",
          "type": "uint256"
        }
      ],
      "name": "decreaseAllowance",
      "outputs": [
        {
          "internalType": "bool",
          "name": "",
          "type": "bool"
        }
      ],
      "stateMutability": "nonpayable",
      "type": "function"
    },
    {
      "inputs": [
        {
          "internalType": "uint256",
          "name": "",
          "type": "uint256"
        }
      ],
      "name": "employeeArray",
      "outputs": [
        {
          "internalType": "string",
          "name": "name",
          "type": "string"
        },
        {
          "internalType": "uint256",
          "name": "rank",
          "type": "uint256"
        },
        {
          "internalType": "uint256",
          "name": "dateOfBirth",
          "type": "uint256"
        },
        {
          "internalType": "uint256",
          "name": "salary",
          "type": "uint256"
        },
        {
          "internalType": "address",
          "name": "walletAddress",
          "type": "address"
        },
        {
          "internalType": "bool",
          "name": "active",
          "type": "bool"
        }
      ],
      "stateMutability": "view",
      "type": "function"
    },
    {
      "inputs": [],
      "name": "employeeContract",
      "outputs": [
        {
          "internalType": "contract Employees",
          "name": "",
          "type": "address"
        }
      ],
      "stateMutability": "view",
      "type": "function"
    },
    {
      "inputs": [
        {
          "internalType": "address",
          "name": "spender",
          "type": "address"
        },
        {
          "internalType": "uint256",
          "name": "addedValue",
          "type": "uint256"
        }
      ],
      "name": "increaseAllowance",
      "outputs": [
        {
          "internalType": "bool",
          "name": "",
          "type": "bool"
        }
      ],
      "stateMutability": "nonpayable",
      "type": "function"
    },
    {
      "inputs": [
        {
          "internalType": "address",
          "name": "",
          "type": "address"
        }
      ],
      "name": "isAdmin",
      "outputs": [
        {
          "internalType": "bool",
          "name": "",
          "type": "bool"
        }
      ],
      "stateMutability": "view",
      "type": "function"
    },
    {
      "inputs": [
        {
          "internalType": "address",
          "name": "_to",
          "type": "address"
        },
        {
          "internalType": "uint256",
          "name": "_amount",
          "type": "uint256"
        }
      ],
      "name": "mint",
      "outputs": [],
      "stateMutability": "nonpayable",
      "type": "function"
    },
    {
      "inputs": [],
      "name": "name",
      "outputs": [
        {
          "internalType": "string",
          "name": "",
          "type": "string"
        }
      ],
      "stateMutability": "view",
      "type": "function"
    },
    {
      "inputs": [],
      "name": "owner",
      "outputs": [
        {
          "internalType": "address",
          "name": "",
          "type": "address"
        }
      ],
      "stateMutability": "view",
      "type": "function"
    },
    {
      "inputs": [],
      "name": "renounceOwnership",
      "outputs": [],
      "stateMutability": "nonpayable",
      "type": "function"
    },
    {
      "inputs": [
        {
          "internalType": "address",
          "name": "_address",
          "type": "address"
        },
        {
          "internalType": "bool",
          "name": "_isAdmin",
          "type": "bool"
        }
      ],
      "name": "setAdmin",
      "outputs": [],
      "stateMutability": "nonpayable",
      "type": "function"
    },
    {
      "inputs": [],
      "name": "symbol",
      "outputs": [
        {
          "internalType": "string",
          "name": "",
          "type": "string"
        }
      ],
      "stateMutability": "view",
      "type": "function"
    },
    {
      "inputs": [],
      "name": "totalSupply",
      "outputs": [
        {
          "internalType": "uint256",
          "name": "",
          "type": "uint256"
        }
      ],
      "stateMutability": "view",
      "type": "function"
    },
    {
      "inputs": [
        {
          "internalType": "address",
          "name": "to",
          "type": "address"
        },
        {
          "internalType": "uint256",
          "name": "amount",
          "type": "uint256"
        }
      ],
      "name": "transfer",
      "outputs": [
        {
          "internalType": "bool",
          "name": "",
          "type": "bool"
        }
      ],
      "stateMutability": "nonpayable",
      "type": "function"
    },
    {
      "inputs": [
        {
          "internalType": "address",
          "name": "from",
          "type": "address"
        },
        {
          "internalType": "address",
          "name": "to",
          "type": "address"
        },
        {
          "internalType": "uint256",
          "name": "amount",
          "type": "uint256"
        }
      ],
      "name": "transferFrom",
      "outputs": [
        {
          "internalType": "bool",
          "name": "",
          "type": "bool"
        }
      ],
      "stateMutability": "nonpayable",
      "type": "function"
    },
    {
      "inputs": [
        {
          "internalType": "address",
          "name": "newOwner",
          "type": "address"
        }
      ],
      "name": "transferOwnership",
      "outputs": [],
      "stateMutability": "nonpayable",
      "type": "function"
    },
    {
      "inputs": [
        {
          "internalType": "address",
          "name": "_address",
          "type": "address"
        }
      ],
      "name": "updateEmployeeContract",
      "outputs": [],
      "stateMutability": "nonpayable",
      "type": "function"
    },
    {
      "inputs": [
        {
          "internalType": "address",
          "name": "_address",
          "type": "address"
        }
      ],
      "name": "updateEmployeeContractAddress",
      "outputs": [],
      "stateMutability": "nonpayable",
      "type": "function"
    }
  ],
  "bytecode": "0x60806040523480156200001157600080fd5b506040518060400160405280600b81526020017f456d706c6f7965655553440000000000000000000000000000000000000000008152506040518060400160405280600681526020017f454d50555344000000000000000000000000000000000000000000000000000081525081600390816200008f91906200046a565b508060049081620000a191906200046a565b505050620000c4620000b86200012260201b60201c565b6200012a60201b60201c565b6001600860003373ffffffffffffffffffffffffffffffffffffffff1673ffffffffffffffffffffffffffffffffffffffff16815260200190815260200160002060006101000a81548160ff02191690831515021790555062000551565b600033905090565b6000600560009054906101000a900473ffffffffffffffffffffffffffffffffffffffff16905081600560006101000a81548173ffffffffffffffffffffffffffffffffffffffff021916908373ffffffffffffffffffffffffffffffffffffffff1602179055508173ffffffffffffffffffffffffffffffffffffffff168173ffffffffffffffffffffffffffffffffffffffff167f8be0079c531659141344cd1fd0a4f28419497f9722a3daafe3b4186f6b6457e060405160405180910390a35050565b600081519050919050565b7f4e487b7100000000000000000000000000000000000000000000000000000000600052604160045260246000fd5b7f4e487b7100000000000000000000000000000000000000000000000000000000600052602260045260246000fd5b600060028204905060018216806200027257607f821691505b6020821081036200028857620002876200022a565b5b50919050565b60008190508160005260206000209050919050565b60006020601f8301049050919050565b600082821b905092915050565b600060088302620002f27fffffffffffffffffffffffffffffffffffffffffffffffffffffffffffffffff82620002b3565b620002fe8683620002b3565b95508019841693508086168417925050509392505050565b6000819050919050565b6000819050919050565b60006200034b620003456200033f8462000316565b62000320565b62000316565b9050919050565b6000819050919050565b62000367836200032a565b6200037f620003768262000352565b848454620002c0565b825550505050565b600090565b6200039662000387565b620003a38184846200035c565b505050565b5b81811015620003cb57620003bf6000826200038c565b600181019050620003a9565b5050565b601f8211156200041a57620003e4816200028e565b620003ef84620002a3565b81016020851015620003ff578190505b620004176200040e85620002a3565b830182620003a8565b50505b505050565b600082821c905092915050565b60006200043f600019846008026200041f565b1980831691505092915050565b60006200045a83836200042c565b9150826002028217905092915050565b6200047582620001f0565b67ffffffffffffffff811115620004915762000490620001fb565b5b6200049d825462000259565b620004aa828285620003cf565b600060209050601f831160018114620004e25760008415620004cd578287015190505b620004d985826200044c565b86555062000549565b601f198416620004f2866200028e565b60005b828110156200051c57848901518255600182019150602085019450602081019050620004f5565b868310156200053c578489015162000538601f8916826200042c565b8355505b6001600288020188555050505b505050505050565b61211880620005616000396000f3fe608060405234801561001057600080fd5b506004361061014d5760003560e01c806350878ebe116100c357806395d89b411161007c57806395d89b41146103a35780639de572b8146103c1578063a457c2d7146103dd578063a9059cbb1461040d578063dd62ed3e1461043d578063f2fde38b1461046d5761014d565b806350878ebe146102dc57806370a08231146102fa578063715018a61461032a57806379cc6790146103345780638618801e146103505780638da5cb5b146103855761014d565b806324d7806c1161011557806324d7806c1461020a578063313ce5671461023a578063395093511461025857806340c10f191461028857806342966c68146102a45780634b0bddd2146102c05761014d565b806306fdde0314610152578063095ea7b31461017057806318160ddd146101a057806323b872dd146101be57806323f6f422146101ee575b600080fd5b61015a610489565b604051610167919061158e565b60405180910390f35b61018a60048036038101906101859190611649565b61051b565b60405161019791906116a4565b60405180910390f35b6101a861053e565b6040516101b591906116ce565b60405180910390f35b6101d860048036038101906101d391906116e9565b610548565b6040516101e591906116a4565b60405180910390f35b6102086004803603810190610203919061173c565b610577565b005b610224600480360381019061021f919061173c565b6105c3565b60405161023191906116a4565b60405180910390f35b6102426105e3565b60405161024f9190611785565b60405180910390f35b610272600480360381019061026d9190611649565b6105ec565b60405161027f91906116a4565b60405180910390f35b6102a2600480360381019061029d9190611649565b610623565b005b6102be60048036038101906102b991906117a0565b61068b565b005b6102da60048036038101906102d591906117f9565b61069f565b005b6102e4610702565b6040516102f19190611898565b60405180910390f35b610314600480360381019061030f919061173c565b610728565b60405161032191906116ce565b60405180910390f35b610332610770565b005b61034e60048036038101906103499190611649565b610784565b005b61036a600480360381019061036591906117a0565b6107a4565b60405161037c969594939291906118c2565b60405180910390f35b61038d6108a5565b60405161039a919061192a565b60405180910390f35b6103ab6108cf565b6040516103b8919061158e565b60405180910390f35b6103db60048036038101906103d6919061173c565b610961565b005b6103f760048036038101906103f29190611649565b6109fb565b60405161040491906116a4565b60405180910390f35b61042760048036038101906104229190611649565b610a72565b60405161043491906116a4565b60405180910390f35b61045760048036038101906104529190611945565b610a95565b60405161046491906116ce565b60405180910390f35b6104876004803603810190610482919061173c565b610b1c565b005b606060038054610498906119b4565b80601f01602080910402602001604051908101604052809291908181526020018280546104c4906119b4565b80156105115780601f106104e657610100808354040283529160200191610511565b820191906000526020600020905b8154815290600101906020018083116104f457829003601f168201915b5050505050905090565b600080610526610b9f565b9050610533818585610ba7565b600191505092915050565b6000600254905090565b600080610553610b9f565b9050610560858285610d70565b61056b858585610dfc565b60019150509392505050565b61057f61107b565b80600660006101000a81548173ffffffffffffffffffffffffffffffffffffffff021916908373ffffffffffffffffffffffffffffffffffffffff16021790555050565b60086020528060005260406000206000915054906101000a900460ff1681565b60006012905090565b6000806105f7610b9f565b90506106188185856106098589610a95565b6106139190611a14565b610ba7565b600191505092915050565b600760009054906101000a900473ffffffffffffffffffffffffffffffffffffffff1673ffffffffffffffffffffffffffffffffffffffff163373ffffffffffffffffffffffffffffffffffffffff161461067d57600080fd5b61068782826110f9565b5050565b61069c610696610b9f565b82611258565b50565b6106a761107b565b80600860008473ffffffffffffffffffffffffffffffffffffffff1673ffffffffffffffffffffffffffffffffffffffff16815260200190815260200160002060006101000a81548160ff0219169083151502179055505050565b600660009054906101000a900473ffffffffffffffffffffffffffffffffffffffff1681565b60008060008373ffffffffffffffffffffffffffffffffffffffff1673ffffffffffffffffffffffffffffffffffffffff168152602001908152602001600020549050919050565b61077861107b565b610782600061142e565b565b61079682610790610b9f565b83610d70565b6107a08282611258565b5050565b600981815481106107b457600080fd5b90600052602060002090600502016000915090508060000180546107d7906119b4565b80601f0160208091040260200160405190810160405280929190818152602001828054610803906119b4565b80156108505780601f1061082557610100808354040283529160200191610850565b820191906000526020600020905b81548152906001019060200180831161083357829003601f168201915b5050505050908060010154908060020154908060030154908060040160009054906101000a900473ffffffffffffffffffffffffffffffffffffffff16908060040160149054906101000a900460ff16905086565b6000600560009054906101000a900473ffffffffffffffffffffffffffffffffffffffff16905090565b6060600480546108de906119b4565b80601f016020809104026020016040519081016040528092919081815260200182805461090a906119b4565b80156109575780601f1061092c57610100808354040283529160200191610957565b820191906000526020600020905b81548152906001019060200180831161093a57829003601f168201915b5050505050905090565b600860003373ffffffffffffffffffffffffffffffffffffffff1673ffffffffffffffffffffffffffffffffffffffff16815260200190815260200160002060009054906101000a900460ff166109b757600080fd5b80600760006101000a81548173ffffffffffffffffffffffffffffffffffffffff021916908373ffffffffffffffffffffffffffffffffffffffff16021790555050565b600080610a06610b9f565b90506000610a148286610a95565b905083811015610a59576040517f08c379a0000000000000000000000000000000000000000000000000000000008152600401610a5090611aba565b60405180910390fd5b610a668286868403610ba7565b60019250505092915050565b600080610a7d610b9f565b9050610a8a818585610dfc565b600191505092915050565b6000600160008473ffffffffffffffffffffffffffffffffffffffff1673ffffffffffffffffffffffffffffffffffffffff16815260200190815260200160002060008373ffffffffffffffffffffffffffffffffffffffff1673ffffffffffffffffffffffffffffffffffffffff16815260200190815260200160002054905092915050565b610b2461107b565b600073ffffffffffffffffffffffffffffffffffffffff168173ffffffffffffffffffffffffffffffffffffffff1603610b93576040517f08c379a0000000000000000000000000000000000000000000000000000000008152600401610b8a90611b4c565b60405180910390fd5b610b9c8161142e565b50565b600033905090565b600073ffffffffffffffffffffffffffffffffffffffff168373ffffffffffffffffffffffffffffffffffffffff1603610c16576040517f08c379a0000000000000000000000000000000000000000000000000000000008152600401610c0d90611bde565b60405180910390fd5b600073ffffffffffffffffffffffffffffffffffffffff168273ffffffffffffffffffffffffffffffffffffffff1603610c85576040517f08c379a0000000000000000000000000000000000000000000000000000000008152600401610c7c90611c70565b60405180910390fd5b80600160008573ffffffffffffffffffffffffffffffffffffffff1673ffffffffffffffffffffffffffffffffffffffff16815260200190815260200160002060008473ffffffffffffffffffffffffffffffffffffffff1673ffffffffffffffffffffffffffffffffffffffff168152602001908152602001600020819055508173ffffffffffffffffffffffffffffffffffffffff168373ffffffffffffffffffffffffffffffffffffffff167f8c5be1e5ebec7d5bd14f71427d1e84f3dd0314c0f7b2291e5b200ac8c7c3b92583604051610d6391906116ce565b60405180910390a3505050565b6000610d7c8484610a95565b90507fffffffffffffffffffffffffffffffffffffffffffffffffffffffffffffffff8114610df65781811015610de8576040517f08c379a0000000000000000000000000000000000000000000000000000000008152600401610ddf90611cdc565b60405180910390fd5b610df58484848403610ba7565b5b50505050565b600073ffffffffffffffffffffffffffffffffffffffff168373ffffffffffffffffffffffffffffffffffffffff1603610e6b576040517f08c379a0000000000000000000000000000000000000000000000000000000008152600401610e6290611d6e565b60405180910390fd5b600073ffffffffffffffffffffffffffffffffffffffff168273ffffffffffffffffffffffffffffffffffffffff1603610eda576040517f08c379a0000000000000000000000000000000000000000000000000000000008152600401610ed190611e00565b60405180910390fd5b610ee58383836114f4565b60008060008573ffffffffffffffffffffffffffffffffffffffff1673ffffffffffffffffffffffffffffffffffffffff16815260200190815260200160002054905081811015610f6b576040517f08c379a0000000000000000000000000000000000000000000000000000000008152600401610f6290611e92565b60405180910390fd5b8181036000808673ffffffffffffffffffffffffffffffffffffffff1673ffffffffffffffffffffffffffffffffffffffff16815260200190815260200160002081905550816000808573ffffffffffffffffffffffffffffffffffffffff1673ffffffffffffffffffffffffffffffffffffffff1681526020019081526020016000206000828254610ffe9190611a14565b925050819055508273ffffffffffffffffffffffffffffffffffffffff168473ffffffffffffffffffffffffffffffffffffffff167fddf252ad1be2c89b69c2b068fc378daa952ba7f163c4a11628f55a4df523b3ef8460405161106291906116ce565b60405180910390a36110758484846114f9565b50505050565b611083610b9f565b73ffffffffffffffffffffffffffffffffffffffff166110a16108a5565b73ffffffffffffffffffffffffffffffffffffffff16146110f7576040517f08c379a00000000000000000000000000000000000000000000000000000000081526004016110ee90611efe565b60405180910390fd5b565b600073ffffffffffffffffffffffffffffffffffffffff168273ffffffffffffffffffffffffffffffffffffffff1603611168576040517f08c379a000000000000000000000000000000000000000000000000000000000815260040161115f90611f6a565b60405180910390fd5b611174600083836114f4565b80600260008282546111869190611a14565b92505081905550806000808473ffffffffffffffffffffffffffffffffffffffff1673ffffffffffffffffffffffffffffffffffffffff16815260200190815260200160002060008282546111db9190611a14565b925050819055508173ffffffffffffffffffffffffffffffffffffffff16600073ffffffffffffffffffffffffffffffffffffffff167fddf252ad1be2c89b69c2b068fc378daa952ba7f163c4a11628f55a4df523b3ef8360405161124091906116ce565b60405180910390a3611254600083836114f9565b5050565b600073ffffffffffffffffffffffffffffffffffffffff168273ffffffffffffffffffffffffffffffffffffffff16036112c7576040517f08c379a00000000000000000000000000000000000000000000000000000000081526004016112be90611ffc565b60405180910390fd5b6112d3826000836114f4565b60008060008473ffffffffffffffffffffffffffffffffffffffff1673ffffffffffffffffffffffffffffffffffffffff16815260200190815260200160002054905081811015611359576040517f08c379a00000000000000000000000000000000000000000000000000000000081526004016113509061208e565b60405180910390fd5b8181036000808573ffffffffffffffffffffffffffffffffffffffff1673ffffffffffffffffffffffffffffffffffffffff1681526020019081526020016000208190555081600260008282546113b091906120ae565b92505081905550600073ffffffffffffffffffffffffffffffffffffffff168373ffffffffffffffffffffffffffffffffffffffff167fddf252ad1be2c89b69c2b068fc378daa952ba7f163c4a11628f55a4df523b3ef8460405161141591906116ce565b60405180910390a3611429836000846114f9565b505050565b6000600560009054906101000a900473ffffffffffffffffffffffffffffffffffffffff16905081600560006101000a81548173ffffffffffffffffffffffffffffffffffffffff021916908373ffffffffffffffffffffffffffffffffffffffff1602179055508173ffffffffffffffffffffffffffffffffffffffff168173ffffffffffffffffffffffffffffffffffffffff167f8be0079c531659141344cd1fd0a4f28419497f9722a3daafe3b4186f6b6457e060405160405180910390a35050565b505050565b505050565b600081519050919050565b600082825260208201905092915050565b60005b8381101561153857808201518184015260208101905061151d565b60008484015250505050565b6000601f19601f8301169050919050565b6000611560826114fe565b61156a8185611509565b935061157a81856020860161151a565b61158381611544565b840191505092915050565b600060208201905081810360008301526115a88184611555565b905092915050565b600080fd5b600073ffffffffffffffffffffffffffffffffffffffff82169050919050565b60006115e0826115b5565b9050919050565b6115f0816115d5565b81146115fb57600080fd5b50565b60008135905061160d816115e7565b92915050565b6000819050919050565b61162681611613565b811461163157600080fd5b50565b6000813590506116438161161d565b92915050565b600080604083850312156116605761165f6115b0565b5b600061166e858286016115fe565b925050602061167f85828601611634565b9150509250929050565b60008115159050919050565b61169e81611689565b82525050565b60006020820190506116b96000830184611695565b92915050565b6116c881611613565b82525050565b60006020820190506116e360008301846116bf565b92915050565b600080600060608486031215611702576117016115b0565b5b6000611710868287016115fe565b9350506020611721868287016115fe565b925050604061173286828701611634565b9150509250925092565b600060208284031215611752576117516115b0565b5b6000611760848285016115fe565b91505092915050565b600060ff82169050919050565b61177f81611769565b82525050565b600060208201905061179a6000830184611776565b92915050565b6000602082840312156117b6576117b56115b0565b5b60006117c484828501611634565b91505092915050565b6117d681611689565b81146117e157600080fd5b50565b6000813590506117f3816117cd565b92915050565b600080604083850312156118105761180f6115b0565b5b600061181e858286016115fe565b925050602061182f858286016117e4565b9150509250929050565b6000819050919050565b600061185e611859611854846115b5565b611839565b6115b5565b9050919050565b600061187082611843565b9050919050565b600061188282611865565b9050919050565b61189281611877565b82525050565b60006020820190506118ad6000830184611889565b92915050565b6118bc816115d5565b82525050565b600060c08201905081810360008301526118dc8189611555565b90506118eb60208301886116bf565b6118f860408301876116bf565b61190560608301866116bf565b61191260808301856118b3565b61191f60a0830184611695565b979650505050505050565b600060208201905061193f60008301846118b3565b92915050565b6000806040838503121561195c5761195b6115b0565b5b600061196a858286016115fe565b925050602061197b858286016115fe565b9150509250929050565b7f4e487b7100000000000000000000000000000000000000000000000000000000600052602260045260246000fd5b600060028204905060018216806119cc57607f821691505b6020821081036119df576119de611985565b5b50919050565b7f4e487b7100000000000000000000000000000000000000000000000000000000600052601160045260246000fd5b6000611a1f82611613565b9150611a2a83611613565b9250828201905080821115611a4257611a416119e5565b5b92915050565b7f45524332303a2064656372656173656420616c6c6f77616e63652062656c6f7760008201527f207a65726f000000000000000000000000000000000000000000000000000000602082015250565b6000611aa4602583611509565b9150611aaf82611a48565b604082019050919050565b60006020820190508181036000830152611ad381611a97565b9050919050565b7f4f776e61626c653a206e6577206f776e657220697320746865207a65726f206160008201527f6464726573730000000000000000000000000000000000000000000000000000602082015250565b6000611b36602683611509565b9150611b4182611ada565b604082019050919050565b60006020820190508181036000830152611b6581611b29565b9050919050565b7f45524332303a20617070726f76652066726f6d20746865207a65726f2061646460008201527f7265737300000000000000000000000000000000000000000000000000000000602082015250565b6000611bc8602483611509565b9150611bd382611b6c565b604082019050919050565b60006020820190508181036000830152611bf781611bbb565b9050919050565b7f45524332303a20617070726f766520746f20746865207a65726f20616464726560008201527f7373000000000000000000000000000000000000000000000000000000000000602082015250565b6000611c5a602283611509565b9150611c6582611bfe565b604082019050919050565b60006020820190508181036000830152611c8981611c4d565b9050919050565b7f45524332303a20696e73756666696369656e7420616c6c6f77616e6365000000600082015250565b6000611cc6601d83611509565b9150611cd182611c90565b602082019050919050565b60006020820190508181036000830152611cf581611cb9565b9050919050565b7f45524332303a207472616e736665722066726f6d20746865207a65726f20616460008201527f6472657373000000000000000000000000000000000000000000000000000000602082015250565b6000611d58602583611509565b9150611d6382611cfc565b604082019050919050565b60006020820190508181036000830152611d8781611d4b565b9050919050565b7f45524332303a207472616e7366657220746f20746865207a65726f206164647260008201527f6573730000000000000000000000000000000000000000000000000000000000602082015250565b6000611dea602383611509565b9150611df582611d8e565b604082019050919050565b60006020820190508181036000830152611e1981611ddd565b9050919050565b7f45524332303a207472616e7366657220616d6f756e742065786365656473206260008201527f616c616e63650000000000000000000000000000000000000000000000000000602082015250565b6000611e7c602683611509565b9150611e8782611e20565b604082019050919050565b60006020820190508181036000830152611eab81611e6f565b9050919050565b7f4f776e61626c653a2063616c6c6572206973206e6f7420746865206f776e6572600082015250565b6000611ee8602083611509565b9150611ef382611eb2565b602082019050919050565b60006020820190508181036000830152611f1781611edb565b9050919050565b7f45524332303a206d696e7420746f20746865207a65726f206164647265737300600082015250565b6000611f54601f83611509565b9150611f5f82611f1e565b602082019050919050565b60006020820190508181036000830152611f8381611f47565b9050919050565b7f45524332303a206275726e2066726f6d20746865207a65726f2061646472657360008201527f7300000000000000000000000000000000000000000000000000000000000000602082015250565b6000611fe6602183611509565b9150611ff182611f8a565b604082019050919050565b6000602082019050818103600083015261201581611fd9565b9050919050565b7f45524332303a206275726e20616d6f756e7420657863656564732062616c616e60008201527f6365000000000000000000000000000000000000000000000000000000000000602082015250565b6000612078602283611509565b91506120838261201c565b604082019050919050565b600060208201905081810360008301526120a78161206b565b9050919050565b60006120b982611613565b91506120c483611613565b92508282039050818111156120dc576120db6119e5565b5b9291505056fea2646970667358221220aa2dbd54cfe363c9161af81a2f96a0d2c8f028de1d93e3ebbe9ae474a2250f3e64736f6c63430008110033",
  "linkReferences": {},
  "deployedLinkReferences": {}
}