{
  "_format": "hh-sol-artifact-1",
  "contractName": "Employees",
  "sourceName": "contracts/Employees.sol",
  "abi": [
    {
      "inputs": [
        {
          "internalType": "address",
          "name": "_BEN",
          "type": "address"
        },
        {
          "internalType": "address",
          "name": "_payroll",
          "type": "address"
        },
        {
          "internalType": "address",
          "name": "_nft",
          "type": "address"
        }
      ],
      "stateMutability": "nonpayable",
      "type": "constructor"
    },
    {
      "anonymous": false,
      "inputs": [
        {
          "indexed": false,
          "internalType": "uint256",
          "name": "_employeeID",
          "type": "uint256"
        },
        {
          "indexed": false,
          "internalType": "uint256",
          "name": "_rank",
          "type": "uint256"
        }
      ],
      "name": "AssignRank",
      "type": "event"
    },
    {
      "anonymous": false,
      "inputs": [
        {
          "indexed": false,
          "internalType": "string",
          "name": "_name",
          "type": "string"
        },
        {
          "indexed": false,
          "internalType": "address",
          "name": "_wallet",
          "type": "address"
        },
        {
          "indexed": false,
          "internalType": "uint256",
          "name": "_amount",
          "type": "uint256"
        }
      ],
      "name": "EmployeePaid",
      "type": "event"
    },
    {
      "anonymous": false,
      "inputs": [
        {
          "indexed": true,
          "internalType": "string",
          "name": "_name",
          "type": "string"
        },
        {
          "indexed": false,
          "internalType": "uint256",
          "name": "_rank",
          "type": "uint256"
        },
        {
          "indexed": false,
          "internalType": "uint256",
          "name": "_dob",
          "type": "uint256"
        },
        {
          "indexed": false,
          "internalType": "uint256",
          "name": "_salary",
          "type": "uint256"
        },
        {
          "indexed": true,
          "internalType": "address",
          "name": "_wallet",
          "type": "address"
        }
      ],
      "name": "EmpoloyeeCreated",
      "type": "event"
    },
    {
      "anonymous": false,
      "inputs": [
        {
          "indexed": false,
          "internalType": "string",
          "name": "_name",
          "type": "string"
        },
        {
          "indexed": false,
          "internalType": "uint256",
          "name": "_rank",
          "type": "uint256"
        },
        {
          "indexed": false,
          "internalType": "uint256",
          "name": "_dob",
          "type": "uint256"
        },
        {
          "indexed": false,
          "internalType": "uint256",
          "name": "_salary",
          "type": "uint256"
        },
        {
          "indexed": true,
          "internalType": "address",
          "name": "_wallet",
          "type": "address"
        }
      ],
      "name": "EmpoloyeeReleased",
      "type": "event"
    },
    {
      "anonymous": false,
      "inputs": [
        {
          "indexed": true,
          "internalType": "address",
          "name": "previousOwner",
          "type": "address"
        },
        {
          "indexed": true,
          "internalType": "address",
          "name": "newOwner",
          "type": "address"
        }
      ],
      "name": "OwnershipTransferred",
      "type": "event"
    },
    {
      "inputs": [],
      "name": "BEN",
      "outputs": [
        {
          "internalType": "contract BenefitsToken",
          "name": "",
          "type": "address"
        }
      ],
      "stateMutability": "view",
      "type": "function"
    },
    {
      "inputs": [],
      "name": "NFT",
      "outputs": [
        {
          "internalType": "contract PayrollioNFT",
          "name": "",
          "type": "address"
        }
      ],
      "stateMutability": "view",
      "type": "function"
    },
    {
      "inputs": [],
      "name": "PAYROLL",
      "outputs": [
        {
          "internalType": "contract EmployeePayroll",
          "name": "",
          "type": "address"
        }
      ],
      "stateMutability": "view",
      "type": "function"
    },
    {
      "inputs": [
        {
          "internalType": "string",
          "name": "_name",
          "type": "string"
        },
        {
          "internalType": "uint256",
          "name": "_rank",
          "type": "uint256"
        },
        {
          "internalType": "uint256",
          "name": "_dob",
          "type": "uint256"
        },
        {
          "internalType": "uint256",
          "name": "_salary",
          "type": "uint256"
        },
        {
          "internalType": "address",
          "name": "_wallet",
          "type": "address"
        }
      ],
      "name": "addEmployee",
      "outputs": [],
      "stateMutability": "nonpayable",
      "type": "function"
    },
    {
      "inputs": [
        {
          "internalType": "uint256",
          "name": "_employeeId",
          "type": "uint256"
        },
        {
          "internalType": "uint256",
          "name": "_rank",
          "type": "uint256"
        },
        {
          "internalType": "uint256",
          "name": "_salary",
          "type": "uint256"
        }
      ],
      "name": "assignRank",
      "outputs": [],
      "stateMutability": "nonpayable",
      "type": "function"
    },
    {
      "inputs": [],
      "name": "employeeCounter",
      "outputs": [
        {
          "internalType": "uint256",
          "name": "",
          "type": "uint256"
        }
      ],
      "stateMutability": "view",
      "type": "function"
    },
    {
      "inputs": [
        {
          "internalType": "uint256",
          "name": "",
          "type": "uint256"
        }
      ],
      "name": "employees",
      "outputs": [
        {
          "internalType": "string",
          "name": "name",
          "type": "string"
        },
        {
          "internalType": "uint256",
          "name": "rank",
          "type": "uint256"
        },
        {
          "internalType": "uint256",
          "name": "dateOfBirth",
          "type": "uint256"
        },
        {
          "internalType": "uint256",
          "name": "salary",
          "type": "uint256"
        },
        {
          "internalType": "address",
          "name": "walletAddress",
          "type": "address"
        },
        {
          "internalType": "bool",
          "name": "active",
          "type": "bool"
        },
        {
          "internalType": "uint256",
          "name": "daysToNextPay",
          "type": "uint256"
        }
      ],
      "stateMutability": "view",
      "type": "function"
    },
    {
      "inputs": [],
      "name": "getActiveEmployees",
      "outputs": [
        {
          "components": [
            {
              "internalType": "string",
              "name": "name",
              "type": "string"
            },
            {
              "internalType": "uint256",
              "name": "rank",
              "type": "uint256"
            },
            {
              "internalType": "uint256",
              "name": "dateOfBirth",
              "type": "uint256"
            },
            {
              "internalType": "uint256",
              "name": "salary",
              "type": "uint256"
            },
            {
              "internalType": "address",
              "name": "walletAddress",
              "type": "address"
            },
            {
              "internalType": "bool",
              "name": "active",
              "type": "bool"
            },
            {
              "internalType": "uint256",
              "name": "daysToNextPay",
              "type": "uint256"
            }
          ],
          "internalType": "struct Employees.Employee[]",
          "name": "",
          "type": "tuple[]"
        }
      ],
      "stateMutability": "view",
      "type": "function"
    },
    {
      "inputs": [
        {
          "internalType": "uint256",
          "name": "_employeeId",
          "type": "uint256"
        }
      ],
      "name": "getEmployee",
      "outputs": [
        {
          "components": [
            {
              "internalType": "string",
              "name": "name",
              "type": "string"
            },
            {
              "internalType": "uint256",
              "name": "rank",
              "type": "uint256"
            },
            {
              "internalType": "uint256",
              "name": "dateOfBirth",
              "type": "uint256"
            },
            {
              "internalType": "uint256",
              "name": "salary",
              "type": "uint256"
            },
            {
              "internalType": "address",
              "name": "walletAddress",
              "type": "address"
            },
            {
              "internalType": "bool",
              "name": "active",
              "type": "bool"
            },
            {
              "internalType": "uint256",
              "name": "daysToNextPay",
              "type": "uint256"
            }
          ],
          "internalType": "struct Employees.Employee",
          "name": "",
          "type": "tuple"
        }
      ],
      "stateMutability": "view",
      "type": "function"
    },
    {
      "inputs": [
        {
          "internalType": "address",
          "name": "",
          "type": "address"
        }
      ],
      "name": "isAdmin",
      "outputs": [
        {
          "internalType": "bool",
          "name": "",
          "type": "bool"
        }
      ],
      "stateMutability": "view",
      "type": "function"
    },
    {
      "inputs": [],
      "name": "owner",
      "outputs": [
        {
          "internalType": "address",
          "name": "",
          "type": "address"
        }
      ],
      "stateMutability": "view",
      "type": "function"
    },
    {
      "inputs": [],
      "name": "payActiveEmployees",
      "outputs": [],
      "stateMutability": "nonpayable",
      "type": "function"
    },
    {
      "inputs": [
        {
          "internalType": "uint256",
          "name": "_employeeId",
          "type": "uint256"
        }
      ],
      "name": "releaseEmployee",
      "outputs": [],
      "stateMutability": "nonpayable",
      "type": "function"
    },
    {
      "inputs": [],
      "name": "renounceOwnership",
      "outputs": [],
      "stateMutability": "nonpayable",
      "type": "function"
    },
    {
      "inputs": [],
      "name": "replenishEmployeeTokens",
      "outputs": [],
      "stateMutability": "nonpayable",
      "type": "function"
    },
    {
      "inputs": [
        {
          "internalType": "address",
          "name": "_address",
          "type": "address"
        },
        {
          "internalType": "bool",
          "name": "_isAdmin",
          "type": "bool"
        }
      ],
      "name": "setAdmin",
      "outputs": [],
      "stateMutability": "nonpayable",
      "type": "function"
    },
    {
      "inputs": [
        {
          "internalType": "address",
          "name": "newOwner",
          "type": "address"
        }
      ],
      "name": "transferOwnership",
      "outputs": [],
      "stateMutability": "nonpayable",
      "type": "function"
    }
  ],
  "bytecode": "0x60806040523480156200001157600080fd5b5060405162002c6538038062002c658339818101604052810190620000379190620002b1565b620000576200004b6200017b60201b60201c565b6200018360201b60201c565b82600160006101000a81548173ffffffffffffffffffffffffffffffffffffffff021916908373ffffffffffffffffffffffffffffffffffffffff16021790555081600260006101000a81548173ffffffffffffffffffffffffffffffffffffffff021916908373ffffffffffffffffffffffffffffffffffffffff16021790555080600460006101000a81548173ffffffffffffffffffffffffffffffffffffffff021916908373ffffffffffffffffffffffffffffffffffffffff1602179055506001600660003373ffffffffffffffffffffffffffffffffffffffff1673ffffffffffffffffffffffffffffffffffffffff16815260200190815260200160002060006101000a81548160ff0219169083151502179055505050506200030d565b600033905090565b60008060009054906101000a900473ffffffffffffffffffffffffffffffffffffffff169050816000806101000a81548173ffffffffffffffffffffffffffffffffffffffff021916908373ffffffffffffffffffffffffffffffffffffffff1602179055508173ffffffffffffffffffffffffffffffffffffffff168173ffffffffffffffffffffffffffffffffffffffff167f8be0079c531659141344cd1fd0a4f28419497f9722a3daafe3b4186f6b6457e060405160405180910390a35050565b600080fd5b600073ffffffffffffffffffffffffffffffffffffffff82169050919050565b600062000279826200024c565b9050919050565b6200028b816200026c565b81146200029757600080fd5b50565b600081519050620002ab8162000280565b92915050565b600080600060608486031215620002cd57620002cc62000247565b5b6000620002dd868287016200029a565b9350506020620002f0868287016200029a565b925050604062000303868287016200029a565b9150509250925092565b612948806200031d6000396000f3fe608060405234801561001057600080fd5b506004361061010b5760003560e01c80637bd6800d116100a2578063b7c97fa011610071578063b7c97fa014610262578063bca9a5c514610280578063f01aefaa146102b0578063f2fde38b146102cc578063ffba79db146102e85761010b565b80637bd6800d146101fe5780637c0b8de21461021c5780638da5cb5b1461023a57806397160307146102585761010b565b806347e23df9116100de57806347e23df91461019c5780634b0bddd2146101ba578063715018a6146101d657806379dd81e1146101e05761010b565b806324d7806c146101105780632b785140146101405780634090b7ca1461015c5780634739326b14610166575b600080fd5b61012a600480360381019061012591906116e9565b610304565b6040516101379190611731565b60405180910390f35b61015a600480360381019061015591906118c8565b610324565b005b6101646106c0565b005b610180600480360381019061017b919061195f565b61090b565b6040516101939796959493929190611a29565b60405180910390f35b6101a4610a02565b6040516101b19190611c74565b60405180910390f35b6101d460048036038101906101cf9190611cc2565b610abe565b005b6101de610b21565b005b6101e8610b35565b6040516101f59190611d02565b60405180910390f35b610206610b3b565b6040516102139190611d7c565b60405180910390f35b610224610b61565b6040516102319190611db8565b60405180910390f35b610242610b87565b60405161024f9190611dd3565b60405180910390f35b610260610bb0565b005b61026a610e43565b6040516102779190611e0f565b60405180910390f35b61029a6004803603810190610295919061195f565b610e69565b6040516102a79190611ec6565b60405180910390f35b6102ca60048036038101906102c5919061195f565b610fc7565b005b6102e660048036038101906102e191906116e9565b61131c565b005b61030260048036038101906102fd9190611ee8565b61139f565b005b60066020528060005260406000206000915054906101000a900460ff1681565b600660003373ffffffffffffffffffffffffffffffffffffffff1673ffffffffffffffffffffffffffffffffffffffff16815260200190815260200160002060009054906101000a900460ff166103b0576040517f08c379a00000000000000000000000000000000000000000000000000000000081526004016103a790611fad565b60405180910390fd5b6000841180156103c05750600484105b6103ff576040517f08c379a00000000000000000000000000000000000000000000000000000000081526004016103f690612019565b60405180910390fd5b6000600560006003548152602001908152602001600020905085816000019081610429919061223b565b50848160010181905550838160020181905550828160030181905550818160040160006101000a81548173ffffffffffffffffffffffffffffffffffffffff021916908373ffffffffffffffffffffffffffffffffffffffff16021790555060018160040160146101000a81548160ff02191690831515021790555060028160050181905550600360008154809291906001019190505550600160009054906101000a900473ffffffffffffffffffffffffffffffffffffffff1673ffffffffffffffffffffffffffffffffffffffff166340c10f198260040160009054906101000a900473ffffffffffffffffffffffffffffffffffffffff1683600101546040518363ffffffff1660e01b815260040161054692919061230d565b600060405180830381600087803b15801561056057600080fd5b505af1158015610574573d6000803e3d6000fd5b505050506000600190505b85811161064f57600460009054906101000a900473ffffffffffffffffffffffffffffffffffffffff1673ffffffffffffffffffffffffffffffffffffffff1663731133e98360040160009054906101000a900473ffffffffffffffffffffffffffffffffffffffff168360016040518463ffffffff1660e01b815260040161060a939291906123a8565b600060405180830381600087803b15801561062457600080fd5b505af1158015610638573d6000803e3d6000fd5b50505050808061064790612421565b91505061057f565b508173ffffffffffffffffffffffffffffffffffffffff168660405161067591906124a5565b60405180910390207fe67918e2ebfa86773ad1d6eb76d22fb813c41ac83ee857b3220b45f10e2ad7df8787876040516106b0939291906124bc565b60405180910390a3505050505050565b60005b600354811015610908576005600082815260200190815260200160002060040160149054906101000a900460ff16156108f55760016005600083815260200190815260200160002060050154111561074857600160056000838152602001908152602001600020600501600082825461073c91906124f3565b925050819055506108f4565b601e6005600083815260200190815260200160002060050181905550600260009054906101000a900473ffffffffffffffffffffffffffffffffffffffff1673ffffffffffffffffffffffffffffffffffffffff166340c10f196005600084815260200190815260200160002060040160009054906101000a900473ffffffffffffffffffffffffffffffffffffffff16600c60056000868152602001908152602001600020600301546107fc9190612556565b6040518363ffffffff1660e01b815260040161081992919061230d565b600060405180830381600087803b15801561083357600080fd5b505af1158015610847573d6000803e3d6000fd5b505050507f525229eda8db65f11d4e28be5bf453f557fc965011eec58cdf019975a0b935c3600560008381526020019081526020016000206000016005600084815260200190815260200160002060040160009054906101000a900473ffffffffffffffffffffffffffffffffffffffff16600c60056000868152602001908152602001600020600301546108dc9190612556565b6040516108eb9392919061260b565b60405180910390a15b5b808061090090612421565b9150506106c3565b50565b600560205280600052604060002060009150905080600001805461092e90612068565b80601f016020809104026020016040519081016040528092919081815260200182805461095a90612068565b80156109a75780601f1061097c576101008083540402835291602001916109a7565b820191906000526020600020905b81548152906001019060200180831161098a57829003601f168201915b5050505050908060010154908060020154908060030154908060040160009054906101000a900473ffffffffffffffffffffffffffffffffffffffff16908060040160149054906101000a900460ff16908060050154905087565b6060600060035467ffffffffffffffff811115610a2257610a21611767565b5b604051908082528060200260200182016040528015610a5b57816020015b610a48611622565b815260200190600190039081610a405790505b50905060005b600354811015610ab6576000610a7682610e69565b90508060a0015115610aa25780838381518110610a9657610a95612649565b5b60200260200101819052505b508080610aae90612421565b915050610a61565b508091505090565b610ac66114d8565b80600660008473ffffffffffffffffffffffffffffffffffffffff1673ffffffffffffffffffffffffffffffffffffffff16815260200190815260200160002060006101000a81548160ff0219169083151502179055505050565b610b296114d8565b610b336000611556565b565b60035481565b600260009054906101000a900473ffffffffffffffffffffffffffffffffffffffff1681565b600460009054906101000a900473ffffffffffffffffffffffffffffffffffffffff1681565b60008060009054906101000a900473ffffffffffffffffffffffffffffffffffffffff16905090565b6000610bba610a02565b905060005b8151811015610e3f57818181518110610bdb57610bda612649565b5b602002602001015160a0015115610e2c576000600160009054906101000a900473ffffffffffffffffffffffffffffffffffffffff1673ffffffffffffffffffffffffffffffffffffffff166370a08231848481518110610c3f57610c3e612649565b5b6020026020010151608001516040518263ffffffff1660e01b8152600401610c679190611dd3565b602060405180830381865afa158015610c84573d6000803e3d6000fd5b505050506040513d601f19601f82011682018060405250810190610ca8919061268d565b90506000600160009054906101000a900473ffffffffffffffffffffffffffffffffffffffff1673ffffffffffffffffffffffffffffffffffffffff1663962d2809858581518110610cfd57610cfc612649565b5b6020026020010151602001516040518263ffffffff1660e01b8152600401610d259190611d02565b602060405180830381865afa158015610d42573d6000803e3d6000fd5b505050506040513d601f19601f82011682018060405250810190610d66919061268d565b905080821015610e2957600160009054906101000a900473ffffffffffffffffffffffffffffffffffffffff1673ffffffffffffffffffffffffffffffffffffffff166356407455858581518110610dc157610dc0612649565b5b6020026020010151608001518484610dd991906124f3565b6040518363ffffffff1660e01b8152600401610df692919061230d565b600060405180830381600087803b158015610e1057600080fd5b505af1158015610e24573d6000803e3d6000fd5b505050505b50505b8080610e3790612421565b915050610bbf565b5050565b600160009054906101000a900473ffffffffffffffffffffffffffffffffffffffff1681565b610e71611622565b6000600560008481526020019081526020016000209050806040518060e0016040529081600082018054610ea490612068565b80601f0160208091040260200160405190810160405280929190818152602001828054610ed090612068565b8015610f1d5780601f10610ef257610100808354040283529160200191610f1d565b820191906000526020600020905b815481529060010190602001808311610f0057829003601f168201915b505050505081526020016001820154815260200160028201548152602001600382015481526020016004820160009054906101000a900473ffffffffffffffffffffffffffffffffffffffff1673ffffffffffffffffffffffffffffffffffffffff1673ffffffffffffffffffffffffffffffffffffffff1681526020016004820160149054906101000a900460ff16151515158152602001600582015481525050915050919050565b600660003373ffffffffffffffffffffffffffffffffffffffff1673ffffffffffffffffffffffffffffffffffffffff16815260200190815260200160002060009054906101000a900460ff16611053576040517f08c379a000000000000000000000000000000000000000000000000000000000815260040161104a90611fad565b60405180910390fd5b600354811115611098576040517f08c379a000000000000000000000000000000000000000000000000000000000815260040161108f90612706565b60405180910390fd5b600060056000838152602001908152602001600020905060008160040160146101000a81548160ff0219169083151502179055508060040160009054906101000a900473ffffffffffffffffffffffffffffffffffffffff1673ffffffffffffffffffffffffffffffffffffffff167f1c887c9bd8e75db22f26656b9571aff01bf0a0538598bdcbe11e71b1206c4f658260000183600101548460020154856003015460405161114b9493929190612726565b60405180910390a2600061016d82600301546111679190612556565b9050600081836005015461117b9190612772565b9050600260009054906101000a900473ffffffffffffffffffffffffffffffffffffffff1673ffffffffffffffffffffffffffffffffffffffff166340c10f198460040160009054906101000a900473ffffffffffffffffffffffffffffffffffffffff16836040518363ffffffff1660e01b81526004016111fe92919061230d565b600060405180830381600087803b15801561121857600080fd5b505af115801561122c573d6000803e3d6000fd5b50505050600083600501819055506000600190505b8360010154811161131557600460009054906101000a900473ffffffffffffffffffffffffffffffffffffffff1673ffffffffffffffffffffffffffffffffffffffff1663f5298aca8560040160009054906101000a900473ffffffffffffffffffffffffffffffffffffffff168360016040518463ffffffff1660e01b81526004016112d0939291906127b4565b600060405180830381600087803b1580156112ea57600080fd5b505af11580156112fe573d6000803e3d6000fd5b50505050808061130d90612421565b915050611241565b5050505050565b6113246114d8565b600073ffffffffffffffffffffffffffffffffffffffff168173ffffffffffffffffffffffffffffffffffffffff1603611393576040517f08c379a000000000000000000000000000000000000000000000000000000000815260040161138a9061285d565b60405180910390fd5b61139c81611556565b50565b600660003373ffffffffffffffffffffffffffffffffffffffff1673ffffffffffffffffffffffffffffffffffffffff16815260200190815260200160002060009054906101000a900460ff1661142b576040517f08c379a000000000000000000000000000000000000000000000000000000000815260040161142290611fad565b60405180910390fd5b600354831115611470576040517f08c379a000000000000000000000000000000000000000000000000000000000815260040161146790612706565b60405180910390fd5b60006005600085815260200190815260200160002090508281600101819055508181600301819055507f01a10ae1a7477e7dfccf5728f4ce8c0aa13f0a793496d84b02164fa4c91115c984846040516114ca92919061287d565b60405180910390a150505050565b6114e061161a565b73ffffffffffffffffffffffffffffffffffffffff166114fe610b87565b73ffffffffffffffffffffffffffffffffffffffff1614611554576040517f08c379a000000000000000000000000000000000000000000000000000000000815260040161154b906128f2565b60405180910390fd5b565b60008060009054906101000a900473ffffffffffffffffffffffffffffffffffffffff169050816000806101000a81548173ffffffffffffffffffffffffffffffffffffffff021916908373ffffffffffffffffffffffffffffffffffffffff1602179055508173ffffffffffffffffffffffffffffffffffffffff168173ffffffffffffffffffffffffffffffffffffffff167f8be0079c531659141344cd1fd0a4f28419497f9722a3daafe3b4186f6b6457e060405160405180910390a35050565b600033905090565b6040518060e0016040528060608152602001600081526020016000815260200160008152602001600073ffffffffffffffffffffffffffffffffffffffff168152602001600015158152602001600081525090565b6000604051905090565b600080fd5b600080fd5b600073ffffffffffffffffffffffffffffffffffffffff82169050919050565b60006116b68261168b565b9050919050565b6116c6816116ab565b81146116d157600080fd5b50565b6000813590506116e3816116bd565b92915050565b6000602082840312156116ff576116fe611681565b5b600061170d848285016116d4565b91505092915050565b60008115159050919050565b61172b81611716565b82525050565b60006020820190506117466000830184611722565b92915050565b600080fd5b600080fd5b6000601f19601f8301169050919050565b7f4e487b7100000000000000000000000000000000000000000000000000000000600052604160045260246000fd5b61179f82611756565b810181811067ffffffffffffffff821117156117be576117bd611767565b5b80604052505050565b60006117d1611677565b90506117dd8282611796565b919050565b600067ffffffffffffffff8211156117fd576117fc611767565b5b61180682611756565b9050602081019050919050565b82818337600083830152505050565b6000611835611830846117e2565b6117c7565b90508281526020810184848401111561185157611850611751565b5b61185c848285611813565b509392505050565b600082601f8301126118795761187861174c565b5b8135611889848260208601611822565b91505092915050565b6000819050919050565b6118a581611892565b81146118b057600080fd5b50565b6000813590506118c28161189c565b92915050565b600080600080600060a086880312156118e4576118e3611681565b5b600086013567ffffffffffffffff81111561190257611901611686565b5b61190e88828901611864565b955050602061191f888289016118b3565b9450506040611930888289016118b3565b9350506060611941888289016118b3565b9250506080611952888289016116d4565b9150509295509295909350565b60006020828403121561197557611974611681565b5b6000611983848285016118b3565b91505092915050565b600081519050919050565b600082825260208201905092915050565b60005b838110156119c65780820151818401526020810190506119ab565b60008484015250505050565b60006119dd8261198c565b6119e78185611997565b93506119f78185602086016119a8565b611a0081611756565b840191505092915050565b611a1481611892565b82525050565b611a23816116ab565b82525050565b600060e0820190508181036000830152611a43818a6119d2565b9050611a526020830189611a0b565b611a5f6040830188611a0b565b611a6c6060830187611a0b565b611a796080830186611a1a565b611a8660a0830185611722565b611a9360c0830184611a0b565b98975050505050505050565b600081519050919050565b600082825260208201905092915050565b6000819050602082019050919050565b600082825260208201905092915050565b6000611ae78261198c565b611af18185611acb565b9350611b018185602086016119a8565b611b0a81611756565b840191505092915050565b611b1e81611892565b82525050565b611b2d816116ab565b82525050565b611b3c81611716565b82525050565b600060e0830160008301518482036000860152611b5f8282611adc565b9150506020830151611b746020860182611b15565b506040830151611b876040860182611b15565b506060830151611b9a6060860182611b15565b506080830151611bad6080860182611b24565b5060a0830151611bc060a0860182611b33565b5060c0830151611bd360c0860182611b15565b508091505092915050565b6000611bea8383611b42565b905092915050565b6000602082019050919050565b6000611c0a82611a9f565b611c148185611aaa565b935083602082028501611c2685611abb565b8060005b85811015611c625784840389528151611c438582611bde565b9450611c4e83611bf2565b925060208a01995050600181019050611c2a565b50829750879550505050505092915050565b60006020820190508181036000830152611c8e8184611bff565b905092915050565b611c9f81611716565b8114611caa57600080fd5b50565b600081359050611cbc81611c96565b92915050565b60008060408385031215611cd957611cd8611681565b5b6000611ce7858286016116d4565b9250506020611cf885828601611cad565b9150509250929050565b6000602082019050611d176000830184611a0b565b92915050565b6000819050919050565b6000611d42611d3d611d388461168b565b611d1d565b61168b565b9050919050565b6000611d5482611d27565b9050919050565b6000611d6682611d49565b9050919050565b611d7681611d5b565b82525050565b6000602082019050611d916000830184611d6d565b92915050565b6000611da282611d49565b9050919050565b611db281611d97565b82525050565b6000602082019050611dcd6000830184611da9565b92915050565b6000602082019050611de86000830184611a1a565b92915050565b6000611df982611d49565b9050919050565b611e0981611dee565b82525050565b6000602082019050611e246000830184611e00565b92915050565b600060e0830160008301518482036000860152611e478282611adc565b9150506020830151611e5c6020860182611b15565b506040830151611e6f6040860182611b15565b506060830151611e826060860182611b15565b506080830151611e956080860182611b24565b5060a0830151611ea860a0860182611b33565b5060c0830151611ebb60c0860182611b15565b508091505092915050565b60006020820190508181036000830152611ee08184611e2a565b905092915050565b600080600060608486031215611f0157611f00611681565b5b6000611f0f868287016118b3565b9350506020611f20868287016118b3565b9250506040611f31868287016118b3565b9150509250925092565b7f4f6e6c7920416d696e732063616e2063616c6c20746869732066756e6374696f60008201527f6e00000000000000000000000000000000000000000000000000000000000000602082015250565b6000611f97602183611997565b9150611fa282611f3b565b604082019050919050565b60006020820190508181036000830152611fc681611f8a565b9050919050565b7f52616e6b20646f65736e74206578697374000000000000000000000000000000600082015250565b6000612003601183611997565b915061200e82611fcd565b602082019050919050565b6000602082019050818103600083015261203281611ff6565b9050919050565b7f4e487b7100000000000000000000000000000000000000000000000000000000600052602260045260246000fd5b6000600282049050600182168061208057607f821691505b60208210810361209357612092612039565b5b50919050565b60008190508160005260206000209050919050565b60006020601f8301049050919050565b600082821b905092915050565b6000600883026120fb7fffffffffffffffffffffffffffffffffffffffffffffffffffffffffffffffff826120be565b61210586836120be565b95508019841693508086168417925050509392505050565b600061213861213361212e84611892565b611d1d565b611892565b9050919050565b6000819050919050565b6121528361211d565b61216661215e8261213f565b8484546120cb565b825550505050565b600090565b61217b61216e565b612186818484612149565b505050565b5b818110156121aa5761219f600082612173565b60018101905061218c565b5050565b601f8211156121ef576121c081612099565b6121c9846120ae565b810160208510156121d8578190505b6121ec6121e4856120ae565b83018261218b565b50505b505050565b600082821c905092915050565b6000612212600019846008026121f4565b1980831691505092915050565b600061222b8383612201565b9150826002028217905092915050565b6122448261198c565b67ffffffffffffffff81111561225d5761225c611767565b5b6122678254612068565b6122728282856121ae565b600060209050601f8311600181146122a55760008415612293578287015190505b61229d858261221f565b865550612305565b601f1984166122b386612099565b60005b828110156122db578489015182556001820191506020850194506020810190506122b6565b868310156122f857848901516122f4601f891682612201565b8355505b6001600288020188555050505b505050505050565b60006040820190506123226000830185611a1a565b61232f6020830184611a0b565b9392505050565b6000819050919050565b600061235b61235661235184612336565b611d1d565b611892565b9050919050565b61236b81612340565b82525050565b600082825260208201905092915050565b50565b6000612392600083612371565b915061239d82612382565b600082019050919050565b60006080820190506123bd6000830186611a1a565b6123ca6020830185611a0b565b6123d76040830184612362565b81810360608301526123e881612385565b9050949350505050565b7f4e487b7100000000000000000000000000000000000000000000000000000000600052601160045260246000fd5b600061242c82611892565b91507fffffffffffffffffffffffffffffffffffffffffffffffffffffffffffffffff820361245e5761245d6123f2565b5b600182019050919050565b600081905092915050565b600061247f8261198c565b6124898185612469565b93506124998185602086016119a8565b80840191505092915050565b60006124b18284612474565b915081905092915050565b60006060820190506124d16000830186611a0b565b6124de6020830185611a0b565b6124eb6040830184611a0b565b949350505050565b60006124fe82611892565b915061250983611892565b9250828203905081811115612521576125206123f2565b5b92915050565b7f4e487b7100000000000000000000000000000000000000000000000000000000600052601260045260246000fd5b600061256182611892565b915061256c83611892565b92508261257c5761257b612527565b5b828204905092915050565b6000815461259481612068565b61259e8186611997565b945060018216600081146125b957600181146125cf57612602565b60ff198316865281151560200286019350612602565b6125d885612099565b60005b838110156125fa578154818901526001820191506020810190506125db565b808801955050505b50505092915050565b600060608201905081810360008301526126258186612587565b90506126346020830185611a1a565b6126416040830184611a0b565b949350505050565b7f4e487b7100000000000000000000000000000000000000000000000000000000600052603260045260246000fd5b6000815190506126878161189c565b92915050565b6000602082840312156126a3576126a2611681565b5b60006126b184828501612678565b91505092915050565b7f456d706c6f79656520494420646f6573206e6f74206578697374000000000000600082015250565b60006126f0601a83611997565b91506126fb826126ba565b602082019050919050565b6000602082019050818103600083015261271f816126e3565b9050919050565b600060808201905081810360008301526127408187612587565b905061274f6020830186611a0b565b61275c6040830185611a0b565b6127696060830184611a0b565b95945050505050565b600061277d82611892565b915061278883611892565b925082820261279681611892565b915082820484148315176127ad576127ac6123f2565b5b5092915050565b60006060820190506127c96000830186611a1a565b6127d66020830185611a0b565b6127e36040830184612362565b949350505050565b7f4f776e61626c653a206e6577206f776e657220697320746865207a65726f206160008201527f6464726573730000000000000000000000000000000000000000000000000000602082015250565b6000612847602683611997565b9150612852826127eb565b604082019050919050565b600060208201905081810360008301526128768161283a565b9050919050565b60006040820190506128926000830185611a0b565b61289f6020830184611a0b565b9392505050565b7f4f776e61626c653a2063616c6c6572206973206e6f7420746865206f776e6572600082015250565b60006128dc602083611997565b91506128e7826128a6565b602082019050919050565b6000602082019050818103600083015261290b816128cf565b905091905056fea26469706673582212205bdd775a9954624328dc971379fdcf4986f1b287722e84ca8cdd2cb403741e7f64736f6c63430008110033",
  "linkReferences": {},
  "deployedLinkReferences": {}
}