{
  "_format": "hh-sol-artifact-1",
  "contractName": "Employees",
  "sourceName": "contracts/Employees.sol",
  "abi": [
    {
      "inputs": [
        {
          "internalType": "address",
          "name": "_BEN",
          "type": "address"
        },
        {
          "internalType": "address",
          "name": "_payroll",
          "type": "address"
        }
      ],
      "stateMutability": "nonpayable",
      "type": "constructor"
    },
    {
      "anonymous": false,
      "inputs": [
        {
          "indexed": false,
          "internalType": "uint256",
          "name": "_employeeID",
          "type": "uint256"
        },
        {
          "indexed": false,
          "internalType": "uint256",
          "name": "_rank",
          "type": "uint256"
        }
      ],
      "name": "AssignRank",
      "type": "event"
    },
    {
      "anonymous": false,
      "inputs": [
        {
          "indexed": true,
          "internalType": "string",
          "name": "_name",
          "type": "string"
        },
        {
          "indexed": false,
          "internalType": "uint256",
          "name": "_rank",
          "type": "uint256"
        },
        {
          "indexed": false,
          "internalType": "uint256",
          "name": "_dob",
          "type": "uint256"
        },
        {
          "indexed": false,
          "internalType": "uint256",
          "name": "_salary",
          "type": "uint256"
        },
        {
          "indexed": true,
          "internalType": "address",
          "name": "_wallet",
          "type": "address"
        }
      ],
      "name": "EmpoloyeeCreated",
      "type": "event"
    },
    {
      "anonymous": false,
      "inputs": [
        {
          "indexed": false,
          "internalType": "string",
          "name": "_name",
          "type": "string"
        },
        {
          "indexed": false,
          "internalType": "uint256",
          "name": "_rank",
          "type": "uint256"
        },
        {
          "indexed": false,
          "internalType": "uint256",
          "name": "_dob",
          "type": "uint256"
        },
        {
          "indexed": false,
          "internalType": "uint256",
          "name": "_salary",
          "type": "uint256"
        },
        {
          "indexed": true,
          "internalType": "address",
          "name": "_wallet",
          "type": "address"
        }
      ],
      "name": "EmpoloyeeReleased",
      "type": "event"
    },
    {
      "anonymous": false,
      "inputs": [
        {
          "indexed": true,
          "internalType": "address",
          "name": "previousOwner",
          "type": "address"
        },
        {
          "indexed": true,
          "internalType": "address",
          "name": "newOwner",
          "type": "address"
        }
      ],
      "name": "OwnershipTransferred",
      "type": "event"
    },
    {
      "inputs": [],
      "name": "BEN",
      "outputs": [
        {
          "internalType": "contract BenefitsToken",
          "name": "",
          "type": "address"
        }
      ],
      "stateMutability": "view",
      "type": "function"
    },
    {
      "inputs": [
        {
          "internalType": "string",
          "name": "_name",
          "type": "string"
        },
        {
          "internalType": "uint256",
          "name": "_rank",
          "type": "uint256"
        },
        {
          "internalType": "uint256",
          "name": "_dob",
          "type": "uint256"
        },
        {
          "internalType": "uint256",
          "name": "_salary",
          "type": "uint256"
        },
        {
          "internalType": "address",
          "name": "_wallet",
          "type": "address"
        }
      ],
      "name": "addEmployee",
      "outputs": [],
      "stateMutability": "nonpayable",
      "type": "function"
    },
    {
      "inputs": [
        {
          "internalType": "uint256",
          "name": "_employeeId",
          "type": "uint256"
        },
        {
          "internalType": "uint256",
          "name": "_rank",
          "type": "uint256"
        }
      ],
      "name": "assignRank",
      "outputs": [],
      "stateMutability": "nonpayable",
      "type": "function"
    },
    {
      "inputs": [],
      "name": "employeeCounter",
      "outputs": [
        {
          "internalType": "uint256",
          "name": "",
          "type": "uint256"
        }
      ],
      "stateMutability": "view",
      "type": "function"
    },
    {
      "inputs": [
        {
          "internalType": "uint256",
          "name": "",
          "type": "uint256"
        }
      ],
      "name": "employees",
      "outputs": [
        {
          "internalType": "string",
          "name": "name",
          "type": "string"
        },
        {
          "internalType": "uint256",
          "name": "rank",
          "type": "uint256"
        },
        {
          "internalType": "uint256",
          "name": "dateOfBirth",
          "type": "uint256"
        },
        {
          "internalType": "uint256",
          "name": "salary",
          "type": "uint256"
        },
        {
          "internalType": "address",
          "name": "walletAddress",
          "type": "address"
        },
        {
          "internalType": "bool",
          "name": "active",
          "type": "bool"
        }
      ],
      "stateMutability": "view",
      "type": "function"
    },
    {
      "inputs": [],
      "name": "getActiveEmployees",
      "outputs": [
        {
          "components": [
            {
              "internalType": "string",
              "name": "name",
              "type": "string"
            },
            {
              "internalType": "uint256",
              "name": "rank",
              "type": "uint256"
            },
            {
              "internalType": "uint256",
              "name": "dateOfBirth",
              "type": "uint256"
            },
            {
              "internalType": "uint256",
              "name": "salary",
              "type": "uint256"
            },
            {
              "internalType": "address",
              "name": "walletAddress",
              "type": "address"
            },
            {
              "internalType": "bool",
              "name": "active",
              "type": "bool"
            }
          ],
          "internalType": "struct Employees.Employee[]",
          "name": "",
          "type": "tuple[]"
        }
      ],
      "stateMutability": "view",
      "type": "function"
    },
    {
      "inputs": [
        {
          "internalType": "uint256",
          "name": "_employeeId",
          "type": "uint256"
        }
      ],
      "name": "getEmployee",
      "outputs": [
        {
          "components": [
            {
              "internalType": "string",
              "name": "name",
              "type": "string"
            },
            {
              "internalType": "uint256",
              "name": "rank",
              "type": "uint256"
            },
            {
              "internalType": "uint256",
              "name": "dateOfBirth",
              "type": "uint256"
            },
            {
              "internalType": "uint256",
              "name": "salary",
              "type": "uint256"
            },
            {
              "internalType": "address",
              "name": "walletAddress",
              "type": "address"
            },
            {
              "internalType": "bool",
              "name": "active",
              "type": "bool"
            }
          ],
          "internalType": "struct Employees.Employee",
          "name": "",
          "type": "tuple"
        }
      ],
      "stateMutability": "view",
      "type": "function"
    },
    {
      "inputs": [
        {
          "internalType": "address",
          "name": "",
          "type": "address"
        }
      ],
      "name": "isAdmin",
      "outputs": [
        {
          "internalType": "bool",
          "name": "",
          "type": "bool"
        }
      ],
      "stateMutability": "view",
      "type": "function"
    },
    {
      "inputs": [],
      "name": "owner",
      "outputs": [
        {
          "internalType": "address",
          "name": "",
          "type": "address"
        }
      ],
      "stateMutability": "view",
      "type": "function"
    },
    {
      "inputs": [],
      "name": "payroll",
      "outputs": [
        {
          "internalType": "contract EmployeePayroll",
          "name": "",
          "type": "address"
        }
      ],
      "stateMutability": "view",
      "type": "function"
    },
    {
      "inputs": [
        {
          "internalType": "uint256",
          "name": "_employeeId",
          "type": "uint256"
        }
      ],
      "name": "releaseEmployee",
      "outputs": [],
      "stateMutability": "nonpayable",
      "type": "function"
    },
    {
      "inputs": [],
      "name": "renounceOwnership",
      "outputs": [],
      "stateMutability": "nonpayable",
      "type": "function"
    },
    {
      "inputs": [],
      "name": "replenishEmployeeTokens",
      "outputs": [],
      "stateMutability": "nonpayable",
      "type": "function"
    },
    {
      "inputs": [
        {
          "internalType": "address",
          "name": "_address",
          "type": "address"
        },
        {
          "internalType": "bool",
          "name": "_isAdmin",
          "type": "bool"
        }
      ],
      "name": "setAdmin",
      "outputs": [],
      "stateMutability": "nonpayable",
      "type": "function"
    },
    {
      "inputs": [
        {
          "internalType": "address",
          "name": "newOwner",
          "type": "address"
        }
      ],
      "name": "transferOwnership",
      "outputs": [],
      "stateMutability": "nonpayable",
      "type": "function"
    }
  ],
  "bytecode": "0x60806040523480156200001157600080fd5b50604051620023753803806200237583398181016040528101906200003791906200026f565b620000576200004b6200013960201b60201c565b6200014160201b60201c565b81600160006101000a81548173ffffffffffffffffffffffffffffffffffffffff021916908373ffffffffffffffffffffffffffffffffffffffff16021790555080600260006101000a81548173ffffffffffffffffffffffffffffffffffffffff021916908373ffffffffffffffffffffffffffffffffffffffff1602179055506001600560003373ffffffffffffffffffffffffffffffffffffffff1673ffffffffffffffffffffffffffffffffffffffff16815260200190815260200160002060006101000a81548160ff0219169083151502179055505050620002b6565b600033905090565b60008060009054906101000a900473ffffffffffffffffffffffffffffffffffffffff169050816000806101000a81548173ffffffffffffffffffffffffffffffffffffffff021916908373ffffffffffffffffffffffffffffffffffffffff1602179055508173ffffffffffffffffffffffffffffffffffffffff168173ffffffffffffffffffffffffffffffffffffffff167f8be0079c531659141344cd1fd0a4f28419497f9722a3daafe3b4186f6b6457e060405160405180910390a35050565b600080fd5b600073ffffffffffffffffffffffffffffffffffffffff82169050919050565b600062000237826200020a565b9050919050565b62000249816200022a565b81146200025557600080fd5b50565b60008151905062000269816200023e565b92915050565b6000806040838503121562000289576200028862000205565b5b6000620002998582860162000258565b9250506020620002ac8582860162000258565b9150509250929050565b6120af80620002c66000396000f3fe608060405234801561001057600080fd5b50600436106100f55760003560e01c806379dd81e111610097578063bca9a5c511610066578063bca9a5c514610241578063d9c4bb5014610271578063f01aefaa1461028d578063f2fde38b146102a9576100f5565b806379dd81e1146101dd5780638da5cb5b146101fb5780639716030714610219578063b7c97fa014610223576100f5565b806347e23df9116100d357806347e23df91461017b5780634b0bddd214610199578063562a5d06146101b5578063715018a6146101d3576100f5565b806324d7806c146100fa5780632b7851401461012a5780634739326b14610146575b600080fd5b610114600480360381019061010f9190611112565b6102c5565b604051610121919061115a565b60405180910390f35b610144600480360381019061013f91906112f1565b6102e5565b005b610160600480360381019061015b9190611388565b610550565b60405161017296959493929190611452565b60405180910390f35b610183610641565b604051610190919061167c565b60405180910390f35b6101b360048036038101906101ae91906116ca565b6106fd565b005b6101bd610760565b6040516101ca9190611769565b60405180910390f35b6101db610786565b005b6101e561079a565b6040516101f29190611784565b60405180910390f35b6102036107a0565b604051610210919061179f565b60405180910390f35b6102216107c9565b005b61022b610a39565b60405161023891906117db565b60405180910390f35b61025b60048036038101906102569190611388565b610a5f565b604051610268919061187f565b60405180910390f35b61028b600480360381019061028691906118a1565b610bb3565b005b6102a760048036038101906102a29190611388565b610ce2565b005b6102c360048036038101906102be9190611112565b610e85565b005b60056020528060005260406000206000915054906101000a900460ff1681565b600560003373ffffffffffffffffffffffffffffffffffffffff1673ffffffffffffffffffffffffffffffffffffffff16815260200190815260200160002060009054906101000a900460ff16610371576040517f08c379a000000000000000000000000000000000000000000000000000000000815260040161036890611953565b60405180910390fd5b600060046000600354815260200190815260200160002090508581600001908161039b9190611b75565b50848160010181905550838160020181905550828160030181905550818160040160006101000a81548173ffffffffffffffffffffffffffffffffffffffff021916908373ffffffffffffffffffffffffffffffffffffffff16021790555060018160040160146101000a81548160ff021916908315150217905550600360008154809291906001019190505550600160009054906101000a900473ffffffffffffffffffffffffffffffffffffffff1673ffffffffffffffffffffffffffffffffffffffff166340c10f198260040160009054906101000a900473ffffffffffffffffffffffffffffffffffffffff1683600101546040518363ffffffff1660e01b81526004016104ae929190611c47565b600060405180830381600087803b1580156104c857600080fd5b505af11580156104dc573d6000803e3d6000fd5b505050508173ffffffffffffffffffffffffffffffffffffffff16866040516105059190611cac565b60405180910390207fe67918e2ebfa86773ad1d6eb76d22fb813c41ac83ee857b3220b45f10e2ad7df87878760405161054093929190611cc3565b60405180910390a3505050505050565b6004602052806000526040600020600091509050806000018054610573906119a2565b80601f016020809104026020016040519081016040528092919081815260200182805461059f906119a2565b80156105ec5780601f106105c1576101008083540402835291602001916105ec565b820191906000526020600020905b8154815290600101906020018083116105cf57829003601f168201915b5050505050908060010154908060020154908060030154908060040160009054906101000a900473ffffffffffffffffffffffffffffffffffffffff16908060040160149054906101000a900460ff16905086565b6060600060035467ffffffffffffffff81111561066157610660611190565b5b60405190808252806020026020018201604052801561069a57816020015b610687611052565b81526020019060019003908161067f5790505b50905060005b6003548110156106f55760006106b582610a5f565b90508060a00151156106e157808383815181106106d5576106d4611cfa565b5b60200260200101819052505b5080806106ed90611d58565b9150506106a0565b508091505090565b610705610f08565b80600560008473ffffffffffffffffffffffffffffffffffffffff1673ffffffffffffffffffffffffffffffffffffffff16815260200190815260200160002060006101000a81548160ff0219169083151502179055505050565b600260009054906101000a900473ffffffffffffffffffffffffffffffffffffffff1681565b61078e610f08565b6107986000610f86565b565b60035481565b60008060009054906101000a900473ffffffffffffffffffffffffffffffffffffffff16905090565b60006107d3610641565b905060005b8151811015610a35576000600160009054906101000a900473ffffffffffffffffffffffffffffffffffffffff1673ffffffffffffffffffffffffffffffffffffffff166370a0823184848151811061083457610833611cfa565b5b6020026020010151608001516040518263ffffffff1660e01b815260040161085c919061179f565b602060405180830381865afa158015610879573d6000803e3d6000fd5b505050506040513d601f19601f8201168201806040525081019061089d9190611db5565b90506000600160009054906101000a900473ffffffffffffffffffffffffffffffffffffffff1673ffffffffffffffffffffffffffffffffffffffff1663962d28098585815181106108f2576108f1611cfa565b5b6020026020010151602001516040518263ffffffff1660e01b815260040161091a9190611784565b6020604051808303816000875af1158015610939573d6000803e3d6000fd5b505050506040513d601f19601f8201168201806040525081019061095d9190611db5565b905080821015610a2057600160009054906101000a900473ffffffffffffffffffffffffffffffffffffffff1673ffffffffffffffffffffffffffffffffffffffff1663564074558585815181106109b8576109b7611cfa565b5b60200260200101516080015184846109d09190611de2565b6040518363ffffffff1660e01b81526004016109ed929190611c47565b600060405180830381600087803b158015610a0757600080fd5b505af1158015610a1b573d6000803e3d6000fd5b505050505b50508080610a2d90611d58565b9150506107d8565b5050565b600160009054906101000a900473ffffffffffffffffffffffffffffffffffffffff1681565b610a67611052565b6000600460008481526020019081526020016000209050806040518060c0016040529081600082018054610a9a906119a2565b80601f0160208091040260200160405190810160405280929190818152602001828054610ac6906119a2565b8015610b135780601f10610ae857610100808354040283529160200191610b13565b820191906000526020600020905b815481529060010190602001808311610af657829003601f168201915b505050505081526020016001820154815260200160028201548152602001600382015481526020016004820160009054906101000a900473ffffffffffffffffffffffffffffffffffffffff1673ffffffffffffffffffffffffffffffffffffffff1673ffffffffffffffffffffffffffffffffffffffff1681526020016004820160149054906101000a900460ff161515151581525050915050919050565b600560003373ffffffffffffffffffffffffffffffffffffffff1673ffffffffffffffffffffffffffffffffffffffff16815260200190815260200160002060009054906101000a900460ff16610c3f576040517f08c379a0000000000000000000000000000000000000000000000000000000008152600401610c3690611953565b60405180910390fd5b600354821115610c84576040517f08c379a0000000000000000000000000000000000000000000000000000000008152600401610c7b90611e62565b60405180910390fd5b60006004600084815260200190815260200160002090508181600101819055507f01a10ae1a7477e7dfccf5728f4ce8c0aa13f0a793496d84b02164fa4c91115c98383604051610cd5929190611e82565b60405180910390a1505050565b600560003373ffffffffffffffffffffffffffffffffffffffff1673ffffffffffffffffffffffffffffffffffffffff16815260200190815260200160002060009054906101000a900460ff16610d6e576040517f08c379a0000000000000000000000000000000000000000000000000000000008152600401610d6590611953565b60405180910390fd5b600354811115610db3576040517f08c379a0000000000000000000000000000000000000000000000000000000008152600401610daa90611e62565b60405180910390fd5b600060046000838152602001908152602001600020905060008160040160146101000a81548160ff0219169083151502179055508060040160009054906101000a900473ffffffffffffffffffffffffffffffffffffffff1673ffffffffffffffffffffffffffffffffffffffff167f1c887c9bd8e75db22f26656b9571aff01bf0a0538598bdcbe11e71b1206c4f6582600001836001015484600201548560030154604051610e669493929190611f2f565b60405180910390a2600360008154809291906001900391905055505050565b610e8d610f08565b600073ffffffffffffffffffffffffffffffffffffffff168173ffffffffffffffffffffffffffffffffffffffff1603610efc576040517f08c379a0000000000000000000000000000000000000000000000000000000008152600401610ef390611fed565b60405180910390fd5b610f0581610f86565b50565b610f1061104a565b73ffffffffffffffffffffffffffffffffffffffff16610f2e6107a0565b73ffffffffffffffffffffffffffffffffffffffff1614610f84576040517f08c379a0000000000000000000000000000000000000000000000000000000008152600401610f7b90612059565b60405180910390fd5b565b60008060009054906101000a900473ffffffffffffffffffffffffffffffffffffffff169050816000806101000a81548173ffffffffffffffffffffffffffffffffffffffff021916908373ffffffffffffffffffffffffffffffffffffffff1602179055508173ffffffffffffffffffffffffffffffffffffffff168173ffffffffffffffffffffffffffffffffffffffff167f8be0079c531659141344cd1fd0a4f28419497f9722a3daafe3b4186f6b6457e060405160405180910390a35050565b600033905090565b6040518060c0016040528060608152602001600081526020016000815260200160008152602001600073ffffffffffffffffffffffffffffffffffffffff1681526020016000151581525090565b6000604051905090565b600080fd5b600080fd5b600073ffffffffffffffffffffffffffffffffffffffff82169050919050565b60006110df826110b4565b9050919050565b6110ef816110d4565b81146110fa57600080fd5b50565b60008135905061110c816110e6565b92915050565b600060208284031215611128576111276110aa565b5b6000611136848285016110fd565b91505092915050565b60008115159050919050565b6111548161113f565b82525050565b600060208201905061116f600083018461114b565b92915050565b600080fd5b600080fd5b6000601f19601f8301169050919050565b7f4e487b7100000000000000000000000000000000000000000000000000000000600052604160045260246000fd5b6111c88261117f565b810181811067ffffffffffffffff821117156111e7576111e6611190565b5b80604052505050565b60006111fa6110a0565b905061120682826111bf565b919050565b600067ffffffffffffffff82111561122657611225611190565b5b61122f8261117f565b9050602081019050919050565b82818337600083830152505050565b600061125e6112598461120b565b6111f0565b90508281526020810184848401111561127a5761127961117a565b5b61128584828561123c565b509392505050565b600082601f8301126112a2576112a1611175565b5b81356112b284826020860161124b565b91505092915050565b6000819050919050565b6112ce816112bb565b81146112d957600080fd5b50565b6000813590506112eb816112c5565b92915050565b600080600080600060a0868803121561130d5761130c6110aa565b5b600086013567ffffffffffffffff81111561132b5761132a6110af565b5b6113378882890161128d565b9550506020611348888289016112dc565b9450506040611359888289016112dc565b935050606061136a888289016112dc565b925050608061137b888289016110fd565b9150509295509295909350565b60006020828403121561139e5761139d6110aa565b5b60006113ac848285016112dc565b91505092915050565b600081519050919050565b600082825260208201905092915050565b60005b838110156113ef5780820151818401526020810190506113d4565b60008484015250505050565b6000611406826113b5565b61141081856113c0565b93506114208185602086016113d1565b6114298161117f565b840191505092915050565b61143d816112bb565b82525050565b61144c816110d4565b82525050565b600060c082019050818103600083015261146c81896113fb565b905061147b6020830188611434565b6114886040830187611434565b6114956060830186611434565b6114a26080830185611443565b6114af60a083018461114b565b979650505050505050565b600081519050919050565b600082825260208201905092915050565b6000819050602082019050919050565b600082825260208201905092915050565b6000611502826113b5565b61150c81856114e6565b935061151c8185602086016113d1565b6115258161117f565b840191505092915050565b611539816112bb565b82525050565b611548816110d4565b82525050565b6115578161113f565b82525050565b600060c083016000830151848203600086015261157a82826114f7565b915050602083015161158f6020860182611530565b5060408301516115a26040860182611530565b5060608301516115b56060860182611530565b5060808301516115c8608086018261153f565b5060a08301516115db60a086018261154e565b508091505092915050565b60006115f2838361155d565b905092915050565b6000602082019050919050565b6000611612826114ba565b61161c81856114c5565b93508360208202850161162e856114d6565b8060005b8581101561166a578484038952815161164b85826115e6565b9450611656836115fa565b925060208a01995050600181019050611632565b50829750879550505050505092915050565b600060208201905081810360008301526116968184611607565b905092915050565b6116a78161113f565b81146116b257600080fd5b50565b6000813590506116c48161169e565b92915050565b600080604083850312156116e1576116e06110aa565b5b60006116ef858286016110fd565b9250506020611700858286016116b5565b9150509250929050565b6000819050919050565b600061172f61172a611725846110b4565b61170a565b6110b4565b9050919050565b600061174182611714565b9050919050565b600061175382611736565b9050919050565b61176381611748565b82525050565b600060208201905061177e600083018461175a565b92915050565b60006020820190506117996000830184611434565b92915050565b60006020820190506117b46000830184611443565b92915050565b60006117c582611736565b9050919050565b6117d5816117ba565b82525050565b60006020820190506117f060008301846117cc565b92915050565b600060c083016000830151848203600086015261181382826114f7565b91505060208301516118286020860182611530565b50604083015161183b6040860182611530565b50606083015161184e6060860182611530565b506080830151611861608086018261153f565b5060a083015161187460a086018261154e565b508091505092915050565b6000602082019050818103600083015261189981846117f6565b905092915050565b600080604083850312156118b8576118b76110aa565b5b60006118c6858286016112dc565b92505060206118d7858286016112dc565b9150509250929050565b7f4f6e6c7920416d696e732063616e2063616c6c20746869732066756e6374696f60008201527f6e00000000000000000000000000000000000000000000000000000000000000602082015250565b600061193d6021836113c0565b9150611948826118e1565b604082019050919050565b6000602082019050818103600083015261196c81611930565b9050919050565b7f4e487b7100000000000000000000000000000000000000000000000000000000600052602260045260246000fd5b600060028204905060018216806119ba57607f821691505b6020821081036119cd576119cc611973565b5b50919050565b60008190508160005260206000209050919050565b60006020601f8301049050919050565b600082821b905092915050565b600060088302611a357fffffffffffffffffffffffffffffffffffffffffffffffffffffffffffffffff826119f8565b611a3f86836119f8565b95508019841693508086168417925050509392505050565b6000611a72611a6d611a68846112bb565b61170a565b6112bb565b9050919050565b6000819050919050565b611a8c83611a57565b611aa0611a9882611a79565b848454611a05565b825550505050565b600090565b611ab5611aa8565b611ac0818484611a83565b505050565b5b81811015611ae457611ad9600082611aad565b600181019050611ac6565b5050565b601f821115611b2957611afa816119d3565b611b03846119e8565b81016020851015611b12578190505b611b26611b1e856119e8565b830182611ac5565b50505b505050565b600082821c905092915050565b6000611b4c60001984600802611b2e565b1980831691505092915050565b6000611b658383611b3b565b9150826002028217905092915050565b611b7e826113b5565b67ffffffffffffffff811115611b9757611b96611190565b5b611ba182546119a2565b611bac828285611ae8565b600060209050601f831160018114611bdf5760008415611bcd578287015190505b611bd78582611b59565b865550611c3f565b601f198416611bed866119d3565b60005b82811015611c1557848901518255600182019150602085019450602081019050611bf0565b86831015611c325784890151611c2e601f891682611b3b565b8355505b6001600288020188555050505b505050505050565b6000604082019050611c5c6000830185611443565b611c696020830184611434565b9392505050565b600081905092915050565b6000611c86826113b5565b611c908185611c70565b9350611ca08185602086016113d1565b80840191505092915050565b6000611cb88284611c7b565b915081905092915050565b6000606082019050611cd86000830186611434565b611ce56020830185611434565b611cf26040830184611434565b949350505050565b7f4e487b7100000000000000000000000000000000000000000000000000000000600052603260045260246000fd5b7f4e487b7100000000000000000000000000000000000000000000000000000000600052601160045260246000fd5b6000611d63826112bb565b91507fffffffffffffffffffffffffffffffffffffffffffffffffffffffffffffffff8203611d9557611d94611d29565b5b600182019050919050565b600081519050611daf816112c5565b92915050565b600060208284031215611dcb57611dca6110aa565b5b6000611dd984828501611da0565b91505092915050565b6000611ded826112bb565b9150611df8836112bb565b9250828203905081811115611e1057611e0f611d29565b5b92915050565b7f456d706c6f79656520494420646f6573206e6f74206578697374000000000000600082015250565b6000611e4c601a836113c0565b9150611e5782611e16565b602082019050919050565b60006020820190508181036000830152611e7b81611e3f565b9050919050565b6000604082019050611e976000830185611434565b611ea46020830184611434565b9392505050565b60008154611eb8816119a2565b611ec281866113c0565b94506001821660008114611edd5760018114611ef357611f26565b60ff198316865281151560200286019350611f26565b611efc856119d3565b60005b83811015611f1e57815481890152600182019150602081019050611eff565b808801955050505b50505092915050565b60006080820190508181036000830152611f498187611eab565b9050611f586020830186611434565b611f656040830185611434565b611f726060830184611434565b95945050505050565b7f4f776e61626c653a206e6577206f776e657220697320746865207a65726f206160008201527f6464726573730000000000000000000000000000000000000000000000000000602082015250565b6000611fd76026836113c0565b9150611fe282611f7b565b604082019050919050565b6000602082019050818103600083015261200681611fca565b9050919050565b7f4f776e61626c653a2063616c6c6572206973206e6f7420746865206f776e6572600082015250565b60006120436020836113c0565b915061204e8261200d565b602082019050919050565b6000602082019050818103600083015261207281612036565b905091905056fea2646970667358221220e14b77fb845e725360654fc3fb4217d2e1a62f783ed66bc5a6ca55db134cdcbe64736f6c63430008110033",
  "linkReferences": {},
  "deployedLinkReferences": {}
}