{
  "_format": "hh-sol-artifact-1",
  "contractName": "Employees",
  "sourceName": "contracts/Employees.sol",
  "abi": [
    {
      "inputs": [
        {
          "internalType": "address",
          "name": "_BEN",
          "type": "address"
        },
        {
          "internalType": "address",
          "name": "_payroll",
          "type": "address"
        },
        {
          "internalType": "address",
          "name": "_nft",
          "type": "address"
        }
      ],
      "stateMutability": "nonpayable",
      "type": "constructor"
    },
    {
      "anonymous": false,
      "inputs": [
        {
          "indexed": false,
          "internalType": "uint256",
          "name": "_employeeID",
          "type": "uint256"
        },
        {
          "indexed": false,
          "internalType": "uint256",
          "name": "_rank",
          "type": "uint256"
        }
      ],
      "name": "AssignRank",
      "type": "event"
    },
    {
      "anonymous": false,
      "inputs": [
        {
          "indexed": false,
          "internalType": "string",
          "name": "_name",
          "type": "string"
        },
        {
          "indexed": false,
          "internalType": "address",
          "name": "_wallet",
          "type": "address"
        },
        {
          "indexed": false,
          "internalType": "uint256",
          "name": "_amount",
          "type": "uint256"
        }
      ],
      "name": "EmployeePaid",
      "type": "event"
    },
    {
      "anonymous": false,
      "inputs": [
        {
          "indexed": true,
          "internalType": "string",
          "name": "_name",
          "type": "string"
        },
        {
          "indexed": false,
          "internalType": "uint256",
          "name": "_rank",
          "type": "uint256"
        },
        {
          "indexed": false,
          "internalType": "uint256",
          "name": "_dob",
          "type": "uint256"
        },
        {
          "indexed": false,
          "internalType": "uint256",
          "name": "_salary",
          "type": "uint256"
        },
        {
          "indexed": true,
          "internalType": "address",
          "name": "_wallet",
          "type": "address"
        }
      ],
      "name": "EmpoloyeeCreated",
      "type": "event"
    },
    {
      "anonymous": false,
      "inputs": [
        {
          "indexed": false,
          "internalType": "string",
          "name": "_name",
          "type": "string"
        },
        {
          "indexed": false,
          "internalType": "uint256",
          "name": "_rank",
          "type": "uint256"
        },
        {
          "indexed": false,
          "internalType": "uint256",
          "name": "_dob",
          "type": "uint256"
        },
        {
          "indexed": false,
          "internalType": "uint256",
          "name": "_salary",
          "type": "uint256"
        },
        {
          "indexed": true,
          "internalType": "address",
          "name": "_wallet",
          "type": "address"
        }
      ],
      "name": "EmpoloyeeReleased",
      "type": "event"
    },
    {
      "anonymous": false,
      "inputs": [
        {
          "indexed": true,
          "internalType": "address",
          "name": "previousOwner",
          "type": "address"
        },
        {
          "indexed": true,
          "internalType": "address",
          "name": "newOwner",
          "type": "address"
        }
      ],
      "name": "OwnershipTransferred",
      "type": "event"
    },
    {
      "inputs": [],
      "name": "BEN",
      "outputs": [
        {
          "internalType": "contract BenefitsToken",
          "name": "",
          "type": "address"
        }
      ],
      "stateMutability": "view",
      "type": "function"
    },
    {
      "inputs": [],
      "name": "NFT",
      "outputs": [
        {
          "internalType": "contract PayrollioNFT",
          "name": "",
          "type": "address"
        }
      ],
      "stateMutability": "view",
      "type": "function"
    },
    {
      "inputs": [],
      "name": "PAYROLL",
      "outputs": [
        {
          "internalType": "contract EmployeePayroll",
          "name": "",
          "type": "address"
        }
      ],
      "stateMutability": "view",
      "type": "function"
    },
    {
      "inputs": [
        {
          "internalType": "string",
          "name": "_name",
          "type": "string"
        },
        {
          "internalType": "uint256",
          "name": "_rank",
          "type": "uint256"
        },
        {
          "internalType": "uint256",
          "name": "_dob",
          "type": "uint256"
        },
        {
          "internalType": "uint256",
          "name": "_salary",
          "type": "uint256"
        },
        {
          "internalType": "address",
          "name": "_wallet",
          "type": "address"
        }
      ],
      "name": "addEmployee",
      "outputs": [],
      "stateMutability": "nonpayable",
      "type": "function"
    },
    {
      "inputs": [
        {
          "internalType": "uint256",
          "name": "_employeeId",
          "type": "uint256"
        },
        {
          "internalType": "uint256",
          "name": "_rank",
          "type": "uint256"
        },
        {
          "internalType": "uint256",
          "name": "_salary",
          "type": "uint256"
        }
      ],
      "name": "assignRank",
      "outputs": [],
      "stateMutability": "nonpayable",
      "type": "function"
    },
    {
      "inputs": [
        {
          "internalType": "uint256",
          "name": "",
          "type": "uint256"
        }
      ],
      "name": "companyData",
      "outputs": [
        {
          "internalType": "uint256",
          "name": "totalEmployees",
          "type": "uint256"
        },
        {
          "internalType": "uint256",
          "name": "activeEmployees",
          "type": "uint256"
        },
        {
          "internalType": "uint256",
          "name": "inactiveEmployees",
          "type": "uint256"
        },
        {
          "internalType": "uint256",
          "name": "rank1Employees",
          "type": "uint256"
        },
        {
          "internalType": "uint256",
          "name": "rank2Employees",
          "type": "uint256"
        },
        {
          "internalType": "uint256",
          "name": "rank3Employees",
          "type": "uint256"
        },
        {
          "internalType": "uint256",
          "name": "rank4Employees",
          "type": "uint256"
        }
      ],
      "stateMutability": "view",
      "type": "function"
    },
    {
      "inputs": [],
      "name": "employeeCounter",
      "outputs": [
        {
          "internalType": "uint256",
          "name": "",
          "type": "uint256"
        }
      ],
      "stateMutability": "view",
      "type": "function"
    },
    {
      "inputs": [
        {
          "internalType": "uint256",
          "name": "",
          "type": "uint256"
        }
      ],
      "name": "employees",
      "outputs": [
        {
          "internalType": "string",
          "name": "name",
          "type": "string"
        },
        {
          "internalType": "uint256",
          "name": "rank",
          "type": "uint256"
        },
        {
          "internalType": "uint256",
          "name": "dateOfBirth",
          "type": "uint256"
        },
        {
          "internalType": "uint256",
          "name": "salary",
          "type": "uint256"
        },
        {
          "internalType": "address",
          "name": "walletAddress",
          "type": "address"
        },
        {
          "internalType": "bool",
          "name": "active",
          "type": "bool"
        },
        {
          "internalType": "uint256",
          "name": "daysToNextPay",
          "type": "uint256"
        }
      ],
      "stateMutability": "view",
      "type": "function"
    },
    {
      "inputs": [],
      "name": "getActiveEmployees",
      "outputs": [
        {
          "components": [
            {
              "internalType": "string",
              "name": "name",
              "type": "string"
            },
            {
              "internalType": "uint256",
              "name": "rank",
              "type": "uint256"
            },
            {
              "internalType": "uint256",
              "name": "dateOfBirth",
              "type": "uint256"
            },
            {
              "internalType": "uint256",
              "name": "salary",
              "type": "uint256"
            },
            {
              "internalType": "address",
              "name": "walletAddress",
              "type": "address"
            },
            {
              "internalType": "bool",
              "name": "active",
              "type": "bool"
            },
            {
              "internalType": "uint256",
              "name": "daysToNextPay",
              "type": "uint256"
            }
          ],
          "internalType": "struct Employees.Employee[]",
          "name": "",
          "type": "tuple[]"
        }
      ],
      "stateMutability": "view",
      "type": "function"
    },
    {
      "inputs": [
        {
          "internalType": "uint256",
          "name": "_employeeId",
          "type": "uint256"
        }
      ],
      "name": "getEmployee",
      "outputs": [
        {
          "components": [
            {
              "internalType": "string",
              "name": "name",
              "type": "string"
            },
            {
              "internalType": "uint256",
              "name": "rank",
              "type": "uint256"
            },
            {
              "internalType": "uint256",
              "name": "dateOfBirth",
              "type": "uint256"
            },
            {
              "internalType": "uint256",
              "name": "salary",
              "type": "uint256"
            },
            {
              "internalType": "address",
              "name": "walletAddress",
              "type": "address"
            },
            {
              "internalType": "bool",
              "name": "active",
              "type": "bool"
            },
            {
              "internalType": "uint256",
              "name": "daysToNextPay",
              "type": "uint256"
            }
          ],
          "internalType": "struct Employees.Employee",
          "name": "",
          "type": "tuple"
        }
      ],
      "stateMutability": "view",
      "type": "function"
    },
    {
      "inputs": [
        {
          "internalType": "address",
          "name": "",
          "type": "address"
        }
      ],
      "name": "isAdmin",
      "outputs": [
        {
          "internalType": "bool",
          "name": "",
          "type": "bool"
        }
      ],
      "stateMutability": "view",
      "type": "function"
    },
    {
      "inputs": [],
      "name": "owner",
      "outputs": [
        {
          "internalType": "address",
          "name": "",
          "type": "address"
        }
      ],
      "stateMutability": "view",
      "type": "function"
    },
    {
      "inputs": [],
      "name": "payActiveEmployees",
      "outputs": [],
      "stateMutability": "nonpayable",
      "type": "function"
    },
    {
      "inputs": [
        {
          "internalType": "uint256",
          "name": "_employeeId",
          "type": "uint256"
        }
      ],
      "name": "releaseEmployee",
      "outputs": [],
      "stateMutability": "nonpayable",
      "type": "function"
    },
    {
      "inputs": [],
      "name": "renounceOwnership",
      "outputs": [],
      "stateMutability": "nonpayable",
      "type": "function"
    },
    {
      "inputs": [],
      "name": "replenishEmployeeTokens",
      "outputs": [],
      "stateMutability": "nonpayable",
      "type": "function"
    },
    {
      "inputs": [
        {
          "internalType": "address",
          "name": "_address",
          "type": "address"
        },
        {
          "internalType": "bool",
          "name": "_isAdmin",
          "type": "bool"
        }
      ],
      "name": "setAdmin",
      "outputs": [],
      "stateMutability": "nonpayable",
      "type": "function"
    },
    {
      "inputs": [
        {
          "internalType": "address",
          "name": "newOwner",
          "type": "address"
        }
      ],
      "name": "transferOwnership",
      "outputs": [],
      "stateMutability": "nonpayable",
      "type": "function"
    }
  ],
  "bytecode": "0x608060405260006003553480156200001657600080fd5b50604051620033963803806200339683398181016040528101906200003c9190620002b6565b6200005c620000506200018060201b60201c565b6200018860201b60201c565b82600160006101000a81548173ffffffffffffffffffffffffffffffffffffffff021916908373ffffffffffffffffffffffffffffffffffffffff16021790555081600260006101000a81548173ffffffffffffffffffffffffffffffffffffffff021916908373ffffffffffffffffffffffffffffffffffffffff16021790555080600460006101000a81548173ffffffffffffffffffffffffffffffffffffffff021916908373ffffffffffffffffffffffffffffffffffffffff1602179055506001600d60003373ffffffffffffffffffffffffffffffffffffffff1673ffffffffffffffffffffffffffffffffffffffff16815260200190815260200160002060006101000a81548160ff02191690831515021790555050505062000312565b600033905090565b60008060009054906101000a900473ffffffffffffffffffffffffffffffffffffffff169050816000806101000a81548173ffffffffffffffffffffffffffffffffffffffff021916908373ffffffffffffffffffffffffffffffffffffffff1602179055508173ffffffffffffffffffffffffffffffffffffffff168173ffffffffffffffffffffffffffffffffffffffff167f8be0079c531659141344cd1fd0a4f28419497f9722a3daafe3b4186f6b6457e060405160405180910390a35050565b600080fd5b600073ffffffffffffffffffffffffffffffffffffffff82169050919050565b60006200027e8262000251565b9050919050565b620002908162000271565b81146200029c57600080fd5b50565b600081519050620002b08162000285565b92915050565b600080600060608486031215620002d257620002d16200024c565b5b6000620002e2868287016200029f565b9350506020620002f5868287016200029f565b925050604062000308868287016200029f565b9150509250925092565b61307480620003226000396000f3fe608060405234801561001057600080fd5b50600436106101165760003560e01c80637c0b8de2116100a2578063bca9a5c511610071578063bca9a5c51461028b578063c0fe1826146102bb578063f01aefaa146102f1578063f2fde38b1461030d578063ffba79db1461032957610116565b80637c0b8de2146102275780638da5cb5b146102455780639716030714610263578063b7c97fa01461026d57610116565b806347e23df9116100e957806347e23df9146101a75780634b0bddd2146101c5578063715018a6146101e157806379dd81e1146101eb5780637bd6800d1461020957610116565b806324d7806c1461011b5780632b7851401461014b5780634090b7ca146101675780634739326b14610171575b600080fd5b61013560048036038101906101309190611c4b565b610345565b6040516101429190611c93565b60405180910390f35b61016560048036038101906101609190611e2a565b610365565b005b61016f6107cc565b005b61018b60048036038101906101869190611ec1565b610a15565b60405161019e9796959493929190611f8b565b60405180910390f35b6101af610b0c565b6040516101bc91906121d6565b60405180910390f35b6101df60048036038101906101da9190612224565b610bc8565b005b6101e9610c2b565b005b6101f3610c3f565b6040516102009190612264565b60405180910390f35b610211610c45565b60405161021e91906122de565b60405180910390f35b61022f610c6b565b60405161023c919061231a565b60405180910390f35b61024d610c91565b60405161025a9190612335565b60405180910390f35b61026b610cba565b005b610275610f4d565b6040516102829190612371565b60405180910390f35b6102a560048036038101906102a09190611ec1565b610f73565b6040516102b29190612428565b60405180910390f35b6102d560048036038101906102d09190611ec1565b6110d1565b6040516102e8979695949392919061244a565b60405180910390f35b61030b60048036038101906103069190611ec1565b611119565b005b61032760048036038101906103229190611c4b565b611742565b005b610343600480360381019061033e91906124b9565b6117c5565b005b600d6020528060005260406000206000915054906101000a900460ff1681565b600d60003373ffffffffffffffffffffffffffffffffffffffff1673ffffffffffffffffffffffffffffffffffffffff16815260200190815260200160002060009054906101000a900460ff166103f1576040517f08c379a00000000000000000000000000000000000000000000000000000000081526004016103e89061257e565b60405180910390fd5b6000841180156104015750600584105b610440576040517f08c379a0000000000000000000000000000000000000000000000000000000008152600401610437906125ea565b60405180910390fd5b6000600c6000600354815260200190815260200160002090508581600001908161046a919061280c565b50848160010181905550838160020181905550828160030181905550818160040160006101000a81548173ffffffffffffffffffffffffffffffffffffffff021916908373ffffffffffffffffffffffffffffffffffffffff16021790555060018160040160146101000a81548160ff021916908315150217905550601e816005018190555060006005600060018110610507576105066128de565b5b6007020190506001816000016000828254610522919061293c565b92505081905550600181600101600082825461053e919061293c565b925050819055506001860361056e576001816003016000828254610562919061293c565b925050819055506105df565b6002860361059757600181600401600082825461058b919061293c565b925050819055506105de565b600386036105c05760018160050160008282546105b4919061293c565b925050819055506105dd565b60018160060160008282546105d5919061293c565b925050819055505b5b5b600360008154809291906001019190505550600160009054906101000a900473ffffffffffffffffffffffffffffffffffffffff1673ffffffffffffffffffffffffffffffffffffffff166340c10f198360040160009054906101000a900473ffffffffffffffffffffffffffffffffffffffff1684600101546040518363ffffffff1660e01b8152600401610676929190612970565b600060405180830381600087803b15801561069057600080fd5b505af11580156106a4573d6000803e3d6000fd5b50505050600460009054906101000a900473ffffffffffffffffffffffffffffffffffffffff1673ffffffffffffffffffffffffffffffffffffffff166340c10f198360040160009054906101000a900473ffffffffffffffffffffffffffffffffffffffff16886040518363ffffffff1660e01b8152600401610729929190612970565b600060405180830381600087803b15801561074357600080fd5b505af1158015610757573d6000803e3d6000fd5b505050508273ffffffffffffffffffffffffffffffffffffffff168760405161078091906129d5565b60405180910390207fe67918e2ebfa86773ad1d6eb76d22fb813c41ac83ee857b3220b45f10e2ad7df8888886040516107bb939291906129ec565b60405180910390a350505050505050565b60005b600354811015610a1257600c600082815260200190815260200160002060040160149054906101000a900460ff16156109ff576001600c6000838152602001908152602001600020600501541115610854576001600c600083815260200190815260200160002060050160008282546108489190612a23565b925050819055506109fe565b601e600c600083815260200190815260200160002060050181905550600260009054906101000a900473ffffffffffffffffffffffffffffffffffffffff1673ffffffffffffffffffffffffffffffffffffffff166340c10f19600c600084815260200190815260200160002060040160009054906101000a900473ffffffffffffffffffffffffffffffffffffffff16600c806000868152602001908152602001600020600301546109079190612a86565b6040518363ffffffff1660e01b8152600401610924929190612970565b600060405180830381600087803b15801561093e57600080fd5b505af1158015610952573d6000803e3d6000fd5b505050507f525229eda8db65f11d4e28be5bf453f557fc965011eec58cdf019975a0b935c3600c6000838152602001908152602001600020600001600c600084815260200190815260200160002060040160009054906101000a900473ffffffffffffffffffffffffffffffffffffffff16600c806000868152602001908152602001600020600301546109e69190612a86565b6040516109f593929190612b3b565b60405180910390a15b5b8080610a0a90612b79565b9150506107cf565b50565b600c602052806000526040600020600091509050806000018054610a3890612639565b80601f0160208091040260200160405190810160405280929190818152602001828054610a6490612639565b8015610ab15780601f10610a8657610100808354040283529160200191610ab1565b820191906000526020600020905b815481529060010190602001808311610a9457829003601f168201915b5050505050908060010154908060020154908060030154908060040160009054906101000a900473ffffffffffffffffffffffffffffffffffffffff16908060040160149054906101000a900460ff16908060050154905087565b6060600060035467ffffffffffffffff811115610b2c57610b2b611cc9565b5b604051908082528060200260200182016040528015610b6557816020015b610b52611b84565b815260200190600190039081610b4a5790505b50905060005b600354811015610bc0576000610b8082610f73565b90508060a0015115610bac5780838381518110610ba057610b9f6128de565b5b60200260200101819052505b508080610bb890612b79565b915050610b6b565b508091505090565b610bd0611a3a565b80600d60008473ffffffffffffffffffffffffffffffffffffffff1673ffffffffffffffffffffffffffffffffffffffff16815260200190815260200160002060006101000a81548160ff0219169083151502179055505050565b610c33611a3a565b610c3d6000611ab8565b565b60035481565b600260009054906101000a900473ffffffffffffffffffffffffffffffffffffffff1681565b600460009054906101000a900473ffffffffffffffffffffffffffffffffffffffff1681565b60008060009054906101000a900473ffffffffffffffffffffffffffffffffffffffff16905090565b6000610cc4610b0c565b905060005b8151811015610f4957818181518110610ce557610ce46128de565b5b602002602001015160a0015115610f36576000600160009054906101000a900473ffffffffffffffffffffffffffffffffffffffff1673ffffffffffffffffffffffffffffffffffffffff166370a08231848481518110610d4957610d486128de565b5b6020026020010151608001516040518263ffffffff1660e01b8152600401610d719190612335565b602060405180830381865afa158015610d8e573d6000803e3d6000fd5b505050506040513d601f19601f82011682018060405250810190610db29190612bd6565b90506000600160009054906101000a900473ffffffffffffffffffffffffffffffffffffffff1673ffffffffffffffffffffffffffffffffffffffff1663962d2809858581518110610e0757610e066128de565b5b6020026020010151602001516040518263ffffffff1660e01b8152600401610e2f9190612264565b602060405180830381865afa158015610e4c573d6000803e3d6000fd5b505050506040513d601f19601f82011682018060405250810190610e709190612bd6565b905080821015610f3357600160009054906101000a900473ffffffffffffffffffffffffffffffffffffffff1673ffffffffffffffffffffffffffffffffffffffff166356407455858581518110610ecb57610eca6128de565b5b6020026020010151608001518484610ee39190612a23565b6040518363ffffffff1660e01b8152600401610f00929190612970565b600060405180830381600087803b158015610f1a57600080fd5b505af1158015610f2e573d6000803e3d6000fd5b505050505b50505b8080610f4190612b79565b915050610cc9565b5050565b600160009054906101000a900473ffffffffffffffffffffffffffffffffffffffff1681565b610f7b611b84565b6000600c60008481526020019081526020016000209050806040518060e0016040529081600082018054610fae90612639565b80601f0160208091040260200160405190810160405280929190818152602001828054610fda90612639565b80156110275780601f10610ffc57610100808354040283529160200191611027565b820191906000526020600020905b81548152906001019060200180831161100a57829003601f168201915b505050505081526020016001820154815260200160028201548152602001600382015481526020016004820160009054906101000a900473ffffffffffffffffffffffffffffffffffffffff1673ffffffffffffffffffffffffffffffffffffffff1673ffffffffffffffffffffffffffffffffffffffff1681526020016004820160149054906101000a900460ff16151515158152602001600582015481525050915050919050565b600581600181106110e157600080fd5b600702016000915090508060000154908060010154908060020154908060030154908060040154908060050154908060060154905087565b600d60003373ffffffffffffffffffffffffffffffffffffffff1673ffffffffffffffffffffffffffffffffffffffff16815260200190815260200160002060009054906101000a900460ff166111a5576040517f08c379a000000000000000000000000000000000000000000000000000000000815260040161119c9061257e565b60405180910390fd5b6003548111156111ea576040517f08c379a00000000000000000000000000000000000000000000000000000000081526004016111e190612c4f565b60405180910390fd5b6000600c600083815260200190815260200160002090508060040160149054906101000a900460ff16611252576040517f08c379a000000000000000000000000000000000000000000000000000000000815260040161124990612cbb565b60405180910390fd5b60008160040160146101000a81548160ff02191690831515021790555060006005600060018110611286576112856128de565b5b60070201905060018160000160008282546112a1919061293c565b9250508190555060018160010160008282546112bd919061293c565b9250508190555060018260010154036112f15760018160030160008282546112e59190612a23565b9250508190555061136a565b600282600101540361131e5760018160040160008282546113129190612a23565b92505081905550611369565b600382600101540361134b57600181600501600082825461133f9190612a23565b92505081905550611368565b60018160060160008282546113609190612a23565b925050819055505b5b5b8160040160009054906101000a900473ffffffffffffffffffffffffffffffffffffffff1673ffffffffffffffffffffffffffffffffffffffff167f1c887c9bd8e75db22f26656b9571aff01bf0a0538598bdcbe11e71b1206c4f65836000018460010154856002015486600301546040516113e99493929190612cdb565b60405180910390a2600061016d83600301546114059190612a86565b905060008184600501546114199190612d27565b9050600260009054906101000a900473ffffffffffffffffffffffffffffffffffffffff1673ffffffffffffffffffffffffffffffffffffffff166340c10f198560040160009054906101000a900473ffffffffffffffffffffffffffffffffffffffff16836040518363ffffffff1660e01b815260040161149c929190612970565b600060405180830381600087803b1580156114b657600080fd5b505af11580156114ca573d6000803e3d6000fd5b505050506000846005018190555060005b600185600101546114ec919061293c565b811015611686576000600460009054906101000a900473ffffffffffffffffffffffffffffffffffffffff1673ffffffffffffffffffffffffffffffffffffffff1662fdd58e8760040160009054906101000a900473ffffffffffffffffffffffffffffffffffffffff16846040518363ffffffff1660e01b8152600401611575929190612970565b602060405180830381865afa158015611592573d6000803e3d6000fd5b505050506040513d601f19601f820116820180604052508101906115b69190612bd6565b111561167357600460009054906101000a900473ffffffffffffffffffffffffffffffffffffffff1673ffffffffffffffffffffffffffffffffffffffff1663f5298aca8660040160009054906101000a900473ffffffffffffffffffffffffffffffffffffffff168360016040518463ffffffff1660e01b815260040161164093929190612da4565b600060405180830381600087803b15801561165a57600080fd5b505af115801561166e573d6000803e3d6000fd5b505050505b808061167e90612b79565b9150506114db565b50600460009054906101000a900473ffffffffffffffffffffffffffffffffffffffff1673ffffffffffffffffffffffffffffffffffffffff166340c10f198560040160009054906101000a900473ffffffffffffffffffffffffffffffffffffffff1660066040518363ffffffff1660e01b8152600401611709929190612e16565b600060405180830381600087803b15801561172357600080fd5b505af1158015611737573d6000803e3d6000fd5b505050505050505050565b61174a611a3a565b600073ffffffffffffffffffffffffffffffffffffffff168173ffffffffffffffffffffffffffffffffffffffff16036117b9576040517f08c379a00000000000000000000000000000000000000000000000000000000081526004016117b090612eb1565b60405180910390fd5b6117c281611ab8565b50565b600d60003373ffffffffffffffffffffffffffffffffffffffff1673ffffffffffffffffffffffffffffffffffffffff16815260200190815260200160002060009054906101000a900460ff16611851576040517f08c379a00000000000000000000000000000000000000000000000000000000081526004016118489061257e565b60405180910390fd5b600354831115611896576040517f08c379a000000000000000000000000000000000000000000000000000000000815260040161188d90612c4f565b60405180910390fd5b6000600c60008581526020019081526020016000209050806001015483116118f3576040517f08c379a00000000000000000000000000000000000000000000000000000000081526004016118ea90612f1d565b60405180910390fd5b60058310611936576040517f08c379a000000000000000000000000000000000000000000000000000000000815260040161192d90612f89565b60405180910390fd5b828160010181905550818160030181905550600460009054906101000a900473ffffffffffffffffffffffffffffffffffffffff1673ffffffffffffffffffffffffffffffffffffffff166340c10f198260040160009054906101000a900473ffffffffffffffffffffffffffffffffffffffff16856040518363ffffffff1660e01b81526004016119c9929190612970565b600060405180830381600087803b1580156119e357600080fd5b505af11580156119f7573d6000803e3d6000fd5b505050507f01a10ae1a7477e7dfccf5728f4ce8c0aa13f0a793496d84b02164fa4c91115c98484604051611a2c929190612fa9565b60405180910390a150505050565b611a42611b7c565b73ffffffffffffffffffffffffffffffffffffffff16611a60610c91565b73ffffffffffffffffffffffffffffffffffffffff1614611ab6576040517f08c379a0000000000000000000000000000000000000000000000000000000008152600401611aad9061301e565b60405180910390fd5b565b60008060009054906101000a900473ffffffffffffffffffffffffffffffffffffffff169050816000806101000a81548173ffffffffffffffffffffffffffffffffffffffff021916908373ffffffffffffffffffffffffffffffffffffffff1602179055508173ffffffffffffffffffffffffffffffffffffffff168173ffffffffffffffffffffffffffffffffffffffff167f8be0079c531659141344cd1fd0a4f28419497f9722a3daafe3b4186f6b6457e060405160405180910390a35050565b600033905090565b6040518060e0016040528060608152602001600081526020016000815260200160008152602001600073ffffffffffffffffffffffffffffffffffffffff168152602001600015158152602001600081525090565b6000604051905090565b600080fd5b600080fd5b600073ffffffffffffffffffffffffffffffffffffffff82169050919050565b6000611c1882611bed565b9050919050565b611c2881611c0d565b8114611c3357600080fd5b50565b600081359050611c4581611c1f565b92915050565b600060208284031215611c6157611c60611be3565b5b6000611c6f84828501611c36565b91505092915050565b60008115159050919050565b611c8d81611c78565b82525050565b6000602082019050611ca86000830184611c84565b92915050565b600080fd5b600080fd5b6000601f19601f8301169050919050565b7f4e487b7100000000000000000000000000000000000000000000000000000000600052604160045260246000fd5b611d0182611cb8565b810181811067ffffffffffffffff82111715611d2057611d1f611cc9565b5b80604052505050565b6000611d33611bd9565b9050611d3f8282611cf8565b919050565b600067ffffffffffffffff821115611d5f57611d5e611cc9565b5b611d6882611cb8565b9050602081019050919050565b82818337600083830152505050565b6000611d97611d9284611d44565b611d29565b905082815260208101848484011115611db357611db2611cb3565b5b611dbe848285611d75565b509392505050565b600082601f830112611ddb57611dda611cae565b5b8135611deb848260208601611d84565b91505092915050565b6000819050919050565b611e0781611df4565b8114611e1257600080fd5b50565b600081359050611e2481611dfe565b92915050565b600080600080600060a08688031215611e4657611e45611be3565b5b600086013567ffffffffffffffff811115611e6457611e63611be8565b5b611e7088828901611dc6565b9550506020611e8188828901611e15565b9450506040611e9288828901611e15565b9350506060611ea388828901611e15565b9250506080611eb488828901611c36565b9150509295509295909350565b600060208284031215611ed757611ed6611be3565b5b6000611ee584828501611e15565b91505092915050565b600081519050919050565b600082825260208201905092915050565b60005b83811015611f28578082015181840152602081019050611f0d565b60008484015250505050565b6000611f3f82611eee565b611f498185611ef9565b9350611f59818560208601611f0a565b611f6281611cb8565b840191505092915050565b611f7681611df4565b82525050565b611f8581611c0d565b82525050565b600060e0820190508181036000830152611fa5818a611f34565b9050611fb46020830189611f6d565b611fc16040830188611f6d565b611fce6060830187611f6d565b611fdb6080830186611f7c565b611fe860a0830185611c84565b611ff560c0830184611f6d565b98975050505050505050565b600081519050919050565b600082825260208201905092915050565b6000819050602082019050919050565b600082825260208201905092915050565b600061204982611eee565b612053818561202d565b9350612063818560208601611f0a565b61206c81611cb8565b840191505092915050565b61208081611df4565b82525050565b61208f81611c0d565b82525050565b61209e81611c78565b82525050565b600060e08301600083015184820360008601526120c1828261203e565b91505060208301516120d66020860182612077565b5060408301516120e96040860182612077565b5060608301516120fc6060860182612077565b50608083015161210f6080860182612086565b5060a083015161212260a0860182612095565b5060c083015161213560c0860182612077565b508091505092915050565b600061214c83836120a4565b905092915050565b6000602082019050919050565b600061216c82612001565b612176818561200c565b9350836020820285016121888561201d565b8060005b858110156121c457848403895281516121a58582612140565b94506121b083612154565b925060208a0199505060018101905061218c565b50829750879550505050505092915050565b600060208201905081810360008301526121f08184612161565b905092915050565b61220181611c78565b811461220c57600080fd5b50565b60008135905061221e816121f8565b92915050565b6000806040838503121561223b5761223a611be3565b5b600061224985828601611c36565b925050602061225a8582860161220f565b9150509250929050565b60006020820190506122796000830184611f6d565b92915050565b6000819050919050565b60006122a461229f61229a84611bed565b61227f565b611bed565b9050919050565b60006122b682612289565b9050919050565b60006122c8826122ab565b9050919050565b6122d8816122bd565b82525050565b60006020820190506122f360008301846122cf565b92915050565b6000612304826122ab565b9050919050565b612314816122f9565b82525050565b600060208201905061232f600083018461230b565b92915050565b600060208201905061234a6000830184611f7c565b92915050565b600061235b826122ab565b9050919050565b61236b81612350565b82525050565b60006020820190506123866000830184612362565b92915050565b600060e08301600083015184820360008601526123a9828261203e565b91505060208301516123be6020860182612077565b5060408301516123d16040860182612077565b5060608301516123e46060860182612077565b5060808301516123f76080860182612086565b5060a083015161240a60a0860182612095565b5060c083015161241d60c0860182612077565b508091505092915050565b60006020820190508181036000830152612442818461238c565b905092915050565b600060e08201905061245f600083018a611f6d565b61246c6020830189611f6d565b6124796040830188611f6d565b6124866060830187611f6d565b6124936080830186611f6d565b6124a060a0830185611f6d565b6124ad60c0830184611f6d565b98975050505050505050565b6000806000606084860312156124d2576124d1611be3565b5b60006124e086828701611e15565b93505060206124f186828701611e15565b925050604061250286828701611e15565b9150509250925092565b7f4f6e6c7920416d696e732063616e2063616c6c20746869732066756e6374696f60008201527f6e00000000000000000000000000000000000000000000000000000000000000602082015250565b6000612568602183611ef9565b91506125738261250c565b604082019050919050565b600060208201905081810360008301526125978161255b565b9050919050565b7f52616e6b20646f65736e74206578697374000000000000000000000000000000600082015250565b60006125d4601183611ef9565b91506125df8261259e565b602082019050919050565b60006020820190508181036000830152612603816125c7565b9050919050565b7f4e487b7100000000000000000000000000000000000000000000000000000000600052602260045260246000fd5b6000600282049050600182168061265157607f821691505b6020821081036126645761266361260a565b5b50919050565b60008190508160005260206000209050919050565b60006020601f8301049050919050565b600082821b905092915050565b6000600883026126cc7fffffffffffffffffffffffffffffffffffffffffffffffffffffffffffffffff8261268f565b6126d6868361268f565b95508019841693508086168417925050509392505050565b60006127096127046126ff84611df4565b61227f565b611df4565b9050919050565b6000819050919050565b612723836126ee565b61273761272f82612710565b84845461269c565b825550505050565b600090565b61274c61273f565b61275781848461271a565b505050565b5b8181101561277b57612770600082612744565b60018101905061275d565b5050565b601f8211156127c0576127918161266a565b61279a8461267f565b810160208510156127a9578190505b6127bd6127b58561267f565b83018261275c565b50505b505050565b600082821c905092915050565b60006127e3600019846008026127c5565b1980831691505092915050565b60006127fc83836127d2565b9150826002028217905092915050565b61281582611eee565b67ffffffffffffffff81111561282e5761282d611cc9565b5b6128388254612639565b61284382828561277f565b600060209050601f8311600181146128765760008415612864578287015190505b61286e85826127f0565b8655506128d6565b601f1984166128848661266a565b60005b828110156128ac57848901518255600182019150602085019450602081019050612887565b868310156128c957848901516128c5601f8916826127d2565b8355505b6001600288020188555050505b505050505050565b7f4e487b7100000000000000000000000000000000000000000000000000000000600052603260045260246000fd5b7f4e487b7100000000000000000000000000000000000000000000000000000000600052601160045260246000fd5b600061294782611df4565b915061295283611df4565b925082820190508082111561296a5761296961290d565b5b92915050565b60006040820190506129856000830185611f7c565b6129926020830184611f6d565b9392505050565b600081905092915050565b60006129af82611eee565b6129b98185612999565b93506129c9818560208601611f0a565b80840191505092915050565b60006129e182846129a4565b915081905092915050565b6000606082019050612a016000830186611f6d565b612a0e6020830185611f6d565b612a1b6040830184611f6d565b949350505050565b6000612a2e82611df4565b9150612a3983611df4565b9250828203905081811115612a5157612a5061290d565b5b92915050565b7f4e487b7100000000000000000000000000000000000000000000000000000000600052601260045260246000fd5b6000612a9182611df4565b9150612a9c83611df4565b925082612aac57612aab612a57565b5b828204905092915050565b60008154612ac481612639565b612ace8186611ef9565b94506001821660008114612ae95760018114612aff57612b32565b60ff198316865281151560200286019350612b32565b612b088561266a565b60005b83811015612b2a57815481890152600182019150602081019050612b0b565b808801955050505b50505092915050565b60006060820190508181036000830152612b558186612ab7565b9050612b646020830185611f7c565b612b716040830184611f6d565b949350505050565b6000612b8482611df4565b91507fffffffffffffffffffffffffffffffffffffffffffffffffffffffffffffffff8203612bb657612bb561290d565b5b600182019050919050565b600081519050612bd081611dfe565b92915050565b600060208284031215612bec57612beb611be3565b5b6000612bfa84828501612bc1565b91505092915050565b7f456d706c6f79656520494420646f6573206e6f74206578697374000000000000600082015250565b6000612c39601a83611ef9565b9150612c4482612c03565b602082019050919050565b60006020820190508181036000830152612c6881612c2c565b9050919050565b7f456d706c6f79656520616c72656164792072656c656173656400000000000000600082015250565b6000612ca5601983611ef9565b9150612cb082612c6f565b602082019050919050565b60006020820190508181036000830152612cd481612c98565b9050919050565b60006080820190508181036000830152612cf58187612ab7565b9050612d046020830186611f6d565b612d116040830185611f6d565b612d1e6060830184611f6d565b95945050505050565b6000612d3282611df4565b9150612d3d83611df4565b9250828202612d4b81611df4565b91508282048414831517612d6257612d6161290d565b5b5092915050565b6000819050919050565b6000612d8e612d89612d8484612d69565b61227f565b611df4565b9050919050565b612d9e81612d73565b82525050565b6000606082019050612db96000830186611f7c565b612dc66020830185611f6d565b612dd36040830184612d95565b949350505050565b6000819050919050565b6000612e00612dfb612df684612ddb565b61227f565b611df4565b9050919050565b612e1081612de5565b82525050565b6000604082019050612e2b6000830185611f7c565b612e386020830184612e07565b9392505050565b7f4f776e61626c653a206e6577206f776e657220697320746865207a65726f206160008201527f6464726573730000000000000000000000000000000000000000000000000000602082015250565b6000612e9b602683611ef9565b9150612ea682612e3f565b604082019050919050565b60006020820190508181036000830152612eca81612e8e565b9050919050565b7f43616e6e6f742064656d6f746520656d706c6f79656500000000000000000000600082015250565b6000612f07601683611ef9565b9150612f1282612ed1565b602082019050919050565b60006020820190508181036000830152612f3681612efa565b9050919050565b7f546869732072616e6b20646f656e737420657869737400000000000000000000600082015250565b6000612f73601683611ef9565b9150612f7e82612f3d565b602082019050919050565b60006020820190508181036000830152612fa281612f66565b9050919050565b6000604082019050612fbe6000830185611f6d565b612fcb6020830184611f6d565b9392505050565b7f4f776e61626c653a2063616c6c6572206973206e6f7420746865206f776e6572600082015250565b6000613008602083611ef9565b915061301382612fd2565b602082019050919050565b6000602082019050818103600083015261303781612ffb565b905091905056fea26469706673582212202733a135885d9531c7beab9d98d2ee61927e4ae28086788c9af04564895cd84964736f6c63430008110033",
  "linkReferences": {},
  "deployedLinkReferences": {}
}