{
  "_format": "hh-sol-artifact-1",
  "contractName": "Employees",
  "sourceName": "contracts/Employees.sol",
  "abi": [
    {
      "inputs": [
        {
          "internalType": "address",
          "name": "_BEN",
          "type": "address"
        },
        {
          "internalType": "address",
          "name": "_payroll",
          "type": "address"
        }
      ],
      "stateMutability": "nonpayable",
      "type": "constructor"
    },
    {
      "anonymous": false,
      "inputs": [
        {
          "indexed": false,
          "internalType": "uint256",
          "name": "_employeeID",
          "type": "uint256"
        },
        {
          "indexed": false,
          "internalType": "uint256",
          "name": "_rank",
          "type": "uint256"
        }
      ],
      "name": "AssignRank",
      "type": "event"
    },
    {
      "anonymous": false,
      "inputs": [
        {
          "indexed": true,
          "internalType": "string",
          "name": "_name",
          "type": "string"
        },
        {
          "indexed": false,
          "internalType": "uint256",
          "name": "_rank",
          "type": "uint256"
        },
        {
          "indexed": false,
          "internalType": "uint256",
          "name": "_dob",
          "type": "uint256"
        },
        {
          "indexed": false,
          "internalType": "uint256",
          "name": "_salary",
          "type": "uint256"
        },
        {
          "indexed": true,
          "internalType": "address",
          "name": "_wallet",
          "type": "address"
        }
      ],
      "name": "EmpoloyeeCreated",
      "type": "event"
    },
    {
      "anonymous": false,
      "inputs": [
        {
          "indexed": false,
          "internalType": "string",
          "name": "_name",
          "type": "string"
        },
        {
          "indexed": false,
          "internalType": "uint256",
          "name": "_rank",
          "type": "uint256"
        },
        {
          "indexed": false,
          "internalType": "uint256",
          "name": "_dob",
          "type": "uint256"
        },
        {
          "indexed": false,
          "internalType": "uint256",
          "name": "_salary",
          "type": "uint256"
        },
        {
          "indexed": true,
          "internalType": "address",
          "name": "_wallet",
          "type": "address"
        }
      ],
      "name": "EmpoloyeeReleased",
      "type": "event"
    },
    {
      "anonymous": false,
      "inputs": [
        {
          "indexed": true,
          "internalType": "address",
          "name": "previousOwner",
          "type": "address"
        },
        {
          "indexed": true,
          "internalType": "address",
          "name": "newOwner",
          "type": "address"
        }
      ],
      "name": "OwnershipTransferred",
      "type": "event"
    },
    {
      "inputs": [],
      "name": "BEN",
      "outputs": [
        {
          "internalType": "contract BenefitsToken",
          "name": "",
          "type": "address"
        }
      ],
      "stateMutability": "view",
      "type": "function"
    },
    {
      "inputs": [],
      "name": "PAYROLL",
      "outputs": [
        {
          "internalType": "contract EmployeePayroll",
          "name": "",
          "type": "address"
        }
      ],
      "stateMutability": "view",
      "type": "function"
    },
    {
      "inputs": [
        {
          "internalType": "string",
          "name": "_name",
          "type": "string"
        },
        {
          "internalType": "uint256",
          "name": "_rank",
          "type": "uint256"
        },
        {
          "internalType": "uint256",
          "name": "_dob",
          "type": "uint256"
        },
        {
          "internalType": "uint256",
          "name": "_salary",
          "type": "uint256"
        },
        {
          "internalType": "address",
          "name": "_wallet",
          "type": "address"
        }
      ],
      "name": "addEmployee",
      "outputs": [],
      "stateMutability": "nonpayable",
      "type": "function"
    },
    {
      "inputs": [
        {
          "internalType": "uint256",
          "name": "_employeeId",
          "type": "uint256"
        },
        {
          "internalType": "uint256",
          "name": "_rank",
          "type": "uint256"
        },
        {
          "internalType": "uint256",
          "name": "_salary",
          "type": "uint256"
        }
      ],
      "name": "assignRank",
      "outputs": [],
      "stateMutability": "nonpayable",
      "type": "function"
    },
    {
      "inputs": [],
      "name": "employeeCounter",
      "outputs": [
        {
          "internalType": "uint256",
          "name": "",
          "type": "uint256"
        }
      ],
      "stateMutability": "view",
      "type": "function"
    },
    {
      "inputs": [
        {
          "internalType": "uint256",
          "name": "",
          "type": "uint256"
        }
      ],
      "name": "employees",
      "outputs": [
        {
          "internalType": "string",
          "name": "name",
          "type": "string"
        },
        {
          "internalType": "uint256",
          "name": "rank",
          "type": "uint256"
        },
        {
          "internalType": "uint256",
          "name": "dateOfBirth",
          "type": "uint256"
        },
        {
          "internalType": "uint256",
          "name": "salary",
          "type": "uint256"
        },
        {
          "internalType": "address",
          "name": "walletAddress",
          "type": "address"
        },
        {
          "internalType": "bool",
          "name": "active",
          "type": "bool"
        },
        {
          "internalType": "uint256",
          "name": "daysToNextPay",
          "type": "uint256"
        }
      ],
      "stateMutability": "view",
      "type": "function"
    },
    {
      "inputs": [],
      "name": "getActiveEmployees",
      "outputs": [
        {
          "components": [
            {
              "internalType": "string",
              "name": "name",
              "type": "string"
            },
            {
              "internalType": "uint256",
              "name": "rank",
              "type": "uint256"
            },
            {
              "internalType": "uint256",
              "name": "dateOfBirth",
              "type": "uint256"
            },
            {
              "internalType": "uint256",
              "name": "salary",
              "type": "uint256"
            },
            {
              "internalType": "address",
              "name": "walletAddress",
              "type": "address"
            },
            {
              "internalType": "bool",
              "name": "active",
              "type": "bool"
            },
            {
              "internalType": "uint256",
              "name": "daysToNextPay",
              "type": "uint256"
            }
          ],
          "internalType": "struct Employees.Employee[]",
          "name": "",
          "type": "tuple[]"
        }
      ],
      "stateMutability": "view",
      "type": "function"
    },
    {
      "inputs": [
        {
          "internalType": "uint256",
          "name": "_employeeId",
          "type": "uint256"
        }
      ],
      "name": "getEmployee",
      "outputs": [
        {
          "components": [
            {
              "internalType": "string",
              "name": "name",
              "type": "string"
            },
            {
              "internalType": "uint256",
              "name": "rank",
              "type": "uint256"
            },
            {
              "internalType": "uint256",
              "name": "dateOfBirth",
              "type": "uint256"
            },
            {
              "internalType": "uint256",
              "name": "salary",
              "type": "uint256"
            },
            {
              "internalType": "address",
              "name": "walletAddress",
              "type": "address"
            },
            {
              "internalType": "bool",
              "name": "active",
              "type": "bool"
            },
            {
              "internalType": "uint256",
              "name": "daysToNextPay",
              "type": "uint256"
            }
          ],
          "internalType": "struct Employees.Employee",
          "name": "",
          "type": "tuple"
        }
      ],
      "stateMutability": "view",
      "type": "function"
    },
    {
      "inputs": [
        {
          "internalType": "address",
          "name": "",
          "type": "address"
        }
      ],
      "name": "isAdmin",
      "outputs": [
        {
          "internalType": "bool",
          "name": "",
          "type": "bool"
        }
      ],
      "stateMutability": "view",
      "type": "function"
    },
    {
      "inputs": [],
      "name": "owner",
      "outputs": [
        {
          "internalType": "address",
          "name": "",
          "type": "address"
        }
      ],
      "stateMutability": "view",
      "type": "function"
    },
    {
      "inputs": [],
      "name": "payActiveEmployees",
      "outputs": [],
      "stateMutability": "nonpayable",
      "type": "function"
    },
    {
      "inputs": [
        {
          "internalType": "uint256",
          "name": "_employeeId",
          "type": "uint256"
        }
      ],
      "name": "releaseEmployee",
      "outputs": [],
      "stateMutability": "nonpayable",
      "type": "function"
    },
    {
      "inputs": [],
      "name": "renounceOwnership",
      "outputs": [],
      "stateMutability": "nonpayable",
      "type": "function"
    },
    {
      "inputs": [],
      "name": "replenishEmployeeTokens",
      "outputs": [],
      "stateMutability": "nonpayable",
      "type": "function"
    },
    {
      "inputs": [
        {
          "internalType": "address",
          "name": "_address",
          "type": "address"
        },
        {
          "internalType": "bool",
          "name": "_isAdmin",
          "type": "bool"
        }
      ],
      "name": "setAdmin",
      "outputs": [],
      "stateMutability": "nonpayable",
      "type": "function"
    },
    {
      "inputs": [
        {
          "internalType": "address",
          "name": "newOwner",
          "type": "address"
        }
      ],
      "name": "transferOwnership",
      "outputs": [],
      "stateMutability": "nonpayable",
      "type": "function"
    }
  ],
  "bytecode": "0x60806040523480156200001157600080fd5b506040516200273b3803806200273b83398181016040528101906200003791906200026f565b620000576200004b6200013960201b60201c565b6200014160201b60201c565b81600160006101000a81548173ffffffffffffffffffffffffffffffffffffffff021916908373ffffffffffffffffffffffffffffffffffffffff16021790555080600260006101000a81548173ffffffffffffffffffffffffffffffffffffffff021916908373ffffffffffffffffffffffffffffffffffffffff1602179055506001600560003373ffffffffffffffffffffffffffffffffffffffff1673ffffffffffffffffffffffffffffffffffffffff16815260200190815260200160002060006101000a81548160ff0219169083151502179055505050620002b6565b600033905090565b60008060009054906101000a900473ffffffffffffffffffffffffffffffffffffffff169050816000806101000a81548173ffffffffffffffffffffffffffffffffffffffff021916908373ffffffffffffffffffffffffffffffffffffffff1602179055508173ffffffffffffffffffffffffffffffffffffffff168173ffffffffffffffffffffffffffffffffffffffff167f8be0079c531659141344cd1fd0a4f28419497f9722a3daafe3b4186f6b6457e060405160405180910390a35050565b600080fd5b600073ffffffffffffffffffffffffffffffffffffffff82169050919050565b600062000237826200020a565b9050919050565b62000249816200022a565b81146200025557600080fd5b50565b60008151905062000269816200023e565b92915050565b6000806040838503121562000289576200028862000205565b5b6000620002998582860162000258565b9250506020620002ac8582860162000258565b9150509250929050565b61247580620002c66000396000f3fe608060405234801561001057600080fd5b50600436106101005760003560e01c80637bd6800d11610097578063bca9a5c511610066578063bca9a5c514610257578063f01aefaa14610287578063f2fde38b146102a3578063ffba79db146102bf57610100565b80637bd6800d146101f35780638da5cb5b14610211578063971603071461022f578063b7c97fa01461023957610100565b806347e23df9116100d357806347e23df9146101915780634b0bddd2146101af578063715018a6146101cb57806379dd81e1146101d557610100565b806324d7806c146101055780632b785140146101355780634090b7ca146101515780634739326b1461015b575b600080fd5b61011f600480360381019061011a91906113ef565b6102db565b60405161012c9190611437565b60405180910390f35b61014f600480360381019061014a91906115ce565b6102fb565b005b610159610570565b005b61017560048036038101906101709190611665565b610713565b604051610188979695949392919061172f565b60405180910390f35b61019961080a565b6040516101a6919061197a565b60405180910390f35b6101c960048036038101906101c491906119c8565b6108c6565b005b6101d3610929565b005b6101dd61093d565b6040516101ea9190611a08565b60405180910390f35b6101fb610943565b6040516102089190611a82565b60405180910390f35b610219610969565b6040516102269190611a9d565b60405180910390f35b610237610992565b005b610241610c25565b60405161024e9190611ad9565b60405180910390f35b610271600480360381019061026c9190611665565b610c4b565b60405161027e9190611b90565b60405180910390f35b6102a1600480360381019061029c9190611665565b610da9565b005b6102bd60048036038101906102b891906113ef565b611022565b005b6102d960048036038101906102d49190611bb2565b6110a5565b005b60056020528060005260406000206000915054906101000a900460ff1681565b600560003373ffffffffffffffffffffffffffffffffffffffff1673ffffffffffffffffffffffffffffffffffffffff16815260200190815260200160002060009054906101000a900460ff16610387576040517f08c379a000000000000000000000000000000000000000000000000000000000815260040161037e90611c77565b60405180910390fd5b60006004600060035481526020019081526020016000209050858160000190816103b19190611e99565b50848160010181905550838160020181905550828160030181905550818160040160006101000a81548173ffffffffffffffffffffffffffffffffffffffff021916908373ffffffffffffffffffffffffffffffffffffffff16021790555060018160040160146101000a81548160ff021916908315150217905550601e8160050181905550600360008154809291906001019190505550600160009054906101000a900473ffffffffffffffffffffffffffffffffffffffff1673ffffffffffffffffffffffffffffffffffffffff166340c10f198260040160009054906101000a900473ffffffffffffffffffffffffffffffffffffffff1683600101546040518363ffffffff1660e01b81526004016104ce929190611f6b565b600060405180830381600087803b1580156104e857600080fd5b505af11580156104fc573d6000803e3d6000fd5b505050508173ffffffffffffffffffffffffffffffffffffffff16866040516105259190611fd0565b60405180910390207fe67918e2ebfa86773ad1d6eb76d22fb813c41ac83ee857b3220b45f10e2ad7df87878760405161056093929190611fe7565b60405180910390a3505050505050565b60005b600354811015610710576004600082815260200190815260200160002060040160149054906101000a900460ff16156106fd576001600460008381526020019081526020016000206005015411156105f85760016004600083815260200190815260200160002060050160008282546105ec919061204d565b925050819055506106fc565b601e6004600083815260200190815260200160002060050181905550600260009054906101000a900473ffffffffffffffffffffffffffffffffffffffff1673ffffffffffffffffffffffffffffffffffffffff166340c10f196004600084815260200190815260200160002060040160009054906101000a900473ffffffffffffffffffffffffffffffffffffffff16600c60046000868152602001908152602001600020600301546106ac91906120b0565b6040518363ffffffff1660e01b81526004016106c9929190611f6b565b600060405180830381600087803b1580156106e357600080fd5b505af11580156106f7573d6000803e3d6000fd5b505050505b5b8080610708906120e1565b915050610573565b50565b600460205280600052604060002060009150905080600001805461073690611cc6565b80601f016020809104026020016040519081016040528092919081815260200182805461076290611cc6565b80156107af5780601f10610784576101008083540402835291602001916107af565b820191906000526020600020905b81548152906001019060200180831161079257829003601f168201915b5050505050908060010154908060020154908060030154908060040160009054906101000a900473ffffffffffffffffffffffffffffffffffffffff16908060040160149054906101000a900460ff16908060050154905087565b6060600060035467ffffffffffffffff81111561082a5761082961146d565b5b60405190808252806020026020018201604052801561086357816020015b610850611328565b8152602001906001900390816108485790505b50905060005b6003548110156108be57600061087e82610c4b565b90508060a00151156108aa578083838151811061089e5761089d612129565b5b60200260200101819052505b5080806108b6906120e1565b915050610869565b508091505090565b6108ce6111de565b80600560008473ffffffffffffffffffffffffffffffffffffffff1673ffffffffffffffffffffffffffffffffffffffff16815260200190815260200160002060006101000a81548160ff0219169083151502179055505050565b6109316111de565b61093b600061125c565b565b60035481565b600260009054906101000a900473ffffffffffffffffffffffffffffffffffffffff1681565b60008060009054906101000a900473ffffffffffffffffffffffffffffffffffffffff16905090565b600061099c61080a565b905060005b8151811015610c21578181815181106109bd576109bc612129565b5b602002602001015160a0015115610c0e576000600160009054906101000a900473ffffffffffffffffffffffffffffffffffffffff1673ffffffffffffffffffffffffffffffffffffffff166370a08231848481518110610a2157610a20612129565b5b6020026020010151608001516040518263ffffffff1660e01b8152600401610a499190611a9d565b602060405180830381865afa158015610a66573d6000803e3d6000fd5b505050506040513d601f19601f82011682018060405250810190610a8a919061216d565b90506000600160009054906101000a900473ffffffffffffffffffffffffffffffffffffffff1673ffffffffffffffffffffffffffffffffffffffff1663962d2809858581518110610adf57610ade612129565b5b6020026020010151602001516040518263ffffffff1660e01b8152600401610b079190611a08565b602060405180830381865afa158015610b24573d6000803e3d6000fd5b505050506040513d601f19601f82011682018060405250810190610b48919061216d565b905080821015610c0b57600160009054906101000a900473ffffffffffffffffffffffffffffffffffffffff1673ffffffffffffffffffffffffffffffffffffffff166356407455858581518110610ba357610ba2612129565b5b6020026020010151608001518484610bbb919061204d565b6040518363ffffffff1660e01b8152600401610bd8929190611f6b565b600060405180830381600087803b158015610bf257600080fd5b505af1158015610c06573d6000803e3d6000fd5b505050505b50505b8080610c19906120e1565b9150506109a1565b5050565b600160009054906101000a900473ffffffffffffffffffffffffffffffffffffffff1681565b610c53611328565b6000600460008481526020019081526020016000209050806040518060e0016040529081600082018054610c8690611cc6565b80601f0160208091040260200160405190810160405280929190818152602001828054610cb290611cc6565b8015610cff5780601f10610cd457610100808354040283529160200191610cff565b820191906000526020600020905b815481529060010190602001808311610ce257829003601f168201915b505050505081526020016001820154815260200160028201548152602001600382015481526020016004820160009054906101000a900473ffffffffffffffffffffffffffffffffffffffff1673ffffffffffffffffffffffffffffffffffffffff1673ffffffffffffffffffffffffffffffffffffffff1681526020016004820160149054906101000a900460ff16151515158152602001600582015481525050915050919050565b600560003373ffffffffffffffffffffffffffffffffffffffff1673ffffffffffffffffffffffffffffffffffffffff16815260200190815260200160002060009054906101000a900460ff16610e35576040517f08c379a0000000000000000000000000000000000000000000000000000000008152600401610e2c90611c77565b60405180910390fd5b600354811115610e7a576040517f08c379a0000000000000000000000000000000000000000000000000000000008152600401610e71906121e6565b60405180910390fd5b600060046000838152602001908152602001600020905060008160040160146101000a81548160ff0219169083151502179055508060040160009054906101000a900473ffffffffffffffffffffffffffffffffffffffff1673ffffffffffffffffffffffffffffffffffffffff167f1c887c9bd8e75db22f26656b9571aff01bf0a0538598bdcbe11e71b1206c4f6582600001836001015484600201548560030154604051610f2d949392919061228a565b60405180910390a2600061016d8260030154610f4991906120b0565b90506000818360050154610f5d91906122d6565b9050600260009054906101000a900473ffffffffffffffffffffffffffffffffffffffff1673ffffffffffffffffffffffffffffffffffffffff166340c10f198460040160009054906101000a900473ffffffffffffffffffffffffffffffffffffffff16836040518363ffffffff1660e01b8152600401610fe0929190611f6b565b600060405180830381600087803b158015610ffa57600080fd5b505af115801561100e573d6000803e3d6000fd5b505050506000836005018190555050505050565b61102a6111de565b600073ffffffffffffffffffffffffffffffffffffffff168173ffffffffffffffffffffffffffffffffffffffff1603611099576040517f08c379a00000000000000000000000000000000000000000000000000000000081526004016110909061238a565b60405180910390fd5b6110a28161125c565b50565b600560003373ffffffffffffffffffffffffffffffffffffffff1673ffffffffffffffffffffffffffffffffffffffff16815260200190815260200160002060009054906101000a900460ff16611131576040517f08c379a000000000000000000000000000000000000000000000000000000000815260040161112890611c77565b60405180910390fd5b600354831115611176576040517f08c379a000000000000000000000000000000000000000000000000000000000815260040161116d906121e6565b60405180910390fd5b60006004600085815260200190815260200160002090508281600101819055508181600301819055507f01a10ae1a7477e7dfccf5728f4ce8c0aa13f0a793496d84b02164fa4c91115c984846040516111d09291906123aa565b60405180910390a150505050565b6111e6611320565b73ffffffffffffffffffffffffffffffffffffffff16611204610969565b73ffffffffffffffffffffffffffffffffffffffff161461125a576040517f08c379a00000000000000000000000000000000000000000000000000000000081526004016112519061241f565b60405180910390fd5b565b60008060009054906101000a900473ffffffffffffffffffffffffffffffffffffffff169050816000806101000a81548173ffffffffffffffffffffffffffffffffffffffff021916908373ffffffffffffffffffffffffffffffffffffffff1602179055508173ffffffffffffffffffffffffffffffffffffffff168173ffffffffffffffffffffffffffffffffffffffff167f8be0079c531659141344cd1fd0a4f28419497f9722a3daafe3b4186f6b6457e060405160405180910390a35050565b600033905090565b6040518060e0016040528060608152602001600081526020016000815260200160008152602001600073ffffffffffffffffffffffffffffffffffffffff168152602001600015158152602001600081525090565b6000604051905090565b600080fd5b600080fd5b600073ffffffffffffffffffffffffffffffffffffffff82169050919050565b60006113bc82611391565b9050919050565b6113cc816113b1565b81146113d757600080fd5b50565b6000813590506113e9816113c3565b92915050565b60006020828403121561140557611404611387565b5b6000611413848285016113da565b91505092915050565b60008115159050919050565b6114318161141c565b82525050565b600060208201905061144c6000830184611428565b92915050565b600080fd5b600080fd5b6000601f19601f8301169050919050565b7f4e487b7100000000000000000000000000000000000000000000000000000000600052604160045260246000fd5b6114a58261145c565b810181811067ffffffffffffffff821117156114c4576114c361146d565b5b80604052505050565b60006114d761137d565b90506114e3828261149c565b919050565b600067ffffffffffffffff8211156115035761150261146d565b5b61150c8261145c565b9050602081019050919050565b82818337600083830152505050565b600061153b611536846114e8565b6114cd565b90508281526020810184848401111561155757611556611457565b5b611562848285611519565b509392505050565b600082601f83011261157f5761157e611452565b5b813561158f848260208601611528565b91505092915050565b6000819050919050565b6115ab81611598565b81146115b657600080fd5b50565b6000813590506115c8816115a2565b92915050565b600080600080600060a086880312156115ea576115e9611387565b5b600086013567ffffffffffffffff8111156116085761160761138c565b5b6116148882890161156a565b9550506020611625888289016115b9565b9450506040611636888289016115b9565b9350506060611647888289016115b9565b9250506080611658888289016113da565b9150509295509295909350565b60006020828403121561167b5761167a611387565b5b6000611689848285016115b9565b91505092915050565b600081519050919050565b600082825260208201905092915050565b60005b838110156116cc5780820151818401526020810190506116b1565b60008484015250505050565b60006116e382611692565b6116ed818561169d565b93506116fd8185602086016116ae565b6117068161145c565b840191505092915050565b61171a81611598565b82525050565b611729816113b1565b82525050565b600060e0820190508181036000830152611749818a6116d8565b90506117586020830189611711565b6117656040830188611711565b6117726060830187611711565b61177f6080830186611720565b61178c60a0830185611428565b61179960c0830184611711565b98975050505050505050565b600081519050919050565b600082825260208201905092915050565b6000819050602082019050919050565b600082825260208201905092915050565b60006117ed82611692565b6117f781856117d1565b93506118078185602086016116ae565b6118108161145c565b840191505092915050565b61182481611598565b82525050565b611833816113b1565b82525050565b6118428161141c565b82525050565b600060e083016000830151848203600086015261186582826117e2565b915050602083015161187a602086018261181b565b50604083015161188d604086018261181b565b5060608301516118a0606086018261181b565b5060808301516118b3608086018261182a565b5060a08301516118c660a0860182611839565b5060c08301516118d960c086018261181b565b508091505092915050565b60006118f08383611848565b905092915050565b6000602082019050919050565b6000611910826117a5565b61191a81856117b0565b93508360208202850161192c856117c1565b8060005b85811015611968578484038952815161194985826118e4565b9450611954836118f8565b925060208a01995050600181019050611930565b50829750879550505050505092915050565b600060208201905081810360008301526119948184611905565b905092915050565b6119a58161141c565b81146119b057600080fd5b50565b6000813590506119c28161199c565b92915050565b600080604083850312156119df576119de611387565b5b60006119ed858286016113da565b92505060206119fe858286016119b3565b9150509250929050565b6000602082019050611a1d6000830184611711565b92915050565b6000819050919050565b6000611a48611a43611a3e84611391565b611a23565b611391565b9050919050565b6000611a5a82611a2d565b9050919050565b6000611a6c82611a4f565b9050919050565b611a7c81611a61565b82525050565b6000602082019050611a976000830184611a73565b92915050565b6000602082019050611ab26000830184611720565b92915050565b6000611ac382611a4f565b9050919050565b611ad381611ab8565b82525050565b6000602082019050611aee6000830184611aca565b92915050565b600060e0830160008301518482036000860152611b1182826117e2565b9150506020830151611b26602086018261181b565b506040830151611b39604086018261181b565b506060830151611b4c606086018261181b565b506080830151611b5f608086018261182a565b5060a0830151611b7260a0860182611839565b5060c0830151611b8560c086018261181b565b508091505092915050565b60006020820190508181036000830152611baa8184611af4565b905092915050565b600080600060608486031215611bcb57611bca611387565b5b6000611bd9868287016115b9565b9350506020611bea868287016115b9565b9250506040611bfb868287016115b9565b9150509250925092565b7f4f6e6c7920416d696e732063616e2063616c6c20746869732066756e6374696f60008201527f6e00000000000000000000000000000000000000000000000000000000000000602082015250565b6000611c6160218361169d565b9150611c6c82611c05565b604082019050919050565b60006020820190508181036000830152611c9081611c54565b9050919050565b7f4e487b7100000000000000000000000000000000000000000000000000000000600052602260045260246000fd5b60006002820490506001821680611cde57607f821691505b602082108103611cf157611cf0611c97565b5b50919050565b60008190508160005260206000209050919050565b60006020601f8301049050919050565b600082821b905092915050565b600060088302611d597fffffffffffffffffffffffffffffffffffffffffffffffffffffffffffffffff82611d1c565b611d638683611d1c565b95508019841693508086168417925050509392505050565b6000611d96611d91611d8c84611598565b611a23565b611598565b9050919050565b6000819050919050565b611db083611d7b565b611dc4611dbc82611d9d565b848454611d29565b825550505050565b600090565b611dd9611dcc565b611de4818484611da7565b505050565b5b81811015611e0857611dfd600082611dd1565b600181019050611dea565b5050565b601f821115611e4d57611e1e81611cf7565b611e2784611d0c565b81016020851015611e36578190505b611e4a611e4285611d0c565b830182611de9565b50505b505050565b600082821c905092915050565b6000611e7060001984600802611e52565b1980831691505092915050565b6000611e898383611e5f565b9150826002028217905092915050565b611ea282611692565b67ffffffffffffffff811115611ebb57611eba61146d565b5b611ec58254611cc6565b611ed0828285611e0c565b600060209050601f831160018114611f035760008415611ef1578287015190505b611efb8582611e7d565b865550611f63565b601f198416611f1186611cf7565b60005b82811015611f3957848901518255600182019150602085019450602081019050611f14565b86831015611f565784890151611f52601f891682611e5f565b8355505b6001600288020188555050505b505050505050565b6000604082019050611f806000830185611720565b611f8d6020830184611711565b9392505050565b600081905092915050565b6000611faa82611692565b611fb48185611f94565b9350611fc48185602086016116ae565b80840191505092915050565b6000611fdc8284611f9f565b915081905092915050565b6000606082019050611ffc6000830186611711565b6120096020830185611711565b6120166040830184611711565b949350505050565b7f4e487b7100000000000000000000000000000000000000000000000000000000600052601160045260246000fd5b600061205882611598565b915061206383611598565b925082820390508181111561207b5761207a61201e565b5b92915050565b7f4e487b7100000000000000000000000000000000000000000000000000000000600052601260045260246000fd5b60006120bb82611598565b91506120c683611598565b9250826120d6576120d5612081565b5b828204905092915050565b60006120ec82611598565b91507fffffffffffffffffffffffffffffffffffffffffffffffffffffffffffffffff820361211e5761211d61201e565b5b600182019050919050565b7f4e487b7100000000000000000000000000000000000000000000000000000000600052603260045260246000fd5b600081519050612167816115a2565b92915050565b60006020828403121561218357612182611387565b5b600061219184828501612158565b91505092915050565b7f456d706c6f79656520494420646f6573206e6f74206578697374000000000000600082015250565b60006121d0601a8361169d565b91506121db8261219a565b602082019050919050565b600060208201905081810360008301526121ff816121c3565b9050919050565b6000815461221381611cc6565b61221d818661169d565b94506001821660008114612238576001811461224e57612281565b60ff198316865281151560200286019350612281565b61225785611cf7565b60005b838110156122795781548189015260018201915060208101905061225a565b808801955050505b50505092915050565b600060808201905081810360008301526122a48187612206565b90506122b36020830186611711565b6122c06040830185611711565b6122cd6060830184611711565b95945050505050565b60006122e182611598565b91506122ec83611598565b92508282026122fa81611598565b915082820484148315176123115761231061201e565b5b5092915050565b7f4f776e61626c653a206e6577206f776e657220697320746865207a65726f206160008201527f6464726573730000000000000000000000000000000000000000000000000000602082015250565b600061237460268361169d565b915061237f82612318565b604082019050919050565b600060208201905081810360008301526123a381612367565b9050919050565b60006040820190506123bf6000830185611711565b6123cc6020830184611711565b9392505050565b7f4f776e61626c653a2063616c6c6572206973206e6f7420746865206f776e6572600082015250565b600061240960208361169d565b9150612414826123d3565b602082019050919050565b60006020820190508181036000830152612438816123fc565b905091905056fea2646970667358221220a0f3bcce6bc9e79ed0aebb3c5e4d14c2babbdaaf0a2ccc29f70714974ae7e52464736f6c63430008110033",
  "linkReferences": {},
  "deployedLinkReferences": {}
}