{
  "_format": "hh-sol-artifact-1",
  "contractName": "Employees",
  "sourceName": "contracts/Employees.sol",
  "abi": [
    {
      "inputs": [
        {
          "internalType": "address",
          "name": "_BEN",
          "type": "address"
        },
        {
          "internalType": "address",
          "name": "_payroll",
          "type": "address"
        },
        {
          "internalType": "address",
          "name": "_nft",
          "type": "address"
        },
        {
          "internalType": "address",
          "name": "_dao",
          "type": "address"
        }
      ],
      "stateMutability": "nonpayable",
      "type": "constructor"
    },
    {
      "anonymous": false,
      "inputs": [
        {
          "indexed": false,
          "internalType": "uint256",
          "name": "_employeeID",
          "type": "uint256"
        },
        {
          "indexed": false,
          "internalType": "uint256",
          "name": "_rank",
          "type": "uint256"
        }
      ],
      "name": "AssignRank",
      "type": "event"
    },
    {
      "anonymous": false,
      "inputs": [
        {
          "indexed": false,
          "internalType": "string",
          "name": "_name",
          "type": "string"
        },
        {
          "indexed": false,
          "internalType": "address",
          "name": "_wallet",
          "type": "address"
        },
        {
          "indexed": false,
          "internalType": "uint256",
          "name": "_amount",
          "type": "uint256"
        }
      ],
      "name": "EmployeePaid",
      "type": "event"
    },
    {
      "anonymous": false,
      "inputs": [
        {
          "indexed": true,
          "internalType": "uint256",
          "name": "_id",
          "type": "uint256"
        },
        {
          "indexed": true,
          "internalType": "string",
          "name": "_name",
          "type": "string"
        },
        {
          "indexed": false,
          "internalType": "uint256",
          "name": "_rank",
          "type": "uint256"
        },
        {
          "indexed": false,
          "internalType": "uint256",
          "name": "_dob",
          "type": "uint256"
        },
        {
          "indexed": false,
          "internalType": "uint256",
          "name": "_salary",
          "type": "uint256"
        },
        {
          "indexed": true,
          "internalType": "address",
          "name": "_wallet",
          "type": "address"
        }
      ],
      "name": "EmpoloyeeCreated",
      "type": "event"
    },
    {
      "anonymous": false,
      "inputs": [
        {
          "indexed": true,
          "internalType": "uint256",
          "name": "_id",
          "type": "uint256"
        },
        {
          "indexed": false,
          "internalType": "string",
          "name": "_name",
          "type": "string"
        },
        {
          "indexed": false,
          "internalType": "uint256",
          "name": "_rank",
          "type": "uint256"
        },
        {
          "indexed": false,
          "internalType": "uint256",
          "name": "_dob",
          "type": "uint256"
        },
        {
          "indexed": false,
          "internalType": "uint256",
          "name": "_salary",
          "type": "uint256"
        },
        {
          "indexed": true,
          "internalType": "address",
          "name": "_wallet",
          "type": "address"
        }
      ],
      "name": "EmpoloyeeReleased",
      "type": "event"
    },
    {
      "anonymous": false,
      "inputs": [
        {
          "indexed": true,
          "internalType": "address",
          "name": "previousOwner",
          "type": "address"
        },
        {
          "indexed": true,
          "internalType": "address",
          "name": "newOwner",
          "type": "address"
        }
      ],
      "name": "OwnershipTransferred",
      "type": "event"
    },
    {
      "inputs": [
        {
          "internalType": "string",
          "name": "_name",
          "type": "string"
        },
        {
          "internalType": "uint256",
          "name": "_rank",
          "type": "uint256"
        },
        {
          "internalType": "uint256",
          "name": "_dob",
          "type": "uint256"
        },
        {
          "internalType": "uint256",
          "name": "_salary",
          "type": "uint256"
        },
        {
          "internalType": "address",
          "name": "_wallet",
          "type": "address"
        }
      ],
      "name": "addEmployee",
      "outputs": [],
      "stateMutability": "nonpayable",
      "type": "function"
    },
    {
      "inputs": [
        {
          "internalType": "uint256",
          "name": "_employeeId",
          "type": "uint256"
        },
        {
          "internalType": "uint256",
          "name": "_rank",
          "type": "uint256"
        },
        {
          "internalType": "uint256",
          "name": "_salary",
          "type": "uint256"
        }
      ],
      "name": "assignRank",
      "outputs": [],
      "stateMutability": "nonpayable",
      "type": "function"
    },
    {
      "inputs": [
        {
          "internalType": "uint256",
          "name": "",
          "type": "uint256"
        }
      ],
      "name": "companyData",
      "outputs": [
        {
          "internalType": "uint256",
          "name": "totalEmployees",
          "type": "uint256"
        },
        {
          "internalType": "uint256",
          "name": "activeEmployees",
          "type": "uint256"
        },
        {
          "internalType": "uint256",
          "name": "inactiveEmployees",
          "type": "uint256"
        },
        {
          "internalType": "uint256",
          "name": "rank1Employees",
          "type": "uint256"
        },
        {
          "internalType": "uint256",
          "name": "rank2Employees",
          "type": "uint256"
        },
        {
          "internalType": "uint256",
          "name": "rank3Employees",
          "type": "uint256"
        },
        {
          "internalType": "uint256",
          "name": "rank4Employees",
          "type": "uint256"
        }
      ],
      "stateMutability": "view",
      "type": "function"
    },
    {
      "inputs": [],
      "name": "dayOfTheMonth",
      "outputs": [
        {
          "internalType": "uint256",
          "name": "",
          "type": "uint256"
        }
      ],
      "stateMutability": "view",
      "type": "function"
    },
    {
      "inputs": [],
      "name": "employeeCounter",
      "outputs": [
        {
          "internalType": "uint256",
          "name": "",
          "type": "uint256"
        }
      ],
      "stateMutability": "view",
      "type": "function"
    },
    {
      "inputs": [
        {
          "internalType": "uint256",
          "name": "",
          "type": "uint256"
        }
      ],
      "name": "employees",
      "outputs": [
        {
          "internalType": "uint256",
          "name": "id",
          "type": "uint256"
        },
        {
          "internalType": "string",
          "name": "name",
          "type": "string"
        },
        {
          "internalType": "uint256",
          "name": "rank",
          "type": "uint256"
        },
        {
          "internalType": "uint256",
          "name": "dateOfBirth",
          "type": "uint256"
        },
        {
          "internalType": "uint256",
          "name": "salary",
          "type": "uint256"
        },
        {
          "internalType": "address",
          "name": "walletAddress",
          "type": "address"
        },
        {
          "internalType": "bool",
          "name": "active",
          "type": "bool"
        },
        {
          "internalType": "uint256",
          "name": "daysToNextPay",
          "type": "uint256"
        }
      ],
      "stateMutability": "view",
      "type": "function"
    },
    {
      "inputs": [],
      "name": "endVotingOfEmployeeOfTheMonth",
      "outputs": [],
      "stateMutability": "nonpayable",
      "type": "function"
    },
    {
      "inputs": [],
      "name": "getActiveEmployees",
      "outputs": [
        {
          "components": [
            {
              "internalType": "uint256",
              "name": "id",
              "type": "uint256"
            },
            {
              "internalType": "string",
              "name": "name",
              "type": "string"
            },
            {
              "internalType": "uint256",
              "name": "rank",
              "type": "uint256"
            },
            {
              "internalType": "uint256",
              "name": "dateOfBirth",
              "type": "uint256"
            },
            {
              "internalType": "uint256",
              "name": "salary",
              "type": "uint256"
            },
            {
              "internalType": "address",
              "name": "walletAddress",
              "type": "address"
            },
            {
              "internalType": "bool",
              "name": "active",
              "type": "bool"
            },
            {
              "internalType": "uint256",
              "name": "daysToNextPay",
              "type": "uint256"
            }
          ],
          "internalType": "struct Employees.Employee[]",
          "name": "",
          "type": "tuple[]"
        }
      ],
      "stateMutability": "view",
      "type": "function"
    },
    {
      "inputs": [
        {
          "internalType": "uint256",
          "name": "_month",
          "type": "uint256"
        }
      ],
      "name": "getElegibleCandidatesForVotingByMonth",
      "outputs": [
        {
          "components": [
            {
              "internalType": "uint256",
              "name": "id",
              "type": "uint256"
            },
            {
              "internalType": "string",
              "name": "name",
              "type": "string"
            },
            {
              "internalType": "uint256",
              "name": "rank",
              "type": "uint256"
            },
            {
              "internalType": "uint256",
              "name": "dateOfBirth",
              "type": "uint256"
            },
            {
              "internalType": "uint256",
              "name": "salary",
              "type": "uint256"
            },
            {
              "internalType": "address",
              "name": "walletAddress",
              "type": "address"
            },
            {
              "internalType": "bool",
              "name": "active",
              "type": "bool"
            },
            {
              "internalType": "uint256",
              "name": "daysToNextPay",
              "type": "uint256"
            }
          ],
          "internalType": "struct Employees.Employee[3]",
          "name": "elegibleCandidates",
          "type": "tuple[3]"
        }
      ],
      "stateMutability": "view",
      "type": "function"
    },
    {
      "inputs": [
        {
          "internalType": "uint256",
          "name": "_employeeId",
          "type": "uint256"
        }
      ],
      "name": "getEmployee",
      "outputs": [
        {
          "components": [
            {
              "internalType": "uint256",
              "name": "id",
              "type": "uint256"
            },
            {
              "internalType": "string",
              "name": "name",
              "type": "string"
            },
            {
              "internalType": "uint256",
              "name": "rank",
              "type": "uint256"
            },
            {
              "internalType": "uint256",
              "name": "dateOfBirth",
              "type": "uint256"
            },
            {
              "internalType": "uint256",
              "name": "salary",
              "type": "uint256"
            },
            {
              "internalType": "address",
              "name": "walletAddress",
              "type": "address"
            },
            {
              "internalType": "bool",
              "name": "active",
              "type": "bool"
            },
            {
              "internalType": "uint256",
              "name": "daysToNextPay",
              "type": "uint256"
            }
          ],
          "internalType": "struct Employees.Employee",
          "name": "",
          "type": "tuple"
        }
      ],
      "stateMutability": "view",
      "type": "function"
    },
    {
      "inputs": [
        {
          "internalType": "address",
          "name": "_address",
          "type": "address"
        }
      ],
      "name": "getEmployeeByAddress",
      "outputs": [
        {
          "components": [
            {
              "internalType": "uint256",
              "name": "id",
              "type": "uint256"
            },
            {
              "internalType": "string",
              "name": "name",
              "type": "string"
            },
            {
              "internalType": "uint256",
              "name": "rank",
              "type": "uint256"
            },
            {
              "internalType": "uint256",
              "name": "dateOfBirth",
              "type": "uint256"
            },
            {
              "internalType": "uint256",
              "name": "salary",
              "type": "uint256"
            },
            {
              "internalType": "address",
              "name": "walletAddress",
              "type": "address"
            },
            {
              "internalType": "bool",
              "name": "active",
              "type": "bool"
            },
            {
              "internalType": "uint256",
              "name": "daysToNextPay",
              "type": "uint256"
            }
          ],
          "internalType": "struct Employees.Employee",
          "name": "",
          "type": "tuple"
        }
      ],
      "stateMutability": "view",
      "type": "function"
    },
    {
      "inputs": [],
      "name": "getPreviousEmployeeOfTheMonth",
      "outputs": [
        {
          "components": [
            {
              "internalType": "uint256",
              "name": "id",
              "type": "uint256"
            },
            {
              "internalType": "string",
              "name": "name",
              "type": "string"
            },
            {
              "internalType": "uint256",
              "name": "rank",
              "type": "uint256"
            },
            {
              "internalType": "uint256",
              "name": "dateOfBirth",
              "type": "uint256"
            },
            {
              "internalType": "uint256",
              "name": "salary",
              "type": "uint256"
            },
            {
              "internalType": "address",
              "name": "walletAddress",
              "type": "address"
            },
            {
              "internalType": "bool",
              "name": "active",
              "type": "bool"
            },
            {
              "internalType": "uint256",
              "name": "daysToNextPay",
              "type": "uint256"
            }
          ],
          "internalType": "struct Employees.Employee",
          "name": "",
          "type": "tuple"
        }
      ],
      "stateMutability": "view",
      "type": "function"
    },
    {
      "inputs": [
        {
          "internalType": "uint256",
          "name": "_month",
          "type": "uint256"
        },
        {
          "internalType": "address",
          "name": "_voter",
          "type": "address"
        }
      ],
      "name": "hasVoted",
      "outputs": [
        {
          "internalType": "bool",
          "name": "",
          "type": "bool"
        }
      ],
      "stateMutability": "view",
      "type": "function"
    },
    {
      "inputs": [
        {
          "internalType": "address",
          "name": "_nominee1",
          "type": "address"
        },
        {
          "internalType": "address",
          "name": "_nominee2",
          "type": "address"
        },
        {
          "internalType": "address",
          "name": "_nominee3",
          "type": "address"
        }
      ],
      "name": "initiateEmployeeOfTheMonthProposal",
      "outputs": [],
      "stateMutability": "nonpayable",
      "type": "function"
    },
    {
      "inputs": [
        {
          "internalType": "address",
          "name": "",
          "type": "address"
        }
      ],
      "name": "isAdmin",
      "outputs": [
        {
          "internalType": "bool",
          "name": "",
          "type": "bool"
        }
      ],
      "stateMutability": "view",
      "type": "function"
    },
    {
      "inputs": [
        {
          "internalType": "address",
          "name": "_address",
          "type": "address"
        }
      ],
      "name": "onlyActiveEmployee",
      "outputs": [
        {
          "internalType": "bool",
          "name": "",
          "type": "bool"
        }
      ],
      "stateMutability": "view",
      "type": "function"
    },
    {
      "inputs": [],
      "name": "owner",
      "outputs": [
        {
          "internalType": "address",
          "name": "",
          "type": "address"
        }
      ],
      "stateMutability": "view",
      "type": "function"
    },
    {
      "inputs": [],
      "name": "payActiveEmployees",
      "outputs": [],
      "stateMutability": "nonpayable",
      "type": "function"
    },
    {
      "inputs": [
        {
          "internalType": "uint256",
          "name": "_employeeId",
          "type": "uint256"
        }
      ],
      "name": "releaseEmployee",
      "outputs": [],
      "stateMutability": "nonpayable",
      "type": "function"
    },
    {
      "inputs": [],
      "name": "renounceOwnership",
      "outputs": [],
      "stateMutability": "nonpayable",
      "type": "function"
    },
    {
      "inputs": [],
      "name": "replenishEmployeeTokens",
      "outputs": [],
      "stateMutability": "nonpayable",
      "type": "function"
    },
    {
      "inputs": [
        {
          "internalType": "address",
          "name": "_address",
          "type": "address"
        },
        {
          "internalType": "bool",
          "name": "_isAdmin",
          "type": "bool"
        }
      ],
      "name": "setAdmin",
      "outputs": [],
      "stateMutability": "nonpayable",
      "type": "function"
    },
    {
      "inputs": [
        {
          "internalType": "address",
          "name": "newOwner",
          "type": "address"
        }
      ],
      "name": "transferOwnership",
      "outputs": [],
      "stateMutability": "nonpayable",
      "type": "function"
    },
    {
      "inputs": [
        {
          "internalType": "uint256",
          "name": "_nomineeId",
          "type": "uint256"
        }
      ],
      "name": "voteForEmployeeOfTheMonth",
      "outputs": [],
      "stateMutability": "nonpayable",
      "type": "function"
    }
  ],
  "bytecode": "0x6080604052601e6006553480156200001657600080fd5b506040516200439f3803806200439f83398181016040528101906200003c9190620002f8565b6200005c62000050620001c260201b60201c565b620001ca60201b60201c565b83600160006101000a81548173ffffffffffffffffffffffffffffffffffffffff021916908373ffffffffffffffffffffffffffffffffffffffff16021790555082600260006101000a81548173ffffffffffffffffffffffffffffffffffffffff021916908373ffffffffffffffffffffffffffffffffffffffff16021790555081600360006101000a81548173ffffffffffffffffffffffffffffffffffffffff021916908373ffffffffffffffffffffffffffffffffffffffff16021790555080600460006101000a81548173ffffffffffffffffffffffffffffffffffffffff021916908373ffffffffffffffffffffffffffffffffffffffff1602179055506001600f60003373ffffffffffffffffffffffffffffffffffffffff1673ffffffffffffffffffffffffffffffffffffffff16815260200190815260200160002060006101000a81548160ff021916908315150217905550505050506200036a565b600033905090565b60008060009054906101000a900473ffffffffffffffffffffffffffffffffffffffff169050816000806101000a81548173ffffffffffffffffffffffffffffffffffffffff021916908373ffffffffffffffffffffffffffffffffffffffff1602179055508173ffffffffffffffffffffffffffffffffffffffff168173ffffffffffffffffffffffffffffffffffffffff167f8be0079c531659141344cd1fd0a4f28419497f9722a3daafe3b4186f6b6457e060405160405180910390a35050565b600080fd5b600073ffffffffffffffffffffffffffffffffffffffff82169050919050565b6000620002c08262000293565b9050919050565b620002d281620002b3565b8114620002de57600080fd5b50565b600081519050620002f281620002c7565b92915050565b600080600080608085870312156200031557620003146200028e565b5b60006200032587828801620002e1565b94505060206200033887828801620002e1565b93505060406200034b87828801620002e1565b92505060606200035e87828801620002e1565b91505092959194509250565b614025806200037a6000396000f3fe608060405234801561001057600080fd5b50600436106101585760003560e01c806379dd81e1116100c3578063c5e752ad1161007c578063c5e752ad146103ae578063c9b03b94146103cc578063e457a236146103e8578063f01aefaa14610418578063f2fde38b14610434578063ffba79db1461045057610158565b806379dd81e1146102e65780638da5cb5b146103045780639716030714610322578063bca9a5c51461032c578063c0fe18261461035c578063c1b8f81b1461039257610158565b806347e23df91161011557806347e23df91461024a578063496808ee146102685780634b0bddd2146102865780636bc60145146102a25780636c4d9848146102ac578063715018a6146102dc57610158565b80630615477d1461015d57806324d7806c1461018d5780632b785140146101bd5780634090b7ca146101d957806343859632146101e35780634739326b14610213575b600080fd5b610177600480360381019061017291906127b1565b61046c565b6040516101849190612961565b60405180910390f35b6101a760048036038101906101a291906127b1565b61066c565b6040516101b49190612992565b60405180910390f35b6101d760048036038101906101d29190612b0e565b61068c565b005b6101e1610b01565b005b6101fd60048036038101906101f89190612ba5565b610dd8565b60405161020a9190612992565b60405180910390f35b61022d60048036038101906102289190612be5565b610e80565b604051610241989796959493929190612c7a565b60405180910390f35b610252610f7d565b60405161025f9190612e71565b60405180910390f35b610270611039565b60405161027d9190612961565b60405180910390f35b6102a0600480360381019061029b9190612ebf565b6110e5565b005b6102aa611148565b005b6102c660048036038101906102c191906127b1565b611258565b6040516102d39190612992565b60405180910390f35b6102e46112da565b005b6102ee6112ee565b6040516102fb9190612eff565b60405180910390f35b61030c6112f4565b6040516103199190612f1a565b60405180910390f35b61032a61131d565b005b61034660048036038101906103419190612be5565b611667565b6040516103539190612961565b60405180910390f35b61037660048036038101906103719190612be5565b6117d0565b6040516103899796959493929190612f35565b60405180910390f35b6103ac60048036038101906103a79190612fa4565b611818565b005b6103b6611a12565b6040516103c39190612eff565b60405180910390f35b6103e660048036038101906103e19190612be5565b611a18565b005b61040260048036038101906103fd9190612be5565b611af2565b60405161040f9190613099565b60405180910390f35b610432600480360381019061042d9190612be5565b611c65565b005b61044e600480360381019061044991906127b1565b612273565b005b61046a600480360381019061046591906130bb565b6122f6565b005b6104746126b5565b61047c6126b5565b60005b600554811015610662576000600e600083815260200190815260200160002090508473ffffffffffffffffffffffffffffffffffffffff168160050160009054906101000a900473ffffffffffffffffffffffffffffffffffffffff1673ffffffffffffffffffffffffffffffffffffffff160361064e57600e600083815260200190815260200160002060405180610100016040529081600082015481526020016001820180546105309061313d565b80601f016020809104026020016040519081016040528092919081815260200182805461055c9061313d565b80156105a95780601f1061057e576101008083540402835291602001916105a9565b820191906000526020600020905b81548152906001019060200180831161058c57829003601f168201915b505050505081526020016002820154815260200160038201548152602001600482015481526020016005820160009054906101000a900473ffffffffffffffffffffffffffffffffffffffff1673ffffffffffffffffffffffffffffffffffffffff1673ffffffffffffffffffffffffffffffffffffffff1681526020016005820160149054906101000a900460ff1615151515815260200160068201548152505092505b50808061065a9061319d565b91505061047f565b5080915050919050565b600f6020528060005260406000206000915054906101000a900460ff1681565b600f60003373ffffffffffffffffffffffffffffffffffffffff1673ffffffffffffffffffffffffffffffffffffffff16815260200190815260200160002060009054906101000a900460ff16610718576040517f08c379a000000000000000000000000000000000000000000000000000000000815260040161070f90613257565b60405180910390fd5b6000841180156107285750600584105b610767576040517f08c379a000000000000000000000000000000000000000000000000000000000815260040161075e906132c3565b60405180910390fd5b6000600e60006005548152602001908152602001600020905060055481600001819055508581600101908161079c919061348f565b50848160020181905550838160030181905550828160040181905550818160050160006101000a81548173ffffffffffffffffffffffffffffffffffffffff021916908373ffffffffffffffffffffffffffffffffffffffff16021790555060018160050160146101000a81548160ff021916908315150217905550601e81600601819055506000600760006001811061083957610838613561565b5b60070201905060018160000160008282546108549190613590565b9250508190555060018160010160008282546108709190613590565b92505081905550600186036108a05760018160030160008282546108949190613590565b92505081905550610911565b600286036108c95760018160040160008282546108bd9190613590565b92505081905550610910565b600386036108f25760018160050160008282546108e69190613590565b9250508190555061090f565b60018160060160008282546109079190613590565b925050819055505b5b5b600560008154809291906001019190505550600160009054906101000a900473ffffffffffffffffffffffffffffffffffffffff1673ffffffffffffffffffffffffffffffffffffffff166340c10f198360050160009054906101000a900473ffffffffffffffffffffffffffffffffffffffff1684600201546040518363ffffffff1660e01b81526004016109a89291906135c4565b600060405180830381600087803b1580156109c257600080fd5b505af11580156109d6573d6000803e3d6000fd5b50505050600360009054906101000a900473ffffffffffffffffffffffffffffffffffffffff1673ffffffffffffffffffffffffffffffffffffffff166340c10f198360050160009054906101000a900473ffffffffffffffffffffffffffffffffffffffff16886040518363ffffffff1660e01b8152600401610a5b9291906135c4565b600060405180830381600087803b158015610a7557600080fd5b505af1158015610a89573d6000803e3d6000fd5b505050508273ffffffffffffffffffffffffffffffffffffffff1687604051610ab29190613629565b60405180910390206005547fb3fb21401dbedfd570eab9634d028343cc2c489bc1841ac74a939276baebe1f0898989604051610af093929190613640565b60405180910390a450505050505050565b600f60003373ffffffffffffffffffffffffffffffffffffffff1673ffffffffffffffffffffffffffffffffffffffff16815260200190815260200160002060009054906101000a900460ff16610b8d576040517f08c379a0000000000000000000000000000000000000000000000000000000008152600401610b8490613257565b60405180910390fd5b60005b600554811015610dd557600e600082815260200190815260200160002060050160149054906101000a900460ff1615610dc2576001600e6000838152602001908152602001600020600601541115610c15576001600e60008381526020019081526020016000206006016000828254610c099190613677565b92505081905550610dc1565b601e600e600083815260200190815260200160002060060181905550600260009054906101000a900473ffffffffffffffffffffffffffffffffffffffff1673ffffffffffffffffffffffffffffffffffffffff166340c10f19600e600084815260200190815260200160002060050160009054906101000a900473ffffffffffffffffffffffffffffffffffffffff16600c600e600086815260200190815260200160002060040154610cc991906136da565b6040518363ffffffff1660e01b8152600401610ce69291906135c4565b600060405180830381600087803b158015610d0057600080fd5b505af1158015610d14573d6000803e3d6000fd5b505050507f525229eda8db65f11d4e28be5bf453f557fc965011eec58cdf019975a0b935c3600e6000838152602001908152602001600020600101600e600084815260200190815260200160002060050160009054906101000a900473ffffffffffffffffffffffffffffffffffffffff16600c600e600086815260200190815260200160002060040154610da991906136da565b604051610db89392919061378f565b60405180910390a15b5b8080610dcd9061319d565b915050610b90565b50565b6000600460009054906101000a900473ffffffffffffffffffffffffffffffffffffffff1673ffffffffffffffffffffffffffffffffffffffff16634385963284846040518363ffffffff1660e01b8152600401610e379291906137cd565b602060405180830381865afa158015610e54573d6000803e3d6000fd5b505050506040513d601f19601f82011682018060405250810190610e78919061380b565b905092915050565b600e602052806000526040600020600091509050806000015490806001018054610ea99061313d565b80601f0160208091040260200160405190810160405280929190818152602001828054610ed59061313d565b8015610f225780601f10610ef757610100808354040283529160200191610f22565b820191906000526020600020905b815481529060010190602001808311610f0557829003601f168201915b5050505050908060020154908060030154908060040154908060050160009054906101000a900473ffffffffffffffffffffffffffffffffffffffff16908060050160149054906101000a900460ff16908060060154905088565b6060600060055467ffffffffffffffff811115610f9d57610f9c6129b7565b5b604051908082528060200260200182016040528015610fd657816020015b610fc36126b5565b815260200190600190039081610fbb5790505b50905060005b600554811015611031576000610ff182611667565b90508060c001511561101d578083838151811061101157611010613561565b5b60200260200101819052505b5080806110299061319d565b915050610fdc565b508091505090565b6110416126b5565b6000600460009054906101000a900473ffffffffffffffffffffffffffffffffffffffff1673ffffffffffffffffffffffffffffffffffffffff1663496808ee6040518163ffffffff1660e01b8152600401602060405180830381865afa1580156110b0573d6000803e3d6000fd5b505050506040513d601f19601f820116820180604052508101906110d4919061384d565b90506110df8161046c565b91505090565b6110ed61256b565b80600f60008473ffffffffffffffffffffffffffffffffffffffff1673ffffffffffffffffffffffffffffffffffffffff16815260200190815260200160002060006101000a81548160ff0219169083151502179055505050565b600f60003373ffffffffffffffffffffffffffffffffffffffff1673ffffffffffffffffffffffffffffffffffffffff16815260200190815260200160002060009054906101000a900460ff166111d4576040517f08c379a00000000000000000000000000000000000000000000000000000000081526004016111cb90613257565b60405180910390fd5b600460009054906101000a900473ffffffffffffffffffffffffffffffffffffffff1673ffffffffffffffffffffffffffffffffffffffff1663c3403ddf6040518163ffffffff1660e01b8152600401600060405180830381600087803b15801561123e57600080fd5b505af1158015611252573d6000803e3d6000fd5b50505050565b60008060005b6005548110156112d057600061127382611667565b90508473ffffffffffffffffffffffffffffffffffffffff168160a0015173ffffffffffffffffffffffffffffffffffffffff16036112bc578060c00151156112bb57600192505b5b5080806112c89061319d565b91505061125e565b5080915050919050565b6112e261256b565b6112ec60006125e9565b565b60055481565b60008060009054906101000a900473ffffffffffffffffffffffffffffffffffffffff16905090565b600f60003373ffffffffffffffffffffffffffffffffffffffff1673ffffffffffffffffffffffffffffffffffffffff16815260200190815260200160002060009054906101000a900460ff166113a9576040517f08c379a00000000000000000000000000000000000000000000000000000000081526004016113a090613257565b60405180910390fd5b6001600654101561164a5760006113be610f7d565b905060005b8151811015611643578181815181106113df576113de613561565b5b602002602001015160c0015115611630576000600160009054906101000a900473ffffffffffffffffffffffffffffffffffffffff1673ffffffffffffffffffffffffffffffffffffffff166370a0823184848151811061144357611442613561565b5b602002602001015160a001516040518263ffffffff1660e01b815260040161146b9190612f1a565b602060405180830381865afa158015611488573d6000803e3d6000fd5b505050506040513d601f19601f820116820180604052508101906114ac919061388f565b90506000600160009054906101000a900473ffffffffffffffffffffffffffffffffffffffff1673ffffffffffffffffffffffffffffffffffffffff1663962d280985858151811061150157611500613561565b5b6020026020010151604001516040518263ffffffff1660e01b81526004016115299190612eff565b602060405180830381865afa158015611546573d6000803e3d6000fd5b505050506040513d601f19601f8201168201806040525081019061156a919061388f565b90508082101561162d57600160009054906101000a900473ffffffffffffffffffffffffffffffffffffffff1673ffffffffffffffffffffffffffffffffffffffff1663564074558585815181106115c5576115c4613561565b5b602002602001015160a0015184846115dd9190613677565b6040518363ffffffff1660e01b81526004016115fa9291906135c4565b600060405180830381600087803b15801561161457600080fd5b505af1158015611628573d6000803e3d6000fd5b505050505b50505b808061163b9061319d565b9150506113c3565b5050611665565b60016006600082825461165d9190613677565b925050819055505b565b61166f6126b5565b6000600e600084815260200190815260200160002090508060405180610100016040529081600082015481526020016001820180546116ad9061313d565b80601f01602080910402602001604051908101604052809291908181526020018280546116d99061313d565b80156117265780601f106116fb57610100808354040283529160200191611726565b820191906000526020600020905b81548152906001019060200180831161170957829003601f168201915b505050505081526020016002820154815260200160038201548152602001600482015481526020016005820160009054906101000a900473ffffffffffffffffffffffffffffffffffffffff1673ffffffffffffffffffffffffffffffffffffffff1673ffffffffffffffffffffffffffffffffffffffff1681526020016005820160149054906101000a900460ff16151515158152602001600682015481525050915050919050565b600781600181106117e057600080fd5b600702016000915090508060000154908060010154908060020154908060030154908060040154908060050154908060060154905087565b600f60003373ffffffffffffffffffffffffffffffffffffffff1673ffffffffffffffffffffffffffffffffffffffff16815260200190815260200160002060009054906101000a900460ff166118a4576040517f08c379a000000000000000000000000000000000000000000000000000000000815260040161189b90613257565b60405180910390fd5b6118ad83611258565b6118ec576040517f08c379a00000000000000000000000000000000000000000000000000000000081526004016118e390613908565b60405180910390fd5b6118f582611258565b611934576040517f08c379a000000000000000000000000000000000000000000000000000000000815260040161192b90613974565b60405180910390fd5b61193d81611258565b61197c576040517f08c379a0000000000000000000000000000000000000000000000000000000008152600401611973906139e0565b60405180910390fd5b600460009054906101000a900473ffffffffffffffffffffffffffffffffffffffff1673ffffffffffffffffffffffffffffffffffffffff166354bab50b8484846040518463ffffffff1660e01b81526004016119db93929190613a00565b600060405180830381600087803b1580156119f557600080fd5b505af1158015611a09573d6000803e3d6000fd5b50505050505050565b60065481565b611a2133611258565b611a60576040517f08c379a0000000000000000000000000000000000000000000000000000000008152600401611a5790613a83565b60405180910390fd5b600460009054906101000a900473ffffffffffffffffffffffffffffffffffffffff1673ffffffffffffffffffffffffffffffffffffffff166302d947ef82336040518363ffffffff1660e01b8152600401611abd9291906137cd565b600060405180830381600087803b158015611ad757600080fd5b505af1158015611aeb573d6000803e3d6000fd5b5050505050565b611afa612712565b6000600460009054906101000a900473ffffffffffffffffffffffffffffffffffffffff1673ffffffffffffffffffffffffffffffffffffffff1663641b1a34846040518263ffffffff1660e01b8152600401611b579190612eff565b600060405180830381865afa158015611b74573d6000803e3d6000fd5b505050506040513d6000823e3d601f19601f82011682018060405250810190611b9d9190613b6b565b9050611bc381600081518110611bb657611bb5613561565b5b602002602001015161046c565b82600060038110611bd757611bd6613561565b5b6020020181905250611c0381600181518110611bf657611bf5613561565b5b602002602001015161046c565b82600160038110611c1757611c16613561565b5b6020020181905250611c4381600281518110611c3657611c35613561565b5b602002602001015161046c565b82600260038110611c5757611c56613561565b5b602002018190525050919050565b600f60003373ffffffffffffffffffffffffffffffffffffffff1673ffffffffffffffffffffffffffffffffffffffff16815260200190815260200160002060009054906101000a900460ff16611cf1576040517f08c379a0000000000000000000000000000000000000000000000000000000008152600401611ce890613257565b60405180910390fd5b600554811115611d36576040517f08c379a0000000000000000000000000000000000000000000000000000000008152600401611d2d90613c00565b60405180910390fd5b6000600e600083815260200190815260200160002090508060050160149054906101000a900460ff16611d9e576040517f08c379a0000000000000000000000000000000000000000000000000000000008152600401611d9590613c6c565b60405180910390fd5b60008160050160146101000a81548160ff02191690831515021790555060006007600060018110611dd257611dd1613561565b5b6007020190506001816001016000828254611ded9190613677565b925050819055506001826002015403611e21576001816003016000828254611e159190613677565b92505081905550611e9a565b6002826002015403611e4e576001816004016000828254611e429190613677565b92505081905550611e99565b6003826002015403611e7b576001816005016000828254611e6f9190613677565b92505081905550611e98565b6001816006016000828254611e909190613677565b925050819055505b5b5b8160050160009054906101000a900473ffffffffffffffffffffffffffffffffffffffff1673ffffffffffffffffffffffffffffffffffffffff16837f16596499bbdc46b81141126e36af41187225ea92bd0f6eb4c89539082b97be0284600101856002015486600301548760040154604051611f1a9493929190613c8c565b60405180910390a3600061016d8360040154611f3691906136da565b90506000818460060154611f4a9190613cd8565b9050600260009054906101000a900473ffffffffffffffffffffffffffffffffffffffff1673ffffffffffffffffffffffffffffffffffffffff166340c10f198560050160009054906101000a900473ffffffffffffffffffffffffffffffffffffffff16836040518363ffffffff1660e01b8152600401611fcd9291906135c4565b600060405180830381600087803b158015611fe757600080fd5b505af1158015611ffb573d6000803e3d6000fd5b505050506000846006018190555060005b6001856002015461201d9190613590565b8110156121b7576000600360009054906101000a900473ffffffffffffffffffffffffffffffffffffffff1673ffffffffffffffffffffffffffffffffffffffff1662fdd58e8760050160009054906101000a900473ffffffffffffffffffffffffffffffffffffffff16846040518363ffffffff1660e01b81526004016120a69291906135c4565b602060405180830381865afa1580156120c3573d6000803e3d6000fd5b505050506040513d601f19601f820116820180604052508101906120e7919061388f565b11156121a457600360009054906101000a900473ffffffffffffffffffffffffffffffffffffffff1673ffffffffffffffffffffffffffffffffffffffff1663f5298aca8660050160009054906101000a900473ffffffffffffffffffffffffffffffffffffffff168360016040518463ffffffff1660e01b815260040161217193929190613d55565b600060405180830381600087803b15801561218b57600080fd5b505af115801561219f573d6000803e3d6000fd5b505050505b80806121af9061319d565b91505061200c565b50600360009054906101000a900473ffffffffffffffffffffffffffffffffffffffff1673ffffffffffffffffffffffffffffffffffffffff166340c10f198560050160009054906101000a900473ffffffffffffffffffffffffffffffffffffffff1660066040518363ffffffff1660e01b815260040161223a929190613dc7565b600060405180830381600087803b15801561225457600080fd5b505af1158015612268573d6000803e3d6000fd5b505050505050505050565b61227b61256b565b600073ffffffffffffffffffffffffffffffffffffffff168173ffffffffffffffffffffffffffffffffffffffff16036122ea576040517f08c379a00000000000000000000000000000000000000000000000000000000081526004016122e190613e62565b60405180910390fd5b6122f3816125e9565b50565b600f60003373ffffffffffffffffffffffffffffffffffffffff1673ffffffffffffffffffffffffffffffffffffffff16815260200190815260200160002060009054906101000a900460ff16612382576040517f08c379a000000000000000000000000000000000000000000000000000000000815260040161237990613257565b60405180910390fd5b6005548311156123c7576040517f08c379a00000000000000000000000000000000000000000000000000000000081526004016123be90613c00565b60405180910390fd5b6000600e6000858152602001908152602001600020905080600201548311612424576040517f08c379a000000000000000000000000000000000000000000000000000000000815260040161241b90613ece565b60405180910390fd5b60058310612467576040517f08c379a000000000000000000000000000000000000000000000000000000000815260040161245e90613f3a565b60405180910390fd5b828160020181905550818160040181905550600360009054906101000a900473ffffffffffffffffffffffffffffffffffffffff1673ffffffffffffffffffffffffffffffffffffffff166340c10f198260050160009054906101000a900473ffffffffffffffffffffffffffffffffffffffff16856040518363ffffffff1660e01b81526004016124fa9291906135c4565b600060405180830381600087803b15801561251457600080fd5b505af1158015612528573d6000803e3d6000fd5b505050507f01a10ae1a7477e7dfccf5728f4ce8c0aa13f0a793496d84b02164fa4c91115c9848460405161255d929190613f5a565b60405180910390a150505050565b6125736126ad565b73ffffffffffffffffffffffffffffffffffffffff166125916112f4565b73ffffffffffffffffffffffffffffffffffffffff16146125e7576040517f08c379a00000000000000000000000000000000000000000000000000000000081526004016125de90613fcf565b60405180910390fd5b565b60008060009054906101000a900473ffffffffffffffffffffffffffffffffffffffff169050816000806101000a81548173ffffffffffffffffffffffffffffffffffffffff021916908373ffffffffffffffffffffffffffffffffffffffff1602179055508173ffffffffffffffffffffffffffffffffffffffff168173ffffffffffffffffffffffffffffffffffffffff167f8be0079c531659141344cd1fd0a4f28419497f9722a3daafe3b4186f6b6457e060405160405180910390a35050565b600033905090565b6040518061010001604052806000815260200160608152602001600081526020016000815260200160008152602001600073ffffffffffffffffffffffffffffffffffffffff168152602001600015158152602001600081525090565b60405180606001604052806003905b6127296126b5565b8152602001906001900390816127215790505090565b6000604051905090565b600080fd5b600080fd5b600073ffffffffffffffffffffffffffffffffffffffff82169050919050565b600061277e82612753565b9050919050565b61278e81612773565b811461279957600080fd5b50565b6000813590506127ab81612785565b92915050565b6000602082840312156127c7576127c6612749565b5b60006127d58482850161279c565b91505092915050565b6000819050919050565b6127f1816127de565b82525050565b600081519050919050565b600082825260208201905092915050565b60005b83811015612831578082015181840152602081019050612816565b60008484015250505050565b6000601f19601f8301169050919050565b6000612859826127f7565b6128638185612802565b9350612873818560208601612813565b61287c8161283d565b840191505092915050565b61289081612773565b82525050565b60008115159050919050565b6128ab81612896565b82525050565b6000610100830160008301516128ca60008601826127e8565b50602083015184820360208601526128e2828261284e565b91505060408301516128f760408601826127e8565b50606083015161290a60608601826127e8565b50608083015161291d60808601826127e8565b5060a083015161293060a0860182612887565b5060c083015161294360c08601826128a2565b5060e083015161295660e08601826127e8565b508091505092915050565b6000602082019050818103600083015261297b81846128b1565b905092915050565b61298c81612896565b82525050565b60006020820190506129a76000830184612983565b92915050565b600080fd5b600080fd5b7f4e487b7100000000000000000000000000000000000000000000000000000000600052604160045260246000fd5b6129ef8261283d565b810181811067ffffffffffffffff82111715612a0e57612a0d6129b7565b5b80604052505050565b6000612a2161273f565b9050612a2d82826129e6565b919050565b600067ffffffffffffffff821115612a4d57612a4c6129b7565b5b612a568261283d565b9050602081019050919050565b82818337600083830152505050565b6000612a85612a8084612a32565b612a17565b905082815260208101848484011115612aa157612aa06129b2565b5b612aac848285612a63565b509392505050565b600082601f830112612ac957612ac86129ad565b5b8135612ad9848260208601612a72565b91505092915050565b612aeb816127de565b8114612af657600080fd5b50565b600081359050612b0881612ae2565b92915050565b600080600080600060a08688031215612b2a57612b29612749565b5b600086013567ffffffffffffffff811115612b4857612b4761274e565b5b612b5488828901612ab4565b9550506020612b6588828901612af9565b9450506040612b7688828901612af9565b9350506060612b8788828901612af9565b9250506080612b988882890161279c565b9150509295509295909350565b60008060408385031215612bbc57612bbb612749565b5b6000612bca85828601612af9565b9250506020612bdb8582860161279c565b9150509250929050565b600060208284031215612bfb57612bfa612749565b5b6000612c0984828501612af9565b91505092915050565b612c1b816127de565b82525050565b600082825260208201905092915050565b6000612c3d826127f7565b612c478185612c21565b9350612c57818560208601612813565b612c608161283d565b840191505092915050565b612c7481612773565b82525050565b600061010082019050612c90600083018b612c12565b8181036020830152612ca2818a612c32565b9050612cb16040830189612c12565b612cbe6060830188612c12565b612ccb6080830187612c12565b612cd860a0830186612c6b565b612ce560c0830185612983565b612cf260e0830184612c12565b9998505050505050505050565b600081519050919050565b600082825260208201905092915050565b6000819050602082019050919050565b600061010083016000830151612d4460008601826127e8565b5060208301518482036020860152612d5c828261284e565b9150506040830151612d7160408601826127e8565b506060830151612d8460608601826127e8565b506080830151612d9760808601826127e8565b5060a0830151612daa60a0860182612887565b5060c0830151612dbd60c08601826128a2565b5060e0830151612dd060e08601826127e8565b508091505092915050565b6000612de78383612d2b565b905092915050565b6000602082019050919050565b6000612e0782612cff565b612e118185612d0a565b935083602082028501612e2385612d1b565b8060005b85811015612e5f5784840389528151612e408582612ddb565b9450612e4b83612def565b925060208a01995050600181019050612e27565b50829750879550505050505092915050565b60006020820190508181036000830152612e8b8184612dfc565b905092915050565b612e9c81612896565b8114612ea757600080fd5b50565b600081359050612eb981612e93565b92915050565b60008060408385031215612ed657612ed5612749565b5b6000612ee48582860161279c565b9250506020612ef585828601612eaa565b9150509250929050565b6000602082019050612f146000830184612c12565b92915050565b6000602082019050612f2f6000830184612c6b565b92915050565b600060e082019050612f4a600083018a612c12565b612f576020830189612c12565b612f646040830188612c12565b612f716060830187612c12565b612f7e6080830186612c12565b612f8b60a0830185612c12565b612f9860c0830184612c12565b98975050505050505050565b600080600060608486031215612fbd57612fbc612749565b5b6000612fcb8682870161279c565b9350506020612fdc8682870161279c565b9250506040612fed8682870161279c565b9150509250925092565b600060039050919050565b600081905092915050565b6000819050919050565b6000602082019050919050565b600061302f82612ff7565b6130398185613002565b93508360208202850161304b8561300d565b8060005b8581101561308757848403895281516130688582612ddb565b945061307383613017565b925060208a0199505060018101905061304f565b50829750879550505050505092915050565b600060208201905081810360008301526130b38184613024565b905092915050565b6000806000606084860312156130d4576130d3612749565b5b60006130e286828701612af9565b93505060206130f386828701612af9565b925050604061310486828701612af9565b9150509250925092565b7f4e487b7100000000000000000000000000000000000000000000000000000000600052602260045260246000fd5b6000600282049050600182168061315557607f821691505b6020821081036131685761316761310e565b5b50919050565b7f4e487b7100000000000000000000000000000000000000000000000000000000600052601160045260246000fd5b60006131a8826127de565b91507fffffffffffffffffffffffffffffffffffffffffffffffffffffffffffffffff82036131da576131d961316e565b5b600182019050919050565b7f4f6e6c7920416d696e732063616e2063616c6c20746869732066756e6374696f60008201527f6e00000000000000000000000000000000000000000000000000000000000000602082015250565b6000613241602183612c21565b915061324c826131e5565b604082019050919050565b6000602082019050818103600083015261327081613234565b9050919050565b7f52616e6b20646f65736e74206578697374000000000000000000000000000000600082015250565b60006132ad601183612c21565b91506132b882613277565b602082019050919050565b600060208201905081810360008301526132dc816132a0565b9050919050565b60008190508160005260206000209050919050565b60006020601f8301049050919050565b600082821b905092915050565b6000600883026133457fffffffffffffffffffffffffffffffffffffffffffffffffffffffffffffffff82613308565b61334f8683613308565b95508019841693508086168417925050509392505050565b6000819050919050565b600061338c613387613382846127de565b613367565b6127de565b9050919050565b6000819050919050565b6133a683613371565b6133ba6133b282613393565b848454613315565b825550505050565b600090565b6133cf6133c2565b6133da81848461339d565b505050565b5b818110156133fe576133f36000826133c7565b6001810190506133e0565b5050565b601f82111561344357613414816132e3565b61341d846132f8565b8101602085101561342c578190505b613440613438856132f8565b8301826133df565b50505b505050565b600082821c905092915050565b600061346660001984600802613448565b1980831691505092915050565b600061347f8383613455565b9150826002028217905092915050565b613498826127f7565b67ffffffffffffffff8111156134b1576134b06129b7565b5b6134bb825461313d565b6134c6828285613402565b600060209050601f8311600181146134f957600084156134e7578287015190505b6134f18582613473565b865550613559565b601f198416613507866132e3565b60005b8281101561352f5784890151825560018201915060208501945060208101905061350a565b8683101561354c5784890151613548601f891682613455565b8355505b6001600288020188555050505b505050505050565b7f4e487b7100000000000000000000000000000000000000000000000000000000600052603260045260246000fd5b600061359b826127de565b91506135a6836127de565b92508282019050808211156135be576135bd61316e565b5b92915050565b60006040820190506135d96000830185612c6b565b6135e66020830184612c12565b9392505050565b600081905092915050565b6000613603826127f7565b61360d81856135ed565b935061361d818560208601612813565b80840191505092915050565b600061363582846135f8565b915081905092915050565b60006060820190506136556000830186612c12565b6136626020830185612c12565b61366f6040830184612c12565b949350505050565b6000613682826127de565b915061368d836127de565b92508282039050818111156136a5576136a461316e565b5b92915050565b7f4e487b7100000000000000000000000000000000000000000000000000000000600052601260045260246000fd5b60006136e5826127de565b91506136f0836127de565b925082613700576136ff6136ab565b5b828204905092915050565b600081546137188161313d565b6137228186612c21565b9450600182166000811461373d576001811461375357613786565b60ff198316865281151560200286019350613786565b61375c856132e3565b60005b8381101561377e5781548189015260018201915060208101905061375f565b808801955050505b50505092915050565b600060608201905081810360008301526137a9818661370b565b90506137b86020830185612c6b565b6137c56040830184612c12565b949350505050565b60006040820190506137e26000830185612c12565b6137ef6020830184612c6b565b9392505050565b60008151905061380581612e93565b92915050565b60006020828403121561382157613820612749565b5b600061382f848285016137f6565b91505092915050565b60008151905061384781612785565b92915050565b60006020828403121561386357613862612749565b5b600061387184828501613838565b91505092915050565b60008151905061388981612ae2565b92915050565b6000602082840312156138a5576138a4612749565b5b60006138b38482850161387a565b91505092915050565b7f4e6f6d696e65652031206973206e6f7420616374697665000000000000000000600082015250565b60006138f2601783612c21565b91506138fd826138bc565b602082019050919050565b60006020820190508181036000830152613921816138e5565b9050919050565b7f4e6f6d696e65652032206973206e6f7420616374697665000000000000000000600082015250565b600061395e601783612c21565b915061396982613928565b602082019050919050565b6000602082019050818103600083015261398d81613951565b9050919050565b7f4e6f6d696e65652033206973206e6f7420616374697665000000000000000000600082015250565b60006139ca601783612c21565b91506139d582613994565b602082019050919050565b600060208201905081810360008301526139f9816139bd565b9050919050565b6000606082019050613a156000830186612c6b565b613a226020830185612c6b565b613a2f6040830184612c6b565b949350505050565b7f566f746572206973206e6f7420616e2061637469766520656d706c6f79656500600082015250565b6000613a6d601f83612c21565b9150613a7882613a37565b602082019050919050565b60006020820190508181036000830152613a9c81613a60565b9050919050565b600067ffffffffffffffff821115613abe57613abd6129b7565b5b602082029050602081019050919050565b600080fd5b6000613ae7613ae284613aa3565b612a17565b90508083825260208201905060208402830185811115613b0a57613b09613acf565b5b835b81811015613b335780613b1f8882613838565b845260208401935050602081019050613b0c565b5050509392505050565b600082601f830112613b5257613b516129ad565b5b8151613b62848260208601613ad4565b91505092915050565b600060208284031215613b8157613b80612749565b5b600082015167ffffffffffffffff811115613b9f57613b9e61274e565b5b613bab84828501613b3d565b91505092915050565b7f456d706c6f79656520494420646f6573206e6f74206578697374000000000000600082015250565b6000613bea601a83612c21565b9150613bf582613bb4565b602082019050919050565b60006020820190508181036000830152613c1981613bdd565b9050919050565b7f456d706c6f79656520616c72656164792072656c656173656400000000000000600082015250565b6000613c56601983612c21565b9150613c6182613c20565b602082019050919050565b60006020820190508181036000830152613c8581613c49565b9050919050565b60006080820190508181036000830152613ca6818761370b565b9050613cb56020830186612c12565b613cc26040830185612c12565b613ccf6060830184612c12565b95945050505050565b6000613ce3826127de565b9150613cee836127de565b9250828202613cfc816127de565b91508282048414831517613d1357613d1261316e565b5b5092915050565b6000819050919050565b6000613d3f613d3a613d3584613d1a565b613367565b6127de565b9050919050565b613d4f81613d24565b82525050565b6000606082019050613d6a6000830186612c6b565b613d776020830185612c12565b613d846040830184613d46565b949350505050565b6000819050919050565b6000613db1613dac613da784613d8c565b613367565b6127de565b9050919050565b613dc181613d96565b82525050565b6000604082019050613ddc6000830185612c6b565b613de96020830184613db8565b9392505050565b7f4f776e61626c653a206e6577206f776e657220697320746865207a65726f206160008201527f6464726573730000000000000000000000000000000000000000000000000000602082015250565b6000613e4c602683612c21565b9150613e5782613df0565b604082019050919050565b60006020820190508181036000830152613e7b81613e3f565b9050919050565b7f43616e6e6f742064656d6f746520656d706c6f79656500000000000000000000600082015250565b6000613eb8601683612c21565b9150613ec382613e82565b602082019050919050565b60006020820190508181036000830152613ee781613eab565b9050919050565b7f546869732072616e6b20646f656e737420657869737400000000000000000000600082015250565b6000613f24601683612c21565b9150613f2f82613eee565b602082019050919050565b60006020820190508181036000830152613f5381613f17565b9050919050565b6000604082019050613f6f6000830185612c12565b613f7c6020830184612c12565b9392505050565b7f4f776e61626c653a2063616c6c6572206973206e6f7420746865206f776e6572600082015250565b6000613fb9602083612c21565b9150613fc482613f83565b602082019050919050565b60006020820190508181036000830152613fe881613fac565b905091905056fea2646970667358221220ca45cecf2c18012c0802aae5404ea87fa2742becc0779c8a50a10ecdb9c9f1b564736f6c63430008110033",
  "linkReferences": {},
  "deployedLinkReferences": {}
}