{
  "_format": "hh-sol-artifact-1",
  "contractName": "Employees",
  "sourceName": "contracts/Employees.sol",
  "abi": [
    {
      "inputs": [
        {
          "internalType": "address",
          "name": "_BEN",
          "type": "address"
        },
        {
          "internalType": "address",
          "name": "_payroll",
          "type": "address"
        },
        {
          "internalType": "address",
          "name": "_nft",
          "type": "address"
        },
        {
          "internalType": "address",
          "name": "_dao",
          "type": "address"
        }
      ],
      "stateMutability": "nonpayable",
      "type": "constructor"
    },
    {
      "anonymous": false,
      "inputs": [
        {
          "indexed": false,
          "internalType": "uint256",
          "name": "_employeeID",
          "type": "uint256"
        },
        {
          "indexed": false,
          "internalType": "uint256",
          "name": "_rank",
          "type": "uint256"
        }
      ],
      "name": "AssignRank",
      "type": "event"
    },
    {
      "anonymous": false,
      "inputs": [
        {
          "indexed": false,
          "internalType": "string",
          "name": "_name",
          "type": "string"
        },
        {
          "indexed": false,
          "internalType": "address",
          "name": "_wallet",
          "type": "address"
        },
        {
          "indexed": false,
          "internalType": "uint256",
          "name": "_amount",
          "type": "uint256"
        }
      ],
      "name": "EmployeePaid",
      "type": "event"
    },
    {
      "anonymous": false,
      "inputs": [
        {
          "indexed": true,
          "internalType": "uint256",
          "name": "_id",
          "type": "uint256"
        },
        {
          "indexed": true,
          "internalType": "string",
          "name": "_name",
          "type": "string"
        },
        {
          "indexed": false,
          "internalType": "uint256",
          "name": "_rank",
          "type": "uint256"
        },
        {
          "indexed": false,
          "internalType": "uint256",
          "name": "_dob",
          "type": "uint256"
        },
        {
          "indexed": false,
          "internalType": "uint256",
          "name": "_salary",
          "type": "uint256"
        },
        {
          "indexed": true,
          "internalType": "address",
          "name": "_wallet",
          "type": "address"
        }
      ],
      "name": "EmpoloyeeCreated",
      "type": "event"
    },
    {
      "anonymous": false,
      "inputs": [
        {
          "indexed": true,
          "internalType": "uint256",
          "name": "_id",
          "type": "uint256"
        },
        {
          "indexed": false,
          "internalType": "string",
          "name": "_name",
          "type": "string"
        },
        {
          "indexed": false,
          "internalType": "uint256",
          "name": "_rank",
          "type": "uint256"
        },
        {
          "indexed": false,
          "internalType": "uint256",
          "name": "_dob",
          "type": "uint256"
        },
        {
          "indexed": false,
          "internalType": "uint256",
          "name": "_salary",
          "type": "uint256"
        },
        {
          "indexed": true,
          "internalType": "address",
          "name": "_wallet",
          "type": "address"
        }
      ],
      "name": "EmpoloyeeReleased",
      "type": "event"
    },
    {
      "anonymous": false,
      "inputs": [
        {
          "indexed": true,
          "internalType": "address",
          "name": "previousOwner",
          "type": "address"
        },
        {
          "indexed": true,
          "internalType": "address",
          "name": "newOwner",
          "type": "address"
        }
      ],
      "name": "OwnershipTransferred",
      "type": "event"
    },
    {
      "inputs": [
        {
          "internalType": "string",
          "name": "_name",
          "type": "string"
        },
        {
          "internalType": "uint256",
          "name": "_rank",
          "type": "uint256"
        },
        {
          "internalType": "uint256",
          "name": "_dob",
          "type": "uint256"
        },
        {
          "internalType": "uint256",
          "name": "_salary",
          "type": "uint256"
        },
        {
          "internalType": "address",
          "name": "_wallet",
          "type": "address"
        }
      ],
      "name": "addEmployee",
      "outputs": [],
      "stateMutability": "nonpayable",
      "type": "function"
    },
    {
      "inputs": [
        {
          "internalType": "uint256",
          "name": "_employeeId",
          "type": "uint256"
        },
        {
          "internalType": "uint256",
          "name": "_rank",
          "type": "uint256"
        },
        {
          "internalType": "uint256",
          "name": "_salary",
          "type": "uint256"
        }
      ],
      "name": "assignRank",
      "outputs": [],
      "stateMutability": "nonpayable",
      "type": "function"
    },
    {
      "inputs": [
        {
          "internalType": "uint256",
          "name": "",
          "type": "uint256"
        }
      ],
      "name": "companyData",
      "outputs": [
        {
          "internalType": "uint256",
          "name": "totalEmployees",
          "type": "uint256"
        },
        {
          "internalType": "uint256",
          "name": "activeEmployees",
          "type": "uint256"
        },
        {
          "internalType": "uint256",
          "name": "inactiveEmployees",
          "type": "uint256"
        },
        {
          "internalType": "uint256",
          "name": "rank1Employees",
          "type": "uint256"
        },
        {
          "internalType": "uint256",
          "name": "rank2Employees",
          "type": "uint256"
        },
        {
          "internalType": "uint256",
          "name": "rank3Employees",
          "type": "uint256"
        },
        {
          "internalType": "uint256",
          "name": "rank4Employees",
          "type": "uint256"
        }
      ],
      "stateMutability": "view",
      "type": "function"
    },
    {
      "inputs": [],
      "name": "dayOfTheMonth",
      "outputs": [
        {
          "internalType": "uint256",
          "name": "",
          "type": "uint256"
        }
      ],
      "stateMutability": "view",
      "type": "function"
    },
    {
      "inputs": [],
      "name": "employeeCounter",
      "outputs": [
        {
          "internalType": "uint256",
          "name": "",
          "type": "uint256"
        }
      ],
      "stateMutability": "view",
      "type": "function"
    },
    {
      "inputs": [
        {
          "internalType": "uint256",
          "name": "",
          "type": "uint256"
        }
      ],
      "name": "employees",
      "outputs": [
        {
          "internalType": "uint256",
          "name": "id",
          "type": "uint256"
        },
        {
          "internalType": "string",
          "name": "name",
          "type": "string"
        },
        {
          "internalType": "uint256",
          "name": "rank",
          "type": "uint256"
        },
        {
          "internalType": "uint256",
          "name": "dateOfBirth",
          "type": "uint256"
        },
        {
          "internalType": "uint256",
          "name": "salary",
          "type": "uint256"
        },
        {
          "internalType": "address",
          "name": "walletAddress",
          "type": "address"
        },
        {
          "internalType": "bool",
          "name": "active",
          "type": "bool"
        },
        {
          "internalType": "uint256",
          "name": "daysToNextPay",
          "type": "uint256"
        }
      ],
      "stateMutability": "view",
      "type": "function"
    },
    {
      "inputs": [],
      "name": "endVotingOfEmployeeOfTheMonth",
      "outputs": [],
      "stateMutability": "nonpayable",
      "type": "function"
    },
    {
      "inputs": [],
      "name": "getActiveEmployees",
      "outputs": [
        {
          "components": [
            {
              "internalType": "uint256",
              "name": "id",
              "type": "uint256"
            },
            {
              "internalType": "string",
              "name": "name",
              "type": "string"
            },
            {
              "internalType": "uint256",
              "name": "rank",
              "type": "uint256"
            },
            {
              "internalType": "uint256",
              "name": "dateOfBirth",
              "type": "uint256"
            },
            {
              "internalType": "uint256",
              "name": "salary",
              "type": "uint256"
            },
            {
              "internalType": "address",
              "name": "walletAddress",
              "type": "address"
            },
            {
              "internalType": "bool",
              "name": "active",
              "type": "bool"
            },
            {
              "internalType": "uint256",
              "name": "daysToNextPay",
              "type": "uint256"
            }
          ],
          "internalType": "struct Employees.Employee[]",
          "name": "",
          "type": "tuple[]"
        }
      ],
      "stateMutability": "view",
      "type": "function"
    },
    {
      "inputs": [
        {
          "internalType": "uint256",
          "name": "_employeeId",
          "type": "uint256"
        }
      ],
      "name": "getEmployee",
      "outputs": [
        {
          "components": [
            {
              "internalType": "uint256",
              "name": "id",
              "type": "uint256"
            },
            {
              "internalType": "string",
              "name": "name",
              "type": "string"
            },
            {
              "internalType": "uint256",
              "name": "rank",
              "type": "uint256"
            },
            {
              "internalType": "uint256",
              "name": "dateOfBirth",
              "type": "uint256"
            },
            {
              "internalType": "uint256",
              "name": "salary",
              "type": "uint256"
            },
            {
              "internalType": "address",
              "name": "walletAddress",
              "type": "address"
            },
            {
              "internalType": "bool",
              "name": "active",
              "type": "bool"
            },
            {
              "internalType": "uint256",
              "name": "daysToNextPay",
              "type": "uint256"
            }
          ],
          "internalType": "struct Employees.Employee",
          "name": "",
          "type": "tuple"
        }
      ],
      "stateMutability": "view",
      "type": "function"
    },
    {
      "inputs": [
        {
          "internalType": "uint256",
          "name": "_month",
          "type": "uint256"
        },
        {
          "internalType": "address",
          "name": "_nominee1",
          "type": "address"
        },
        {
          "internalType": "address",
          "name": "_nominee2",
          "type": "address"
        },
        {
          "internalType": "address",
          "name": "_nominee3",
          "type": "address"
        }
      ],
      "name": "initiateEmployeeOfTheMonthProposal",
      "outputs": [],
      "stateMutability": "nonpayable",
      "type": "function"
    },
    {
      "inputs": [
        {
          "internalType": "address",
          "name": "",
          "type": "address"
        }
      ],
      "name": "isAdmin",
      "outputs": [
        {
          "internalType": "bool",
          "name": "",
          "type": "bool"
        }
      ],
      "stateMutability": "view",
      "type": "function"
    },
    {
      "inputs": [
        {
          "internalType": "address",
          "name": "_address",
          "type": "address"
        }
      ],
      "name": "onlyActiveEmployee",
      "outputs": [
        {
          "internalType": "bool",
          "name": "",
          "type": "bool"
        }
      ],
      "stateMutability": "view",
      "type": "function"
    },
    {
      "inputs": [],
      "name": "owner",
      "outputs": [
        {
          "internalType": "address",
          "name": "",
          "type": "address"
        }
      ],
      "stateMutability": "view",
      "type": "function"
    },
    {
      "inputs": [],
      "name": "payActiveEmployees",
      "outputs": [],
      "stateMutability": "nonpayable",
      "type": "function"
    },
    {
      "inputs": [
        {
          "internalType": "uint256",
          "name": "_employeeId",
          "type": "uint256"
        }
      ],
      "name": "releaseEmployee",
      "outputs": [],
      "stateMutability": "nonpayable",
      "type": "function"
    },
    {
      "inputs": [],
      "name": "renounceOwnership",
      "outputs": [],
      "stateMutability": "nonpayable",
      "type": "function"
    },
    {
      "inputs": [],
      "name": "replenishEmployeeTokens",
      "outputs": [],
      "stateMutability": "nonpayable",
      "type": "function"
    },
    {
      "inputs": [
        {
          "internalType": "address",
          "name": "_address",
          "type": "address"
        },
        {
          "internalType": "bool",
          "name": "_isAdmin",
          "type": "bool"
        }
      ],
      "name": "setAdmin",
      "outputs": [],
      "stateMutability": "nonpayable",
      "type": "function"
    },
    {
      "inputs": [
        {
          "internalType": "address",
          "name": "newOwner",
          "type": "address"
        }
      ],
      "name": "transferOwnership",
      "outputs": [],
      "stateMutability": "nonpayable",
      "type": "function"
    },
    {
      "inputs": [
        {
          "internalType": "uint256",
          "name": "_nomineeId",
          "type": "uint256"
        }
      ],
      "name": "voteForEmployeeOfTheMonth",
      "outputs": [],
      "stateMutability": "nonpayable",
      "type": "function"
    }
  ],
  "bytecode": "0x6080604052601e6006553480156200001657600080fd5b5060405162003b5d38038062003b5d83398181016040528101906200003c9190620002f8565b6200005c62000050620001c260201b60201c565b620001ca60201b60201c565b83600160006101000a81548173ffffffffffffffffffffffffffffffffffffffff021916908373ffffffffffffffffffffffffffffffffffffffff16021790555082600260006101000a81548173ffffffffffffffffffffffffffffffffffffffff021916908373ffffffffffffffffffffffffffffffffffffffff16021790555081600360006101000a81548173ffffffffffffffffffffffffffffffffffffffff021916908373ffffffffffffffffffffffffffffffffffffffff16021790555080600460006101000a81548173ffffffffffffffffffffffffffffffffffffffff021916908373ffffffffffffffffffffffffffffffffffffffff1602179055506001600f60003373ffffffffffffffffffffffffffffffffffffffff1673ffffffffffffffffffffffffffffffffffffffff16815260200190815260200160002060006101000a81548160ff021916908315150217905550505050506200036a565b600033905090565b60008060009054906101000a900473ffffffffffffffffffffffffffffffffffffffff169050816000806101000a81548173ffffffffffffffffffffffffffffffffffffffff021916908373ffffffffffffffffffffffffffffffffffffffff1602179055508173ffffffffffffffffffffffffffffffffffffffff168173ffffffffffffffffffffffffffffffffffffffff167f8be0079c531659141344cd1fd0a4f28419497f9722a3daafe3b4186f6b6457e060405160405180910390a35050565b600080fd5b600073ffffffffffffffffffffffffffffffffffffffff82169050919050565b6000620002c08262000293565b9050919050565b620002d281620002b3565b8114620002de57600080fd5b50565b600081519050620002f281620002c7565b92915050565b600080600080608085870312156200031557620003146200028e565b5b60006200032587828801620002e1565b94505060206200033887828801620002e1565b93505060406200034b87828801620002e1565b92505060606200035e87828801620002e1565b91505092959194509250565b6137e3806200037a6000396000f3fe608060405234801561001057600080fd5b506004361061012c5760003560e01c80638da5cb5b116100ad578063c5e752ad11610071578063c5e752ad14610304578063c9b03b9414610322578063f01aefaa1461033e578063f2fde38b1461035a578063ffba79db146103765761012c565b80638da5cb5b1461025a5780638f99dba5146102785780639716030714610294578063bca9a5c51461029e578063c0fe1826146102ce5761012c565b80634b0bddd2116100f45780634b0bddd2146101dc5780636bc60145146101f85780636c4d984814610202578063715018a61461023257806379dd81e11461023c5761012c565b806324d7806c146101315780632b785140146101615780634090b7ca1461017d5780634739326b1461018757806347e23df9146101be575b600080fd5b61014b600480360381019061014691906121e6565b610392565b604051610158919061222e565b60405180910390f35b61017b600480360381019061017691906123c5565b6103b2565b005b610185610827565b005b6101a1600480360381019061019c919061245c565b610afe565b6040516101b5989796959493929190612526565b60405180910390f35b6101c6610bfb565b6040516101d39190612794565b60405180910390f35b6101f660048036038101906101f191906127e2565b610cb7565b005b610200610d1a565b005b61021c600480360381019061021791906121e6565b610e2a565b604051610229919061222e565b60405180910390f35b61023a610eac565b005b610244610ec0565b6040516102519190612822565b60405180910390f35b610262610ec6565b60405161026f919061283d565b60405180910390f35b610292600480360381019061028d9190612858565b610eef565b005b61029c6110ec565b005b6102b860048036038101906102b3919061245c565b611436565b6040516102c5919061296f565b60405180910390f35b6102e860048036038101906102e3919061245c565b61159f565b6040516102fb9796959493929190612991565b60405180910390f35b61030c6115e7565b6040516103199190612822565b60405180910390f35b61033c6004803603810190610337919061245c565b6115ed565b005b6103586004803603810190610353919061245c565b6116c7565b005b610374600480360381019061036f91906121e6565b611cd5565b005b610390600480360381019061038b9190612a00565b611d58565b005b600f6020528060005260406000206000915054906101000a900460ff1681565b600f60003373ffffffffffffffffffffffffffffffffffffffff1673ffffffffffffffffffffffffffffffffffffffff16815260200190815260200160002060009054906101000a900460ff1661043e576040517f08c379a000000000000000000000000000000000000000000000000000000000815260040161043590612ac5565b60405180910390fd5b60008411801561044e5750600584105b61048d576040517f08c379a000000000000000000000000000000000000000000000000000000000815260040161048490612b31565b60405180910390fd5b6000600e6000600554815260200190815260200160002090506005548160000181905550858160010190816104c29190612d5d565b50848160020181905550838160030181905550828160040181905550818160050160006101000a81548173ffffffffffffffffffffffffffffffffffffffff021916908373ffffffffffffffffffffffffffffffffffffffff16021790555060018160050160146101000a81548160ff021916908315150217905550601e81600601819055506000600760006001811061055f5761055e612e2f565b5b600702019050600181600001600082825461057a9190612e8d565b9250508190555060018160010160008282546105969190612e8d565b92505081905550600186036105c65760018160030160008282546105ba9190612e8d565b92505081905550610637565b600286036105ef5760018160040160008282546105e39190612e8d565b92505081905550610636565b6003860361061857600181600501600082825461060c9190612e8d565b92505081905550610635565b600181600601600082825461062d9190612e8d565b925050819055505b5b5b600560008154809291906001019190505550600160009054906101000a900473ffffffffffffffffffffffffffffffffffffffff1673ffffffffffffffffffffffffffffffffffffffff166340c10f198360050160009054906101000a900473ffffffffffffffffffffffffffffffffffffffff1684600201546040518363ffffffff1660e01b81526004016106ce929190612ec1565b600060405180830381600087803b1580156106e857600080fd5b505af11580156106fc573d6000803e3d6000fd5b50505050600360009054906101000a900473ffffffffffffffffffffffffffffffffffffffff1673ffffffffffffffffffffffffffffffffffffffff166340c10f198360050160009054906101000a900473ffffffffffffffffffffffffffffffffffffffff16886040518363ffffffff1660e01b8152600401610781929190612ec1565b600060405180830381600087803b15801561079b57600080fd5b505af11580156107af573d6000803e3d6000fd5b505050508273ffffffffffffffffffffffffffffffffffffffff16876040516107d89190612f26565b60405180910390206005547fb3fb21401dbedfd570eab9634d028343cc2c489bc1841ac74a939276baebe1f089898960405161081693929190612f3d565b60405180910390a450505050505050565b600f60003373ffffffffffffffffffffffffffffffffffffffff1673ffffffffffffffffffffffffffffffffffffffff16815260200190815260200160002060009054906101000a900460ff166108b3576040517f08c379a00000000000000000000000000000000000000000000000000000000081526004016108aa90612ac5565b60405180910390fd5b60005b600554811015610afb57600e600082815260200190815260200160002060050160149054906101000a900460ff1615610ae8576001600e600083815260200190815260200160002060060154111561093b576001600e6000838152602001908152602001600020600601600082825461092f9190612f74565b92505081905550610ae7565b601e600e600083815260200190815260200160002060060181905550600260009054906101000a900473ffffffffffffffffffffffffffffffffffffffff1673ffffffffffffffffffffffffffffffffffffffff166340c10f19600e600084815260200190815260200160002060050160009054906101000a900473ffffffffffffffffffffffffffffffffffffffff16600c600e6000868152602001908152602001600020600401546109ef9190612fd7565b6040518363ffffffff1660e01b8152600401610a0c929190612ec1565b600060405180830381600087803b158015610a2657600080fd5b505af1158015610a3a573d6000803e3d6000fd5b505050507f525229eda8db65f11d4e28be5bf453f557fc965011eec58cdf019975a0b935c3600e6000838152602001908152602001600020600101600e600084815260200190815260200160002060050160009054906101000a900473ffffffffffffffffffffffffffffffffffffffff16600c600e600086815260200190815260200160002060040154610acf9190612fd7565b604051610ade9392919061308c565b60405180910390a15b5b8080610af3906130ca565b9150506108b6565b50565b600e602052806000526040600020600091509050806000015490806001018054610b2790612b80565b80601f0160208091040260200160405190810160405280929190818152602001828054610b5390612b80565b8015610ba05780601f10610b7557610100808354040283529160200191610ba0565b820191906000526020600020905b815481529060010190602001808311610b8357829003601f168201915b5050505050908060020154908060030154908060040154908060050160009054906101000a900473ffffffffffffffffffffffffffffffffffffffff16908060050160149054906101000a900460ff16908060060154905088565b6060600060055467ffffffffffffffff811115610c1b57610c1a612264565b5b604051908082528060200260200182016040528015610c5457816020015b610c41612117565b815260200190600190039081610c395790505b50905060005b600554811015610caf576000610c6f82611436565b90508060c0015115610c9b5780838381518110610c8f57610c8e612e2f565b5b60200260200101819052505b508080610ca7906130ca565b915050610c5a565b508091505090565b610cbf611fcd565b80600f60008473ffffffffffffffffffffffffffffffffffffffff1673ffffffffffffffffffffffffffffffffffffffff16815260200190815260200160002060006101000a81548160ff0219169083151502179055505050565b600f60003373ffffffffffffffffffffffffffffffffffffffff1673ffffffffffffffffffffffffffffffffffffffff16815260200190815260200160002060009054906101000a900460ff16610da6576040517f08c379a0000000000000000000000000000000000000000000000000000000008152600401610d9d90612ac5565b60405180910390fd5b600460009054906101000a900473ffffffffffffffffffffffffffffffffffffffff1673ffffffffffffffffffffffffffffffffffffffff1663c3403ddf6040518163ffffffff1660e01b8152600401600060405180830381600087803b158015610e1057600080fd5b505af1158015610e24573d6000803e3d6000fd5b50505050565b60008060005b600554811015610ea2576000610e4582611436565b90508473ffffffffffffffffffffffffffffffffffffffff168160a0015173ffffffffffffffffffffffffffffffffffffffff1603610e8e578060c0015115610e8d57600192505b5b508080610e9a906130ca565b915050610e30565b5080915050919050565b610eb4611fcd565b610ebe600061204b565b565b60055481565b60008060009054906101000a900473ffffffffffffffffffffffffffffffffffffffff16905090565b600f60003373ffffffffffffffffffffffffffffffffffffffff1673ffffffffffffffffffffffffffffffffffffffff16815260200190815260200160002060009054906101000a900460ff16610f7b576040517f08c379a0000000000000000000000000000000000000000000000000000000008152600401610f7290612ac5565b60405180910390fd5b610f8483610e2a565b610fc3576040517f08c379a0000000000000000000000000000000000000000000000000000000008152600401610fba9061315e565b60405180910390fd5b610fcc82610e2a565b61100b576040517f08c379a0000000000000000000000000000000000000000000000000000000008152600401611002906131ca565b60405180910390fd5b61101481610e2a565b611053576040517f08c379a000000000000000000000000000000000000000000000000000000000815260040161104a90613236565b60405180910390fd5b600460009054906101000a900473ffffffffffffffffffffffffffffffffffffffff1673ffffffffffffffffffffffffffffffffffffffff1663e9cca620858585856040518563ffffffff1660e01b81526004016110b49493929190613256565b600060405180830381600087803b1580156110ce57600080fd5b505af11580156110e2573d6000803e3d6000fd5b5050505050505050565b600f60003373ffffffffffffffffffffffffffffffffffffffff1673ffffffffffffffffffffffffffffffffffffffff16815260200190815260200160002060009054906101000a900460ff16611178576040517f08c379a000000000000000000000000000000000000000000000000000000000815260040161116f90612ac5565b60405180910390fd5b6001600654101561141957600061118d610bfb565b905060005b8151811015611412578181815181106111ae576111ad612e2f565b5b602002602001015160c00151156113ff576000600160009054906101000a900473ffffffffffffffffffffffffffffffffffffffff1673ffffffffffffffffffffffffffffffffffffffff166370a0823184848151811061121257611211612e2f565b5b602002602001015160a001516040518263ffffffff1660e01b815260040161123a919061283d565b602060405180830381865afa158015611257573d6000803e3d6000fd5b505050506040513d601f19601f8201168201806040525081019061127b91906132b0565b90506000600160009054906101000a900473ffffffffffffffffffffffffffffffffffffffff1673ffffffffffffffffffffffffffffffffffffffff1663962d28098585815181106112d0576112cf612e2f565b5b6020026020010151604001516040518263ffffffff1660e01b81526004016112f89190612822565b602060405180830381865afa158015611315573d6000803e3d6000fd5b505050506040513d601f19601f8201168201806040525081019061133991906132b0565b9050808210156113fc57600160009054906101000a900473ffffffffffffffffffffffffffffffffffffffff1673ffffffffffffffffffffffffffffffffffffffff16635640745585858151811061139457611393612e2f565b5b602002602001015160a0015184846113ac9190612f74565b6040518363ffffffff1660e01b81526004016113c9929190612ec1565b600060405180830381600087803b1580156113e357600080fd5b505af11580156113f7573d6000803e3d6000fd5b505050505b50505b808061140a906130ca565b915050611192565b5050611434565b60016006600082825461142c9190612f74565b925050819055505b565b61143e612117565b6000600e6000848152602001908152602001600020905080604051806101000160405290816000820154815260200160018201805461147c90612b80565b80601f01602080910402602001604051908101604052809291908181526020018280546114a890612b80565b80156114f55780601f106114ca576101008083540402835291602001916114f5565b820191906000526020600020905b8154815290600101906020018083116114d857829003601f168201915b505050505081526020016002820154815260200160038201548152602001600482015481526020016005820160009054906101000a900473ffffffffffffffffffffffffffffffffffffffff1673ffffffffffffffffffffffffffffffffffffffff1673ffffffffffffffffffffffffffffffffffffffff1681526020016005820160149054906101000a900460ff16151515158152602001600682015481525050915050919050565b600781600181106115af57600080fd5b600702016000915090508060000154908060010154908060020154908060030154908060040154908060050154908060060154905087565b60065481565b6115f633610e2a565b611635576040517f08c379a000000000000000000000000000000000000000000000000000000000815260040161162c90613329565b60405180910390fd5b600460009054906101000a900473ffffffffffffffffffffffffffffffffffffffff1673ffffffffffffffffffffffffffffffffffffffff166302d947ef82336040518363ffffffff1660e01b8152600401611692929190613349565b600060405180830381600087803b1580156116ac57600080fd5b505af11580156116c0573d6000803e3d6000fd5b5050505050565b600f60003373ffffffffffffffffffffffffffffffffffffffff1673ffffffffffffffffffffffffffffffffffffffff16815260200190815260200160002060009054906101000a900460ff16611753576040517f08c379a000000000000000000000000000000000000000000000000000000000815260040161174a90612ac5565b60405180910390fd5b600554811115611798576040517f08c379a000000000000000000000000000000000000000000000000000000000815260040161178f906133be565b60405180910390fd5b6000600e600083815260200190815260200160002090508060050160149054906101000a900460ff16611800576040517f08c379a00000000000000000000000000000000000000000000000000000000081526004016117f79061342a565b60405180910390fd5b60008160050160146101000a81548160ff0219169083151502179055506000600760006001811061183457611833612e2f565b5b600702019050600181600101600082825461184f9190612f74565b9250508190555060018260020154036118835760018160030160008282546118779190612f74565b925050819055506118fc565b60028260020154036118b05760018160040160008282546118a49190612f74565b925050819055506118fb565b60038260020154036118dd5760018160050160008282546118d19190612f74565b925050819055506118fa565b60018160060160008282546118f29190612f74565b925050819055505b5b5b8160050160009054906101000a900473ffffffffffffffffffffffffffffffffffffffff1673ffffffffffffffffffffffffffffffffffffffff16837f16596499bbdc46b81141126e36af41187225ea92bd0f6eb4c89539082b97be028460010185600201548660030154876004015460405161197c949392919061344a565b60405180910390a3600061016d83600401546119989190612fd7565b905060008184600601546119ac9190613496565b9050600260009054906101000a900473ffffffffffffffffffffffffffffffffffffffff1673ffffffffffffffffffffffffffffffffffffffff166340c10f198560050160009054906101000a900473ffffffffffffffffffffffffffffffffffffffff16836040518363ffffffff1660e01b8152600401611a2f929190612ec1565b600060405180830381600087803b158015611a4957600080fd5b505af1158015611a5d573d6000803e3d6000fd5b505050506000846006018190555060005b60018560020154611a7f9190612e8d565b811015611c19576000600360009054906101000a900473ffffffffffffffffffffffffffffffffffffffff1673ffffffffffffffffffffffffffffffffffffffff1662fdd58e8760050160009054906101000a900473ffffffffffffffffffffffffffffffffffffffff16846040518363ffffffff1660e01b8152600401611b08929190612ec1565b602060405180830381865afa158015611b25573d6000803e3d6000fd5b505050506040513d601f19601f82011682018060405250810190611b4991906132b0565b1115611c0657600360009054906101000a900473ffffffffffffffffffffffffffffffffffffffff1673ffffffffffffffffffffffffffffffffffffffff1663f5298aca8660050160009054906101000a900473ffffffffffffffffffffffffffffffffffffffff168360016040518463ffffffff1660e01b8152600401611bd393929190613513565b600060405180830381600087803b158015611bed57600080fd5b505af1158015611c01573d6000803e3d6000fd5b505050505b8080611c11906130ca565b915050611a6e565b50600360009054906101000a900473ffffffffffffffffffffffffffffffffffffffff1673ffffffffffffffffffffffffffffffffffffffff166340c10f198560050160009054906101000a900473ffffffffffffffffffffffffffffffffffffffff1660066040518363ffffffff1660e01b8152600401611c9c929190613585565b600060405180830381600087803b158015611cb657600080fd5b505af1158015611cca573d6000803e3d6000fd5b505050505050505050565b611cdd611fcd565b600073ffffffffffffffffffffffffffffffffffffffff168173ffffffffffffffffffffffffffffffffffffffff1603611d4c576040517f08c379a0000000000000000000000000000000000000000000000000000000008152600401611d4390613620565b60405180910390fd5b611d558161204b565b50565b600f60003373ffffffffffffffffffffffffffffffffffffffff1673ffffffffffffffffffffffffffffffffffffffff16815260200190815260200160002060009054906101000a900460ff16611de4576040517f08c379a0000000000000000000000000000000000000000000000000000000008152600401611ddb90612ac5565b60405180910390fd5b600554831115611e29576040517f08c379a0000000000000000000000000000000000000000000000000000000008152600401611e20906133be565b60405180910390fd5b6000600e6000858152602001908152602001600020905080600201548311611e86576040517f08c379a0000000000000000000000000000000000000000000000000000000008152600401611e7d9061368c565b60405180910390fd5b60058310611ec9576040517f08c379a0000000000000000000000000000000000000000000000000000000008152600401611ec0906136f8565b60405180910390fd5b828160020181905550818160040181905550600360009054906101000a900473ffffffffffffffffffffffffffffffffffffffff1673ffffffffffffffffffffffffffffffffffffffff166340c10f198260050160009054906101000a900473ffffffffffffffffffffffffffffffffffffffff16856040518363ffffffff1660e01b8152600401611f5c929190612ec1565b600060405180830381600087803b158015611f7657600080fd5b505af1158015611f8a573d6000803e3d6000fd5b505050507f01a10ae1a7477e7dfccf5728f4ce8c0aa13f0a793496d84b02164fa4c91115c98484604051611fbf929190613718565b60405180910390a150505050565b611fd561210f565b73ffffffffffffffffffffffffffffffffffffffff16611ff3610ec6565b73ffffffffffffffffffffffffffffffffffffffff1614612049576040517f08c379a00000000000000000000000000000000000000000000000000000000081526004016120409061378d565b60405180910390fd5b565b60008060009054906101000a900473ffffffffffffffffffffffffffffffffffffffff169050816000806101000a81548173ffffffffffffffffffffffffffffffffffffffff021916908373ffffffffffffffffffffffffffffffffffffffff1602179055508173ffffffffffffffffffffffffffffffffffffffff168173ffffffffffffffffffffffffffffffffffffffff167f8be0079c531659141344cd1fd0a4f28419497f9722a3daafe3b4186f6b6457e060405160405180910390a35050565b600033905090565b6040518061010001604052806000815260200160608152602001600081526020016000815260200160008152602001600073ffffffffffffffffffffffffffffffffffffffff168152602001600015158152602001600081525090565b6000604051905090565b600080fd5b600080fd5b600073ffffffffffffffffffffffffffffffffffffffff82169050919050565b60006121b382612188565b9050919050565b6121c3816121a8565b81146121ce57600080fd5b50565b6000813590506121e0816121ba565b92915050565b6000602082840312156121fc576121fb61217e565b5b600061220a848285016121d1565b91505092915050565b60008115159050919050565b61222881612213565b82525050565b6000602082019050612243600083018461221f565b92915050565b600080fd5b600080fd5b6000601f19601f8301169050919050565b7f4e487b7100000000000000000000000000000000000000000000000000000000600052604160045260246000fd5b61229c82612253565b810181811067ffffffffffffffff821117156122bb576122ba612264565b5b80604052505050565b60006122ce612174565b90506122da8282612293565b919050565b600067ffffffffffffffff8211156122fa576122f9612264565b5b61230382612253565b9050602081019050919050565b82818337600083830152505050565b600061233261232d846122df565b6122c4565b90508281526020810184848401111561234e5761234d61224e565b5b612359848285612310565b509392505050565b600082601f83011261237657612375612249565b5b813561238684826020860161231f565b91505092915050565b6000819050919050565b6123a28161238f565b81146123ad57600080fd5b50565b6000813590506123bf81612399565b92915050565b600080600080600060a086880312156123e1576123e061217e565b5b600086013567ffffffffffffffff8111156123ff576123fe612183565b5b61240b88828901612361565b955050602061241c888289016123b0565b945050604061242d888289016123b0565b935050606061243e888289016123b0565b925050608061244f888289016121d1565b9150509295509295909350565b6000602082840312156124725761247161217e565b5b6000612480848285016123b0565b91505092915050565b6124928161238f565b82525050565b600081519050919050565b600082825260208201905092915050565b60005b838110156124d25780820151818401526020810190506124b7565b60008484015250505050565b60006124e982612498565b6124f381856124a3565b93506125038185602086016124b4565b61250c81612253565b840191505092915050565b612520816121a8565b82525050565b60006101008201905061253c600083018b612489565b818103602083015261254e818a6124de565b905061255d6040830189612489565b61256a6060830188612489565b6125776080830187612489565b61258460a0830186612517565b61259160c083018561221f565b61259e60e0830184612489565b9998505050505050505050565b600081519050919050565b600082825260208201905092915050565b6000819050602082019050919050565b6125e08161238f565b82525050565b600082825260208201905092915050565b600061260282612498565b61260c81856125e6565b935061261c8185602086016124b4565b61262581612253565b840191505092915050565b612639816121a8565b82525050565b61264881612213565b82525050565b60006101008301600083015161266760008601826125d7565b506020830151848203602086015261267f82826125f7565b915050604083015161269460408601826125d7565b5060608301516126a760608601826125d7565b5060808301516126ba60808601826125d7565b5060a08301516126cd60a0860182612630565b5060c08301516126e060c086018261263f565b5060e08301516126f360e08601826125d7565b508091505092915050565b600061270a838361264e565b905092915050565b6000602082019050919050565b600061272a826125ab565b61273481856125b6565b935083602082028501612746856125c7565b8060005b85811015612782578484038952815161276385826126fe565b945061276e83612712565b925060208a0199505060018101905061274a565b50829750879550505050505092915050565b600060208201905081810360008301526127ae818461271f565b905092915050565b6127bf81612213565b81146127ca57600080fd5b50565b6000813590506127dc816127b6565b92915050565b600080604083850312156127f9576127f861217e565b5b6000612807858286016121d1565b9250506020612818858286016127cd565b9150509250929050565b60006020820190506128376000830184612489565b92915050565b60006020820190506128526000830184612517565b92915050565b600080600080608085870312156128725761287161217e565b5b6000612880878288016123b0565b9450506020612891878288016121d1565b93505060406128a2878288016121d1565b92505060606128b3878288016121d1565b91505092959194509250565b6000610100830160008301516128d860008601826125d7565b50602083015184820360208601526128f082826125f7565b915050604083015161290560408601826125d7565b50606083015161291860608601826125d7565b50608083015161292b60808601826125d7565b5060a083015161293e60a0860182612630565b5060c083015161295160c086018261263f565b5060e083015161296460e08601826125d7565b508091505092915050565b6000602082019050818103600083015261298981846128bf565b905092915050565b600060e0820190506129a6600083018a612489565b6129b36020830189612489565b6129c06040830188612489565b6129cd6060830187612489565b6129da6080830186612489565b6129e760a0830185612489565b6129f460c0830184612489565b98975050505050505050565b600080600060608486031215612a1957612a1861217e565b5b6000612a27868287016123b0565b9350506020612a38868287016123b0565b9250506040612a49868287016123b0565b9150509250925092565b7f4f6e6c7920416d696e732063616e2063616c6c20746869732066756e6374696f60008201527f6e00000000000000000000000000000000000000000000000000000000000000602082015250565b6000612aaf6021836124a3565b9150612aba82612a53565b604082019050919050565b60006020820190508181036000830152612ade81612aa2565b9050919050565b7f52616e6b20646f65736e74206578697374000000000000000000000000000000600082015250565b6000612b1b6011836124a3565b9150612b2682612ae5565b602082019050919050565b60006020820190508181036000830152612b4a81612b0e565b9050919050565b7f4e487b7100000000000000000000000000000000000000000000000000000000600052602260045260246000fd5b60006002820490506001821680612b9857607f821691505b602082108103612bab57612baa612b51565b5b50919050565b60008190508160005260206000209050919050565b60006020601f8301049050919050565b600082821b905092915050565b600060088302612c137fffffffffffffffffffffffffffffffffffffffffffffffffffffffffffffffff82612bd6565b612c1d8683612bd6565b95508019841693508086168417925050509392505050565b6000819050919050565b6000612c5a612c55612c508461238f565b612c35565b61238f565b9050919050565b6000819050919050565b612c7483612c3f565b612c88612c8082612c61565b848454612be3565b825550505050565b600090565b612c9d612c90565b612ca8818484612c6b565b505050565b5b81811015612ccc57612cc1600082612c95565b600181019050612cae565b5050565b601f821115612d1157612ce281612bb1565b612ceb84612bc6565b81016020851015612cfa578190505b612d0e612d0685612bc6565b830182612cad565b50505b505050565b600082821c905092915050565b6000612d3460001984600802612d16565b1980831691505092915050565b6000612d4d8383612d23565b9150826002028217905092915050565b612d6682612498565b67ffffffffffffffff811115612d7f57612d7e612264565b5b612d898254612b80565b612d94828285612cd0565b600060209050601f831160018114612dc75760008415612db5578287015190505b612dbf8582612d41565b865550612e27565b601f198416612dd586612bb1565b60005b82811015612dfd57848901518255600182019150602085019450602081019050612dd8565b86831015612e1a5784890151612e16601f891682612d23565b8355505b6001600288020188555050505b505050505050565b7f4e487b7100000000000000000000000000000000000000000000000000000000600052603260045260246000fd5b7f4e487b7100000000000000000000000000000000000000000000000000000000600052601160045260246000fd5b6000612e988261238f565b9150612ea38361238f565b9250828201905080821115612ebb57612eba612e5e565b5b92915050565b6000604082019050612ed66000830185612517565b612ee36020830184612489565b9392505050565b600081905092915050565b6000612f0082612498565b612f0a8185612eea565b9350612f1a8185602086016124b4565b80840191505092915050565b6000612f328284612ef5565b915081905092915050565b6000606082019050612f526000830186612489565b612f5f6020830185612489565b612f6c6040830184612489565b949350505050565b6000612f7f8261238f565b9150612f8a8361238f565b9250828203905081811115612fa257612fa1612e5e565b5b92915050565b7f4e487b7100000000000000000000000000000000000000000000000000000000600052601260045260246000fd5b6000612fe28261238f565b9150612fed8361238f565b925082612ffd57612ffc612fa8565b5b828204905092915050565b6000815461301581612b80565b61301f81866124a3565b9450600182166000811461303a576001811461305057613083565b60ff198316865281151560200286019350613083565b61305985612bb1565b60005b8381101561307b5781548189015260018201915060208101905061305c565b808801955050505b50505092915050565b600060608201905081810360008301526130a68186613008565b90506130b56020830185612517565b6130c26040830184612489565b949350505050565b60006130d58261238f565b91507fffffffffffffffffffffffffffffffffffffffffffffffffffffffffffffffff820361310757613106612e5e565b5b600182019050919050565b7f4e6f6d696e65652031206973206e6f7420616374697665000000000000000000600082015250565b60006131486017836124a3565b915061315382613112565b602082019050919050565b600060208201905081810360008301526131778161313b565b9050919050565b7f4e6f6d696e65652032206973206e6f7420616374697665000000000000000000600082015250565b60006131b46017836124a3565b91506131bf8261317e565b602082019050919050565b600060208201905081810360008301526131e3816131a7565b9050919050565b7f4e6f6d696e65652033206973206e6f7420616374697665000000000000000000600082015250565b60006132206017836124a3565b915061322b826131ea565b602082019050919050565b6000602082019050818103600083015261324f81613213565b9050919050565b600060808201905061326b6000830187612489565b6132786020830186612517565b6132856040830185612517565b6132926060830184612517565b95945050505050565b6000815190506132aa81612399565b92915050565b6000602082840312156132c6576132c561217e565b5b60006132d48482850161329b565b91505092915050565b7f566f746572206973206e6f7420616e2061637469766520656d706c6f79656500600082015250565b6000613313601f836124a3565b915061331e826132dd565b602082019050919050565b6000602082019050818103600083015261334281613306565b9050919050565b600060408201905061335e6000830185612489565b61336b6020830184612517565b9392505050565b7f456d706c6f79656520494420646f6573206e6f74206578697374000000000000600082015250565b60006133a8601a836124a3565b91506133b382613372565b602082019050919050565b600060208201905081810360008301526133d78161339b565b9050919050565b7f456d706c6f79656520616c72656164792072656c656173656400000000000000600082015250565b60006134146019836124a3565b915061341f826133de565b602082019050919050565b6000602082019050818103600083015261344381613407565b9050919050565b600060808201905081810360008301526134648187613008565b90506134736020830186612489565b6134806040830185612489565b61348d6060830184612489565b95945050505050565b60006134a18261238f565b91506134ac8361238f565b92508282026134ba8161238f565b915082820484148315176134d1576134d0612e5e565b5b5092915050565b6000819050919050565b60006134fd6134f86134f3846134d8565b612c35565b61238f565b9050919050565b61350d816134e2565b82525050565b60006060820190506135286000830186612517565b6135356020830185612489565b6135426040830184613504565b949350505050565b6000819050919050565b600061356f61356a6135658461354a565b612c35565b61238f565b9050919050565b61357f81613554565b82525050565b600060408201905061359a6000830185612517565b6135a76020830184613576565b9392505050565b7f4f776e61626c653a206e6577206f776e657220697320746865207a65726f206160008201527f6464726573730000000000000000000000000000000000000000000000000000602082015250565b600061360a6026836124a3565b9150613615826135ae565b604082019050919050565b60006020820190508181036000830152613639816135fd565b9050919050565b7f43616e6e6f742064656d6f746520656d706c6f79656500000000000000000000600082015250565b60006136766016836124a3565b915061368182613640565b602082019050919050565b600060208201905081810360008301526136a581613669565b9050919050565b7f546869732072616e6b20646f656e737420657869737400000000000000000000600082015250565b60006136e26016836124a3565b91506136ed826136ac565b602082019050919050565b60006020820190508181036000830152613711816136d5565b9050919050565b600060408201905061372d6000830185612489565b61373a6020830184612489565b9392505050565b7f4f776e61626c653a2063616c6c6572206973206e6f7420746865206f776e6572600082015250565b60006137776020836124a3565b915061378282613741565b602082019050919050565b600060208201905081810360008301526137a68161376a565b905091905056fea26469706673582212208b88fef7f89cec749bf09454ac4455571772c338bab6f488e7ef2790e9ac8e8564736f6c63430008110033",
  "linkReferences": {},
  "deployedLinkReferences": {}
}