{
  "_format": "hh-sol-artifact-1",
  "contractName": "Employees",
  "sourceName": "contracts/Employees.sol",
  "abi": [
    {
      "inputs": [
        {
          "internalType": "address",
          "name": "_BEN",
          "type": "address"
        },
        {
          "internalType": "address",
          "name": "_payroll",
          "type": "address"
        },
        {
          "internalType": "address",
          "name": "_nft",
          "type": "address"
        }
      ],
      "stateMutability": "nonpayable",
      "type": "constructor"
    },
    {
      "anonymous": false,
      "inputs": [
        {
          "indexed": false,
          "internalType": "uint256",
          "name": "_employeeID",
          "type": "uint256"
        },
        {
          "indexed": false,
          "internalType": "uint256",
          "name": "_rank",
          "type": "uint256"
        }
      ],
      "name": "AssignRank",
      "type": "event"
    },
    {
      "anonymous": false,
      "inputs": [
        {
          "indexed": false,
          "internalType": "string",
          "name": "_name",
          "type": "string"
        },
        {
          "indexed": false,
          "internalType": "address",
          "name": "_wallet",
          "type": "address"
        },
        {
          "indexed": false,
          "internalType": "uint256",
          "name": "_amount",
          "type": "uint256"
        }
      ],
      "name": "EmployeePaid",
      "type": "event"
    },
    {
      "anonymous": false,
      "inputs": [
        {
          "indexed": true,
          "internalType": "string",
          "name": "_name",
          "type": "string"
        },
        {
          "indexed": false,
          "internalType": "uint256",
          "name": "_rank",
          "type": "uint256"
        },
        {
          "indexed": false,
          "internalType": "uint256",
          "name": "_dob",
          "type": "uint256"
        },
        {
          "indexed": false,
          "internalType": "uint256",
          "name": "_salary",
          "type": "uint256"
        },
        {
          "indexed": true,
          "internalType": "address",
          "name": "_wallet",
          "type": "address"
        }
      ],
      "name": "EmpoloyeeCreated",
      "type": "event"
    },
    {
      "anonymous": false,
      "inputs": [
        {
          "indexed": false,
          "internalType": "string",
          "name": "_name",
          "type": "string"
        },
        {
          "indexed": false,
          "internalType": "uint256",
          "name": "_rank",
          "type": "uint256"
        },
        {
          "indexed": false,
          "internalType": "uint256",
          "name": "_dob",
          "type": "uint256"
        },
        {
          "indexed": false,
          "internalType": "uint256",
          "name": "_salary",
          "type": "uint256"
        },
        {
          "indexed": true,
          "internalType": "address",
          "name": "_wallet",
          "type": "address"
        }
      ],
      "name": "EmpoloyeeReleased",
      "type": "event"
    },
    {
      "anonymous": false,
      "inputs": [
        {
          "indexed": true,
          "internalType": "address",
          "name": "previousOwner",
          "type": "address"
        },
        {
          "indexed": true,
          "internalType": "address",
          "name": "newOwner",
          "type": "address"
        }
      ],
      "name": "OwnershipTransferred",
      "type": "event"
    },
    {
      "inputs": [],
      "name": "BEN",
      "outputs": [
        {
          "internalType": "contract BenefitsToken",
          "name": "",
          "type": "address"
        }
      ],
      "stateMutability": "view",
      "type": "function"
    },
    {
      "inputs": [],
      "name": "NFT",
      "outputs": [
        {
          "internalType": "contract PayrollioNFT",
          "name": "",
          "type": "address"
        }
      ],
      "stateMutability": "view",
      "type": "function"
    },
    {
      "inputs": [],
      "name": "PAYROLL",
      "outputs": [
        {
          "internalType": "contract EmployeePayroll",
          "name": "",
          "type": "address"
        }
      ],
      "stateMutability": "view",
      "type": "function"
    },
    {
      "inputs": [
        {
          "internalType": "string",
          "name": "_name",
          "type": "string"
        },
        {
          "internalType": "uint256",
          "name": "_rank",
          "type": "uint256"
        },
        {
          "internalType": "uint256",
          "name": "_dob",
          "type": "uint256"
        },
        {
          "internalType": "uint256",
          "name": "_salary",
          "type": "uint256"
        },
        {
          "internalType": "address",
          "name": "_wallet",
          "type": "address"
        }
      ],
      "name": "addEmployee",
      "outputs": [],
      "stateMutability": "nonpayable",
      "type": "function"
    },
    {
      "inputs": [
        {
          "internalType": "uint256",
          "name": "_employeeId",
          "type": "uint256"
        },
        {
          "internalType": "uint256",
          "name": "_rank",
          "type": "uint256"
        },
        {
          "internalType": "uint256",
          "name": "_salary",
          "type": "uint256"
        }
      ],
      "name": "assignRank",
      "outputs": [],
      "stateMutability": "nonpayable",
      "type": "function"
    },
    {
      "inputs": [
        {
          "internalType": "uint256",
          "name": "",
          "type": "uint256"
        }
      ],
      "name": "companyData",
      "outputs": [
        {
          "internalType": "uint256",
          "name": "totalEmployees",
          "type": "uint256"
        },
        {
          "internalType": "uint256",
          "name": "activeEmployees",
          "type": "uint256"
        },
        {
          "internalType": "uint256",
          "name": "inactiveEmployees",
          "type": "uint256"
        },
        {
          "internalType": "uint256",
          "name": "rank1Employees",
          "type": "uint256"
        },
        {
          "internalType": "uint256",
          "name": "rank2Employees",
          "type": "uint256"
        },
        {
          "internalType": "uint256",
          "name": "rank3Employees",
          "type": "uint256"
        },
        {
          "internalType": "uint256",
          "name": "rank4Employees",
          "type": "uint256"
        }
      ],
      "stateMutability": "view",
      "type": "function"
    },
    {
      "inputs": [],
      "name": "employeeCounter",
      "outputs": [
        {
          "internalType": "uint256",
          "name": "",
          "type": "uint256"
        }
      ],
      "stateMutability": "view",
      "type": "function"
    },
    {
      "inputs": [
        {
          "internalType": "uint256",
          "name": "",
          "type": "uint256"
        }
      ],
      "name": "employees",
      "outputs": [
        {
          "internalType": "string",
          "name": "name",
          "type": "string"
        },
        {
          "internalType": "uint256",
          "name": "rank",
          "type": "uint256"
        },
        {
          "internalType": "uint256",
          "name": "dateOfBirth",
          "type": "uint256"
        },
        {
          "internalType": "uint256",
          "name": "salary",
          "type": "uint256"
        },
        {
          "internalType": "address",
          "name": "walletAddress",
          "type": "address"
        },
        {
          "internalType": "bool",
          "name": "active",
          "type": "bool"
        },
        {
          "internalType": "uint256",
          "name": "daysToNextPay",
          "type": "uint256"
        }
      ],
      "stateMutability": "view",
      "type": "function"
    },
    {
      "inputs": [],
      "name": "getActiveEmployees",
      "outputs": [
        {
          "components": [
            {
              "internalType": "string",
              "name": "name",
              "type": "string"
            },
            {
              "internalType": "uint256",
              "name": "rank",
              "type": "uint256"
            },
            {
              "internalType": "uint256",
              "name": "dateOfBirth",
              "type": "uint256"
            },
            {
              "internalType": "uint256",
              "name": "salary",
              "type": "uint256"
            },
            {
              "internalType": "address",
              "name": "walletAddress",
              "type": "address"
            },
            {
              "internalType": "bool",
              "name": "active",
              "type": "bool"
            },
            {
              "internalType": "uint256",
              "name": "daysToNextPay",
              "type": "uint256"
            }
          ],
          "internalType": "struct Employees.Employee[]",
          "name": "",
          "type": "tuple[]"
        }
      ],
      "stateMutability": "view",
      "type": "function"
    },
    {
      "inputs": [
        {
          "internalType": "uint256",
          "name": "_employeeId",
          "type": "uint256"
        }
      ],
      "name": "getEmployee",
      "outputs": [
        {
          "components": [
            {
              "internalType": "string",
              "name": "name",
              "type": "string"
            },
            {
              "internalType": "uint256",
              "name": "rank",
              "type": "uint256"
            },
            {
              "internalType": "uint256",
              "name": "dateOfBirth",
              "type": "uint256"
            },
            {
              "internalType": "uint256",
              "name": "salary",
              "type": "uint256"
            },
            {
              "internalType": "address",
              "name": "walletAddress",
              "type": "address"
            },
            {
              "internalType": "bool",
              "name": "active",
              "type": "bool"
            },
            {
              "internalType": "uint256",
              "name": "daysToNextPay",
              "type": "uint256"
            }
          ],
          "internalType": "struct Employees.Employee",
          "name": "",
          "type": "tuple"
        }
      ],
      "stateMutability": "view",
      "type": "function"
    },
    {
      "inputs": [
        {
          "internalType": "address",
          "name": "",
          "type": "address"
        }
      ],
      "name": "isAdmin",
      "outputs": [
        {
          "internalType": "bool",
          "name": "",
          "type": "bool"
        }
      ],
      "stateMutability": "view",
      "type": "function"
    },
    {
      "inputs": [],
      "name": "owner",
      "outputs": [
        {
          "internalType": "address",
          "name": "",
          "type": "address"
        }
      ],
      "stateMutability": "view",
      "type": "function"
    },
    {
      "inputs": [],
      "name": "payActiveEmployees",
      "outputs": [],
      "stateMutability": "nonpayable",
      "type": "function"
    },
    {
      "inputs": [
        {
          "internalType": "uint256",
          "name": "_employeeId",
          "type": "uint256"
        }
      ],
      "name": "releaseEmployee",
      "outputs": [],
      "stateMutability": "nonpayable",
      "type": "function"
    },
    {
      "inputs": [],
      "name": "renounceOwnership",
      "outputs": [],
      "stateMutability": "nonpayable",
      "type": "function"
    },
    {
      "inputs": [],
      "name": "replenishEmployeeTokens",
      "outputs": [],
      "stateMutability": "nonpayable",
      "type": "function"
    },
    {
      "inputs": [
        {
          "internalType": "address",
          "name": "_address",
          "type": "address"
        },
        {
          "internalType": "bool",
          "name": "_isAdmin",
          "type": "bool"
        }
      ],
      "name": "setAdmin",
      "outputs": [],
      "stateMutability": "nonpayable",
      "type": "function"
    },
    {
      "inputs": [
        {
          "internalType": "address",
          "name": "newOwner",
          "type": "address"
        }
      ],
      "name": "transferOwnership",
      "outputs": [],
      "stateMutability": "nonpayable",
      "type": "function"
    }
  ],
  "bytecode": "0x608060405260006003553480156200001657600080fd5b50604051620032d9380380620032d983398181016040528101906200003c9190620002b6565b6200005c620000506200018060201b60201c565b6200018860201b60201c565b82600160006101000a81548173ffffffffffffffffffffffffffffffffffffffff021916908373ffffffffffffffffffffffffffffffffffffffff16021790555081600260006101000a81548173ffffffffffffffffffffffffffffffffffffffff021916908373ffffffffffffffffffffffffffffffffffffffff16021790555080600460006101000a81548173ffffffffffffffffffffffffffffffffffffffff021916908373ffffffffffffffffffffffffffffffffffffffff1602179055506001600d60003373ffffffffffffffffffffffffffffffffffffffff1673ffffffffffffffffffffffffffffffffffffffff16815260200190815260200160002060006101000a81548160ff02191690831515021790555050505062000312565b600033905090565b60008060009054906101000a900473ffffffffffffffffffffffffffffffffffffffff169050816000806101000a81548173ffffffffffffffffffffffffffffffffffffffff021916908373ffffffffffffffffffffffffffffffffffffffff1602179055508173ffffffffffffffffffffffffffffffffffffffff168173ffffffffffffffffffffffffffffffffffffffff167f8be0079c531659141344cd1fd0a4f28419497f9722a3daafe3b4186f6b6457e060405160405180910390a35050565b600080fd5b600073ffffffffffffffffffffffffffffffffffffffff82169050919050565b60006200027e8262000251565b9050919050565b620002908162000271565b81146200029c57600080fd5b50565b600081519050620002b08162000285565b92915050565b600080600060608486031215620002d257620002d16200024c565b5b6000620002e2868287016200029f565b9350506020620002f5868287016200029f565b925050604062000308868287016200029f565b9150509250925092565b612fb780620003226000396000f3fe608060405234801561001057600080fd5b50600436106101165760003560e01c80637c0b8de2116100a2578063bca9a5c511610071578063bca9a5c51461028b578063c0fe1826146102bb578063f01aefaa146102f1578063f2fde38b1461030d578063ffba79db1461032957610116565b80637c0b8de2146102275780638da5cb5b146102455780639716030714610263578063b7c97fa01461026d57610116565b806347e23df9116100e957806347e23df9146101a75780634b0bddd2146101c5578063715018a6146101e157806379dd81e1146101eb5780637bd6800d1461020957610116565b806324d7806c1461011b5780632b7851401461014b5780634090b7ca146101675780634739326b14610171575b600080fd5b61013560048036038101906101309190611bfa565b610345565b6040516101429190611c42565b60405180910390f35b61016560048036038101906101609190611dd9565b610365565b005b61016f6107cc565b005b61018b60048036038101906101869190611e70565b610a15565b60405161019e9796959493929190611f3a565b60405180910390f35b6101af610b0c565b6040516101bc9190612185565b60405180910390f35b6101df60048036038101906101da91906121d3565b610bc8565b005b6101e9610c2b565b005b6101f3610c3f565b6040516102009190612213565b60405180910390f35b610211610c45565b60405161021e919061228d565b60405180910390f35b61022f610c6b565b60405161023c91906122c9565b60405180910390f35b61024d610c91565b60405161025a91906122e4565b60405180910390f35b61026b610cba565b005b610275610f4d565b6040516102829190612320565b60405180910390f35b6102a560048036038101906102a09190611e70565b610f73565b6040516102b291906123d7565b60405180910390f35b6102d560048036038101906102d09190611e70565b6110d1565b6040516102e897969594939291906123f9565b60405180910390f35b61030b60048036038101906103069190611e70565b611119565b005b61032760048036038101906103229190611bfa565b6116f1565b005b610343600480360381019061033e9190612468565b611774565b005b600d6020528060005260406000206000915054906101000a900460ff1681565b600d60003373ffffffffffffffffffffffffffffffffffffffff1673ffffffffffffffffffffffffffffffffffffffff16815260200190815260200160002060009054906101000a900460ff166103f1576040517f08c379a00000000000000000000000000000000000000000000000000000000081526004016103e89061252d565b60405180910390fd5b6000841180156104015750600584105b610440576040517f08c379a000000000000000000000000000000000000000000000000000000000815260040161043790612599565b60405180910390fd5b6000600c6000600354815260200190815260200160002090508581600001908161046a91906127bb565b50848160010181905550838160020181905550828160030181905550818160040160006101000a81548173ffffffffffffffffffffffffffffffffffffffff021916908373ffffffffffffffffffffffffffffffffffffffff16021790555060018160040160146101000a81548160ff021916908315150217905550601e8160050181905550600060056000600181106105075761050661288d565b5b600702019050600181600001600082825461052291906128eb565b92505081905550600181600101600082825461053e91906128eb565b925050819055506001860361056e57600181600301600082825461056291906128eb565b925050819055506105df565b6002860361059757600181600401600082825461058b91906128eb565b925050819055506105de565b600386036105c05760018160050160008282546105b491906128eb565b925050819055506105dd565b60018160060160008282546105d591906128eb565b925050819055505b5b5b600360008154809291906001019190505550600160009054906101000a900473ffffffffffffffffffffffffffffffffffffffff1673ffffffffffffffffffffffffffffffffffffffff166340c10f198360040160009054906101000a900473ffffffffffffffffffffffffffffffffffffffff1684600101546040518363ffffffff1660e01b815260040161067692919061291f565b600060405180830381600087803b15801561069057600080fd5b505af11580156106a4573d6000803e3d6000fd5b50505050600460009054906101000a900473ffffffffffffffffffffffffffffffffffffffff1673ffffffffffffffffffffffffffffffffffffffff166340c10f198360040160009054906101000a900473ffffffffffffffffffffffffffffffffffffffff16886040518363ffffffff1660e01b815260040161072992919061291f565b600060405180830381600087803b15801561074357600080fd5b505af1158015610757573d6000803e3d6000fd5b505050508273ffffffffffffffffffffffffffffffffffffffff16876040516107809190612984565b60405180910390207fe67918e2ebfa86773ad1d6eb76d22fb813c41ac83ee857b3220b45f10e2ad7df8888886040516107bb9392919061299b565b60405180910390a350505050505050565b60005b600354811015610a1257600c600082815260200190815260200160002060040160149054906101000a900460ff16156109ff576001600c6000838152602001908152602001600020600501541115610854576001600c6000838152602001908152602001600020600501600082825461084891906129d2565b925050819055506109fe565b601e600c600083815260200190815260200160002060050181905550600260009054906101000a900473ffffffffffffffffffffffffffffffffffffffff1673ffffffffffffffffffffffffffffffffffffffff166340c10f19600c600084815260200190815260200160002060040160009054906101000a900473ffffffffffffffffffffffffffffffffffffffff16600c806000868152602001908152602001600020600301546109079190612a35565b6040518363ffffffff1660e01b815260040161092492919061291f565b600060405180830381600087803b15801561093e57600080fd5b505af1158015610952573d6000803e3d6000fd5b505050507f525229eda8db65f11d4e28be5bf453f557fc965011eec58cdf019975a0b935c3600c6000838152602001908152602001600020600001600c600084815260200190815260200160002060040160009054906101000a900473ffffffffffffffffffffffffffffffffffffffff16600c806000868152602001908152602001600020600301546109e69190612a35565b6040516109f593929190612aea565b60405180910390a15b5b8080610a0a90612b28565b9150506107cf565b50565b600c602052806000526040600020600091509050806000018054610a38906125e8565b80601f0160208091040260200160405190810160405280929190818152602001828054610a64906125e8565b8015610ab15780601f10610a8657610100808354040283529160200191610ab1565b820191906000526020600020905b815481529060010190602001808311610a9457829003601f168201915b5050505050908060010154908060020154908060030154908060040160009054906101000a900473ffffffffffffffffffffffffffffffffffffffff16908060040160149054906101000a900460ff16908060050154905087565b6060600060035467ffffffffffffffff811115610b2c57610b2b611c78565b5b604051908082528060200260200182016040528015610b6557816020015b610b52611b33565b815260200190600190039081610b4a5790505b50905060005b600354811015610bc0576000610b8082610f73565b90508060a0015115610bac5780838381518110610ba057610b9f61288d565b5b60200260200101819052505b508080610bb890612b28565b915050610b6b565b508091505090565b610bd06119e9565b80600d60008473ffffffffffffffffffffffffffffffffffffffff1673ffffffffffffffffffffffffffffffffffffffff16815260200190815260200160002060006101000a81548160ff0219169083151502179055505050565b610c336119e9565b610c3d6000611a67565b565b60035481565b600260009054906101000a900473ffffffffffffffffffffffffffffffffffffffff1681565b600460009054906101000a900473ffffffffffffffffffffffffffffffffffffffff1681565b60008060009054906101000a900473ffffffffffffffffffffffffffffffffffffffff16905090565b6000610cc4610b0c565b905060005b8151811015610f4957818181518110610ce557610ce461288d565b5b602002602001015160a0015115610f36576000600160009054906101000a900473ffffffffffffffffffffffffffffffffffffffff1673ffffffffffffffffffffffffffffffffffffffff166370a08231848481518110610d4957610d4861288d565b5b6020026020010151608001516040518263ffffffff1660e01b8152600401610d7191906122e4565b602060405180830381865afa158015610d8e573d6000803e3d6000fd5b505050506040513d601f19601f82011682018060405250810190610db29190612b85565b90506000600160009054906101000a900473ffffffffffffffffffffffffffffffffffffffff1673ffffffffffffffffffffffffffffffffffffffff1663962d2809858581518110610e0757610e0661288d565b5b6020026020010151602001516040518263ffffffff1660e01b8152600401610e2f9190612213565b602060405180830381865afa158015610e4c573d6000803e3d6000fd5b505050506040513d601f19601f82011682018060405250810190610e709190612b85565b905080821015610f3357600160009054906101000a900473ffffffffffffffffffffffffffffffffffffffff1673ffffffffffffffffffffffffffffffffffffffff166356407455858581518110610ecb57610eca61288d565b5b6020026020010151608001518484610ee391906129d2565b6040518363ffffffff1660e01b8152600401610f0092919061291f565b600060405180830381600087803b158015610f1a57600080fd5b505af1158015610f2e573d6000803e3d6000fd5b505050505b50505b8080610f4190612b28565b915050610cc9565b5050565b600160009054906101000a900473ffffffffffffffffffffffffffffffffffffffff1681565b610f7b611b33565b6000600c60008481526020019081526020016000209050806040518060e0016040529081600082018054610fae906125e8565b80601f0160208091040260200160405190810160405280929190818152602001828054610fda906125e8565b80156110275780601f10610ffc57610100808354040283529160200191611027565b820191906000526020600020905b81548152906001019060200180831161100a57829003601f168201915b505050505081526020016001820154815260200160028201548152602001600382015481526020016004820160009054906101000a900473ffffffffffffffffffffffffffffffffffffffff1673ffffffffffffffffffffffffffffffffffffffff1673ffffffffffffffffffffffffffffffffffffffff1681526020016004820160149054906101000a900460ff16151515158152602001600582015481525050915050919050565b600581600181106110e157600080fd5b600702016000915090508060000154908060010154908060020154908060030154908060040154908060050154908060060154905087565b600d60003373ffffffffffffffffffffffffffffffffffffffff1673ffffffffffffffffffffffffffffffffffffffff16815260200190815260200160002060009054906101000a900460ff166111a5576040517f08c379a000000000000000000000000000000000000000000000000000000000815260040161119c9061252d565b60405180910390fd5b6003548111156111ea576040517f08c379a00000000000000000000000000000000000000000000000000000000081526004016111e190612bfe565b60405180910390fd5b6000600c6000838152602001908152602001600020905060008160040160146101000a81548160ff021916908315150217905550600060056000600181106112355761123461288d565b5b600702019050600181600001600082825461125091906128eb565b92505081905550600181600101600082825461126c91906128eb565b9250508190555060018260010154036112a057600181600301600082825461129491906129d2565b92505081905550611319565b60028260010154036112cd5760018160040160008282546112c191906129d2565b92505081905550611318565b60038260010154036112fa5760018160050160008282546112ee91906129d2565b92505081905550611317565b600181600601600082825461130f91906129d2565b925050819055505b5b5b8160040160009054906101000a900473ffffffffffffffffffffffffffffffffffffffff1673ffffffffffffffffffffffffffffffffffffffff167f1c887c9bd8e75db22f26656b9571aff01bf0a0538598bdcbe11e71b1206c4f65836000018460010154856002015486600301546040516113989493929190612c1e565b60405180910390a2600061016d83600301546113b49190612a35565b905060008184600501546113c89190612c6a565b9050600260009054906101000a900473ffffffffffffffffffffffffffffffffffffffff1673ffffffffffffffffffffffffffffffffffffffff166340c10f198560040160009054906101000a900473ffffffffffffffffffffffffffffffffffffffff16836040518363ffffffff1660e01b815260040161144b92919061291f565b600060405180830381600087803b15801561146557600080fd5b505af1158015611479573d6000803e3d6000fd5b505050506000846005018190555060005b6001856001015461149b91906128eb565b811015611635576000600460009054906101000a900473ffffffffffffffffffffffffffffffffffffffff1673ffffffffffffffffffffffffffffffffffffffff1662fdd58e8760040160009054906101000a900473ffffffffffffffffffffffffffffffffffffffff16846040518363ffffffff1660e01b815260040161152492919061291f565b602060405180830381865afa158015611541573d6000803e3d6000fd5b505050506040513d601f19601f820116820180604052508101906115659190612b85565b111561162257600460009054906101000a900473ffffffffffffffffffffffffffffffffffffffff1673ffffffffffffffffffffffffffffffffffffffff1663f5298aca8660040160009054906101000a900473ffffffffffffffffffffffffffffffffffffffff168360016040518463ffffffff1660e01b81526004016115ef93929190612ce7565b600060405180830381600087803b15801561160957600080fd5b505af115801561161d573d6000803e3d6000fd5b505050505b808061162d90612b28565b91505061148a565b50600460009054906101000a900473ffffffffffffffffffffffffffffffffffffffff1673ffffffffffffffffffffffffffffffffffffffff166340c10f198560040160009054906101000a900473ffffffffffffffffffffffffffffffffffffffff1660056040518363ffffffff1660e01b81526004016116b8929190612d59565b600060405180830381600087803b1580156116d257600080fd5b505af11580156116e6573d6000803e3d6000fd5b505050505050505050565b6116f96119e9565b600073ffffffffffffffffffffffffffffffffffffffff168173ffffffffffffffffffffffffffffffffffffffff1603611768576040517f08c379a000000000000000000000000000000000000000000000000000000000815260040161175f90612df4565b60405180910390fd5b61177181611a67565b50565b600d60003373ffffffffffffffffffffffffffffffffffffffff1673ffffffffffffffffffffffffffffffffffffffff16815260200190815260200160002060009054906101000a900460ff16611800576040517f08c379a00000000000000000000000000000000000000000000000000000000081526004016117f79061252d565b60405180910390fd5b600354831115611845576040517f08c379a000000000000000000000000000000000000000000000000000000000815260040161183c90612bfe565b60405180910390fd5b6000600c60008581526020019081526020016000209050806001015483116118a2576040517f08c379a000000000000000000000000000000000000000000000000000000000815260040161189990612e60565b60405180910390fd5b600583106118e5576040517f08c379a00000000000000000000000000000000000000000000000000000000081526004016118dc90612ecc565b60405180910390fd5b828160010181905550818160030181905550600460009054906101000a900473ffffffffffffffffffffffffffffffffffffffff1673ffffffffffffffffffffffffffffffffffffffff166340c10f198260040160009054906101000a900473ffffffffffffffffffffffffffffffffffffffff16856040518363ffffffff1660e01b815260040161197892919061291f565b600060405180830381600087803b15801561199257600080fd5b505af11580156119a6573d6000803e3d6000fd5b505050507f01a10ae1a7477e7dfccf5728f4ce8c0aa13f0a793496d84b02164fa4c91115c984846040516119db929190612eec565b60405180910390a150505050565b6119f1611b2b565b73ffffffffffffffffffffffffffffffffffffffff16611a0f610c91565b73ffffffffffffffffffffffffffffffffffffffff1614611a65576040517f08c379a0000000000000000000000000000000000000000000000000000000008152600401611a5c90612f61565b60405180910390fd5b565b60008060009054906101000a900473ffffffffffffffffffffffffffffffffffffffff169050816000806101000a81548173ffffffffffffffffffffffffffffffffffffffff021916908373ffffffffffffffffffffffffffffffffffffffff1602179055508173ffffffffffffffffffffffffffffffffffffffff168173ffffffffffffffffffffffffffffffffffffffff167f8be0079c531659141344cd1fd0a4f28419497f9722a3daafe3b4186f6b6457e060405160405180910390a35050565b600033905090565b6040518060e0016040528060608152602001600081526020016000815260200160008152602001600073ffffffffffffffffffffffffffffffffffffffff168152602001600015158152602001600081525090565b6000604051905090565b600080fd5b600080fd5b600073ffffffffffffffffffffffffffffffffffffffff82169050919050565b6000611bc782611b9c565b9050919050565b611bd781611bbc565b8114611be257600080fd5b50565b600081359050611bf481611bce565b92915050565b600060208284031215611c1057611c0f611b92565b5b6000611c1e84828501611be5565b91505092915050565b60008115159050919050565b611c3c81611c27565b82525050565b6000602082019050611c576000830184611c33565b92915050565b600080fd5b600080fd5b6000601f19601f8301169050919050565b7f4e487b7100000000000000000000000000000000000000000000000000000000600052604160045260246000fd5b611cb082611c67565b810181811067ffffffffffffffff82111715611ccf57611cce611c78565b5b80604052505050565b6000611ce2611b88565b9050611cee8282611ca7565b919050565b600067ffffffffffffffff821115611d0e57611d0d611c78565b5b611d1782611c67565b9050602081019050919050565b82818337600083830152505050565b6000611d46611d4184611cf3565b611cd8565b905082815260208101848484011115611d6257611d61611c62565b5b611d6d848285611d24565b509392505050565b600082601f830112611d8a57611d89611c5d565b5b8135611d9a848260208601611d33565b91505092915050565b6000819050919050565b611db681611da3565b8114611dc157600080fd5b50565b600081359050611dd381611dad565b92915050565b600080600080600060a08688031215611df557611df4611b92565b5b600086013567ffffffffffffffff811115611e1357611e12611b97565b5b611e1f88828901611d75565b9550506020611e3088828901611dc4565b9450506040611e4188828901611dc4565b9350506060611e5288828901611dc4565b9250506080611e6388828901611be5565b9150509295509295909350565b600060208284031215611e8657611e85611b92565b5b6000611e9484828501611dc4565b91505092915050565b600081519050919050565b600082825260208201905092915050565b60005b83811015611ed7578082015181840152602081019050611ebc565b60008484015250505050565b6000611eee82611e9d565b611ef88185611ea8565b9350611f08818560208601611eb9565b611f1181611c67565b840191505092915050565b611f2581611da3565b82525050565b611f3481611bbc565b82525050565b600060e0820190508181036000830152611f54818a611ee3565b9050611f636020830189611f1c565b611f706040830188611f1c565b611f7d6060830187611f1c565b611f8a6080830186611f2b565b611f9760a0830185611c33565b611fa460c0830184611f1c565b98975050505050505050565b600081519050919050565b600082825260208201905092915050565b6000819050602082019050919050565b600082825260208201905092915050565b6000611ff882611e9d565b6120028185611fdc565b9350612012818560208601611eb9565b61201b81611c67565b840191505092915050565b61202f81611da3565b82525050565b61203e81611bbc565b82525050565b61204d81611c27565b82525050565b600060e08301600083015184820360008601526120708282611fed565b91505060208301516120856020860182612026565b5060408301516120986040860182612026565b5060608301516120ab6060860182612026565b5060808301516120be6080860182612035565b5060a08301516120d160a0860182612044565b5060c08301516120e460c0860182612026565b508091505092915050565b60006120fb8383612053565b905092915050565b6000602082019050919050565b600061211b82611fb0565b6121258185611fbb565b93508360208202850161213785611fcc565b8060005b85811015612173578484038952815161215485826120ef565b945061215f83612103565b925060208a0199505060018101905061213b565b50829750879550505050505092915050565b6000602082019050818103600083015261219f8184612110565b905092915050565b6121b081611c27565b81146121bb57600080fd5b50565b6000813590506121cd816121a7565b92915050565b600080604083850312156121ea576121e9611b92565b5b60006121f885828601611be5565b9250506020612209858286016121be565b9150509250929050565b60006020820190506122286000830184611f1c565b92915050565b6000819050919050565b600061225361224e61224984611b9c565b61222e565b611b9c565b9050919050565b600061226582612238565b9050919050565b60006122778261225a565b9050919050565b6122878161226c565b82525050565b60006020820190506122a2600083018461227e565b92915050565b60006122b38261225a565b9050919050565b6122c3816122a8565b82525050565b60006020820190506122de60008301846122ba565b92915050565b60006020820190506122f96000830184611f2b565b92915050565b600061230a8261225a565b9050919050565b61231a816122ff565b82525050565b60006020820190506123356000830184612311565b92915050565b600060e08301600083015184820360008601526123588282611fed565b915050602083015161236d6020860182612026565b5060408301516123806040860182612026565b5060608301516123936060860182612026565b5060808301516123a66080860182612035565b5060a08301516123b960a0860182612044565b5060c08301516123cc60c0860182612026565b508091505092915050565b600060208201905081810360008301526123f1818461233b565b905092915050565b600060e08201905061240e600083018a611f1c565b61241b6020830189611f1c565b6124286040830188611f1c565b6124356060830187611f1c565b6124426080830186611f1c565b61244f60a0830185611f1c565b61245c60c0830184611f1c565b98975050505050505050565b60008060006060848603121561248157612480611b92565b5b600061248f86828701611dc4565b93505060206124a086828701611dc4565b92505060406124b186828701611dc4565b9150509250925092565b7f4f6e6c7920416d696e732063616e2063616c6c20746869732066756e6374696f60008201527f6e00000000000000000000000000000000000000000000000000000000000000602082015250565b6000612517602183611ea8565b9150612522826124bb565b604082019050919050565b600060208201905081810360008301526125468161250a565b9050919050565b7f52616e6b20646f65736e74206578697374000000000000000000000000000000600082015250565b6000612583601183611ea8565b915061258e8261254d565b602082019050919050565b600060208201905081810360008301526125b281612576565b9050919050565b7f4e487b7100000000000000000000000000000000000000000000000000000000600052602260045260246000fd5b6000600282049050600182168061260057607f821691505b602082108103612613576126126125b9565b5b50919050565b60008190508160005260206000209050919050565b60006020601f8301049050919050565b600082821b905092915050565b60006008830261267b7fffffffffffffffffffffffffffffffffffffffffffffffffffffffffffffffff8261263e565b612685868361263e565b95508019841693508086168417925050509392505050565b60006126b86126b36126ae84611da3565b61222e565b611da3565b9050919050565b6000819050919050565b6126d28361269d565b6126e66126de826126bf565b84845461264b565b825550505050565b600090565b6126fb6126ee565b6127068184846126c9565b505050565b5b8181101561272a5761271f6000826126f3565b60018101905061270c565b5050565b601f82111561276f5761274081612619565b6127498461262e565b81016020851015612758578190505b61276c6127648561262e565b83018261270b565b50505b505050565b600082821c905092915050565b600061279260001984600802612774565b1980831691505092915050565b60006127ab8383612781565b9150826002028217905092915050565b6127c482611e9d565b67ffffffffffffffff8111156127dd576127dc611c78565b5b6127e782546125e8565b6127f282828561272e565b600060209050601f8311600181146128255760008415612813578287015190505b61281d858261279f565b865550612885565b601f19841661283386612619565b60005b8281101561285b57848901518255600182019150602085019450602081019050612836565b868310156128785784890151612874601f891682612781565b8355505b6001600288020188555050505b505050505050565b7f4e487b7100000000000000000000000000000000000000000000000000000000600052603260045260246000fd5b7f4e487b7100000000000000000000000000000000000000000000000000000000600052601160045260246000fd5b60006128f682611da3565b915061290183611da3565b9250828201905080821115612919576129186128bc565b5b92915050565b60006040820190506129346000830185611f2b565b6129416020830184611f1c565b9392505050565b600081905092915050565b600061295e82611e9d565b6129688185612948565b9350612978818560208601611eb9565b80840191505092915050565b60006129908284612953565b915081905092915050565b60006060820190506129b06000830186611f1c565b6129bd6020830185611f1c565b6129ca6040830184611f1c565b949350505050565b60006129dd82611da3565b91506129e883611da3565b9250828203905081811115612a00576129ff6128bc565b5b92915050565b7f4e487b7100000000000000000000000000000000000000000000000000000000600052601260045260246000fd5b6000612a4082611da3565b9150612a4b83611da3565b925082612a5b57612a5a612a06565b5b828204905092915050565b60008154612a73816125e8565b612a7d8186611ea8565b94506001821660008114612a985760018114612aae57612ae1565b60ff198316865281151560200286019350612ae1565b612ab785612619565b60005b83811015612ad957815481890152600182019150602081019050612aba565b808801955050505b50505092915050565b60006060820190508181036000830152612b048186612a66565b9050612b136020830185611f2b565b612b206040830184611f1c565b949350505050565b6000612b3382611da3565b91507fffffffffffffffffffffffffffffffffffffffffffffffffffffffffffffffff8203612b6557612b646128bc565b5b600182019050919050565b600081519050612b7f81611dad565b92915050565b600060208284031215612b9b57612b9a611b92565b5b6000612ba984828501612b70565b91505092915050565b7f456d706c6f79656520494420646f6573206e6f74206578697374000000000000600082015250565b6000612be8601a83611ea8565b9150612bf382612bb2565b602082019050919050565b60006020820190508181036000830152612c1781612bdb565b9050919050565b60006080820190508181036000830152612c388187612a66565b9050612c476020830186611f1c565b612c546040830185611f1c565b612c616060830184611f1c565b95945050505050565b6000612c7582611da3565b9150612c8083611da3565b9250828202612c8e81611da3565b91508282048414831517612ca557612ca46128bc565b5b5092915050565b6000819050919050565b6000612cd1612ccc612cc784612cac565b61222e565b611da3565b9050919050565b612ce181612cb6565b82525050565b6000606082019050612cfc6000830186611f2b565b612d096020830185611f1c565b612d166040830184612cd8565b949350505050565b6000819050919050565b6000612d43612d3e612d3984612d1e565b61222e565b611da3565b9050919050565b612d5381612d28565b82525050565b6000604082019050612d6e6000830185611f2b565b612d7b6020830184612d4a565b9392505050565b7f4f776e61626c653a206e6577206f776e657220697320746865207a65726f206160008201527f6464726573730000000000000000000000000000000000000000000000000000602082015250565b6000612dde602683611ea8565b9150612de982612d82565b604082019050919050565b60006020820190508181036000830152612e0d81612dd1565b9050919050565b7f43616e6e6f742064656d6f746520656d706c6f79656500000000000000000000600082015250565b6000612e4a601683611ea8565b9150612e5582612e14565b602082019050919050565b60006020820190508181036000830152612e7981612e3d565b9050919050565b7f546869732072616e6b20646f656e737420657869737400000000000000000000600082015250565b6000612eb6601683611ea8565b9150612ec182612e80565b602082019050919050565b60006020820190508181036000830152612ee581612ea9565b9050919050565b6000604082019050612f016000830185611f1c565b612f0e6020830184611f1c565b9392505050565b7f4f776e61626c653a2063616c6c6572206973206e6f7420746865206f776e6572600082015250565b6000612f4b602083611ea8565b9150612f5682612f15565b602082019050919050565b60006020820190508181036000830152612f7a81612f3e565b905091905056fea26469706673582212203b69e945c4ae99374f7102c99f3f11053b082a082a30f754780756e28e84998164736f6c63430008110033",
  "linkReferences": {},
  "deployedLinkReferences": {}
}