{
  "_format": "hh-sol-artifact-1",
  "contractName": "VotingDAO",
  "sourceName": "contracts/VotingDAO.sol",
  "abi": [
    {
      "anonymous": false,
      "inputs": [
        {
          "indexed": false,
          "internalType": "address",
          "name": "employee",
          "type": "address"
        },
        {
          "indexed": false,
          "internalType": "uint256",
          "name": "month",
          "type": "uint256"
        }
      ],
      "name": "EmployeeOfTheMonth",
      "type": "event"
    },
    {
      "anonymous": false,
      "inputs": [
        {
          "indexed": true,
          "internalType": "address",
          "name": "previousOwner",
          "type": "address"
        },
        {
          "indexed": true,
          "internalType": "address",
          "name": "newOwner",
          "type": "address"
        }
      ],
      "name": "OwnershipTransferred",
      "type": "event"
    },
    {
      "anonymous": false,
      "inputs": [
        {
          "indexed": false,
          "internalType": "address",
          "name": "votee",
          "type": "address"
        },
        {
          "indexed": false,
          "internalType": "address",
          "name": "receiver",
          "type": "address"
        }
      ],
      "name": "VoteComputed",
      "type": "event"
    },
    {
      "anonymous": false,
      "inputs": [
        {
          "indexed": false,
          "internalType": "uint256",
          "name": "month",
          "type": "uint256"
        }
      ],
      "name": "VotingClosed",
      "type": "event"
    },
    {
      "anonymous": false,
      "inputs": [
        {
          "indexed": false,
          "internalType": "uint256",
          "name": "month",
          "type": "uint256"
        }
      ],
      "name": "VotingCreate",
      "type": "event"
    },
    {
      "inputs": [
        {
          "internalType": "address",
          "name": "_candidate1",
          "type": "address"
        },
        {
          "internalType": "address",
          "name": "_candidate2",
          "type": "address"
        },
        {
          "internalType": "address",
          "name": "_candidate3",
          "type": "address"
        }
      ],
      "name": "createNewVoting",
      "outputs": [],
      "stateMutability": "nonpayable",
      "type": "function"
    },
    {
      "inputs": [],
      "name": "endVoting",
      "outputs": [],
      "stateMutability": "nonpayable",
      "type": "function"
    },
    {
      "inputs": [],
      "name": "getPreviousEmployeeOfTheMonth",
      "outputs": [
        {
          "internalType": "address",
          "name": "",
          "type": "address"
        }
      ],
      "stateMutability": "view",
      "type": "function"
    },
    {
      "inputs": [
        {
          "internalType": "uint256",
          "name": "_month",
          "type": "uint256"
        }
      ],
      "name": "getVotingCandidatesByMonth",
      "outputs": [
        {
          "internalType": "address[]",
          "name": "",
          "type": "address[]"
        }
      ],
      "stateMutability": "view",
      "type": "function"
    },
    {
      "inputs": [
        {
          "internalType": "uint256",
          "name": "_month",
          "type": "uint256"
        },
        {
          "internalType": "address",
          "name": "_voter",
          "type": "address"
        }
      ],
      "name": "hasVoted",
      "outputs": [
        {
          "internalType": "bool",
          "name": "",
          "type": "bool"
        }
      ],
      "stateMutability": "view",
      "type": "function"
    },
    {
      "inputs": [],
      "name": "owner",
      "outputs": [
        {
          "internalType": "address",
          "name": "",
          "type": "address"
        }
      ],
      "stateMutability": "view",
      "type": "function"
    },
    {
      "inputs": [],
      "name": "renounceOwnership",
      "outputs": [],
      "stateMutability": "nonpayable",
      "type": "function"
    },
    {
      "inputs": [
        {
          "internalType": "address",
          "name": "newOwner",
          "type": "address"
        }
      ],
      "name": "transferOwnership",
      "outputs": [],
      "stateMutability": "nonpayable",
      "type": "function"
    },
    {
      "inputs": [
        {
          "internalType": "uint256",
          "name": "_chosenEmployee",
          "type": "uint256"
        },
        {
          "internalType": "address",
          "name": "_voter",
          "type": "address"
        }
      ],
      "name": "vote",
      "outputs": [],
      "stateMutability": "nonpayable",
      "type": "function"
    },
    {
      "inputs": [],
      "name": "votingCounter",
      "outputs": [
        {
          "internalType": "uint256",
          "name": "",
          "type": "uint256"
        }
      ],
      "stateMutability": "view",
      "type": "function"
    },
    {
      "inputs": [
        {
          "internalType": "uint256",
          "name": "",
          "type": "uint256"
        }
      ],
      "name": "votingRegistry",
      "outputs": [
        {
          "internalType": "bool",
          "name": "isActive",
          "type": "bool"
        },
        {
          "internalType": "uint256",
          "name": "month",
          "type": "uint256"
        },
        {
          "internalType": "address",
          "name": "employeeOfTheMonth",
          "type": "address"
        }
      ],
      "stateMutability": "view",
      "type": "function"
    }
  ],
  "bytecode": "0x608060405234801561001057600080fd5b5061002d61002261003260201b60201c565b61003a60201b60201c565b6100fe565b600033905090565b60008060009054906101000a900473ffffffffffffffffffffffffffffffffffffffff169050816000806101000a81548173ffffffffffffffffffffffffffffffffffffffff021916908373ffffffffffffffffffffffffffffffffffffffff1602179055508173ffffffffffffffffffffffffffffffffffffffff168173ffffffffffffffffffffffffffffffffffffffff167f8be0079c531659141344cd1fd0a4f28419497f9722a3daafe3b4186f6b6457e060405160405180910390a35050565b61177c8061010d6000396000f3fe608060405234801561001057600080fd5b50600436106100a95760003560e01c8063641b1a3411610071578063641b1a3414610152578063715018a6146101825780637ec00ca31461018c5780638da5cb5b146101be578063c3403ddf146101dc578063f2fde38b146101e6576100a9565b806302d947ef146100ae5780631780fe20146100ca57806343859632146100e8578063496808ee1461011857806354bab50b14610136575b600080fd5b6100c860048036038101906100c39190611081565b610202565b005b6100d26105b9565b6040516100df91906110d0565b60405180910390f35b61010260048036038101906100fd9190611081565b6105bf565b60405161010f9190611106565b60405180910390f35b61012061062f565b60405161012d9190611130565b60405180910390f35b610150600480360381019061014b919061114b565b61067f565b005b61016c6004803603810190610167919061119e565b610943565b6040516101799190611289565b60405180910390f35b61018a6109ed565b005b6101a660048036038101906101a1919061119e565b610a01565b6040516101b5939291906112ab565b60405180910390f35b6101c6610a58565b6040516101d39190611130565b60405180910390f35b6101e4610a81565b005b61020060048036038101906101fb91906112e2565b610b7b565b005b61020a610bfe565b60026000600154815260200190815260200160002060000160009054906101000a900460ff1661026f576040517f08c379a000000000000000000000000000000000000000000000000000000000815260040161026690611392565b60405180910390fd5b60026000600154815260200190815260200160002060030160008273ffffffffffffffffffffffffffffffffffffffff1673ffffffffffffffffffffffffffffffffffffffff16815260200190815260200160002060009054906101000a900460ff1615610312576040517f08c379a0000000000000000000000000000000000000000000000000000000008152600401610309906113fe565b60405180910390fd5b60006002600060015481526020019081526020016000206006018054806020026020016040519081016040528092919081815260200182805480156103ac57602002820191906000526020600020905b8160009054906101000a900473ffffffffffffffffffffffffffffffffffffffff1673ffffffffffffffffffffffffffffffffffffffff1681526020019060010190808311610362575b50505050509050600383106103c057600080fd5b60026000600154815260200190815260200160002060050160008285815181106103ed576103ec61141e565b5b602002602001015173ffffffffffffffffffffffffffffffffffffffff1673ffffffffffffffffffffffffffffffffffffffff16815260200190815260200160002060008154809291906104409061147c565b91905055508083815181106104585761045761141e565b5b602002602001015160026000600154815260200190815260200160002060040160008473ffffffffffffffffffffffffffffffffffffffff1673ffffffffffffffffffffffffffffffffffffffff16815260200190815260200160002060006101000a81548173ffffffffffffffffffffffffffffffffffffffff021916908373ffffffffffffffffffffffffffffffffffffffff160217905550600160026000600154815260200190815260200160002060030160008473ffffffffffffffffffffffffffffffffffffffff1673ffffffffffffffffffffffffffffffffffffffff16815260200190815260200160002060006101000a81548160ff0219169083151502179055507f5c2c9366c8327e33d7e6d04624947e3d429e0faa0d75e85c829df7d20a0b7561828285815181106105965761059561141e565b5b60200260200101516040516105ac9291906114c4565b60405180910390a1505050565b60015481565b6000806002600085815260200190815260200160002060030160008473ffffffffffffffffffffffffffffffffffffffff1673ffffffffffffffffffffffffffffffffffffffff16815260200190815260200160002060009054906101000a900460ff1690508091505092915050565b600080600260006001805461064491906114ed565b815260200190815260200160002090508060020160009054906101000a900473ffffffffffffffffffffffffffffffffffffffff1691505090565b610687610bfe565b60026000600154815260200190815260200160002060000160009054906101000a900460ff16156106ed576040517f08c379a00000000000000000000000000000000000000000000000000000000081526004016106e490611593565b60405180910390fd5b8173ffffffffffffffffffffffffffffffffffffffff168373ffffffffffffffffffffffffffffffffffffffff161415801561075557508073ffffffffffffffffffffffffffffffffffffffff168273ffffffffffffffffffffffffffffffffffffffff1614155b610794576040517f08c379a000000000000000000000000000000000000000000000000000000000815260040161078b906115ff565b60405180910390fd5b60006002600060015481526020019081526020016000209050600154816001018190555060018160000160006101000a81548160ff02191690831515021790555080600601849080600181540180825580915050600190039060005260206000200160009091909190916101000a81548173ffffffffffffffffffffffffffffffffffffffff021916908373ffffffffffffffffffffffffffffffffffffffff16021790555080600601839080600181540180825580915050600190039060005260206000200160009091909190916101000a81548173ffffffffffffffffffffffffffffffffffffffff021916908373ffffffffffffffffffffffffffffffffffffffff16021790555080600601829080600181540180825580915050600190039060005260206000200160009091909190916101000a81548173ffffffffffffffffffffffffffffffffffffffff021916908373ffffffffffffffffffffffffffffffffffffffff1602179055507f42bc106f3aad1018a2a0ea20e5ca2a7778d699a328397084e4ffcf53ae90638560015460405161093591906110d0565b60405180910390a150505050565b60606000600260008481526020019081526020016000206006018054806020026020016040519081016040528092919081815260200182805480156109dd57602002820191906000526020600020905b8160009054906101000a900473ffffffffffffffffffffffffffffffffffffffff1673ffffffffffffffffffffffffffffffffffffffff1681526020019060010190808311610993575b5050505050905080915050919050565b6109f5610bfe565b6109ff6000610c7c565b565b60026020528060005260406000206000915090508060000160009054906101000a900460ff16908060010154908060020160009054906101000a900473ffffffffffffffffffffffffffffffffffffffff16905083565b60008060009054906101000a900473ffffffffffffffffffffffffffffffffffffffff16905090565b610a89610bfe565b60026000600154815260200190815260200160002060000160009054906101000a900460ff16610aee576040517f08c379a0000000000000000000000000000000000000000000000000000000008152600401610ae590611392565b60405180910390fd5b600060026000600154815260200190815260200160002060000160006101000a81548160ff021916908315150217905550610b27610d40565b507f8e9b46a70b3967bc9ea56ca61732c363a191fac88ae3ba011f4e030711c90117600154604051610b5991906110d0565b60405180910390a160016000815480929190610b749061147c565b9190505550565b610b83610bfe565b600073ffffffffffffffffffffffffffffffffffffffff168173ffffffffffffffffffffffffffffffffffffffff1603610bf2576040517f08c379a0000000000000000000000000000000000000000000000000000000008152600401610be990611691565b60405180910390fd5b610bfb81610c7c565b50565b610c06610fe0565b73ffffffffffffffffffffffffffffffffffffffff16610c24610a58565b73ffffffffffffffffffffffffffffffffffffffff1614610c7a576040517f08c379a0000000000000000000000000000000000000000000000000000000008152600401610c71906116fd565b60405180910390fd5b565b60008060009054906101000a900473ffffffffffffffffffffffffffffffffffffffff169050816000806101000a81548173ffffffffffffffffffffffffffffffffffffffff021916908373ffffffffffffffffffffffffffffffffffffffff1602179055508173ffffffffffffffffffffffffffffffffffffffff168173ffffffffffffffffffffffffffffffffffffffff167f8be0079c531659141344cd1fd0a4f28419497f9722a3daafe3b4186f6b6457e060405160405180910390a35050565b6000806002600060015481526020019081526020016000206006019050600081600081548110610d7357610d7261141e565b5b9060005260206000200160009054906101000a900473ffffffffffffffffffffffffffffffffffffffff1690506000600190505b8280549050811015610f0d5760026000600154815260200190815260200160002060050160008373ffffffffffffffffffffffffffffffffffffffff1673ffffffffffffffffffffffffffffffffffffffff168152602001908152602001600020546002600060015481526020019081526020016000206005016000858481548110610e3657610e3561141e565b5b9060005260206000200160009054906101000a900473ffffffffffffffffffffffffffffffffffffffff1673ffffffffffffffffffffffffffffffffffffffff1673ffffffffffffffffffffffffffffffffffffffff168152602001908152602001600020541115610efa576002600060015481526020019081526020016000206006018181548110610ecc57610ecb61141e565b5b9060005260206000200160009054906101000a900473ffffffffffffffffffffffffffffffffffffffff1691505b8080610f059061147c565b915050610da7565b508060026000600154815260200190815260200160002060020160006101000a81548173ffffffffffffffffffffffffffffffffffffffff021916908373ffffffffffffffffffffffffffffffffffffffff1602179055507f6851850b6f1d092c251cf246c157ca32716f67fd2ab2edbbbf27b424bc7f100281600154604051610f9892919061171d565b60405180910390a160026000600154815260200190815260200160002060020160009054906101000a900473ffffffffffffffffffffffffffffffffffffffff169250505090565b600033905090565b600080fd5b6000819050919050565b61100081610fed565b811461100b57600080fd5b50565b60008135905061101d81610ff7565b92915050565b600073ffffffffffffffffffffffffffffffffffffffff82169050919050565b600061104e82611023565b9050919050565b61105e81611043565b811461106957600080fd5b50565b60008135905061107b81611055565b92915050565b6000806040838503121561109857611097610fe8565b5b60006110a68582860161100e565b92505060206110b78582860161106c565b9150509250929050565b6110ca81610fed565b82525050565b60006020820190506110e560008301846110c1565b92915050565b60008115159050919050565b611100816110eb565b82525050565b600060208201905061111b60008301846110f7565b92915050565b61112a81611043565b82525050565b60006020820190506111456000830184611121565b92915050565b60008060006060848603121561116457611163610fe8565b5b60006111728682870161106c565b93505060206111838682870161106c565b92505060406111948682870161106c565b9150509250925092565b6000602082840312156111b4576111b3610fe8565b5b60006111c28482850161100e565b91505092915050565b600081519050919050565b600082825260208201905092915050565b6000819050602082019050919050565b61120081611043565b82525050565b600061121283836111f7565b60208301905092915050565b6000602082019050919050565b6000611236826111cb565b61124081856111d6565b935061124b836111e7565b8060005b8381101561127c5781516112638882611206565b975061126e8361121e565b92505060018101905061124f565b5085935050505092915050565b600060208201905081810360008301526112a3818461122b565b905092915050565b60006060820190506112c060008301866110f7565b6112cd60208301856110c1565b6112da6040830184611121565b949350505050565b6000602082840312156112f8576112f7610fe8565b5b60006113068482850161106c565b91505092915050565b600082825260208201905092915050565b7f4e6f20766f74696e672073656374696f6e20616374697665206174207468652060008201527f6d6f6d656e742e00000000000000000000000000000000000000000000000000602082015250565b600061137c60278361130f565b915061138782611320565b604082019050919050565b600060208201905081810360008301526113ab8161136f565b9050919050565b7f596f752063616e206f6e6c7920766f7465206f6e63652e000000000000000000600082015250565b60006113e860178361130f565b91506113f3826113b2565b602082019050919050565b60006020820190508181036000830152611417816113db565b9050919050565b7f4e487b7100000000000000000000000000000000000000000000000000000000600052603260045260246000fd5b7f4e487b7100000000000000000000000000000000000000000000000000000000600052601160045260246000fd5b600061148782610fed565b91507fffffffffffffffffffffffffffffffffffffffffffffffffffffffffffffffff82036114b9576114b861144d565b5b600182019050919050565b60006040820190506114d96000830185611121565b6114e66020830184611121565b9392505050565b60006114f882610fed565b915061150383610fed565b925082820390508181111561151b5761151a61144d565b5b92915050565b7f4120766f74696e672073656374696f6e20697320616c7265616479206c69766560008201527f2100000000000000000000000000000000000000000000000000000000000000602082015250565b600061157d60218361130f565b915061158882611521565b604082019050919050565b600060208201905081810360008301526115ac81611570565b9050919050565b7f4475706c69636174652043616e64696461746573000000000000000000000000600082015250565b60006115e960148361130f565b91506115f4826115b3565b602082019050919050565b60006020820190508181036000830152611618816115dc565b9050919050565b7f4f776e61626c653a206e6577206f776e657220697320746865207a65726f206160008201527f6464726573730000000000000000000000000000000000000000000000000000602082015250565b600061167b60268361130f565b91506116868261161f565b604082019050919050565b600060208201905081810360008301526116aa8161166e565b9050919050565b7f4f776e61626c653a2063616c6c6572206973206e6f7420746865206f776e6572600082015250565b60006116e760208361130f565b91506116f2826116b1565b602082019050919050565b60006020820190508181036000830152611716816116da565b9050919050565b60006040820190506117326000830185611121565b61173f60208301846110c1565b939250505056fea2646970667358221220ce8e0cbc56da5f9be70fa640b4fec76b5aced5b7b94ad8e04f145522c0259daa64736f6c63430008110033",
  "linkReferences": {},
  "deployedLinkReferences": {}
}