{
  "_format": "hh-sol-artifact-1",
  "contractName": "VotingDAO",
  "sourceName": "contracts/VotingDAO.sol",
  "abi": [
    {
      "anonymous": false,
      "inputs": [
        {
          "indexed": false,
          "internalType": "address",
          "name": "employee",
          "type": "address"
        },
        {
          "indexed": false,
          "internalType": "uint256",
          "name": "month",
          "type": "uint256"
        }
      ],
      "name": "EmployeeOfTheMonth",
      "type": "event"
    },
    {
      "anonymous": false,
      "inputs": [
        {
          "indexed": true,
          "internalType": "address",
          "name": "previousOwner",
          "type": "address"
        },
        {
          "indexed": true,
          "internalType": "address",
          "name": "newOwner",
          "type": "address"
        }
      ],
      "name": "OwnershipTransferred",
      "type": "event"
    },
    {
      "anonymous": false,
      "inputs": [
        {
          "indexed": false,
          "internalType": "address",
          "name": "votee",
          "type": "address"
        },
        {
          "indexed": false,
          "internalType": "address",
          "name": "receiver",
          "type": "address"
        }
      ],
      "name": "VoteComputed",
      "type": "event"
    },
    {
      "anonymous": false,
      "inputs": [
        {
          "indexed": false,
          "internalType": "uint256",
          "name": "month",
          "type": "uint256"
        }
      ],
      "name": "VotingClosed",
      "type": "event"
    },
    {
      "anonymous": false,
      "inputs": [
        {
          "indexed": false,
          "internalType": "uint256",
          "name": "month",
          "type": "uint256"
        }
      ],
      "name": "VotingCreate",
      "type": "event"
    },
    {
      "inputs": [
        {
          "internalType": "uint256",
          "name": "_month",
          "type": "uint256"
        },
        {
          "internalType": "address",
          "name": "_candidate1",
          "type": "address"
        },
        {
          "internalType": "address",
          "name": "_candidate2",
          "type": "address"
        },
        {
          "internalType": "address",
          "name": "_candidate3",
          "type": "address"
        }
      ],
      "name": "createNewVoting",
      "outputs": [],
      "stateMutability": "nonpayable",
      "type": "function"
    },
    {
      "inputs": [],
      "name": "endVoting",
      "outputs": [],
      "stateMutability": "nonpayable",
      "type": "function"
    },
    {
      "inputs": [
        {
          "internalType": "uint256",
          "name": "_month",
          "type": "uint256"
        }
      ],
      "name": "getVotingCandidatesByMonth",
      "outputs": [
        {
          "internalType": "address[]",
          "name": "",
          "type": "address[]"
        }
      ],
      "stateMutability": "view",
      "type": "function"
    },
    {
      "inputs": [
        {
          "internalType": "uint256",
          "name": "_month",
          "type": "uint256"
        },
        {
          "internalType": "address",
          "name": "_voter",
          "type": "address"
        }
      ],
      "name": "hasVoted",
      "outputs": [
        {
          "internalType": "bool",
          "name": "",
          "type": "bool"
        }
      ],
      "stateMutability": "view",
      "type": "function"
    },
    {
      "inputs": [],
      "name": "owner",
      "outputs": [
        {
          "internalType": "address",
          "name": "",
          "type": "address"
        }
      ],
      "stateMutability": "view",
      "type": "function"
    },
    {
      "inputs": [],
      "name": "renounceOwnership",
      "outputs": [],
      "stateMutability": "nonpayable",
      "type": "function"
    },
    {
      "inputs": [
        {
          "internalType": "address",
          "name": "newOwner",
          "type": "address"
        }
      ],
      "name": "transferOwnership",
      "outputs": [],
      "stateMutability": "nonpayable",
      "type": "function"
    },
    {
      "inputs": [
        {
          "internalType": "uint256",
          "name": "_chosenEmployee",
          "type": "uint256"
        },
        {
          "internalType": "address",
          "name": "_voter",
          "type": "address"
        }
      ],
      "name": "vote",
      "outputs": [],
      "stateMutability": "nonpayable",
      "type": "function"
    },
    {
      "inputs": [],
      "name": "votingCounter",
      "outputs": [
        {
          "internalType": "uint256",
          "name": "",
          "type": "uint256"
        }
      ],
      "stateMutability": "view",
      "type": "function"
    },
    {
      "inputs": [
        {
          "internalType": "uint256",
          "name": "",
          "type": "uint256"
        }
      ],
      "name": "votingRegistry",
      "outputs": [
        {
          "internalType": "bool",
          "name": "isActive",
          "type": "bool"
        },
        {
          "internalType": "uint256",
          "name": "month",
          "type": "uint256"
        },
        {
          "internalType": "address",
          "name": "employeeOfTheMonth",
          "type": "address"
        }
      ],
      "stateMutability": "view",
      "type": "function"
    }
  ],
  "bytecode": "0x608060405234801561001057600080fd5b5061002d61002261003260201b60201c565b61003a60201b60201c565b6100fe565b600033905090565b60008060009054906101000a900473ffffffffffffffffffffffffffffffffffffffff169050816000806101000a81548173ffffffffffffffffffffffffffffffffffffffff021916908373ffffffffffffffffffffffffffffffffffffffff1602179055508173ffffffffffffffffffffffffffffffffffffffff168173ffffffffffffffffffffffffffffffffffffffff167f8be0079c531659141344cd1fd0a4f28419497f9722a3daafe3b4186f6b6457e060405160405180910390a35050565b6116e08061010d6000396000f3fe608060405234801561001057600080fd5b506004361061009e5760003560e01c80637ec00ca3116100665780637ec00ca3146101475780638da5cb5b14610179578063c3403ddf14610197578063e9cca620146101a1578063f2fde38b146101bd5761009e565b806302d947ef146100a35780631780fe20146100bf57806343859632146100dd578063641b1a341461010d578063715018a61461013d575b600080fd5b6100bd60048036038101906100b89190611005565b6101d9565b005b6100c7610590565b6040516100d49190611054565b60405180910390f35b6100f760048036038101906100f29190611005565b610596565b604051610104919061108a565b60405180910390f35b610127600480360381019061012291906110a5565b610606565b6040516101349190611190565b60405180910390f35b6101456106b0565b005b610161600480360381019061015c91906110a5565b6106c4565b604051610170939291906111c1565b60405180910390f35b61018161071b565b60405161018e91906111f8565b60405180910390f35b61019f610744565b005b6101bb60048036038101906101b69190611213565b61083e565b005b6101d760048036038101906101d2919061127a565b610aff565b005b6101e1610b82565b60026000600154815260200190815260200160002060000160009054906101000a900460ff16610246576040517f08c379a000000000000000000000000000000000000000000000000000000000815260040161023d9061132a565b60405180910390fd5b60026000600154815260200190815260200160002060030160008273ffffffffffffffffffffffffffffffffffffffff1673ffffffffffffffffffffffffffffffffffffffff16815260200190815260200160002060009054906101000a900460ff16156102e9576040517f08c379a00000000000000000000000000000000000000000000000000000000081526004016102e090611396565b60405180910390fd5b600060026000600154815260200190815260200160002060060180548060200260200160405190810160405280929190818152602001828054801561038357602002820191906000526020600020905b8160009054906101000a900473ffffffffffffffffffffffffffffffffffffffff1673ffffffffffffffffffffffffffffffffffffffff1681526020019060010190808311610339575b505050505090506003831061039757600080fd5b60026000600154815260200190815260200160002060050160008285815181106103c4576103c36113b6565b5b602002602001015173ffffffffffffffffffffffffffffffffffffffff1673ffffffffffffffffffffffffffffffffffffffff168152602001908152602001600020600081548092919061041790611414565b919050555080838151811061042f5761042e6113b6565b5b602002602001015160026000600154815260200190815260200160002060040160008473ffffffffffffffffffffffffffffffffffffffff1673ffffffffffffffffffffffffffffffffffffffff16815260200190815260200160002060006101000a81548173ffffffffffffffffffffffffffffffffffffffff021916908373ffffffffffffffffffffffffffffffffffffffff160217905550600160026000600154815260200190815260200160002060030160008473ffffffffffffffffffffffffffffffffffffffff1673ffffffffffffffffffffffffffffffffffffffff16815260200190815260200160002060006101000a81548160ff0219169083151502179055507f5c2c9366c8327e33d7e6d04624947e3d429e0faa0d75e85c829df7d20a0b75618282858151811061056d5761056c6113b6565b5b602002602001015160405161058392919061145c565b60405180910390a1505050565b60015481565b6000806002600085815260200190815260200160002060030160008473ffffffffffffffffffffffffffffffffffffffff1673ffffffffffffffffffffffffffffffffffffffff16815260200190815260200160002060009054906101000a900460ff1690508091505092915050565b60606000600260008481526020019081526020016000206006018054806020026020016040519081016040528092919081815260200182805480156106a057602002820191906000526020600020905b8160009054906101000a900473ffffffffffffffffffffffffffffffffffffffff1673ffffffffffffffffffffffffffffffffffffffff1681526020019060010190808311610656575b5050505050905080915050919050565b6106b8610b82565b6106c26000610c00565b565b60026020528060005260406000206000915090508060000160009054906101000a900460ff16908060010154908060020160009054906101000a900473ffffffffffffffffffffffffffffffffffffffff16905083565b60008060009054906101000a900473ffffffffffffffffffffffffffffffffffffffff16905090565b61074c610b82565b60026000600154815260200190815260200160002060000160009054906101000a900460ff166107b1576040517f08c379a00000000000000000000000000000000000000000000000000000000081526004016107a89061132a565b60405180910390fd5b600060026000600154815260200190815260200160002060000160006101000a81548160ff0219169083151502179055506107ea610cc4565b507f8e9b46a70b3967bc9ea56ca61732c363a191fac88ae3ba011f4e030711c9011760015460405161081c9190611054565b60405180910390a16001600081548092919061083790611414565b9190505550565b610846610b82565b60026000600154815260200190815260200160002060000160009054906101000a900460ff16156108ac576040517f08c379a00000000000000000000000000000000000000000000000000000000081526004016108a3906114f7565b60405180910390fd5b8173ffffffffffffffffffffffffffffffffffffffff168373ffffffffffffffffffffffffffffffffffffffff161415801561091457508073ffffffffffffffffffffffffffffffffffffffff168273ffffffffffffffffffffffffffffffffffffffff1614155b610953576040517f08c379a000000000000000000000000000000000000000000000000000000000815260040161094a90611563565b60405180910390fd5b6000600260006001548152602001908152602001600020905084816001018190555060018160000160006101000a81548160ff02191690831515021790555080600601849080600181540180825580915050600190039060005260206000200160009091909190916101000a81548173ffffffffffffffffffffffffffffffffffffffff021916908373ffffffffffffffffffffffffffffffffffffffff16021790555080600601839080600181540180825580915050600190039060005260206000200160009091909190916101000a81548173ffffffffffffffffffffffffffffffffffffffff021916908373ffffffffffffffffffffffffffffffffffffffff16021790555080600601829080600181540180825580915050600190039060005260206000200160009091909190916101000a81548173ffffffffffffffffffffffffffffffffffffffff021916908373ffffffffffffffffffffffffffffffffffffffff1602179055507f42bc106f3aad1018a2a0ea20e5ca2a7778d699a328397084e4ffcf53ae90638585604051610af09190611054565b60405180910390a15050505050565b610b07610b82565b600073ffffffffffffffffffffffffffffffffffffffff168173ffffffffffffffffffffffffffffffffffffffff1603610b76576040517f08c379a0000000000000000000000000000000000000000000000000000000008152600401610b6d906115f5565b60405180910390fd5b610b7f81610c00565b50565b610b8a610f64565b73ffffffffffffffffffffffffffffffffffffffff16610ba861071b565b73ffffffffffffffffffffffffffffffffffffffff1614610bfe576040517f08c379a0000000000000000000000000000000000000000000000000000000008152600401610bf590611661565b60405180910390fd5b565b60008060009054906101000a900473ffffffffffffffffffffffffffffffffffffffff169050816000806101000a81548173ffffffffffffffffffffffffffffffffffffffff021916908373ffffffffffffffffffffffffffffffffffffffff1602179055508173ffffffffffffffffffffffffffffffffffffffff168173ffffffffffffffffffffffffffffffffffffffff167f8be0079c531659141344cd1fd0a4f28419497f9722a3daafe3b4186f6b6457e060405160405180910390a35050565b6000806002600060015481526020019081526020016000206006019050600081600081548110610cf757610cf66113b6565b5b9060005260206000200160009054906101000a900473ffffffffffffffffffffffffffffffffffffffff1690506000600190505b8280549050811015610e915760026000600154815260200190815260200160002060050160008373ffffffffffffffffffffffffffffffffffffffff1673ffffffffffffffffffffffffffffffffffffffff168152602001908152602001600020546002600060015481526020019081526020016000206005016000858481548110610dba57610db96113b6565b5b9060005260206000200160009054906101000a900473ffffffffffffffffffffffffffffffffffffffff1673ffffffffffffffffffffffffffffffffffffffff1673ffffffffffffffffffffffffffffffffffffffff168152602001908152602001600020541115610e7e576002600060015481526020019081526020016000206006018181548110610e5057610e4f6113b6565b5b9060005260206000200160009054906101000a900473ffffffffffffffffffffffffffffffffffffffff1691505b8080610e8990611414565b915050610d2b565b508060026000600154815260200190815260200160002060020160006101000a81548173ffffffffffffffffffffffffffffffffffffffff021916908373ffffffffffffffffffffffffffffffffffffffff1602179055507f6851850b6f1d092c251cf246c157ca32716f67fd2ab2edbbbf27b424bc7f100281600154604051610f1c929190611681565b60405180910390a160026000600154815260200190815260200160002060020160009054906101000a900473ffffffffffffffffffffffffffffffffffffffff169250505090565b600033905090565b600080fd5b6000819050919050565b610f8481610f71565b8114610f8f57600080fd5b50565b600081359050610fa181610f7b565b92915050565b600073ffffffffffffffffffffffffffffffffffffffff82169050919050565b6000610fd282610fa7565b9050919050565b610fe281610fc7565b8114610fed57600080fd5b50565b600081359050610fff81610fd9565b92915050565b6000806040838503121561101c5761101b610f6c565b5b600061102a85828601610f92565b925050602061103b85828601610ff0565b9150509250929050565b61104e81610f71565b82525050565b60006020820190506110696000830184611045565b92915050565b60008115159050919050565b6110848161106f565b82525050565b600060208201905061109f600083018461107b565b92915050565b6000602082840312156110bb576110ba610f6c565b5b60006110c984828501610f92565b91505092915050565b600081519050919050565b600082825260208201905092915050565b6000819050602082019050919050565b61110781610fc7565b82525050565b600061111983836110fe565b60208301905092915050565b6000602082019050919050565b600061113d826110d2565b61114781856110dd565b9350611152836110ee565b8060005b8381101561118357815161116a888261110d565b975061117583611125565b925050600181019050611156565b5085935050505092915050565b600060208201905081810360008301526111aa8184611132565b905092915050565b6111bb81610fc7565b82525050565b60006060820190506111d6600083018661107b565b6111e36020830185611045565b6111f060408301846111b2565b949350505050565b600060208201905061120d60008301846111b2565b92915050565b6000806000806080858703121561122d5761122c610f6c565b5b600061123b87828801610f92565b945050602061124c87828801610ff0565b935050604061125d87828801610ff0565b925050606061126e87828801610ff0565b91505092959194509250565b6000602082840312156112905761128f610f6c565b5b600061129e84828501610ff0565b91505092915050565b600082825260208201905092915050565b7f4e6f20766f74696e672073656374696f6e20616374697665206174207468652060008201527f6d6f6d656e742e00000000000000000000000000000000000000000000000000602082015250565b60006113146027836112a7565b915061131f826112b8565b604082019050919050565b6000602082019050818103600083015261134381611307565b9050919050565b7f596f752063616e206f6e6c7920766f7465206f6e63652e000000000000000000600082015250565b60006113806017836112a7565b915061138b8261134a565b602082019050919050565b600060208201905081810360008301526113af81611373565b9050919050565b7f4e487b7100000000000000000000000000000000000000000000000000000000600052603260045260246000fd5b7f4e487b7100000000000000000000000000000000000000000000000000000000600052601160045260246000fd5b600061141f82610f71565b91507fffffffffffffffffffffffffffffffffffffffffffffffffffffffffffffffff8203611451576114506113e5565b5b600182019050919050565b600060408201905061147160008301856111b2565b61147e60208301846111b2565b9392505050565b7f4120766f74696e672073656374696f6e20697320616c7265616479206c69766560008201527f2100000000000000000000000000000000000000000000000000000000000000602082015250565b60006114e16021836112a7565b91506114ec82611485565b604082019050919050565b60006020820190508181036000830152611510816114d4565b9050919050565b7f4475706c69636174652043616e64696461746573000000000000000000000000600082015250565b600061154d6014836112a7565b915061155882611517565b602082019050919050565b6000602082019050818103600083015261157c81611540565b9050919050565b7f4f776e61626c653a206e6577206f776e657220697320746865207a65726f206160008201527f6464726573730000000000000000000000000000000000000000000000000000602082015250565b60006115df6026836112a7565b91506115ea82611583565b604082019050919050565b6000602082019050818103600083015261160e816115d2565b9050919050565b7f4f776e61626c653a2063616c6c6572206973206e6f7420746865206f776e6572600082015250565b600061164b6020836112a7565b915061165682611615565b602082019050919050565b6000602082019050818103600083015261167a8161163e565b9050919050565b600060408201905061169660008301856111b2565b6116a36020830184611045565b939250505056fea2646970667358221220f9da1ea30593f184a72253e6ae17b718350c87f414cfcfc50b447a30d03bf92b64736f6c63430008110033",
  "linkReferences": {},
  "deployedLinkReferences": {}
}