{
  "_format": "hh-sol-artifact-1",
  "contractName": "PayrollioNFT",
  "sourceName": "contracts/PayrollioNFT.sol",
  "abi": [
    {
      "inputs": [],
      "stateMutability": "nonpayable",
      "type": "constructor"
    },
    {
      "anonymous": false,
      "inputs": [
        {
          "indexed": true,
          "internalType": "address",
          "name": "account",
          "type": "address"
        },
        {
          "indexed": true,
          "internalType": "address",
          "name": "operator",
          "type": "address"
        },
        {
          "indexed": false,
          "internalType": "bool",
          "name": "approved",
          "type": "bool"
        }
      ],
      "name": "ApprovalForAll",
      "type": "event"
    },
    {
      "anonymous": false,
      "inputs": [
        {
          "indexed": true,
          "internalType": "address",
          "name": "previousOwner",
          "type": "address"
        },
        {
          "indexed": true,
          "internalType": "address",
          "name": "newOwner",
          "type": "address"
        }
      ],
      "name": "OwnershipTransferred",
      "type": "event"
    },
    {
      "anonymous": false,
      "inputs": [
        {
          "indexed": true,
          "internalType": "address",
          "name": "operator",
          "type": "address"
        },
        {
          "indexed": true,
          "internalType": "address",
          "name": "from",
          "type": "address"
        },
        {
          "indexed": true,
          "internalType": "address",
          "name": "to",
          "type": "address"
        },
        {
          "indexed": false,
          "internalType": "uint256[]",
          "name": "ids",
          "type": "uint256[]"
        },
        {
          "indexed": false,
          "internalType": "uint256[]",
          "name": "values",
          "type": "uint256[]"
        }
      ],
      "name": "TransferBatch",
      "type": "event"
    },
    {
      "anonymous": false,
      "inputs": [
        {
          "indexed": true,
          "internalType": "address",
          "name": "operator",
          "type": "address"
        },
        {
          "indexed": true,
          "internalType": "address",
          "name": "from",
          "type": "address"
        },
        {
          "indexed": true,
          "internalType": "address",
          "name": "to",
          "type": "address"
        },
        {
          "indexed": false,
          "internalType": "uint256",
          "name": "id",
          "type": "uint256"
        },
        {
          "indexed": false,
          "internalType": "uint256",
          "name": "value",
          "type": "uint256"
        }
      ],
      "name": "TransferSingle",
      "type": "event"
    },
    {
      "anonymous": false,
      "inputs": [
        {
          "indexed": false,
          "internalType": "string",
          "name": "value",
          "type": "string"
        },
        {
          "indexed": true,
          "internalType": "uint256",
          "name": "id",
          "type": "uint256"
        }
      ],
      "name": "URI",
      "type": "event"
    },
    {
      "inputs": [
        {
          "internalType": "address",
          "name": "account",
          "type": "address"
        },
        {
          "internalType": "uint256",
          "name": "id",
          "type": "uint256"
        }
      ],
      "name": "balanceOf",
      "outputs": [
        {
          "internalType": "uint256",
          "name": "",
          "type": "uint256"
        }
      ],
      "stateMutability": "view",
      "type": "function"
    },
    {
      "inputs": [
        {
          "internalType": "address[]",
          "name": "accounts",
          "type": "address[]"
        },
        {
          "internalType": "uint256[]",
          "name": "ids",
          "type": "uint256[]"
        }
      ],
      "name": "balanceOfBatch",
      "outputs": [
        {
          "internalType": "uint256[]",
          "name": "",
          "type": "uint256[]"
        }
      ],
      "stateMutability": "view",
      "type": "function"
    },
    {
      "inputs": [
        {
          "internalType": "address",
          "name": "account",
          "type": "address"
        },
        {
          "internalType": "uint256",
          "name": "id",
          "type": "uint256"
        },
        {
          "internalType": "uint256",
          "name": "amount",
          "type": "uint256"
        }
      ],
      "name": "burn",
      "outputs": [],
      "stateMutability": "nonpayable",
      "type": "function"
    },
    {
      "inputs": [
        {
          "internalType": "address",
          "name": "account",
          "type": "address"
        },
        {
          "internalType": "uint256[]",
          "name": "ids",
          "type": "uint256[]"
        },
        {
          "internalType": "uint256[]",
          "name": "values",
          "type": "uint256[]"
        }
      ],
      "name": "burnBatch",
      "outputs": [],
      "stateMutability": "nonpayable",
      "type": "function"
    },
    {
      "inputs": [
        {
          "internalType": "uint256",
          "name": "id",
          "type": "uint256"
        }
      ],
      "name": "exists",
      "outputs": [
        {
          "internalType": "bool",
          "name": "",
          "type": "bool"
        }
      ],
      "stateMutability": "view",
      "type": "function"
    },
    {
      "inputs": [
        {
          "internalType": "address",
          "name": "account",
          "type": "address"
        },
        {
          "internalType": "address",
          "name": "operator",
          "type": "address"
        }
      ],
      "name": "isApprovedForAll",
      "outputs": [
        {
          "internalType": "bool",
          "name": "",
          "type": "bool"
        }
      ],
      "stateMutability": "view",
      "type": "function"
    },
    {
      "inputs": [
        {
          "internalType": "address",
          "name": "account",
          "type": "address"
        },
        {
          "internalType": "uint256",
          "name": "id",
          "type": "uint256"
        },
        {
          "internalType": "uint256",
          "name": "amount",
          "type": "uint256"
        },
        {
          "internalType": "bytes",
          "name": "data",
          "type": "bytes"
        }
      ],
      "name": "mint",
      "outputs": [],
      "stateMutability": "nonpayable",
      "type": "function"
    },
    {
      "inputs": [],
      "name": "owner",
      "outputs": [
        {
          "internalType": "address",
          "name": "",
          "type": "address"
        }
      ],
      "stateMutability": "view",
      "type": "function"
    },
    {
      "inputs": [],
      "name": "renounceOwnership",
      "outputs": [],
      "stateMutability": "nonpayable",
      "type": "function"
    },
    {
      "inputs": [
        {
          "internalType": "address",
          "name": "from",
          "type": "address"
        },
        {
          "internalType": "address",
          "name": "to",
          "type": "address"
        },
        {
          "internalType": "uint256[]",
          "name": "ids",
          "type": "uint256[]"
        },
        {
          "internalType": "uint256[]",
          "name": "amounts",
          "type": "uint256[]"
        },
        {
          "internalType": "bytes",
          "name": "data",
          "type": "bytes"
        }
      ],
      "name": "safeBatchTransferFrom",
      "outputs": [],
      "stateMutability": "nonpayable",
      "type": "function"
    },
    {
      "inputs": [
        {
          "internalType": "address",
          "name": "from",
          "type": "address"
        },
        {
          "internalType": "address",
          "name": "to",
          "type": "address"
        },
        {
          "internalType": "uint256",
          "name": "id",
          "type": "uint256"
        },
        {
          "internalType": "uint256",
          "name": "amount",
          "type": "uint256"
        },
        {
          "internalType": "bytes",
          "name": "data",
          "type": "bytes"
        }
      ],
      "name": "safeTransferFrom",
      "outputs": [],
      "stateMutability": "nonpayable",
      "type": "function"
    },
    {
      "inputs": [
        {
          "internalType": "address",
          "name": "operator",
          "type": "address"
        },
        {
          "internalType": "bool",
          "name": "approved",
          "type": "bool"
        }
      ],
      "name": "setApprovalForAll",
      "outputs": [],
      "stateMutability": "nonpayable",
      "type": "function"
    },
    {
      "inputs": [
        {
          "internalType": "string",
          "name": "newuri",
          "type": "string"
        }
      ],
      "name": "setURI",
      "outputs": [],
      "stateMutability": "nonpayable",
      "type": "function"
    },
    {
      "inputs": [
        {
          "internalType": "bytes4",
          "name": "interfaceId",
          "type": "bytes4"
        }
      ],
      "name": "supportsInterface",
      "outputs": [
        {
          "internalType": "bool",
          "name": "",
          "type": "bool"
        }
      ],
      "stateMutability": "view",
      "type": "function"
    },
    {
      "inputs": [
        {
          "internalType": "uint256",
          "name": "id",
          "type": "uint256"
        }
      ],
      "name": "totalSupply",
      "outputs": [
        {
          "internalType": "uint256",
          "name": "",
          "type": "uint256"
        }
      ],
      "stateMutability": "view",
      "type": "function"
    },
    {
      "inputs": [
        {
          "internalType": "address",
          "name": "newOwner",
          "type": "address"
        }
      ],
      "name": "transferOwnership",
      "outputs": [],
      "stateMutability": "nonpayable",
      "type": "function"
    },
    {
      "inputs": [
        {
          "internalType": "uint256",
          "name": "_tokenId",
          "type": "uint256"
        }
      ],
      "name": "uri",
      "outputs": [
        {
          "internalType": "string",
          "name": "",
          "type": "string"
        }
      ],
      "stateMutability": "pure",
      "type": "function"
    }
  ],
  "bytecode": "0x60806040523480156200001157600080fd5b50604051806060016040528060348152602001620045ac603491396200003d816200006460201b60201c565b506200005e620000526200007960201b60201c565b6200008160201b60201c565b620004a8565b8060029081620000759190620003c1565b5050565b600033905090565b6000600360009054906101000a900473ffffffffffffffffffffffffffffffffffffffff16905081600360006101000a81548173ffffffffffffffffffffffffffffffffffffffff021916908373ffffffffffffffffffffffffffffffffffffffff1602179055508173ffffffffffffffffffffffffffffffffffffffff168173ffffffffffffffffffffffffffffffffffffffff167f8be0079c531659141344cd1fd0a4f28419497f9722a3daafe3b4186f6b6457e060405160405180910390a35050565b600081519050919050565b7f4e487b7100000000000000000000000000000000000000000000000000000000600052604160045260246000fd5b7f4e487b7100000000000000000000000000000000000000000000000000000000600052602260045260246000fd5b60006002820490506001821680620001c957607f821691505b602082108103620001df57620001de62000181565b5b50919050565b60008190508160005260206000209050919050565b60006020601f8301049050919050565b600082821b905092915050565b600060088302620002497fffffffffffffffffffffffffffffffffffffffffffffffffffffffffffffffff826200020a565b6200025586836200020a565b95508019841693508086168417925050509392505050565b6000819050919050565b6000819050919050565b6000620002a26200029c62000296846200026d565b62000277565b6200026d565b9050919050565b6000819050919050565b620002be8362000281565b620002d6620002cd82620002a9565b84845462000217565b825550505050565b600090565b620002ed620002de565b620002fa818484620002b3565b505050565b5b81811015620003225762000316600082620002e3565b60018101905062000300565b5050565b601f82111562000371576200033b81620001e5565b6200034684620001fa565b8101602085101562000356578190505b6200036e6200036585620001fa565b830182620002ff565b50505b505050565b600082821c905092915050565b6000620003966000198460080262000376565b1980831691505092915050565b6000620003b1838362000383565b9150826002028217905092915050565b620003cc8262000147565b67ffffffffffffffff811115620003e857620003e762000152565b5b620003f48254620001b0565b6200040182828562000326565b600060209050601f83116001811462000439576000841562000424578287015190505b620004308582620003a3565b865550620004a0565b601f1984166200044986620001e5565b60005b8281101562000473578489015182556001820191506020850194506020810190506200044c565b868310156200049357848901516200048f601f89168262000383565b8355505b6001600288020188555050505b505050505050565b6140f480620004b86000396000f3fe608060405234801561001057600080fd5b506004361061010a5760003560e01c8063715018a6116100a2578063bd85b03911610071578063bd85b039146102b3578063e985e9c5146102e3578063f242432a14610313578063f2fde38b1461032f578063f5298aca1461034b5761010a565b8063715018a614610253578063731133e91461025d5780638da5cb5b14610279578063a22cb465146102975761010a565b80632eb2c2d6116100de5780632eb2c2d6146101bb5780634e1273f4146101d75780634f558e79146102075780636b20c454146102375761010a565b8062fdd58e1461010f57806301ffc9a71461013f57806302fe53051461016f5780630e89341c1461018b575b600080fd5b610129600480360381019061012491906123b4565b610367565b6040516101369190612403565b60405180910390f35b61015960048036038101906101549190612476565b61042f565b60405161016691906124be565b60405180910390f35b6101896004803603810190610184919061261f565b610511565b005b6101a560048036038101906101a09190612668565b610525565b6040516101b29190612714565b60405180910390f35b6101d560048036038101906101d0919061289f565b610556565b005b6101f160048036038101906101ec9190612a31565b6105f7565b6040516101fe9190612b67565b60405180910390f35b610221600480360381019061021c9190612668565b610710565b60405161022e91906124be565b60405180910390f35b610251600480360381019061024c9190612b89565b610724565b005b61025b6107c1565b005b61027760048036038101906102729190612c14565b6107d5565b005b61028161083b565b60405161028e9190612ca6565b60405180910390f35b6102b160048036038101906102ac9190612ced565b610865565b005b6102cd60048036038101906102c89190612668565b61087b565b6040516102da9190612403565b60405180910390f35b6102fd60048036038101906102f89190612d2d565b610898565b60405161030a91906124be565b60405180910390f35b61032d60048036038101906103289190612d6d565b61092c565b005b61034960048036038101906103449190612e04565b6109cd565b005b61036560048036038101906103609190612e31565b610a50565b005b60008073ffffffffffffffffffffffffffffffffffffffff168373ffffffffffffffffffffffffffffffffffffffff16036103d7576040517f08c379a00000000000000000000000000000000000000000000000000000000081526004016103ce90612ef6565b60405180910390fd5b60008083815260200190815260200160002060008473ffffffffffffffffffffffffffffffffffffffff1673ffffffffffffffffffffffffffffffffffffffff16815260200190815260200160002054905092915050565b60007fd9b67a26000000000000000000000000000000000000000000000000000000007bffffffffffffffffffffffffffffffffffffffffffffffffffffffff1916827bffffffffffffffffffffffffffffffffffffffffffffffffffffffff191614806104fa57507f0e89341c000000000000000000000000000000000000000000000000000000007bffffffffffffffffffffffffffffffffffffffffffffffffffffffff1916827bffffffffffffffffffffffffffffffffffffffffffffffffffffffff1916145b8061050a575061050982610b0b565b5b9050919050565b610519610b75565b61052281610bf3565b50565b606061053082610c06565b6040516020016105409190613036565b6040516020818303038152906040529050919050565b61055e610d66565b73ffffffffffffffffffffffffffffffffffffffff168573ffffffffffffffffffffffffffffffffffffffff1614806105a457506105a38561059e610d66565b610898565b5b6105e3576040517f08c379a00000000000000000000000000000000000000000000000000000000081526004016105da906130d5565b60405180910390fd5b6105f08585858585610d6e565b5050505050565b6060815183511461063d576040517f08c379a000000000000000000000000000000000000000000000000000000000815260040161063490613167565b60405180910390fd5b6000835167ffffffffffffffff81111561065a576106596124f4565b5b6040519080825280602002602001820160405280156106885781602001602082028036833780820191505090505b50905060005b8451811015610705576106d58582815181106106ad576106ac613187565b5b60200260200101518583815181106106c8576106c7613187565b5b6020026020010151610367565b8282815181106106e8576106e7613187565b5b602002602001018181525050806106fe906131e5565b905061068e565b508091505092915050565b60008061071c8361087b565b119050919050565b61072c610d66565b73ffffffffffffffffffffffffffffffffffffffff168373ffffffffffffffffffffffffffffffffffffffff16148061077257506107718361076c610d66565b610898565b5b6107b1576040517f08c379a00000000000000000000000000000000000000000000000000000000081526004016107a8906130d5565b60405180910390fd5b6107bc83838361108f565b505050565b6107c9610b75565b6107d3600061135d565b565b6107dd610b75565b60016107e98585610367565b10610829576040517f08c379a00000000000000000000000000000000000000000000000000000000081526004016108209061329f565b60405180910390fd5b61083584848484611423565b50505050565b6000600360009054906101000a900473ffffffffffffffffffffffffffffffffffffffff16905090565b610877610870610d66565b83836115d3565b5050565b600060046000838152602001908152602001600020549050919050565b6000600160008473ffffffffffffffffffffffffffffffffffffffff1673ffffffffffffffffffffffffffffffffffffffff16815260200190815260200160002060008373ffffffffffffffffffffffffffffffffffffffff1673ffffffffffffffffffffffffffffffffffffffff16815260200190815260200160002060009054906101000a900460ff16905092915050565b610934610d66565b73ffffffffffffffffffffffffffffffffffffffff168573ffffffffffffffffffffffffffffffffffffffff16148061097a575061097985610974610d66565b610898565b5b6109b9576040517f08c379a00000000000000000000000000000000000000000000000000000000081526004016109b0906130d5565b60405180910390fd5b6109c6858585858561173f565b5050505050565b6109d5610b75565b600073ffffffffffffffffffffffffffffffffffffffff168173ffffffffffffffffffffffffffffffffffffffff1603610a44576040517f08c379a0000000000000000000000000000000000000000000000000000000008152600401610a3b90613331565b60405180910390fd5b610a4d8161135d565b50565b3073ffffffffffffffffffffffffffffffffffffffff163373ffffffffffffffffffffffffffffffffffffffff161480610abc5750610a8d61083b565b73ffffffffffffffffffffffffffffffffffffffff163373ffffffffffffffffffffffffffffffffffffffff16145b610afb576040517f08c379a0000000000000000000000000000000000000000000000000000000008152600401610af29061339d565b60405180910390fd5b610b068383836119da565b505050565b60007f01ffc9a7000000000000000000000000000000000000000000000000000000007bffffffffffffffffffffffffffffffffffffffffffffffffffffffff1916827bffffffffffffffffffffffffffffffffffffffffffffffffffffffff1916149050919050565b610b7d610d66565b73ffffffffffffffffffffffffffffffffffffffff16610b9b61083b565b73ffffffffffffffffffffffffffffffffffffffff1614610bf1576040517f08c379a0000000000000000000000000000000000000000000000000000000008152600401610be890613409565b60405180910390fd5b565b8060029081610c029190613635565b5050565b606060008203610c4d576040518060400160405280600181526020017f30000000000000000000000000000000000000000000000000000000000000008152509050610d61565b600082905060005b60008214610c7f578080610c68906131e5565b915050600a82610c789190613736565b9150610c55565b60008167ffffffffffffffff811115610c9b57610c9a6124f4565b5b6040519080825280601f01601f191660200182016040528015610ccd5781602001600182028036833780820191505090505b5090505b60008514610d5a57600182610ce69190613767565b9150600a85610cf5919061379b565b6030610d0191906137cc565b60f81b818381518110610d1757610d16613187565b5b60200101907effffffffffffffffffffffffffffffffffffffffffffffffffffffffffffff1916908160001a905350600a85610d539190613736565b9450610cd1565b8093505050505b919050565b600033905090565b8151835114610db2576040517f08c379a0000000000000000000000000000000000000000000000000000000008152600401610da990613872565b60405180910390fd5b600073ffffffffffffffffffffffffffffffffffffffff168473ffffffffffffffffffffffffffffffffffffffff1603610e21576040517f08c379a0000000000000000000000000000000000000000000000000000000008152600401610e1890613904565b60405180910390fd5b6000610e2b610d66565b9050610e3b818787878787611c20565b60005b8451811015610fec576000858281518110610e5c57610e5b613187565b5b602002602001015190506000858381518110610e7b57610e7a613187565b5b60200260200101519050600080600084815260200190815260200160002060008b73ffffffffffffffffffffffffffffffffffffffff1673ffffffffffffffffffffffffffffffffffffffff16815260200190815260200160002054905081811015610f1c576040517f08c379a0000000000000000000000000000000000000000000000000000000008152600401610f1390613996565b60405180910390fd5b81810360008085815260200190815260200160002060008c73ffffffffffffffffffffffffffffffffffffffff1673ffffffffffffffffffffffffffffffffffffffff168152602001908152602001600020819055508160008085815260200190815260200160002060008b73ffffffffffffffffffffffffffffffffffffffff1673ffffffffffffffffffffffffffffffffffffffff1681526020019081526020016000206000828254610fd191906137cc565b9250508190555050505080610fe5906131e5565b9050610e3e565b508473ffffffffffffffffffffffffffffffffffffffff168673ffffffffffffffffffffffffffffffffffffffff168273ffffffffffffffffffffffffffffffffffffffff167f4a39dc06d4c0dbc64b70af90fd698a233a518aa5d07e595d983b8c0526c8f7fb87876040516110639291906139b6565b60405180910390a4611079818787878787611ce1565b611087818787878787611ce9565b505050505050565b600073ffffffffffffffffffffffffffffffffffffffff168373ffffffffffffffffffffffffffffffffffffffff16036110fe576040517f08c379a00000000000000000000000000000000000000000000000000000000081526004016110f590613a5f565b60405180910390fd5b8051825114611142576040517f08c379a000000000000000000000000000000000000000000000000000000000815260040161113990613872565b60405180910390fd5b600061114c610d66565b905061116c81856000868660405180602001604052806000815250611c20565b60005b83518110156112b957600084828151811061118d5761118c613187565b5b6020026020010151905060008483815181106111ac576111ab613187565b5b60200260200101519050600080600084815260200190815260200160002060008973ffffffffffffffffffffffffffffffffffffffff1673ffffffffffffffffffffffffffffffffffffffff1681526020019081526020016000205490508181101561124d576040517f08c379a000000000000000000000000000000000000000000000000000000000815260040161124490613af1565b60405180910390fd5b81810360008085815260200190815260200160002060008a73ffffffffffffffffffffffffffffffffffffffff1673ffffffffffffffffffffffffffffffffffffffff1681526020019081526020016000208190555050505080806112b1906131e5565b91505061116f565b50600073ffffffffffffffffffffffffffffffffffffffff168473ffffffffffffffffffffffffffffffffffffffff168273ffffffffffffffffffffffffffffffffffffffff167f4a39dc06d4c0dbc64b70af90fd698a233a518aa5d07e595d983b8c0526c8f7fb86866040516113319291906139b6565b60405180910390a461135781856000868660405180602001604052806000815250611ce1565b50505050565b6000600360009054906101000a900473ffffffffffffffffffffffffffffffffffffffff16905081600360006101000a81548173ffffffffffffffffffffffffffffffffffffffff021916908373ffffffffffffffffffffffffffffffffffffffff1602179055508173ffffffffffffffffffffffffffffffffffffffff168173ffffffffffffffffffffffffffffffffffffffff167f8be0079c531659141344cd1fd0a4f28419497f9722a3daafe3b4186f6b6457e060405160405180910390a35050565b600073ffffffffffffffffffffffffffffffffffffffff168473ffffffffffffffffffffffffffffffffffffffff1603611492576040517f08c379a000000000000000000000000000000000000000000000000000000000815260040161148990613b83565b60405180910390fd5b600061149c610d66565b905060006114a985611ec0565b905060006114b685611ec0565b90506114c783600089858589611c20565b8460008088815260200190815260200160002060008973ffffffffffffffffffffffffffffffffffffffff1673ffffffffffffffffffffffffffffffffffffffff168152602001908152602001600020600082825461152691906137cc565b925050819055508673ffffffffffffffffffffffffffffffffffffffff16600073ffffffffffffffffffffffffffffffffffffffff168473ffffffffffffffffffffffffffffffffffffffff167fc3d58168c5ae7397731d063d5bbf3d657854427343f4c083240f7aacaa2d0f6289896040516115a4929190613ba3565b60405180910390a46115bb83600089858589611ce1565b6115ca83600089898989611f3a565b50505050505050565b8173ffffffffffffffffffffffffffffffffffffffff168373ffffffffffffffffffffffffffffffffffffffff1603611641576040517f08c379a000000000000000000000000000000000000000000000000000000000815260040161163890613c3e565b60405180910390fd5b80600160008573ffffffffffffffffffffffffffffffffffffffff1673ffffffffffffffffffffffffffffffffffffffff16815260200190815260200160002060008473ffffffffffffffffffffffffffffffffffffffff1673ffffffffffffffffffffffffffffffffffffffff16815260200190815260200160002060006101000a81548160ff0219169083151502179055508173ffffffffffffffffffffffffffffffffffffffff168373ffffffffffffffffffffffffffffffffffffffff167f17307eab39ab6107e8899845ad3d59bd9653f200f220920489ca2b5937696c318360405161173291906124be565b60405180910390a3505050565b600073ffffffffffffffffffffffffffffffffffffffff168473ffffffffffffffffffffffffffffffffffffffff16036117ae576040517f08c379a00000000000000000000000000000000000000000000000000000000081526004016117a590613904565b60405180910390fd5b60006117b8610d66565b905060006117c585611ec0565b905060006117d285611ec0565b90506117e2838989858589611c20565b600080600088815260200190815260200160002060008a73ffffffffffffffffffffffffffffffffffffffff1673ffffffffffffffffffffffffffffffffffffffff16815260200190815260200160002054905085811015611879576040517f08c379a000000000000000000000000000000000000000000000000000000000815260040161187090613996565b60405180910390fd5b85810360008089815260200190815260200160002060008b73ffffffffffffffffffffffffffffffffffffffff1673ffffffffffffffffffffffffffffffffffffffff168152602001908152602001600020819055508560008089815260200190815260200160002060008a73ffffffffffffffffffffffffffffffffffffffff1673ffffffffffffffffffffffffffffffffffffffff168152602001908152602001600020600082825461192e91906137cc565b925050819055508773ffffffffffffffffffffffffffffffffffffffff168973ffffffffffffffffffffffffffffffffffffffff168573ffffffffffffffffffffffffffffffffffffffff167fc3d58168c5ae7397731d063d5bbf3d657854427343f4c083240f7aacaa2d0f628a8a6040516119ab929190613ba3565b60405180910390a46119c1848a8a86868a611ce1565b6119cf848a8a8a8a8a611f3a565b505050505050505050565b600073ffffffffffffffffffffffffffffffffffffffff168373ffffffffffffffffffffffffffffffffffffffff1603611a49576040517f08c379a0000000000000000000000000000000000000000000000000000000008152600401611a4090613a5f565b60405180910390fd5b6000611a53610d66565b90506000611a6084611ec0565b90506000611a6d84611ec0565b9050611a8d83876000858560405180602001604052806000815250611c20565b600080600087815260200190815260200160002060008873ffffffffffffffffffffffffffffffffffffffff1673ffffffffffffffffffffffffffffffffffffffff16815260200190815260200160002054905084811015611b24576040517f08c379a0000000000000000000000000000000000000000000000000000000008152600401611b1b90613af1565b60405180910390fd5b84810360008088815260200190815260200160002060008973ffffffffffffffffffffffffffffffffffffffff1673ffffffffffffffffffffffffffffffffffffffff16815260200190815260200160002081905550600073ffffffffffffffffffffffffffffffffffffffff168773ffffffffffffffffffffffffffffffffffffffff168573ffffffffffffffffffffffffffffffffffffffff167fc3d58168c5ae7397731d063d5bbf3d657854427343f4c083240f7aacaa2d0f628989604051611bf1929190613ba3565b60405180910390a4611c1784886000868660405180602001604052806000815250611ce1565b50505050505050565b3073ffffffffffffffffffffffffffffffffffffffff163373ffffffffffffffffffffffffffffffffffffffff161480611c8c5750611c5d61083b565b73ffffffffffffffffffffffffffffffffffffffff163373ffffffffffffffffffffffffffffffffffffffff16145b611ccb576040517f08c379a0000000000000000000000000000000000000000000000000000000008152600401611cc290613cd0565b60405180910390fd5b611cd9868686868686612111565b505050505050565b505050505050565b611d088473ffffffffffffffffffffffffffffffffffffffff166122e1565b15611eb8578373ffffffffffffffffffffffffffffffffffffffff1663bc197c8187878686866040518663ffffffff1660e01b8152600401611d4e959493929190613d45565b6020604051808303816000875af1925050508015611d8a57506040513d601f19601f82011682018060405250810190611d879190613dc2565b60015b611e2f57611d96613dfc565b806308c379a003611df25750611daa613e1e565b80611db55750611df4565b806040517f08c379a0000000000000000000000000000000000000000000000000000000008152600401611de99190612714565b60405180910390fd5b505b6040517f08c379a0000000000000000000000000000000000000000000000000000000008152600401611e2690613f20565b60405180910390fd5b63bc197c8160e01b7bffffffffffffffffffffffffffffffffffffffffffffffffffffffff1916817bffffffffffffffffffffffffffffffffffffffffffffffffffffffff191614611eb6576040517f08c379a0000000000000000000000000000000000000000000000000000000008152600401611ead90613fb2565b60405180910390fd5b505b505050505050565b60606000600167ffffffffffffffff811115611edf57611ede6124f4565b5b604051908082528060200260200182016040528015611f0d5781602001602082028036833780820191505090505b5090508281600081518110611f2557611f24613187565b5b60200260200101818152505080915050919050565b611f598473ffffffffffffffffffffffffffffffffffffffff166122e1565b15612109578373ffffffffffffffffffffffffffffffffffffffff1663f23a6e6187878686866040518663ffffffff1660e01b8152600401611f9f959493929190613fd2565b6020604051808303816000875af1925050508015611fdb57506040513d601f19601f82011682018060405250810190611fd89190613dc2565b60015b61208057611fe7613dfc565b806308c379a0036120435750611ffb613e1e565b806120065750612045565b806040517f08c379a000000000000000000000000000000000000000000000000000000000815260040161203a9190612714565b60405180910390fd5b505b6040517f08c379a000000000000000000000000000000000000000000000000000000000815260040161207790613f20565b60405180910390fd5b63f23a6e6160e01b7bffffffffffffffffffffffffffffffffffffffffffffffffffffffff1916817bffffffffffffffffffffffffffffffffffffffffffffffffffffffff191614612107576040517f08c379a00000000000000000000000000000000000000000000000000000000081526004016120fe90613fb2565b60405180910390fd5b505b505050505050565b61211f868686868686612304565b600073ffffffffffffffffffffffffffffffffffffffff168573ffffffffffffffffffffffffffffffffffffffff16036121d05760005b83518110156121ce5782818151811061217257612171613187565b5b60200260200101516004600086848151811061219157612190613187565b5b6020026020010151815260200190815260200160002060008282546121b691906137cc565b92505081905550806121c7906131e5565b9050612156565b505b600073ffffffffffffffffffffffffffffffffffffffff168473ffffffffffffffffffffffffffffffffffffffff16036122d95760005b83518110156122d757600084828151811061222557612224613187565b5b60200260200101519050600084838151811061224457612243613187565b5b60200260200101519050600060046000848152602001908152602001600020549050818110156122a9576040517f08c379a00000000000000000000000000000000000000000000000000000000081526004016122a09061409e565b60405180910390fd5b8181036004600085815260200190815260200160002081905550505050806122d0906131e5565b9050612207565b505b505050505050565b6000808273ffffffffffffffffffffffffffffffffffffffff163b119050919050565b505050505050565b6000604051905090565b600080fd5b600080fd5b600073ffffffffffffffffffffffffffffffffffffffff82169050919050565b600061234b82612320565b9050919050565b61235b81612340565b811461236657600080fd5b50565b60008135905061237881612352565b92915050565b6000819050919050565b6123918161237e565b811461239c57600080fd5b50565b6000813590506123ae81612388565b92915050565b600080604083850312156123cb576123ca612316565b5b60006123d985828601612369565b92505060206123ea8582860161239f565b9150509250929050565b6123fd8161237e565b82525050565b600060208201905061241860008301846123f4565b92915050565b60007fffffffff0000000000000000000000000000000000000000000000000000000082169050919050565b6124538161241e565b811461245e57600080fd5b50565b6000813590506124708161244a565b92915050565b60006020828403121561248c5761248b612316565b5b600061249a84828501612461565b91505092915050565b60008115159050919050565b6124b8816124a3565b82525050565b60006020820190506124d360008301846124af565b92915050565b600080fd5b600080fd5b6000601f19601f8301169050919050565b7f4e487b7100000000000000000000000000000000000000000000000000000000600052604160045260246000fd5b61252c826124e3565b810181811067ffffffffffffffff8211171561254b5761254a6124f4565b5b80604052505050565b600061255e61230c565b905061256a8282612523565b919050565b600067ffffffffffffffff82111561258a576125896124f4565b5b612593826124e3565b9050602081019050919050565b82818337600083830152505050565b60006125c26125bd8461256f565b612554565b9050828152602081018484840111156125de576125dd6124de565b5b6125e98482856125a0565b509392505050565b600082601f830112612606576126056124d9565b5b81356126168482602086016125af565b91505092915050565b60006020828403121561263557612634612316565b5b600082013567ffffffffffffffff8111156126535761265261231b565b5b61265f848285016125f1565b91505092915050565b60006020828403121561267e5761267d612316565b5b600061268c8482850161239f565b91505092915050565b600081519050919050565b600082825260208201905092915050565b60005b838110156126cf5780820151818401526020810190506126b4565b60008484015250505050565b60006126e682612695565b6126f081856126a0565b93506127008185602086016126b1565b612709816124e3565b840191505092915050565b6000602082019050818103600083015261272e81846126db565b905092915050565b600067ffffffffffffffff821115612751576127506124f4565b5b602082029050602081019050919050565b600080fd5b600061277a61277584612736565b612554565b9050808382526020820190506020840283018581111561279d5761279c612762565b5b835b818110156127c657806127b2888261239f565b84526020840193505060208101905061279f565b5050509392505050565b600082601f8301126127e5576127e46124d9565b5b81356127f5848260208601612767565b91505092915050565b600067ffffffffffffffff821115612819576128186124f4565b5b612822826124e3565b9050602081019050919050565b600061284261283d846127fe565b612554565b90508281526020810184848401111561285e5761285d6124de565b5b6128698482856125a0565b509392505050565b600082601f830112612886576128856124d9565b5b813561289684826020860161282f565b91505092915050565b600080600080600060a086880312156128bb576128ba612316565b5b60006128c988828901612369565b95505060206128da88828901612369565b945050604086013567ffffffffffffffff8111156128fb576128fa61231b565b5b612907888289016127d0565b935050606086013567ffffffffffffffff8111156129285761292761231b565b5b612934888289016127d0565b925050608086013567ffffffffffffffff8111156129555761295461231b565b5b61296188828901612871565b9150509295509295909350565b600067ffffffffffffffff821115612989576129886124f4565b5b602082029050602081019050919050565b60006129ad6129a88461296e565b612554565b905080838252602082019050602084028301858111156129d0576129cf612762565b5b835b818110156129f957806129e58882612369565b8452602084019350506020810190506129d2565b5050509392505050565b600082601f830112612a1857612a176124d9565b5b8135612a2884826020860161299a565b91505092915050565b60008060408385031215612a4857612a47612316565b5b600083013567ffffffffffffffff811115612a6657612a6561231b565b5b612a7285828601612a03565b925050602083013567ffffffffffffffff811115612a9357612a9261231b565b5b612a9f858286016127d0565b9150509250929050565b600081519050919050565b600082825260208201905092915050565b6000819050602082019050919050565b612ade8161237e565b82525050565b6000612af08383612ad5565b60208301905092915050565b6000602082019050919050565b6000612b1482612aa9565b612b1e8185612ab4565b9350612b2983612ac5565b8060005b83811015612b5a578151612b418882612ae4565b9750612b4c83612afc565b925050600181019050612b2d565b5085935050505092915050565b60006020820190508181036000830152612b818184612b09565b905092915050565b600080600060608486031215612ba257612ba1612316565b5b6000612bb086828701612369565b935050602084013567ffffffffffffffff811115612bd157612bd061231b565b5b612bdd868287016127d0565b925050604084013567ffffffffffffffff811115612bfe57612bfd61231b565b5b612c0a868287016127d0565b9150509250925092565b60008060008060808587031215612c2e57612c2d612316565b5b6000612c3c87828801612369565b9450506020612c4d8782880161239f565b9350506040612c5e8782880161239f565b925050606085013567ffffffffffffffff811115612c7f57612c7e61231b565b5b612c8b87828801612871565b91505092959194509250565b612ca081612340565b82525050565b6000602082019050612cbb6000830184612c97565b92915050565b612cca816124a3565b8114612cd557600080fd5b50565b600081359050612ce781612cc1565b92915050565b60008060408385031215612d0457612d03612316565b5b6000612d1285828601612369565b9250506020612d2385828601612cd8565b9150509250929050565b60008060408385031215612d4457612d43612316565b5b6000612d5285828601612369565b9250506020612d6385828601612369565b9150509250929050565b600080600080600060a08688031215612d8957612d88612316565b5b6000612d9788828901612369565b9550506020612da888828901612369565b9450506040612db98882890161239f565b9350506060612dca8882890161239f565b925050608086013567ffffffffffffffff811115612deb57612dea61231b565b5b612df788828901612871565b9150509295509295909350565b600060208284031215612e1a57612e19612316565b5b6000612e2884828501612369565b91505092915050565b600080600060608486031215612e4a57612e49612316565b5b6000612e5886828701612369565b9350506020612e698682870161239f565b9250506040612e7a8682870161239f565b9150509250925092565b7f455243313135353a2061646472657373207a65726f206973206e6f742061207660008201527f616c6964206f776e657200000000000000000000000000000000000000000000602082015250565b6000612ee0602a836126a0565b9150612eeb82612e84565b604082019050919050565b60006020820190508181036000830152612f0f81612ed3565b9050919050565b600081905092915050565b7f68747470733a2f2f676174657761792e70696e6174612e636c6f75642f69706660008201527f732f516d5468595061425561384446664a327365426b7365574c7a4a534c6b3160208201527f4579376d744e6e7870684834424561532f000000000000000000000000000000604082015250565b6000612fa3605183612f16565b9150612fae82612f21565b605182019050919050565b6000612fc482612695565b612fce8185612f16565b9350612fde8185602086016126b1565b80840191505092915050565b7f2e6a736f6e000000000000000000000000000000000000000000000000000000600082015250565b6000613020600583612f16565b915061302b82612fea565b600582019050919050565b600061304182612f96565b915061304d8284612fb9565b915061305882613013565b915081905092915050565b7f455243313135353a2063616c6c6572206973206e6f7420746f6b656e206f776e60008201527f6572206e6f7220617070726f7665640000000000000000000000000000000000602082015250565b60006130bf602f836126a0565b91506130ca82613063565b604082019050919050565b600060208201905081810360008301526130ee816130b2565b9050919050565b7f455243313135353a206163636f756e747320616e6420696473206c656e67746860008201527f206d69736d617463680000000000000000000000000000000000000000000000602082015250565b60006131516029836126a0565b915061315c826130f5565b604082019050919050565b6000602082019050818103600083015261318081613144565b9050919050565b7f4e487b7100000000000000000000000000000000000000000000000000000000600052603260045260246000fd5b7f4e487b7100000000000000000000000000000000000000000000000000000000600052601160045260246000fd5b60006131f08261237e565b91507fffffffffffffffffffffffffffffffffffffffffffffffffffffffffffffffff8203613222576132216131b6565b5b600182019050919050565b7f43616e6e6f742068617665206d6f7265207468616e206f6e652072616e6b204e60008201527f4654000000000000000000000000000000000000000000000000000000000000602082015250565b60006132896022836126a0565b91506132948261322d565b604082019050919050565b600060208201905081810360008301526132b88161327c565b9050919050565b7f4f776e61626c653a206e6577206f776e657220697320746865207a65726f206160008201527f6464726573730000000000000000000000000000000000000000000000000000602082015250565b600061331b6026836126a0565b9150613326826132bf565b604082019050919050565b6000602082019050818103600083015261334a8161330e565b9050919050565b7f596f752063616e6e6f74206275726e20796f7572206f776e204e465400000000600082015250565b6000613387601c836126a0565b915061339282613351565b602082019050919050565b600060208201905081810360008301526133b68161337a565b9050919050565b7f4f776e61626c653a2063616c6c6572206973206e6f7420746865206f776e6572600082015250565b60006133f36020836126a0565b91506133fe826133bd565b602082019050919050565b60006020820190508181036000830152613422816133e6565b9050919050565b7f4e487b7100000000000000000000000000000000000000000000000000000000600052602260045260246000fd5b6000600282049050600182168061347057607f821691505b60208210810361348357613482613429565b5b50919050565b60008190508160005260206000209050919050565b60006020601f8301049050919050565b600082821b905092915050565b6000600883026134eb7fffffffffffffffffffffffffffffffffffffffffffffffffffffffffffffffff826134ae565b6134f586836134ae565b95508019841693508086168417925050509392505050565b6000819050919050565b600061353261352d6135288461237e565b61350d565b61237e565b9050919050565b6000819050919050565b61354c83613517565b61356061355882613539565b8484546134bb565b825550505050565b600090565b613575613568565b613580818484613543565b505050565b5b818110156135a45761359960008261356d565b600181019050613586565b5050565b601f8211156135e9576135ba81613489565b6135c38461349e565b810160208510156135d2578190505b6135e66135de8561349e565b830182613585565b50505b505050565b600082821c905092915050565b600061360c600019846008026135ee565b1980831691505092915050565b600061362583836135fb565b9150826002028217905092915050565b61363e82612695565b67ffffffffffffffff811115613657576136566124f4565b5b6136618254613458565b61366c8282856135a8565b600060209050601f83116001811461369f576000841561368d578287015190505b6136978582613619565b8655506136ff565b601f1984166136ad86613489565b60005b828110156136d5578489015182556001820191506020850194506020810190506136b0565b868310156136f257848901516136ee601f8916826135fb565b8355505b6001600288020188555050505b505050505050565b7f4e487b7100000000000000000000000000000000000000000000000000000000600052601260045260246000fd5b60006137418261237e565b915061374c8361237e565b92508261375c5761375b613707565b5b828204905092915050565b60006137728261237e565b915061377d8361237e565b9250828203905081811115613795576137946131b6565b5b92915050565b60006137a68261237e565b91506137b18361237e565b9250826137c1576137c0613707565b5b828206905092915050565b60006137d78261237e565b91506137e28361237e565b92508282019050808211156137fa576137f96131b6565b5b92915050565b7f455243313135353a2069647320616e6420616d6f756e7473206c656e6774682060008201527f6d69736d61746368000000000000000000000000000000000000000000000000602082015250565b600061385c6028836126a0565b915061386782613800565b604082019050919050565b6000602082019050818103600083015261388b8161384f565b9050919050565b7f455243313135353a207472616e7366657220746f20746865207a65726f20616460008201527f6472657373000000000000000000000000000000000000000000000000000000602082015250565b60006138ee6025836126a0565b91506138f982613892565b604082019050919050565b6000602082019050818103600083015261391d816138e1565b9050919050565b7f455243313135353a20696e73756666696369656e742062616c616e636520666f60008201527f72207472616e7366657200000000000000000000000000000000000000000000602082015250565b6000613980602a836126a0565b915061398b82613924565b604082019050919050565b600060208201905081810360008301526139af81613973565b9050919050565b600060408201905081810360008301526139d08185612b09565b905081810360208301526139e48184612b09565b90509392505050565b7f455243313135353a206275726e2066726f6d20746865207a65726f206164647260008201527f6573730000000000000000000000000000000000000000000000000000000000602082015250565b6000613a496023836126a0565b9150613a54826139ed565b604082019050919050565b60006020820190508181036000830152613a7881613a3c565b9050919050565b7f455243313135353a206275726e20616d6f756e7420657863656564732062616c60008201527f616e636500000000000000000000000000000000000000000000000000000000602082015250565b6000613adb6024836126a0565b9150613ae682613a7f565b604082019050919050565b60006020820190508181036000830152613b0a81613ace565b9050919050565b7f455243313135353a206d696e7420746f20746865207a65726f2061646472657360008201527f7300000000000000000000000000000000000000000000000000000000000000602082015250565b6000613b6d6021836126a0565b9150613b7882613b11565b604082019050919050565b60006020820190508181036000830152613b9c81613b60565b9050919050565b6000604082019050613bb860008301856123f4565b613bc560208301846123f4565b9392505050565b7f455243313135353a2073657474696e6720617070726f76616c2073746174757360008201527f20666f722073656c660000000000000000000000000000000000000000000000602082015250565b6000613c286029836126a0565b9150613c3382613bcc565b604082019050919050565b60006020820190508181036000830152613c5781613c1b565b9050919050565b7f596f752063616e6e6f74207472616e7366657220796f7572204e465420746f2060008201527f6f74686572730000000000000000000000000000000000000000000000000000602082015250565b6000613cba6026836126a0565b9150613cc582613c5e565b604082019050919050565b60006020820190508181036000830152613ce981613cad565b9050919050565b600081519050919050565b600082825260208201905092915050565b6000613d1782613cf0565b613d218185613cfb565b9350613d318185602086016126b1565b613d3a816124e3565b840191505092915050565b600060a082019050613d5a6000830188612c97565b613d676020830187612c97565b8181036040830152613d798186612b09565b90508181036060830152613d8d8185612b09565b90508181036080830152613da18184613d0c565b90509695505050505050565b600081519050613dbc8161244a565b92915050565b600060208284031215613dd857613dd7612316565b5b6000613de684828501613dad565b91505092915050565b60008160e01c9050919050565b600060033d1115613e1b5760046000803e613e18600051613def565b90505b90565b600060443d10613eab57613e3061230c565b60043d036004823e80513d602482011167ffffffffffffffff82111715613e58575050613eab565b808201805167ffffffffffffffff811115613e765750505050613eab565b80602083010160043d038501811115613e93575050505050613eab565b613ea282602001850186612523565b82955050505050505b90565b7f455243313135353a207472616e7366657220746f206e6f6e204552433131353560008201527f526563656976657220696d706c656d656e746572000000000000000000000000602082015250565b6000613f0a6034836126a0565b9150613f1582613eae565b604082019050919050565b60006020820190508181036000830152613f3981613efd565b9050919050565b7f455243313135353a204552433131353552656365697665722072656a6563746560008201527f6420746f6b656e73000000000000000000000000000000000000000000000000602082015250565b6000613f9c6028836126a0565b9150613fa782613f40565b604082019050919050565b60006020820190508181036000830152613fcb81613f8f565b9050919050565b600060a082019050613fe76000830188612c97565b613ff46020830187612c97565b61400160408301866123f4565b61400e60608301856123f4565b81810360808301526140208184613d0c565b90509695505050505050565b7f455243313135353a206275726e20616d6f756e74206578636565647320746f7460008201527f616c537570706c79000000000000000000000000000000000000000000000000602082015250565b60006140886028836126a0565b91506140938261402c565b604082019050919050565b600060208201905081810360008301526140b78161407b565b905091905056fea2646970667358221220e68369b0fd812bd11b238e203f03722b28842d6304f5aac97b4f96cde8a19b0464736f6c634300081100332f697066732f516d5468595061425561384446664a327365426b7365574c7a4a534c6b314579376d744e6e787068483442456153",
  "linkReferences": {},
  "deployedLinkReferences": {}
}