{
  "_format": "hh-sol-artifact-1",
  "contractName": "PayrollioNFT",
  "sourceName": "contracts/PayrollioNFT.sol",
  "abi": [
    {
      "inputs": [],
      "stateMutability": "nonpayable",
      "type": "constructor"
    },
    {
      "anonymous": false,
      "inputs": [
        {
          "indexed": true,
          "internalType": "address",
          "name": "account",
          "type": "address"
        },
        {
          "indexed": true,
          "internalType": "address",
          "name": "operator",
          "type": "address"
        },
        {
          "indexed": false,
          "internalType": "bool",
          "name": "approved",
          "type": "bool"
        }
      ],
      "name": "ApprovalForAll",
      "type": "event"
    },
    {
      "anonymous": false,
      "inputs": [
        {
          "indexed": true,
          "internalType": "address",
          "name": "previousOwner",
          "type": "address"
        },
        {
          "indexed": true,
          "internalType": "address",
          "name": "newOwner",
          "type": "address"
        }
      ],
      "name": "OwnershipTransferred",
      "type": "event"
    },
    {
      "anonymous": false,
      "inputs": [
        {
          "indexed": true,
          "internalType": "address",
          "name": "operator",
          "type": "address"
        },
        {
          "indexed": true,
          "internalType": "address",
          "name": "from",
          "type": "address"
        },
        {
          "indexed": true,
          "internalType": "address",
          "name": "to",
          "type": "address"
        },
        {
          "indexed": false,
          "internalType": "uint256[]",
          "name": "ids",
          "type": "uint256[]"
        },
        {
          "indexed": false,
          "internalType": "uint256[]",
          "name": "values",
          "type": "uint256[]"
        }
      ],
      "name": "TransferBatch",
      "type": "event"
    },
    {
      "anonymous": false,
      "inputs": [
        {
          "indexed": true,
          "internalType": "address",
          "name": "operator",
          "type": "address"
        },
        {
          "indexed": true,
          "internalType": "address",
          "name": "from",
          "type": "address"
        },
        {
          "indexed": true,
          "internalType": "address",
          "name": "to",
          "type": "address"
        },
        {
          "indexed": false,
          "internalType": "uint256",
          "name": "id",
          "type": "uint256"
        },
        {
          "indexed": false,
          "internalType": "uint256",
          "name": "value",
          "type": "uint256"
        }
      ],
      "name": "TransferSingle",
      "type": "event"
    },
    {
      "anonymous": false,
      "inputs": [
        {
          "indexed": false,
          "internalType": "string",
          "name": "value",
          "type": "string"
        },
        {
          "indexed": true,
          "internalType": "uint256",
          "name": "id",
          "type": "uint256"
        }
      ],
      "name": "URI",
      "type": "event"
    },
    {
      "inputs": [
        {
          "internalType": "address",
          "name": "account",
          "type": "address"
        },
        {
          "internalType": "uint256",
          "name": "id",
          "type": "uint256"
        }
      ],
      "name": "balanceOf",
      "outputs": [
        {
          "internalType": "uint256",
          "name": "",
          "type": "uint256"
        }
      ],
      "stateMutability": "view",
      "type": "function"
    },
    {
      "inputs": [
        {
          "internalType": "address[]",
          "name": "accounts",
          "type": "address[]"
        },
        {
          "internalType": "uint256[]",
          "name": "ids",
          "type": "uint256[]"
        }
      ],
      "name": "balanceOfBatch",
      "outputs": [
        {
          "internalType": "uint256[]",
          "name": "",
          "type": "uint256[]"
        }
      ],
      "stateMutability": "view",
      "type": "function"
    },
    {
      "inputs": [
        {
          "internalType": "address",
          "name": "account",
          "type": "address"
        },
        {
          "internalType": "uint256",
          "name": "id",
          "type": "uint256"
        },
        {
          "internalType": "uint256",
          "name": "amount",
          "type": "uint256"
        }
      ],
      "name": "burn",
      "outputs": [],
      "stateMutability": "nonpayable",
      "type": "function"
    },
    {
      "inputs": [
        {
          "internalType": "address",
          "name": "account",
          "type": "address"
        },
        {
          "internalType": "uint256[]",
          "name": "ids",
          "type": "uint256[]"
        },
        {
          "internalType": "uint256[]",
          "name": "values",
          "type": "uint256[]"
        }
      ],
      "name": "burnBatch",
      "outputs": [],
      "stateMutability": "nonpayable",
      "type": "function"
    },
    {
      "inputs": [
        {
          "internalType": "uint256",
          "name": "id",
          "type": "uint256"
        }
      ],
      "name": "exists",
      "outputs": [
        {
          "internalType": "bool",
          "name": "",
          "type": "bool"
        }
      ],
      "stateMutability": "view",
      "type": "function"
    },
    {
      "inputs": [
        {
          "internalType": "address",
          "name": "_address",
          "type": "address"
        }
      ],
      "name": "getAccountsNFTs",
      "outputs": [
        {
          "internalType": "uint256[6]",
          "name": "",
          "type": "uint256[6]"
        }
      ],
      "stateMutability": "view",
      "type": "function"
    },
    {
      "inputs": [
        {
          "internalType": "address",
          "name": "account",
          "type": "address"
        },
        {
          "internalType": "address",
          "name": "operator",
          "type": "address"
        }
      ],
      "name": "isApprovedForAll",
      "outputs": [
        {
          "internalType": "bool",
          "name": "",
          "type": "bool"
        }
      ],
      "stateMutability": "view",
      "type": "function"
    },
    {
      "inputs": [
        {
          "internalType": "address",
          "name": "account",
          "type": "address"
        },
        {
          "internalType": "uint256",
          "name": "id",
          "type": "uint256"
        }
      ],
      "name": "mint",
      "outputs": [],
      "stateMutability": "nonpayable",
      "type": "function"
    },
    {
      "inputs": [
        {
          "internalType": "address",
          "name": "account",
          "type": "address"
        }
      ],
      "name": "mintEmployeeOfTheMonth",
      "outputs": [],
      "stateMutability": "nonpayable",
      "type": "function"
    },
    {
      "inputs": [],
      "name": "owner",
      "outputs": [
        {
          "internalType": "address",
          "name": "",
          "type": "address"
        }
      ],
      "stateMutability": "view",
      "type": "function"
    },
    {
      "inputs": [],
      "name": "renounceOwnership",
      "outputs": [],
      "stateMutability": "nonpayable",
      "type": "function"
    },
    {
      "inputs": [
        {
          "internalType": "address",
          "name": "from",
          "type": "address"
        },
        {
          "internalType": "address",
          "name": "to",
          "type": "address"
        },
        {
          "internalType": "uint256[]",
          "name": "ids",
          "type": "uint256[]"
        },
        {
          "internalType": "uint256[]",
          "name": "amounts",
          "type": "uint256[]"
        },
        {
          "internalType": "bytes",
          "name": "data",
          "type": "bytes"
        }
      ],
      "name": "safeBatchTransferFrom",
      "outputs": [],
      "stateMutability": "nonpayable",
      "type": "function"
    },
    {
      "inputs": [
        {
          "internalType": "address",
          "name": "from",
          "type": "address"
        },
        {
          "internalType": "address",
          "name": "to",
          "type": "address"
        },
        {
          "internalType": "uint256",
          "name": "id",
          "type": "uint256"
        },
        {
          "internalType": "uint256",
          "name": "amount",
          "type": "uint256"
        },
        {
          "internalType": "bytes",
          "name": "data",
          "type": "bytes"
        }
      ],
      "name": "safeTransferFrom",
      "outputs": [],
      "stateMutability": "nonpayable",
      "type": "function"
    },
    {
      "inputs": [
        {
          "internalType": "address",
          "name": "operator",
          "type": "address"
        },
        {
          "internalType": "bool",
          "name": "approved",
          "type": "bool"
        }
      ],
      "name": "setApprovalForAll",
      "outputs": [],
      "stateMutability": "nonpayable",
      "type": "function"
    },
    {
      "inputs": [
        {
          "internalType": "string",
          "name": "newuri",
          "type": "string"
        }
      ],
      "name": "setURI",
      "outputs": [],
      "stateMutability": "nonpayable",
      "type": "function"
    },
    {
      "inputs": [
        {
          "internalType": "bytes4",
          "name": "interfaceId",
          "type": "bytes4"
        }
      ],
      "name": "supportsInterface",
      "outputs": [
        {
          "internalType": "bool",
          "name": "",
          "type": "bool"
        }
      ],
      "stateMutability": "view",
      "type": "function"
    },
    {
      "inputs": [
        {
          "internalType": "uint256",
          "name": "id",
          "type": "uint256"
        }
      ],
      "name": "totalSupply",
      "outputs": [
        {
          "internalType": "uint256",
          "name": "",
          "type": "uint256"
        }
      ],
      "stateMutability": "view",
      "type": "function"
    },
    {
      "inputs": [
        {
          "internalType": "address",
          "name": "newOwner",
          "type": "address"
        }
      ],
      "name": "transferOwnership",
      "outputs": [],
      "stateMutability": "nonpayable",
      "type": "function"
    },
    {
      "inputs": [
        {
          "internalType": "uint256",
          "name": "_tokenId",
          "type": "uint256"
        }
      ],
      "name": "uri",
      "outputs": [
        {
          "internalType": "string",
          "name": "",
          "type": "string"
        }
      ],
      "stateMutability": "pure",
      "type": "function"
    }
  ],
  "bytecode": "0x60806040523480156200001157600080fd5b506040518060600160405280603481526020016200481f603491396200003d816200006460201b60201c565b506200005e620000526200007960201b60201c565b6200008160201b60201c565b620004a8565b8060029081620000759190620003c1565b5050565b600033905090565b6000600360009054906101000a900473ffffffffffffffffffffffffffffffffffffffff16905081600360006101000a81548173ffffffffffffffffffffffffffffffffffffffff021916908373ffffffffffffffffffffffffffffffffffffffff1602179055508173ffffffffffffffffffffffffffffffffffffffff168173ffffffffffffffffffffffffffffffffffffffff167f8be0079c531659141344cd1fd0a4f28419497f9722a3daafe3b4186f6b6457e060405160405180910390a35050565b600081519050919050565b7f4e487b7100000000000000000000000000000000000000000000000000000000600052604160045260246000fd5b7f4e487b7100000000000000000000000000000000000000000000000000000000600052602260045260246000fd5b60006002820490506001821680620001c957607f821691505b602082108103620001df57620001de62000181565b5b50919050565b60008190508160005260206000209050919050565b60006020601f8301049050919050565b600082821b905092915050565b600060088302620002497fffffffffffffffffffffffffffffffffffffffffffffffffffffffffffffffff826200020a565b6200025586836200020a565b95508019841693508086168417925050509392505050565b6000819050919050565b6000819050919050565b6000620002a26200029c62000296846200026d565b62000277565b6200026d565b9050919050565b6000819050919050565b620002be8362000281565b620002d6620002cd82620002a9565b84845462000217565b825550505050565b600090565b620002ed620002de565b620002fa818484620002b3565b505050565b5b81811015620003225762000316600082620002e3565b60018101905062000300565b5050565b601f82111562000371576200033b81620001e5565b6200034684620001fa565b8101602085101562000356578190505b6200036e6200036585620001fa565b830182620002ff565b50505b505050565b600082821c905092915050565b6000620003966000198460080262000376565b1980831691505092915050565b6000620003b1838362000383565b9150826002028217905092915050565b620003cc8262000147565b67ffffffffffffffff811115620003e857620003e762000152565b5b620003f48254620001b0565b6200040182828562000326565b600060209050601f83116001811462000439576000841562000424578287015190505b620004308582620003a3565b865550620004a0565b601f1984166200044986620001e5565b60005b8281101562000473578489015182556001820191506020850194506020810190506200044c565b868310156200049357848901516200048f601f89168262000383565b8355505b6001600288020188555050505b505050505050565b61436780620004b86000396000f3fe608060405234801561001057600080fd5b50600436106101205760003560e01c80636b20c454116100ad578063bd85b03911610071578063bd85b03914610315578063e985e9c514610345578063f242432a14610375578063f2fde38b14610391578063f5298aca146103ad57610120565b80636b20c45414610285578063715018a6146102a15780637a15851b146102ab5780638da5cb5b146102db578063a22cb465146102f957610120565b80632eb2c2d6116100f45780632eb2c2d6146101d157806340c10f19146101ed5780634b7bacfc146102095780634e1273f4146102255780634f558e791461025557610120565b8062fdd58e1461012557806301ffc9a71461015557806302fe5305146101855780630e89341c146101a1575b600080fd5b61013f600480360381019061013a919061260b565b6103c9565b60405161014c919061265a565b60405180910390f35b61016f600480360381019061016a91906126cd565b610491565b60405161017c9190612715565b60405180910390f35b61019f600480360381019061019a9190612876565b610573565b005b6101bb60048036038101906101b691906128bf565b610587565b6040516101c8919061296b565b60405180910390f35b6101eb60048036038101906101e69190612af6565b6105b8565b005b6102076004803603810190610202919061260b565b610659565b005b610223600480360381019061021e9190612bc5565b610736565b005b61023f600480360381019061023a9190612cb5565b61075e565b60405161024c9190612deb565b60405180910390f35b61026f600480360381019061026a91906128bf565b610877565b60405161027c9190612715565b60405180910390f35b61029f600480360381019061029a9190612e0d565b61088b565b005b6102a9610928565b005b6102c560048036038101906102c09190612bc5565b61093c565b6040516102d29190612f1c565b60405180910390f35b6102e3610a07565b6040516102f09190612f46565b60405180910390f35b610313600480360381019061030e9190612f8d565b610a31565b005b61032f600480360381019061032a91906128bf565b610a47565b60405161033c919061265a565b60405180910390f35b61035f600480360381019061035a9190612fcd565b610a64565b60405161036c9190612715565b60405180910390f35b61038f600480360381019061038a919061300d565b610af8565b005b6103ab60048036038101906103a69190612bc5565b610b99565b005b6103c760048036038101906103c291906130a4565b610c1c565b005b60008073ffffffffffffffffffffffffffffffffffffffff168373ffffffffffffffffffffffffffffffffffffffff1603610439576040517f08c379a000000000000000000000000000000000000000000000000000000000815260040161043090613169565b60405180910390fd5b60008083815260200190815260200160002060008473ffffffffffffffffffffffffffffffffffffffff1673ffffffffffffffffffffffffffffffffffffffff16815260200190815260200160002054905092915050565b60007fd9b67a26000000000000000000000000000000000000000000000000000000007bffffffffffffffffffffffffffffffffffffffffffffffffffffffff1916827bffffffffffffffffffffffffffffffffffffffffffffffffffffffff1916148061055c57507f0e89341c000000000000000000000000000000000000000000000000000000007bffffffffffffffffffffffffffffffffffffffffffffffffffffffff1916827bffffffffffffffffffffffffffffffffffffffffffffffffffffffff1916145b8061056c575061056b82610d40565b5b9050919050565b61057b610daa565b61058481610e28565b50565b606061059282610e3b565b6040516020016105a291906132a9565b6040516020818303038152906040529050919050565b6105c0610f9b565b73ffffffffffffffffffffffffffffffffffffffff168573ffffffffffffffffffffffffffffffffffffffff161480610606575061060585610600610f9b565b610a64565b5b610645576040517f08c379a000000000000000000000000000000000000000000000000000000000815260040161063c90613348565b60405180910390fd5b6106528585858585610fa3565b5050505050565b610661610daa565b600161066d83836103c9565b106106ad576040517f08c379a00000000000000000000000000000000000000000000000000000000081526004016106a4906133da565b60405180910390fd5b6106c982826001604051806020016040528060008152506112c4565b6001600560008473ffffffffffffffffffffffffffffffffffffffff1673ffffffffffffffffffffffffffffffffffffffff168152602001908152602001600020600083815260200190815260200160002060006101000a81548160ff0219169083151502179055505050565b61073e610daa565b61075b8160056001604051806020016040528060008152506112c4565b50565b606081518351146107a4576040517f08c379a000000000000000000000000000000000000000000000000000000000815260040161079b9061346c565b60405180910390fd5b6000835167ffffffffffffffff8111156107c1576107c061274b565b5b6040519080825280602002602001820160405280156107ef5781602001602082028036833780820191505090505b50905060005b845181101561086c5761083c8582815181106108145761081361348c565b5b602002602001015185838151811061082f5761082e61348c565b5b60200260200101516103c9565b82828151811061084f5761084e61348c565b5b60200260200101818152505080610865906134ea565b90506107f5565b508091505092915050565b60008061088383610a47565b119050919050565b610893610f9b565b73ffffffffffffffffffffffffffffffffffffffff168373ffffffffffffffffffffffffffffffffffffffff1614806108d957506108d8836108d3610f9b565b610a64565b5b610918576040517f08c379a000000000000000000000000000000000000000000000000000000000815260040161090f90613348565b60405180910390fd5b610923838383611474565b505050565b610930610daa565b61093a6000611742565b565b610944612541565b61094c612541565b6000805b60078110156109fc57600560008673ffffffffffffffffffffffffffffffffffffffff1673ffffffffffffffffffffffffffffffffffffffff168152602001908152602001600020600082815260200190815260200160002060009054906101000a900460ff16156109e957808383600681106109d0576109cf61348c565b5b6020020181815250506001826109e69190613532565b91505b80806109f4906134ea565b915050610950565b508192505050919050565b6000600360009054906101000a900473ffffffffffffffffffffffffffffffffffffffff16905090565b610a43610a3c610f9b565b8383611808565b5050565b600060046000838152602001908152602001600020549050919050565b6000600160008473ffffffffffffffffffffffffffffffffffffffff1673ffffffffffffffffffffffffffffffffffffffff16815260200190815260200160002060008373ffffffffffffffffffffffffffffffffffffffff1673ffffffffffffffffffffffffffffffffffffffff16815260200190815260200160002060009054906101000a900460ff16905092915050565b610b00610f9b565b73ffffffffffffffffffffffffffffffffffffffff168573ffffffffffffffffffffffffffffffffffffffff161480610b465750610b4585610b40610f9b565b610a64565b5b610b85576040517f08c379a0000000000000000000000000000000000000000000000000000000008152600401610b7c90613348565b60405180910390fd5b610b928585858585611974565b5050505050565b610ba1610daa565b600073ffffffffffffffffffffffffffffffffffffffff168173ffffffffffffffffffffffffffffffffffffffff1603610c10576040517f08c379a0000000000000000000000000000000000000000000000000000000008152600401610c07906135d8565b60405180910390fd5b610c1981611742565b50565b3073ffffffffffffffffffffffffffffffffffffffff163373ffffffffffffffffffffffffffffffffffffffff161480610c885750610c59610a07565b73ffffffffffffffffffffffffffffffffffffffff163373ffffffffffffffffffffffffffffffffffffffff16145b610cc7576040517f08c379a0000000000000000000000000000000000000000000000000000000008152600401610cbe90613644565b60405180910390fd5b610cd2838383611c0f565b6000600560008573ffffffffffffffffffffffffffffffffffffffff1673ffffffffffffffffffffffffffffffffffffffff168152602001908152602001600020600084815260200190815260200160002060006101000a81548160ff021916908315150217905550505050565b60007f01ffc9a7000000000000000000000000000000000000000000000000000000007bffffffffffffffffffffffffffffffffffffffffffffffffffffffff1916827bffffffffffffffffffffffffffffffffffffffffffffffffffffffff1916149050919050565b610db2610f9b565b73ffffffffffffffffffffffffffffffffffffffff16610dd0610a07565b73ffffffffffffffffffffffffffffffffffffffff1614610e26576040517f08c379a0000000000000000000000000000000000000000000000000000000008152600401610e1d906136b0565b60405180910390fd5b565b8060029081610e3791906138dc565b5050565b606060008203610e82576040518060400160405280600181526020017f30000000000000000000000000000000000000000000000000000000000000008152509050610f96565b600082905060005b60008214610eb4578080610e9d906134ea565b915050600a82610ead91906139dd565b9150610e8a565b60008167ffffffffffffffff811115610ed057610ecf61274b565b5b6040519080825280601f01601f191660200182016040528015610f025781602001600182028036833780820191505090505b5090505b60008514610f8f57600182610f1b9190613a0e565b9150600a85610f2a9190613a42565b6030610f369190613532565b60f81b818381518110610f4c57610f4b61348c565b5b60200101907effffffffffffffffffffffffffffffffffffffffffffffffffffffffffffff1916908160001a905350600a85610f8891906139dd565b9450610f06565b8093505050505b919050565b600033905090565b8151835114610fe7576040517f08c379a0000000000000000000000000000000000000000000000000000000008152600401610fde90613ae5565b60405180910390fd5b600073ffffffffffffffffffffffffffffffffffffffff168473ffffffffffffffffffffffffffffffffffffffff1603611056576040517f08c379a000000000000000000000000000000000000000000000000000000000815260040161104d90613b77565b60405180910390fd5b6000611060610f9b565b9050611070818787878787611e55565b60005b84518110156112215760008582815181106110915761109061348c565b5b6020026020010151905060008583815181106110b0576110af61348c565b5b60200260200101519050600080600084815260200190815260200160002060008b73ffffffffffffffffffffffffffffffffffffffff1673ffffffffffffffffffffffffffffffffffffffff16815260200190815260200160002054905081811015611151576040517f08c379a000000000000000000000000000000000000000000000000000000000815260040161114890613c09565b60405180910390fd5b81810360008085815260200190815260200160002060008c73ffffffffffffffffffffffffffffffffffffffff1673ffffffffffffffffffffffffffffffffffffffff168152602001908152602001600020819055508160008085815260200190815260200160002060008b73ffffffffffffffffffffffffffffffffffffffff1673ffffffffffffffffffffffffffffffffffffffff16815260200190815260200160002060008282546112069190613532565b925050819055505050508061121a906134ea565b9050611073565b508473ffffffffffffffffffffffffffffffffffffffff168673ffffffffffffffffffffffffffffffffffffffff168273ffffffffffffffffffffffffffffffffffffffff167f4a39dc06d4c0dbc64b70af90fd698a233a518aa5d07e595d983b8c0526c8f7fb8787604051611298929190613c29565b60405180910390a46112ae818787878787611f16565b6112bc818787878787611f1e565b505050505050565b600073ffffffffffffffffffffffffffffffffffffffff168473ffffffffffffffffffffffffffffffffffffffff1603611333576040517f08c379a000000000000000000000000000000000000000000000000000000000815260040161132a90613cd2565b60405180910390fd5b600061133d610f9b565b9050600061134a856120f5565b90506000611357856120f5565b905061136883600089858589611e55565b8460008088815260200190815260200160002060008973ffffffffffffffffffffffffffffffffffffffff1673ffffffffffffffffffffffffffffffffffffffff16815260200190815260200160002060008282546113c79190613532565b925050819055508673ffffffffffffffffffffffffffffffffffffffff16600073ffffffffffffffffffffffffffffffffffffffff168473ffffffffffffffffffffffffffffffffffffffff167fc3d58168c5ae7397731d063d5bbf3d657854427343f4c083240f7aacaa2d0f628989604051611445929190613cf2565b60405180910390a461145c83600089858589611f16565b61146b8360008989898961216f565b50505050505050565b600073ffffffffffffffffffffffffffffffffffffffff168373ffffffffffffffffffffffffffffffffffffffff16036114e3576040517f08c379a00000000000000000000000000000000000000000000000000000000081526004016114da90613d8d565b60405180910390fd5b8051825114611527576040517f08c379a000000000000000000000000000000000000000000000000000000000815260040161151e90613ae5565b60405180910390fd5b6000611531610f9b565b905061155181856000868660405180602001604052806000815250611e55565b60005b835181101561169e5760008482815181106115725761157161348c565b5b6020026020010151905060008483815181106115915761159061348c565b5b60200260200101519050600080600084815260200190815260200160002060008973ffffffffffffffffffffffffffffffffffffffff1673ffffffffffffffffffffffffffffffffffffffff16815260200190815260200160002054905081811015611632576040517f08c379a000000000000000000000000000000000000000000000000000000000815260040161162990613e1f565b60405180910390fd5b81810360008085815260200190815260200160002060008a73ffffffffffffffffffffffffffffffffffffffff1673ffffffffffffffffffffffffffffffffffffffff168152602001908152602001600020819055505050508080611696906134ea565b915050611554565b50600073ffffffffffffffffffffffffffffffffffffffff168473ffffffffffffffffffffffffffffffffffffffff168273ffffffffffffffffffffffffffffffffffffffff167f4a39dc06d4c0dbc64b70af90fd698a233a518aa5d07e595d983b8c0526c8f7fb8686604051611716929190613c29565b60405180910390a461173c81856000868660405180602001604052806000815250611f16565b50505050565b6000600360009054906101000a900473ffffffffffffffffffffffffffffffffffffffff16905081600360006101000a81548173ffffffffffffffffffffffffffffffffffffffff021916908373ffffffffffffffffffffffffffffffffffffffff1602179055508173ffffffffffffffffffffffffffffffffffffffff168173ffffffffffffffffffffffffffffffffffffffff167f8be0079c531659141344cd1fd0a4f28419497f9722a3daafe3b4186f6b6457e060405160405180910390a35050565b8173ffffffffffffffffffffffffffffffffffffffff168373ffffffffffffffffffffffffffffffffffffffff1603611876576040517f08c379a000000000000000000000000000000000000000000000000000000000815260040161186d90613eb1565b60405180910390fd5b80600160008573ffffffffffffffffffffffffffffffffffffffff1673ffffffffffffffffffffffffffffffffffffffff16815260200190815260200160002060008473ffffffffffffffffffffffffffffffffffffffff1673ffffffffffffffffffffffffffffffffffffffff16815260200190815260200160002060006101000a81548160ff0219169083151502179055508173ffffffffffffffffffffffffffffffffffffffff168373ffffffffffffffffffffffffffffffffffffffff167f17307eab39ab6107e8899845ad3d59bd9653f200f220920489ca2b5937696c31836040516119679190612715565b60405180910390a3505050565b600073ffffffffffffffffffffffffffffffffffffffff168473ffffffffffffffffffffffffffffffffffffffff16036119e3576040517f08c379a00000000000000000000000000000000000000000000000000000000081526004016119da90613b77565b60405180910390fd5b60006119ed610f9b565b905060006119fa856120f5565b90506000611a07856120f5565b9050611a17838989858589611e55565b600080600088815260200190815260200160002060008a73ffffffffffffffffffffffffffffffffffffffff1673ffffffffffffffffffffffffffffffffffffffff16815260200190815260200160002054905085811015611aae576040517f08c379a0000000000000000000000000000000000000000000000000000000008152600401611aa590613c09565b60405180910390fd5b85810360008089815260200190815260200160002060008b73ffffffffffffffffffffffffffffffffffffffff1673ffffffffffffffffffffffffffffffffffffffff168152602001908152602001600020819055508560008089815260200190815260200160002060008a73ffffffffffffffffffffffffffffffffffffffff1673ffffffffffffffffffffffffffffffffffffffff1681526020019081526020016000206000828254611b639190613532565b925050819055508773ffffffffffffffffffffffffffffffffffffffff168973ffffffffffffffffffffffffffffffffffffffff168573ffffffffffffffffffffffffffffffffffffffff167fc3d58168c5ae7397731d063d5bbf3d657854427343f4c083240f7aacaa2d0f628a8a604051611be0929190613cf2565b60405180910390a4611bf6848a8a86868a611f16565b611c04848a8a8a8a8a61216f565b505050505050505050565b600073ffffffffffffffffffffffffffffffffffffffff168373ffffffffffffffffffffffffffffffffffffffff1603611c7e576040517f08c379a0000000000000000000000000000000000000000000000000000000008152600401611c7590613d8d565b60405180910390fd5b6000611c88610f9b565b90506000611c95846120f5565b90506000611ca2846120f5565b9050611cc283876000858560405180602001604052806000815250611e55565b600080600087815260200190815260200160002060008873ffffffffffffffffffffffffffffffffffffffff1673ffffffffffffffffffffffffffffffffffffffff16815260200190815260200160002054905084811015611d59576040517f08c379a0000000000000000000000000000000000000000000000000000000008152600401611d5090613e1f565b60405180910390fd5b84810360008088815260200190815260200160002060008973ffffffffffffffffffffffffffffffffffffffff1673ffffffffffffffffffffffffffffffffffffffff16815260200190815260200160002081905550600073ffffffffffffffffffffffffffffffffffffffff168773ffffffffffffffffffffffffffffffffffffffff168573ffffffffffffffffffffffffffffffffffffffff167fc3d58168c5ae7397731d063d5bbf3d657854427343f4c083240f7aacaa2d0f628989604051611e26929190613cf2565b60405180910390a4611e4c84886000868660405180602001604052806000815250611f16565b50505050505050565b3073ffffffffffffffffffffffffffffffffffffffff163373ffffffffffffffffffffffffffffffffffffffff161480611ec15750611e92610a07565b73ffffffffffffffffffffffffffffffffffffffff163373ffffffffffffffffffffffffffffffffffffffff16145b611f00576040517f08c379a0000000000000000000000000000000000000000000000000000000008152600401611ef790613f43565b60405180910390fd5b611f0e868686868686612346565b505050505050565b505050505050565b611f3d8473ffffffffffffffffffffffffffffffffffffffff16612516565b156120ed578373ffffffffffffffffffffffffffffffffffffffff1663bc197c8187878686866040518663ffffffff1660e01b8152600401611f83959493929190613fb8565b6020604051808303816000875af1925050508015611fbf57506040513d601f19601f82011682018060405250810190611fbc9190614035565b60015b61206457611fcb61406f565b806308c379a0036120275750611fdf614091565b80611fea5750612029565b806040517f08c379a000000000000000000000000000000000000000000000000000000000815260040161201e919061296b565b60405180910390fd5b505b6040517f08c379a000000000000000000000000000000000000000000000000000000000815260040161205b90614193565b60405180910390fd5b63bc197c8160e01b7bffffffffffffffffffffffffffffffffffffffffffffffffffffffff1916817bffffffffffffffffffffffffffffffffffffffffffffffffffffffff1916146120eb576040517f08c379a00000000000000000000000000000000000000000000000000000000081526004016120e290614225565b60405180910390fd5b505b505050505050565b60606000600167ffffffffffffffff8111156121145761211361274b565b5b6040519080825280602002602001820160405280156121425781602001602082028036833780820191505090505b509050828160008151811061215a5761215961348c565b5b60200260200101818152505080915050919050565b61218e8473ffffffffffffffffffffffffffffffffffffffff16612516565b1561233e578373ffffffffffffffffffffffffffffffffffffffff1663f23a6e6187878686866040518663ffffffff1660e01b81526004016121d4959493929190614245565b6020604051808303816000875af192505050801561221057506040513d601f19601f8201168201806040525081019061220d9190614035565b60015b6122b55761221c61406f565b806308c379a0036122785750612230614091565b8061223b575061227a565b806040517f08c379a000000000000000000000000000000000000000000000000000000000815260040161226f919061296b565b60405180910390fd5b505b6040517f08c379a00000000000000000000000000000000000000000000000000000000081526004016122ac90614193565b60405180910390fd5b63f23a6e6160e01b7bffffffffffffffffffffffffffffffffffffffffffffffffffffffff1916817bffffffffffffffffffffffffffffffffffffffffffffffffffffffff19161461233c576040517f08c379a000000000000000000000000000000000000000000000000000000000815260040161233390614225565b60405180910390fd5b505b505050505050565b612354868686868686612539565b600073ffffffffffffffffffffffffffffffffffffffff168573ffffffffffffffffffffffffffffffffffffffff16036124055760005b8351811015612403578281815181106123a7576123a661348c565b5b6020026020010151600460008684815181106123c6576123c561348c565b5b6020026020010151815260200190815260200160002060008282546123eb9190613532565b92505081905550806123fc906134ea565b905061238b565b505b600073ffffffffffffffffffffffffffffffffffffffff168473ffffffffffffffffffffffffffffffffffffffff160361250e5760005b835181101561250c57600084828151811061245a5761245961348c565b5b6020026020010151905060008483815181106124795761247861348c565b5b60200260200101519050600060046000848152602001908152602001600020549050818110156124de576040517f08c379a00000000000000000000000000000000000000000000000000000000081526004016124d590614311565b60405180910390fd5b818103600460008581526020019081526020016000208190555050505080612505906134ea565b905061243c565b505b505050505050565b6000808273ffffffffffffffffffffffffffffffffffffffff163b119050919050565b505050505050565b6040518060c00160405280600690602082028036833780820191505090505090565b6000604051905090565b600080fd5b600080fd5b600073ffffffffffffffffffffffffffffffffffffffff82169050919050565b60006125a282612577565b9050919050565b6125b281612597565b81146125bd57600080fd5b50565b6000813590506125cf816125a9565b92915050565b6000819050919050565b6125e8816125d5565b81146125f357600080fd5b50565b600081359050612605816125df565b92915050565b600080604083850312156126225761262161256d565b5b6000612630858286016125c0565b9250506020612641858286016125f6565b9150509250929050565b612654816125d5565b82525050565b600060208201905061266f600083018461264b565b92915050565b60007fffffffff0000000000000000000000000000000000000000000000000000000082169050919050565b6126aa81612675565b81146126b557600080fd5b50565b6000813590506126c7816126a1565b92915050565b6000602082840312156126e3576126e261256d565b5b60006126f1848285016126b8565b91505092915050565b60008115159050919050565b61270f816126fa565b82525050565b600060208201905061272a6000830184612706565b92915050565b600080fd5b600080fd5b6000601f19601f8301169050919050565b7f4e487b7100000000000000000000000000000000000000000000000000000000600052604160045260246000fd5b6127838261273a565b810181811067ffffffffffffffff821117156127a2576127a161274b565b5b80604052505050565b60006127b5612563565b90506127c1828261277a565b919050565b600067ffffffffffffffff8211156127e1576127e061274b565b5b6127ea8261273a565b9050602081019050919050565b82818337600083830152505050565b6000612819612814846127c6565b6127ab565b90508281526020810184848401111561283557612834612735565b5b6128408482856127f7565b509392505050565b600082601f83011261285d5761285c612730565b5b813561286d848260208601612806565b91505092915050565b60006020828403121561288c5761288b61256d565b5b600082013567ffffffffffffffff8111156128aa576128a9612572565b5b6128b684828501612848565b91505092915050565b6000602082840312156128d5576128d461256d565b5b60006128e3848285016125f6565b91505092915050565b600081519050919050565b600082825260208201905092915050565b60005b8381101561292657808201518184015260208101905061290b565b60008484015250505050565b600061293d826128ec565b61294781856128f7565b9350612957818560208601612908565b6129608161273a565b840191505092915050565b600060208201905081810360008301526129858184612932565b905092915050565b600067ffffffffffffffff8211156129a8576129a761274b565b5b602082029050602081019050919050565b600080fd5b60006129d16129cc8461298d565b6127ab565b905080838252602082019050602084028301858111156129f4576129f36129b9565b5b835b81811015612a1d5780612a0988826125f6565b8452602084019350506020810190506129f6565b5050509392505050565b600082601f830112612a3c57612a3b612730565b5b8135612a4c8482602086016129be565b91505092915050565b600067ffffffffffffffff821115612a7057612a6f61274b565b5b612a798261273a565b9050602081019050919050565b6000612a99612a9484612a55565b6127ab565b905082815260208101848484011115612ab557612ab4612735565b5b612ac08482856127f7565b509392505050565b600082601f830112612add57612adc612730565b5b8135612aed848260208601612a86565b91505092915050565b600080600080600060a08688031215612b1257612b1161256d565b5b6000612b20888289016125c0565b9550506020612b31888289016125c0565b945050604086013567ffffffffffffffff811115612b5257612b51612572565b5b612b5e88828901612a27565b935050606086013567ffffffffffffffff811115612b7f57612b7e612572565b5b612b8b88828901612a27565b925050608086013567ffffffffffffffff811115612bac57612bab612572565b5b612bb888828901612ac8565b9150509295509295909350565b600060208284031215612bdb57612bda61256d565b5b6000612be9848285016125c0565b91505092915050565b600067ffffffffffffffff821115612c0d57612c0c61274b565b5b602082029050602081019050919050565b6000612c31612c2c84612bf2565b6127ab565b90508083825260208201905060208402830185811115612c5457612c536129b9565b5b835b81811015612c7d5780612c6988826125c0565b845260208401935050602081019050612c56565b5050509392505050565b600082601f830112612c9c57612c9b612730565b5b8135612cac848260208601612c1e565b91505092915050565b60008060408385031215612ccc57612ccb61256d565b5b600083013567ffffffffffffffff811115612cea57612ce9612572565b5b612cf685828601612c87565b925050602083013567ffffffffffffffff811115612d1757612d16612572565b5b612d2385828601612a27565b9150509250929050565b600081519050919050565b600082825260208201905092915050565b6000819050602082019050919050565b612d62816125d5565b82525050565b6000612d748383612d59565b60208301905092915050565b6000602082019050919050565b6000612d9882612d2d565b612da28185612d38565b9350612dad83612d49565b8060005b83811015612dde578151612dc58882612d68565b9750612dd083612d80565b925050600181019050612db1565b5085935050505092915050565b60006020820190508181036000830152612e058184612d8d565b905092915050565b600080600060608486031215612e2657612e2561256d565b5b6000612e34868287016125c0565b935050602084013567ffffffffffffffff811115612e5557612e54612572565b5b612e6186828701612a27565b925050604084013567ffffffffffffffff811115612e8257612e81612572565b5b612e8e86828701612a27565b9150509250925092565b600060069050919050565b600081905092915050565b6000819050919050565b6000602082019050919050565b612ece81612e98565b612ed88184612ea3565b9250612ee382612eae565b8060005b83811015612f14578151612efb8782612d68565b9650612f0683612eb8565b925050600181019050612ee7565b505050505050565b600060c082019050612f316000830184612ec5565b92915050565b612f4081612597565b82525050565b6000602082019050612f5b6000830184612f37565b92915050565b612f6a816126fa565b8114612f7557600080fd5b50565b600081359050612f8781612f61565b92915050565b60008060408385031215612fa457612fa361256d565b5b6000612fb2858286016125c0565b9250506020612fc385828601612f78565b9150509250929050565b60008060408385031215612fe457612fe361256d565b5b6000612ff2858286016125c0565b9250506020613003858286016125c0565b9150509250929050565b600080600080600060a086880312156130295761302861256d565b5b6000613037888289016125c0565b9550506020613048888289016125c0565b9450506040613059888289016125f6565b935050606061306a888289016125f6565b925050608086013567ffffffffffffffff81111561308b5761308a612572565b5b61309788828901612ac8565b9150509295509295909350565b6000806000606084860312156130bd576130bc61256d565b5b60006130cb868287016125c0565b93505060206130dc868287016125f6565b92505060406130ed868287016125f6565b9150509250925092565b7f455243313135353a2061646472657373207a65726f206973206e6f742061207660008201527f616c6964206f776e657200000000000000000000000000000000000000000000602082015250565b6000613153602a836128f7565b915061315e826130f7565b604082019050919050565b6000602082019050818103600083015261318281613146565b9050919050565b600081905092915050565b7f68747470733a2f2f617175612d6a7573742d67726f7573652d3833342e6d797060008201527f696e6174612e636c6f75642f697066732f516d546b596f3673386b52484d5a4e60208201527f52786b3164463842554b7236554e72774b584b59753744643666586745516f2f604082015250565b6000613216606083613189565b915061322182613194565b606082019050919050565b6000613237826128ec565b6132418185613189565b9350613251818560208601612908565b80840191505092915050565b7f2e6a736f6e000000000000000000000000000000000000000000000000000000600082015250565b6000613293600583613189565b915061329e8261325d565b600582019050919050565b60006132b482613209565b91506132c0828461322c565b91506132cb82613286565b915081905092915050565b7f455243313135353a2063616c6c6572206973206e6f7420746f6b656e206f776e60008201527f6572206e6f7220617070726f7665640000000000000000000000000000000000602082015250565b6000613332602f836128f7565b915061333d826132d6565b604082019050919050565b6000602082019050818103600083015261336181613325565b9050919050565b7f43616e6e6f742068617665206d6f7265207468616e206f6e652072616e6b204e60008201527f4654000000000000000000000000000000000000000000000000000000000000602082015250565b60006133c46022836128f7565b91506133cf82613368565b604082019050919050565b600060208201905081810360008301526133f3816133b7565b9050919050565b7f455243313135353a206163636f756e747320616e6420696473206c656e67746860008201527f206d69736d617463680000000000000000000000000000000000000000000000602082015250565b60006134566029836128f7565b9150613461826133fa565b604082019050919050565b6000602082019050818103600083015261348581613449565b9050919050565b7f4e487b7100000000000000000000000000000000000000000000000000000000600052603260045260246000fd5b7f4e487b7100000000000000000000000000000000000000000000000000000000600052601160045260246000fd5b60006134f5826125d5565b91507fffffffffffffffffffffffffffffffffffffffffffffffffffffffffffffffff8203613527576135266134bb565b5b600182019050919050565b600061353d826125d5565b9150613548836125d5565b92508282019050808211156135605761355f6134bb565b5b92915050565b7f4f776e61626c653a206e6577206f776e657220697320746865207a65726f206160008201527f6464726573730000000000000000000000000000000000000000000000000000602082015250565b60006135c26026836128f7565b91506135cd82613566565b604082019050919050565b600060208201905081810360008301526135f1816135b5565b9050919050565b7f596f752063616e6e6f74206275726e20796f7572206f776e204e465400000000600082015250565b600061362e601c836128f7565b9150613639826135f8565b602082019050919050565b6000602082019050818103600083015261365d81613621565b9050919050565b7f4f776e61626c653a2063616c6c6572206973206e6f7420746865206f776e6572600082015250565b600061369a6020836128f7565b91506136a582613664565b602082019050919050565b600060208201905081810360008301526136c98161368d565b9050919050565b7f4e487b7100000000000000000000000000000000000000000000000000000000600052602260045260246000fd5b6000600282049050600182168061371757607f821691505b60208210810361372a576137296136d0565b5b50919050565b60008190508160005260206000209050919050565b60006020601f8301049050919050565b600082821b905092915050565b6000600883026137927fffffffffffffffffffffffffffffffffffffffffffffffffffffffffffffffff82613755565b61379c8683613755565b95508019841693508086168417925050509392505050565b6000819050919050565b60006137d96137d46137cf846125d5565b6137b4565b6125d5565b9050919050565b6000819050919050565b6137f3836137be565b6138076137ff826137e0565b848454613762565b825550505050565b600090565b61381c61380f565b6138278184846137ea565b505050565b5b8181101561384b57613840600082613814565b60018101905061382d565b5050565b601f8211156138905761386181613730565b61386a84613745565b81016020851015613879578190505b61388d61388585613745565b83018261382c565b50505b505050565b600082821c905092915050565b60006138b360001984600802613895565b1980831691505092915050565b60006138cc83836138a2565b9150826002028217905092915050565b6138e5826128ec565b67ffffffffffffffff8111156138fe576138fd61274b565b5b61390882546136ff565b61391382828561384f565b600060209050601f8311600181146139465760008415613934578287015190505b61393e85826138c0565b8655506139a6565b601f19841661395486613730565b60005b8281101561397c57848901518255600182019150602085019450602081019050613957565b868310156139995784890151613995601f8916826138a2565b8355505b6001600288020188555050505b505050505050565b7f4e487b7100000000000000000000000000000000000000000000000000000000600052601260045260246000fd5b60006139e8826125d5565b91506139f3836125d5565b925082613a0357613a026139ae565b5b828204905092915050565b6000613a19826125d5565b9150613a24836125d5565b9250828203905081811115613a3c57613a3b6134bb565b5b92915050565b6000613a4d826125d5565b9150613a58836125d5565b925082613a6857613a676139ae565b5b828206905092915050565b7f455243313135353a2069647320616e6420616d6f756e7473206c656e6774682060008201527f6d69736d61746368000000000000000000000000000000000000000000000000602082015250565b6000613acf6028836128f7565b9150613ada82613a73565b604082019050919050565b60006020820190508181036000830152613afe81613ac2565b9050919050565b7f455243313135353a207472616e7366657220746f20746865207a65726f20616460008201527f6472657373000000000000000000000000000000000000000000000000000000602082015250565b6000613b616025836128f7565b9150613b6c82613b05565b604082019050919050565b60006020820190508181036000830152613b9081613b54565b9050919050565b7f455243313135353a20696e73756666696369656e742062616c616e636520666f60008201527f72207472616e7366657200000000000000000000000000000000000000000000602082015250565b6000613bf3602a836128f7565b9150613bfe82613b97565b604082019050919050565b60006020820190508181036000830152613c2281613be6565b9050919050565b60006040820190508181036000830152613c438185612d8d565b90508181036020830152613c578184612d8d565b90509392505050565b7f455243313135353a206d696e7420746f20746865207a65726f2061646472657360008201527f7300000000000000000000000000000000000000000000000000000000000000602082015250565b6000613cbc6021836128f7565b9150613cc782613c60565b604082019050919050565b60006020820190508181036000830152613ceb81613caf565b9050919050565b6000604082019050613d07600083018561264b565b613d14602083018461264b565b9392505050565b7f455243313135353a206275726e2066726f6d20746865207a65726f206164647260008201527f6573730000000000000000000000000000000000000000000000000000000000602082015250565b6000613d776023836128f7565b9150613d8282613d1b565b604082019050919050565b60006020820190508181036000830152613da681613d6a565b9050919050565b7f455243313135353a206275726e20616d6f756e7420657863656564732062616c60008201527f616e636500000000000000000000000000000000000000000000000000000000602082015250565b6000613e096024836128f7565b9150613e1482613dad565b604082019050919050565b60006020820190508181036000830152613e3881613dfc565b9050919050565b7f455243313135353a2073657474696e6720617070726f76616c2073746174757360008201527f20666f722073656c660000000000000000000000000000000000000000000000602082015250565b6000613e9b6029836128f7565b9150613ea682613e3f565b604082019050919050565b60006020820190508181036000830152613eca81613e8e565b9050919050565b7f596f752063616e6e6f74207472616e7366657220796f7572204e465420746f2060008201527f6f74686572730000000000000000000000000000000000000000000000000000602082015250565b6000613f2d6026836128f7565b9150613f3882613ed1565b604082019050919050565b60006020820190508181036000830152613f5c81613f20565b9050919050565b600081519050919050565b600082825260208201905092915050565b6000613f8a82613f63565b613f948185613f6e565b9350613fa4818560208601612908565b613fad8161273a565b840191505092915050565b600060a082019050613fcd6000830188612f37565b613fda6020830187612f37565b8181036040830152613fec8186612d8d565b905081810360608301526140008185612d8d565b905081810360808301526140148184613f7f565b90509695505050505050565b60008151905061402f816126a1565b92915050565b60006020828403121561404b5761404a61256d565b5b600061405984828501614020565b91505092915050565b60008160e01c9050919050565b600060033d111561408e5760046000803e61408b600051614062565b90505b90565b600060443d1061411e576140a3612563565b60043d036004823e80513d602482011167ffffffffffffffff821117156140cb57505061411e565b808201805167ffffffffffffffff8111156140e9575050505061411e565b80602083010160043d03850181111561410657505050505061411e565b6141158260200185018661277a565b82955050505050505b90565b7f455243313135353a207472616e7366657220746f206e6f6e204552433131353560008201527f526563656976657220696d706c656d656e746572000000000000000000000000602082015250565b600061417d6034836128f7565b915061418882614121565b604082019050919050565b600060208201905081810360008301526141ac81614170565b9050919050565b7f455243313135353a204552433131353552656365697665722072656a6563746560008201527f6420746f6b656e73000000000000000000000000000000000000000000000000602082015250565b600061420f6028836128f7565b915061421a826141b3565b604082019050919050565b6000602082019050818103600083015261423e81614202565b9050919050565b600060a08201905061425a6000830188612f37565b6142676020830187612f37565b614274604083018661264b565b614281606083018561264b565b81810360808301526142938184613f7f565b90509695505050505050565b7f455243313135353a206275726e20616d6f756e74206578636565647320746f7460008201527f616c537570706c79000000000000000000000000000000000000000000000000602082015250565b60006142fb6028836128f7565b91506143068261429f565b604082019050919050565b6000602082019050818103600083015261432a816142ee565b905091905056fea2646970667358221220c64973e81790052f9723e2f0a14f5ac9e035fbd653f39056798b28a83b18ff6b64736f6c634300081100332f697066732f516d546b596f3673386b52484d5a4e52786b3164463842554b7236554e72774b584b59753744643666586745516f",
  "linkReferences": {},
  "deployedLinkReferences": {}
}