{
  "_format": "hh-sol-artifact-1",
  "contractName": "PayrollioNFT",
  "sourceName": "contracts/PayrollioNFT.sol",
  "abi": [
    {
      "inputs": [],
      "stateMutability": "nonpayable",
      "type": "constructor"
    },
    {
      "anonymous": false,
      "inputs": [
        {
          "indexed": true,
          "internalType": "address",
          "name": "account",
          "type": "address"
        },
        {
          "indexed": true,
          "internalType": "address",
          "name": "operator",
          "type": "address"
        },
        {
          "indexed": false,
          "internalType": "bool",
          "name": "approved",
          "type": "bool"
        }
      ],
      "name": "ApprovalForAll",
      "type": "event"
    },
    {
      "anonymous": false,
      "inputs": [
        {
          "indexed": true,
          "internalType": "address",
          "name": "previousOwner",
          "type": "address"
        },
        {
          "indexed": true,
          "internalType": "address",
          "name": "newOwner",
          "type": "address"
        }
      ],
      "name": "OwnershipTransferred",
      "type": "event"
    },
    {
      "anonymous": false,
      "inputs": [
        {
          "indexed": true,
          "internalType": "address",
          "name": "operator",
          "type": "address"
        },
        {
          "indexed": true,
          "internalType": "address",
          "name": "from",
          "type": "address"
        },
        {
          "indexed": true,
          "internalType": "address",
          "name": "to",
          "type": "address"
        },
        {
          "indexed": false,
          "internalType": "uint256[]",
          "name": "ids",
          "type": "uint256[]"
        },
        {
          "indexed": false,
          "internalType": "uint256[]",
          "name": "values",
          "type": "uint256[]"
        }
      ],
      "name": "TransferBatch",
      "type": "event"
    },
    {
      "anonymous": false,
      "inputs": [
        {
          "indexed": true,
          "internalType": "address",
          "name": "operator",
          "type": "address"
        },
        {
          "indexed": true,
          "internalType": "address",
          "name": "from",
          "type": "address"
        },
        {
          "indexed": true,
          "internalType": "address",
          "name": "to",
          "type": "address"
        },
        {
          "indexed": false,
          "internalType": "uint256",
          "name": "id",
          "type": "uint256"
        },
        {
          "indexed": false,
          "internalType": "uint256",
          "name": "value",
          "type": "uint256"
        }
      ],
      "name": "TransferSingle",
      "type": "event"
    },
    {
      "anonymous": false,
      "inputs": [
        {
          "indexed": false,
          "internalType": "string",
          "name": "value",
          "type": "string"
        },
        {
          "indexed": true,
          "internalType": "uint256",
          "name": "id",
          "type": "uint256"
        }
      ],
      "name": "URI",
      "type": "event"
    },
    {
      "inputs": [
        {
          "internalType": "address",
          "name": "",
          "type": "address"
        },
        {
          "internalType": "uint256",
          "name": "",
          "type": "uint256"
        }
      ],
      "name": "addressToToken",
      "outputs": [
        {
          "internalType": "bool",
          "name": "",
          "type": "bool"
        }
      ],
      "stateMutability": "view",
      "type": "function"
    },
    {
      "inputs": [
        {
          "internalType": "address",
          "name": "account",
          "type": "address"
        },
        {
          "internalType": "uint256",
          "name": "id",
          "type": "uint256"
        }
      ],
      "name": "balanceOf",
      "outputs": [
        {
          "internalType": "uint256",
          "name": "",
          "type": "uint256"
        }
      ],
      "stateMutability": "view",
      "type": "function"
    },
    {
      "inputs": [
        {
          "internalType": "address[]",
          "name": "accounts",
          "type": "address[]"
        },
        {
          "internalType": "uint256[]",
          "name": "ids",
          "type": "uint256[]"
        }
      ],
      "name": "balanceOfBatch",
      "outputs": [
        {
          "internalType": "uint256[]",
          "name": "",
          "type": "uint256[]"
        }
      ],
      "stateMutability": "view",
      "type": "function"
    },
    {
      "inputs": [
        {
          "internalType": "address",
          "name": "account",
          "type": "address"
        },
        {
          "internalType": "uint256",
          "name": "id",
          "type": "uint256"
        },
        {
          "internalType": "uint256",
          "name": "amount",
          "type": "uint256"
        }
      ],
      "name": "burn",
      "outputs": [],
      "stateMutability": "nonpayable",
      "type": "function"
    },
    {
      "inputs": [
        {
          "internalType": "address",
          "name": "account",
          "type": "address"
        },
        {
          "internalType": "uint256[]",
          "name": "ids",
          "type": "uint256[]"
        },
        {
          "internalType": "uint256[]",
          "name": "values",
          "type": "uint256[]"
        }
      ],
      "name": "burnBatch",
      "outputs": [],
      "stateMutability": "nonpayable",
      "type": "function"
    },
    {
      "inputs": [
        {
          "internalType": "uint256",
          "name": "id",
          "type": "uint256"
        }
      ],
      "name": "exists",
      "outputs": [
        {
          "internalType": "bool",
          "name": "",
          "type": "bool"
        }
      ],
      "stateMutability": "view",
      "type": "function"
    },
    {
      "inputs": [
        {
          "internalType": "address",
          "name": "_address",
          "type": "address"
        }
      ],
      "name": "getAccountsNFTs",
      "outputs": [
        {
          "internalType": "uint256[6]",
          "name": "",
          "type": "uint256[6]"
        }
      ],
      "stateMutability": "view",
      "type": "function"
    },
    {
      "inputs": [
        {
          "internalType": "address",
          "name": "account",
          "type": "address"
        },
        {
          "internalType": "address",
          "name": "operator",
          "type": "address"
        }
      ],
      "name": "isApprovedForAll",
      "outputs": [
        {
          "internalType": "bool",
          "name": "",
          "type": "bool"
        }
      ],
      "stateMutability": "view",
      "type": "function"
    },
    {
      "inputs": [
        {
          "internalType": "address",
          "name": "account",
          "type": "address"
        },
        {
          "internalType": "uint256",
          "name": "id",
          "type": "uint256"
        }
      ],
      "name": "mint",
      "outputs": [],
      "stateMutability": "nonpayable",
      "type": "function"
    },
    {
      "inputs": [
        {
          "internalType": "address",
          "name": "account",
          "type": "address"
        }
      ],
      "name": "mintEmployeeOfTheMonth",
      "outputs": [],
      "stateMutability": "nonpayable",
      "type": "function"
    },
    {
      "inputs": [],
      "name": "owner",
      "outputs": [
        {
          "internalType": "address",
          "name": "",
          "type": "address"
        }
      ],
      "stateMutability": "view",
      "type": "function"
    },
    {
      "inputs": [],
      "name": "renounceOwnership",
      "outputs": [],
      "stateMutability": "nonpayable",
      "type": "function"
    },
    {
      "inputs": [
        {
          "internalType": "address",
          "name": "from",
          "type": "address"
        },
        {
          "internalType": "address",
          "name": "to",
          "type": "address"
        },
        {
          "internalType": "uint256[]",
          "name": "ids",
          "type": "uint256[]"
        },
        {
          "internalType": "uint256[]",
          "name": "amounts",
          "type": "uint256[]"
        },
        {
          "internalType": "bytes",
          "name": "data",
          "type": "bytes"
        }
      ],
      "name": "safeBatchTransferFrom",
      "outputs": [],
      "stateMutability": "nonpayable",
      "type": "function"
    },
    {
      "inputs": [
        {
          "internalType": "address",
          "name": "from",
          "type": "address"
        },
        {
          "internalType": "address",
          "name": "to",
          "type": "address"
        },
        {
          "internalType": "uint256",
          "name": "id",
          "type": "uint256"
        },
        {
          "internalType": "uint256",
          "name": "amount",
          "type": "uint256"
        },
        {
          "internalType": "bytes",
          "name": "data",
          "type": "bytes"
        }
      ],
      "name": "safeTransferFrom",
      "outputs": [],
      "stateMutability": "nonpayable",
      "type": "function"
    },
    {
      "inputs": [
        {
          "internalType": "address",
          "name": "operator",
          "type": "address"
        },
        {
          "internalType": "bool",
          "name": "approved",
          "type": "bool"
        }
      ],
      "name": "setApprovalForAll",
      "outputs": [],
      "stateMutability": "nonpayable",
      "type": "function"
    },
    {
      "inputs": [
        {
          "internalType": "string",
          "name": "newuri",
          "type": "string"
        }
      ],
      "name": "setURI",
      "outputs": [],
      "stateMutability": "nonpayable",
      "type": "function"
    },
    {
      "inputs": [
        {
          "internalType": "bytes4",
          "name": "interfaceId",
          "type": "bytes4"
        }
      ],
      "name": "supportsInterface",
      "outputs": [
        {
          "internalType": "bool",
          "name": "",
          "type": "bool"
        }
      ],
      "stateMutability": "view",
      "type": "function"
    },
    {
      "inputs": [
        {
          "internalType": "uint256",
          "name": "",
          "type": "uint256"
        }
      ],
      "name": "tokens",
      "outputs": [
        {
          "internalType": "uint256",
          "name": "",
          "type": "uint256"
        }
      ],
      "stateMutability": "view",
      "type": "function"
    },
    {
      "inputs": [
        {
          "internalType": "uint256",
          "name": "id",
          "type": "uint256"
        }
      ],
      "name": "totalSupply",
      "outputs": [
        {
          "internalType": "uint256",
          "name": "",
          "type": "uint256"
        }
      ],
      "stateMutability": "view",
      "type": "function"
    },
    {
      "inputs": [
        {
          "internalType": "address",
          "name": "newOwner",
          "type": "address"
        }
      ],
      "name": "transferOwnership",
      "outputs": [],
      "stateMutability": "nonpayable",
      "type": "function"
    },
    {
      "inputs": [
        {
          "internalType": "uint256",
          "name": "_tokenId",
          "type": "uint256"
        }
      ],
      "name": "uri",
      "outputs": [
        {
          "internalType": "string",
          "name": "",
          "type": "string"
        }
      ],
      "stateMutability": "pure",
      "type": "function"
    }
  ],
  "bytecode": "0x60806040523480156200001157600080fd5b50604051806060016040528060348152602001620048e8603491396200003d816200006460201b60201c565b506200005e620000526200007960201b60201c565b6200008160201b60201c565b620004a8565b8060029081620000759190620003c1565b5050565b600033905090565b6000600360009054906101000a900473ffffffffffffffffffffffffffffffffffffffff16905081600360006101000a81548173ffffffffffffffffffffffffffffffffffffffff021916908373ffffffffffffffffffffffffffffffffffffffff1602179055508173ffffffffffffffffffffffffffffffffffffffff168173ffffffffffffffffffffffffffffffffffffffff167f8be0079c531659141344cd1fd0a4f28419497f9722a3daafe3b4186f6b6457e060405160405180910390a35050565b600081519050919050565b7f4e487b7100000000000000000000000000000000000000000000000000000000600052604160045260246000fd5b7f4e487b7100000000000000000000000000000000000000000000000000000000600052602260045260246000fd5b60006002820490506001821680620001c957607f821691505b602082108103620001df57620001de62000181565b5b50919050565b60008190508160005260206000209050919050565b60006020601f8301049050919050565b600082821b905092915050565b600060088302620002497fffffffffffffffffffffffffffffffffffffffffffffffffffffffffffffffff826200020a565b6200025586836200020a565b95508019841693508086168417925050509392505050565b6000819050919050565b6000819050919050565b6000620002a26200029c62000296846200026d565b62000277565b6200026d565b9050919050565b6000819050919050565b620002be8362000281565b620002d6620002cd82620002a9565b84845462000217565b825550505050565b600090565b620002ed620002de565b620002fa818484620002b3565b505050565b5b81811015620003225762000316600082620002e3565b60018101905062000300565b5050565b601f82111562000371576200033b81620001e5565b6200034684620001fa565b8101602085101562000356578190505b6200036e6200036585620001fa565b830182620002ff565b50505b505050565b600082821c905092915050565b6000620003966000198460080262000376565b1980831691505092915050565b6000620003b1838362000383565b9150826002028217905092915050565b620003cc8262000147565b67ffffffffffffffff811115620003e857620003e762000152565b5b620003f48254620001b0565b6200040182828562000326565b600060209050601f83116001811462000439576000841562000424578287015190505b620004308582620003a3565b865550620004a0565b601f1984166200044986620001e5565b60005b8281101562000473578489015182556001820191506020850194506020810190506200044c565b868310156200049357848901516200048f601f89168262000383565b8355505b6001600288020188555050505b505050505050565b61443080620004b86000396000f3fe608060405234801561001057600080fd5b50600436106101365760003560e01c80636b20c454116100b8578063bd85b0391161007c578063bd85b0391461035b578063ca13dae91461038b578063e985e9c5146103bb578063f242432a146103eb578063f2fde38b14610407578063f5298aca1461042357610136565b80636b20c454146102cb578063715018a6146102e75780637a15851b146102f15780638da5cb5b14610321578063a22cb4651461033f57610136565b806340c10f19116100ff57806340c10f19146102035780634b7bacfc1461021f5780634e1273f41461023b5780634f558e791461026b5780634f64b2be1461029b57610136565b8062fdd58e1461013b57806301ffc9a71461016b57806302fe53051461019b5780630e89341c146101b75780632eb2c2d6146101e7575b600080fd5b610155600480360381019061015091906126d4565b61043f565b6040516101629190612723565b60405180910390f35b61018560048036038101906101809190612796565b610507565b60405161019291906127de565b60405180910390f35b6101b560048036038101906101b0919061293f565b6105e9565b005b6101d160048036038101906101cc9190612988565b6105fd565b6040516101de9190612a34565b60405180910390f35b61020160048036038101906101fc9190612bbf565b61062e565b005b61021d600480360381019061021891906126d4565b6106cf565b005b61023960048036038101906102349190612c8e565b6107ac565b005b61025560048036038101906102509190612d7e565b6107d4565b6040516102629190612eb4565b60405180910390f35b61028560048036038101906102809190612988565b6108ed565b60405161029291906127de565b60405180910390f35b6102b560048036038101906102b09190612988565b610901565b6040516102c29190612723565b60405180910390f35b6102e560048036038101906102e09190612ed6565b610925565b005b6102ef6109c2565b005b61030b60048036038101906103069190612c8e565b6109d6565b6040516103189190612fe5565b60405180910390f35b610329610aa1565b604051610336919061300f565b60405180910390f35b61035960048036038101906103549190613056565b610acb565b005b61037560048036038101906103709190612988565b610ae1565b6040516103829190612723565b60405180910390f35b6103a560048036038101906103a091906126d4565b610afe565b6040516103b291906127de565b60405180910390f35b6103d560048036038101906103d09190613096565b610b2d565b6040516103e291906127de565b60405180910390f35b610405600480360381019061040091906130d6565b610bc1565b005b610421600480360381019061041c9190612c8e565b610c62565b005b61043d6004803603810190610438919061316d565b610ce5565b005b60008073ffffffffffffffffffffffffffffffffffffffff168373ffffffffffffffffffffffffffffffffffffffff16036104af576040517f08c379a00000000000000000000000000000000000000000000000000000000081526004016104a690613232565b60405180910390fd5b60008083815260200190815260200160002060008473ffffffffffffffffffffffffffffffffffffffff1673ffffffffffffffffffffffffffffffffffffffff16815260200190815260200160002054905092915050565b60007fd9b67a26000000000000000000000000000000000000000000000000000000007bffffffffffffffffffffffffffffffffffffffffffffffffffffffff1916827bffffffffffffffffffffffffffffffffffffffffffffffffffffffff191614806105d257507f0e89341c000000000000000000000000000000000000000000000000000000007bffffffffffffffffffffffffffffffffffffffffffffffffffffffff1916827bffffffffffffffffffffffffffffffffffffffffffffffffffffffff1916145b806105e257506105e182610e09565b5b9050919050565b6105f1610e73565b6105fa81610ef1565b50565b606061060882610f04565b6040516020016106189190613372565b6040516020818303038152906040529050919050565b610636611064565b73ffffffffffffffffffffffffffffffffffffffff168573ffffffffffffffffffffffffffffffffffffffff16148061067c575061067b85610676611064565b610b2d565b5b6106bb576040517f08c379a00000000000000000000000000000000000000000000000000000000081526004016106b290613411565b60405180910390fd5b6106c8858585858561106c565b5050505050565b6106d7610e73565b60016106e3838361043f565b10610723576040517f08c379a000000000000000000000000000000000000000000000000000000000815260040161071a906134a3565b60405180910390fd5b61073f828260016040518060200160405280600081525061138d565b6001600660008473ffffffffffffffffffffffffffffffffffffffff1673ffffffffffffffffffffffffffffffffffffffff168152602001908152602001600020600083815260200190815260200160002060006101000a81548160ff0219169083151502179055505050565b6107b4610e73565b6107d181600560016040518060200160405280600081525061138d565b50565b6060815183511461081a576040517f08c379a000000000000000000000000000000000000000000000000000000000815260040161081190613535565b60405180910390fd5b6000835167ffffffffffffffff81111561083757610836612814565b5b6040519080825280602002602001820160405280156108655781602001602082028036833780820191505090505b50905060005b84518110156108e2576108b285828151811061088a57610889613555565b5b60200260200101518583815181106108a5576108a4613555565b5b602002602001015161043f565b8282815181106108c5576108c4613555565b5b602002602001018181525050806108db906135b3565b905061086b565b508091505092915050565b6000806108f983610ae1565b119050919050565b6005818154811061091157600080fd5b906000526020600020016000915090505481565b61092d611064565b73ffffffffffffffffffffffffffffffffffffffff168373ffffffffffffffffffffffffffffffffffffffff16148061097357506109728361096d611064565b610b2d565b5b6109b2576040517f08c379a00000000000000000000000000000000000000000000000000000000081526004016109a990613411565b60405180910390fd5b6109bd83838361153d565b505050565b6109ca610e73565b6109d4600061180b565b565b6109de61260a565b6109e661260a565b6000805b6007811015610a9657600660008673ffffffffffffffffffffffffffffffffffffffff1673ffffffffffffffffffffffffffffffffffffffff168152602001908152602001600020600082815260200190815260200160002060009054906101000a900460ff1615610a835780838360068110610a6a57610a69613555565b5b602002018181525050600182610a8091906135fb565b91505b8080610a8e906135b3565b9150506109ea565b508192505050919050565b6000600360009054906101000a900473ffffffffffffffffffffffffffffffffffffffff16905090565b610add610ad6611064565b83836118d1565b5050565b600060046000838152602001908152602001600020549050919050565b60066020528160005260406000206020528060005260406000206000915091509054906101000a900460ff1681565b6000600160008473ffffffffffffffffffffffffffffffffffffffff1673ffffffffffffffffffffffffffffffffffffffff16815260200190815260200160002060008373ffffffffffffffffffffffffffffffffffffffff1673ffffffffffffffffffffffffffffffffffffffff16815260200190815260200160002060009054906101000a900460ff16905092915050565b610bc9611064565b73ffffffffffffffffffffffffffffffffffffffff168573ffffffffffffffffffffffffffffffffffffffff161480610c0f5750610c0e85610c09611064565b610b2d565b5b610c4e576040517f08c379a0000000000000000000000000000000000000000000000000000000008152600401610c4590613411565b60405180910390fd5b610c5b8585858585611a3d565b5050505050565b610c6a610e73565b600073ffffffffffffffffffffffffffffffffffffffff168173ffffffffffffffffffffffffffffffffffffffff1603610cd9576040517f08c379a0000000000000000000000000000000000000000000000000000000008152600401610cd0906136a1565b60405180910390fd5b610ce28161180b565b50565b3073ffffffffffffffffffffffffffffffffffffffff163373ffffffffffffffffffffffffffffffffffffffff161480610d515750610d22610aa1565b73ffffffffffffffffffffffffffffffffffffffff163373ffffffffffffffffffffffffffffffffffffffff16145b610d90576040517f08c379a0000000000000000000000000000000000000000000000000000000008152600401610d879061370d565b60405180910390fd5b610d9b838383611cd8565b6000600660008573ffffffffffffffffffffffffffffffffffffffff1673ffffffffffffffffffffffffffffffffffffffff168152602001908152602001600020600084815260200190815260200160002060006101000a81548160ff021916908315150217905550505050565b60007f01ffc9a7000000000000000000000000000000000000000000000000000000007bffffffffffffffffffffffffffffffffffffffffffffffffffffffff1916827bffffffffffffffffffffffffffffffffffffffffffffffffffffffff1916149050919050565b610e7b611064565b73ffffffffffffffffffffffffffffffffffffffff16610e99610aa1565b73ffffffffffffffffffffffffffffffffffffffff1614610eef576040517f08c379a0000000000000000000000000000000000000000000000000000000008152600401610ee690613779565b60405180910390fd5b565b8060029081610f0091906139a5565b5050565b606060008203610f4b576040518060400160405280600181526020017f3000000000000000000000000000000000000000000000000000000000000000815250905061105f565b600082905060005b60008214610f7d578080610f66906135b3565b915050600a82610f769190613aa6565b9150610f53565b60008167ffffffffffffffff811115610f9957610f98612814565b5b6040519080825280601f01601f191660200182016040528015610fcb5781602001600182028036833780820191505090505b5090505b6000851461105857600182610fe49190613ad7565b9150600a85610ff39190613b0b565b6030610fff91906135fb565b60f81b81838151811061101557611014613555565b5b60200101907effffffffffffffffffffffffffffffffffffffffffffffffffffffffffffff1916908160001a905350600a856110519190613aa6565b9450610fcf565b8093505050505b919050565b600033905090565b81518351146110b0576040517f08c379a00000000000000000000000000000000000000000000000000000000081526004016110a790613bae565b60405180910390fd5b600073ffffffffffffffffffffffffffffffffffffffff168473ffffffffffffffffffffffffffffffffffffffff160361111f576040517f08c379a000000000000000000000000000000000000000000000000000000000815260040161111690613c40565b60405180910390fd5b6000611129611064565b9050611139818787878787611f1e565b60005b84518110156112ea57600085828151811061115a57611159613555565b5b60200260200101519050600085838151811061117957611178613555565b5b60200260200101519050600080600084815260200190815260200160002060008b73ffffffffffffffffffffffffffffffffffffffff1673ffffffffffffffffffffffffffffffffffffffff1681526020019081526020016000205490508181101561121a576040517f08c379a000000000000000000000000000000000000000000000000000000000815260040161121190613cd2565b60405180910390fd5b81810360008085815260200190815260200160002060008c73ffffffffffffffffffffffffffffffffffffffff1673ffffffffffffffffffffffffffffffffffffffff168152602001908152602001600020819055508160008085815260200190815260200160002060008b73ffffffffffffffffffffffffffffffffffffffff1673ffffffffffffffffffffffffffffffffffffffff16815260200190815260200160002060008282546112cf91906135fb565b92505081905550505050806112e3906135b3565b905061113c565b508473ffffffffffffffffffffffffffffffffffffffff168673ffffffffffffffffffffffffffffffffffffffff168273ffffffffffffffffffffffffffffffffffffffff167f4a39dc06d4c0dbc64b70af90fd698a233a518aa5d07e595d983b8c0526c8f7fb8787604051611361929190613cf2565b60405180910390a4611377818787878787611fdf565b611385818787878787611fe7565b505050505050565b600073ffffffffffffffffffffffffffffffffffffffff168473ffffffffffffffffffffffffffffffffffffffff16036113fc576040517f08c379a00000000000000000000000000000000000000000000000000000000081526004016113f390613d9b565b60405180910390fd5b6000611406611064565b90506000611413856121be565b90506000611420856121be565b905061143183600089858589611f1e565b8460008088815260200190815260200160002060008973ffffffffffffffffffffffffffffffffffffffff1673ffffffffffffffffffffffffffffffffffffffff168152602001908152602001600020600082825461149091906135fb565b925050819055508673ffffffffffffffffffffffffffffffffffffffff16600073ffffffffffffffffffffffffffffffffffffffff168473ffffffffffffffffffffffffffffffffffffffff167fc3d58168c5ae7397731d063d5bbf3d657854427343f4c083240f7aacaa2d0f62898960405161150e929190613dbb565b60405180910390a461152583600089858589611fdf565b61153483600089898989612238565b50505050505050565b600073ffffffffffffffffffffffffffffffffffffffff168373ffffffffffffffffffffffffffffffffffffffff16036115ac576040517f08c379a00000000000000000000000000000000000000000000000000000000081526004016115a390613e56565b60405180910390fd5b80518251146115f0576040517f08c379a00000000000000000000000000000000000000000000000000000000081526004016115e790613bae565b60405180910390fd5b60006115fa611064565b905061161a81856000868660405180602001604052806000815250611f1e565b60005b835181101561176757600084828151811061163b5761163a613555565b5b60200260200101519050600084838151811061165a57611659613555565b5b60200260200101519050600080600084815260200190815260200160002060008973ffffffffffffffffffffffffffffffffffffffff1673ffffffffffffffffffffffffffffffffffffffff168152602001908152602001600020549050818110156116fb576040517f08c379a00000000000000000000000000000000000000000000000000000000081526004016116f290613ee8565b60405180910390fd5b81810360008085815260200190815260200160002060008a73ffffffffffffffffffffffffffffffffffffffff1673ffffffffffffffffffffffffffffffffffffffff16815260200190815260200160002081905550505050808061175f906135b3565b91505061161d565b50600073ffffffffffffffffffffffffffffffffffffffff168473ffffffffffffffffffffffffffffffffffffffff168273ffffffffffffffffffffffffffffffffffffffff167f4a39dc06d4c0dbc64b70af90fd698a233a518aa5d07e595d983b8c0526c8f7fb86866040516117df929190613cf2565b60405180910390a461180581856000868660405180602001604052806000815250611fdf565b50505050565b6000600360009054906101000a900473ffffffffffffffffffffffffffffffffffffffff16905081600360006101000a81548173ffffffffffffffffffffffffffffffffffffffff021916908373ffffffffffffffffffffffffffffffffffffffff1602179055508173ffffffffffffffffffffffffffffffffffffffff168173ffffffffffffffffffffffffffffffffffffffff167f8be0079c531659141344cd1fd0a4f28419497f9722a3daafe3b4186f6b6457e060405160405180910390a35050565b8173ffffffffffffffffffffffffffffffffffffffff168373ffffffffffffffffffffffffffffffffffffffff160361193f576040517f08c379a000000000000000000000000000000000000000000000000000000000815260040161193690613f7a565b60405180910390fd5b80600160008573ffffffffffffffffffffffffffffffffffffffff1673ffffffffffffffffffffffffffffffffffffffff16815260200190815260200160002060008473ffffffffffffffffffffffffffffffffffffffff1673ffffffffffffffffffffffffffffffffffffffff16815260200190815260200160002060006101000a81548160ff0219169083151502179055508173ffffffffffffffffffffffffffffffffffffffff168373ffffffffffffffffffffffffffffffffffffffff167f17307eab39ab6107e8899845ad3d59bd9653f200f220920489ca2b5937696c3183604051611a3091906127de565b60405180910390a3505050565b600073ffffffffffffffffffffffffffffffffffffffff168473ffffffffffffffffffffffffffffffffffffffff1603611aac576040517f08c379a0000000000000000000000000000000000000000000000000000000008152600401611aa390613c40565b60405180910390fd5b6000611ab6611064565b90506000611ac3856121be565b90506000611ad0856121be565b9050611ae0838989858589611f1e565b600080600088815260200190815260200160002060008a73ffffffffffffffffffffffffffffffffffffffff1673ffffffffffffffffffffffffffffffffffffffff16815260200190815260200160002054905085811015611b77576040517f08c379a0000000000000000000000000000000000000000000000000000000008152600401611b6e90613cd2565b60405180910390fd5b85810360008089815260200190815260200160002060008b73ffffffffffffffffffffffffffffffffffffffff1673ffffffffffffffffffffffffffffffffffffffff168152602001908152602001600020819055508560008089815260200190815260200160002060008a73ffffffffffffffffffffffffffffffffffffffff1673ffffffffffffffffffffffffffffffffffffffff1681526020019081526020016000206000828254611c2c91906135fb565b925050819055508773ffffffffffffffffffffffffffffffffffffffff168973ffffffffffffffffffffffffffffffffffffffff168573ffffffffffffffffffffffffffffffffffffffff167fc3d58168c5ae7397731d063d5bbf3d657854427343f4c083240f7aacaa2d0f628a8a604051611ca9929190613dbb565b60405180910390a4611cbf848a8a86868a611fdf565b611ccd848a8a8a8a8a612238565b505050505050505050565b600073ffffffffffffffffffffffffffffffffffffffff168373ffffffffffffffffffffffffffffffffffffffff1603611d47576040517f08c379a0000000000000000000000000000000000000000000000000000000008152600401611d3e90613e56565b60405180910390fd5b6000611d51611064565b90506000611d5e846121be565b90506000611d6b846121be565b9050611d8b83876000858560405180602001604052806000815250611f1e565b600080600087815260200190815260200160002060008873ffffffffffffffffffffffffffffffffffffffff1673ffffffffffffffffffffffffffffffffffffffff16815260200190815260200160002054905084811015611e22576040517f08c379a0000000000000000000000000000000000000000000000000000000008152600401611e1990613ee8565b60405180910390fd5b84810360008088815260200190815260200160002060008973ffffffffffffffffffffffffffffffffffffffff1673ffffffffffffffffffffffffffffffffffffffff16815260200190815260200160002081905550600073ffffffffffffffffffffffffffffffffffffffff168773ffffffffffffffffffffffffffffffffffffffff168573ffffffffffffffffffffffffffffffffffffffff167fc3d58168c5ae7397731d063d5bbf3d657854427343f4c083240f7aacaa2d0f628989604051611eef929190613dbb565b60405180910390a4611f1584886000868660405180602001604052806000815250611fdf565b50505050505050565b3073ffffffffffffffffffffffffffffffffffffffff163373ffffffffffffffffffffffffffffffffffffffff161480611f8a5750611f5b610aa1565b73ffffffffffffffffffffffffffffffffffffffff163373ffffffffffffffffffffffffffffffffffffffff16145b611fc9576040517f08c379a0000000000000000000000000000000000000000000000000000000008152600401611fc09061400c565b60405180910390fd5b611fd786868686868661240f565b505050505050565b505050505050565b6120068473ffffffffffffffffffffffffffffffffffffffff166125df565b156121b6578373ffffffffffffffffffffffffffffffffffffffff1663bc197c8187878686866040518663ffffffff1660e01b815260040161204c959493929190614081565b6020604051808303816000875af192505050801561208857506040513d601f19601f8201168201806040525081019061208591906140fe565b60015b61212d57612094614138565b806308c379a0036120f057506120a861415a565b806120b357506120f2565b806040517f08c379a00000000000000000000000000000000000000000000000000000000081526004016120e79190612a34565b60405180910390fd5b505b6040517f08c379a00000000000000000000000000000000000000000000000000000000081526004016121249061425c565b60405180910390fd5b63bc197c8160e01b7bffffffffffffffffffffffffffffffffffffffffffffffffffffffff1916817bffffffffffffffffffffffffffffffffffffffffffffffffffffffff1916146121b4576040517f08c379a00000000000000000000000000000000000000000000000000000000081526004016121ab906142ee565b60405180910390fd5b505b505050505050565b60606000600167ffffffffffffffff8111156121dd576121dc612814565b5b60405190808252806020026020018201604052801561220b5781602001602082028036833780820191505090505b509050828160008151811061222357612222613555565b5b60200260200101818152505080915050919050565b6122578473ffffffffffffffffffffffffffffffffffffffff166125df565b15612407578373ffffffffffffffffffffffffffffffffffffffff1663f23a6e6187878686866040518663ffffffff1660e01b815260040161229d95949392919061430e565b6020604051808303816000875af19250505080156122d957506040513d601f19601f820116820180604052508101906122d691906140fe565b60015b61237e576122e5614138565b806308c379a00361234157506122f961415a565b806123045750612343565b806040517f08c379a00000000000000000000000000000000000000000000000000000000081526004016123389190612a34565b60405180910390fd5b505b6040517f08c379a00000000000000000000000000000000000000000000000000000000081526004016123759061425c565b60405180910390fd5b63f23a6e6160e01b7bffffffffffffffffffffffffffffffffffffffffffffffffffffffff1916817bffffffffffffffffffffffffffffffffffffffffffffffffffffffff191614612405576040517f08c379a00000000000000000000000000000000000000000000000000000000081526004016123fc906142ee565b60405180910390fd5b505b505050505050565b61241d868686868686612602565b600073ffffffffffffffffffffffffffffffffffffffff168573ffffffffffffffffffffffffffffffffffffffff16036124ce5760005b83518110156124cc578281815181106124705761246f613555565b5b60200260200101516004600086848151811061248f5761248e613555565b5b6020026020010151815260200190815260200160002060008282546124b491906135fb565b92505081905550806124c5906135b3565b9050612454565b505b600073ffffffffffffffffffffffffffffffffffffffff168473ffffffffffffffffffffffffffffffffffffffff16036125d75760005b83518110156125d557600084828151811061252357612522613555565b5b60200260200101519050600084838151811061254257612541613555565b5b60200260200101519050600060046000848152602001908152602001600020549050818110156125a7576040517f08c379a000000000000000000000000000000000000000000000000000000000815260040161259e906143da565b60405180910390fd5b8181036004600085815260200190815260200160002081905550505050806125ce906135b3565b9050612505565b505b505050505050565b6000808273ffffffffffffffffffffffffffffffffffffffff163b119050919050565b505050505050565b6040518060c00160405280600690602082028036833780820191505090505090565b6000604051905090565b600080fd5b600080fd5b600073ffffffffffffffffffffffffffffffffffffffff82169050919050565b600061266b82612640565b9050919050565b61267b81612660565b811461268657600080fd5b50565b60008135905061269881612672565b92915050565b6000819050919050565b6126b18161269e565b81146126bc57600080fd5b50565b6000813590506126ce816126a8565b92915050565b600080604083850312156126eb576126ea612636565b5b60006126f985828601612689565b925050602061270a858286016126bf565b9150509250929050565b61271d8161269e565b82525050565b60006020820190506127386000830184612714565b92915050565b60007fffffffff0000000000000000000000000000000000000000000000000000000082169050919050565b6127738161273e565b811461277e57600080fd5b50565b6000813590506127908161276a565b92915050565b6000602082840312156127ac576127ab612636565b5b60006127ba84828501612781565b91505092915050565b60008115159050919050565b6127d8816127c3565b82525050565b60006020820190506127f360008301846127cf565b92915050565b600080fd5b600080fd5b6000601f19601f8301169050919050565b7f4e487b7100000000000000000000000000000000000000000000000000000000600052604160045260246000fd5b61284c82612803565b810181811067ffffffffffffffff8211171561286b5761286a612814565b5b80604052505050565b600061287e61262c565b905061288a8282612843565b919050565b600067ffffffffffffffff8211156128aa576128a9612814565b5b6128b382612803565b9050602081019050919050565b82818337600083830152505050565b60006128e26128dd8461288f565b612874565b9050828152602081018484840111156128fe576128fd6127fe565b5b6129098482856128c0565b509392505050565b600082601f830112612926576129256127f9565b5b81356129368482602086016128cf565b91505092915050565b60006020828403121561295557612954612636565b5b600082013567ffffffffffffffff8111156129735761297261263b565b5b61297f84828501612911565b91505092915050565b60006020828403121561299e5761299d612636565b5b60006129ac848285016126bf565b91505092915050565b600081519050919050565b600082825260208201905092915050565b60005b838110156129ef5780820151818401526020810190506129d4565b60008484015250505050565b6000612a06826129b5565b612a1081856129c0565b9350612a208185602086016129d1565b612a2981612803565b840191505092915050565b60006020820190508181036000830152612a4e81846129fb565b905092915050565b600067ffffffffffffffff821115612a7157612a70612814565b5b602082029050602081019050919050565b600080fd5b6000612a9a612a9584612a56565b612874565b90508083825260208201905060208402830185811115612abd57612abc612a82565b5b835b81811015612ae65780612ad288826126bf565b845260208401935050602081019050612abf565b5050509392505050565b600082601f830112612b0557612b046127f9565b5b8135612b15848260208601612a87565b91505092915050565b600067ffffffffffffffff821115612b3957612b38612814565b5b612b4282612803565b9050602081019050919050565b6000612b62612b5d84612b1e565b612874565b905082815260208101848484011115612b7e57612b7d6127fe565b5b612b898482856128c0565b509392505050565b600082601f830112612ba657612ba56127f9565b5b8135612bb6848260208601612b4f565b91505092915050565b600080600080600060a08688031215612bdb57612bda612636565b5b6000612be988828901612689565b9550506020612bfa88828901612689565b945050604086013567ffffffffffffffff811115612c1b57612c1a61263b565b5b612c2788828901612af0565b935050606086013567ffffffffffffffff811115612c4857612c4761263b565b5b612c5488828901612af0565b925050608086013567ffffffffffffffff811115612c7557612c7461263b565b5b612c8188828901612b91565b9150509295509295909350565b600060208284031215612ca457612ca3612636565b5b6000612cb284828501612689565b91505092915050565b600067ffffffffffffffff821115612cd657612cd5612814565b5b602082029050602081019050919050565b6000612cfa612cf584612cbb565b612874565b90508083825260208201905060208402830185811115612d1d57612d1c612a82565b5b835b81811015612d465780612d328882612689565b845260208401935050602081019050612d1f565b5050509392505050565b600082601f830112612d6557612d646127f9565b5b8135612d75848260208601612ce7565b91505092915050565b60008060408385031215612d9557612d94612636565b5b600083013567ffffffffffffffff811115612db357612db261263b565b5b612dbf85828601612d50565b925050602083013567ffffffffffffffff811115612de057612ddf61263b565b5b612dec85828601612af0565b9150509250929050565b600081519050919050565b600082825260208201905092915050565b6000819050602082019050919050565b612e2b8161269e565b82525050565b6000612e3d8383612e22565b60208301905092915050565b6000602082019050919050565b6000612e6182612df6565b612e6b8185612e01565b9350612e7683612e12565b8060005b83811015612ea7578151612e8e8882612e31565b9750612e9983612e49565b925050600181019050612e7a565b5085935050505092915050565b60006020820190508181036000830152612ece8184612e56565b905092915050565b600080600060608486031215612eef57612eee612636565b5b6000612efd86828701612689565b935050602084013567ffffffffffffffff811115612f1e57612f1d61263b565b5b612f2a86828701612af0565b925050604084013567ffffffffffffffff811115612f4b57612f4a61263b565b5b612f5786828701612af0565b9150509250925092565b600060069050919050565b600081905092915050565b6000819050919050565b6000602082019050919050565b612f9781612f61565b612fa18184612f6c565b9250612fac82612f77565b8060005b83811015612fdd578151612fc48782612e31565b9650612fcf83612f81565b925050600181019050612fb0565b505050505050565b600060c082019050612ffa6000830184612f8e565b92915050565b61300981612660565b82525050565b60006020820190506130246000830184613000565b92915050565b613033816127c3565b811461303e57600080fd5b50565b6000813590506130508161302a565b92915050565b6000806040838503121561306d5761306c612636565b5b600061307b85828601612689565b925050602061308c85828601613041565b9150509250929050565b600080604083850312156130ad576130ac612636565b5b60006130bb85828601612689565b92505060206130cc85828601612689565b9150509250929050565b600080600080600060a086880312156130f2576130f1612636565b5b600061310088828901612689565b955050602061311188828901612689565b9450506040613122888289016126bf565b9350506060613133888289016126bf565b925050608086013567ffffffffffffffff8111156131545761315361263b565b5b61316088828901612b91565b9150509295509295909350565b60008060006060848603121561318657613185612636565b5b600061319486828701612689565b93505060206131a5868287016126bf565b92505060406131b6868287016126bf565b9150509250925092565b7f455243313135353a2061646472657373207a65726f206973206e6f742061207660008201527f616c6964206f776e657200000000000000000000000000000000000000000000602082015250565b600061321c602a836129c0565b9150613227826131c0565b604082019050919050565b6000602082019050818103600083015261324b8161320f565b9050919050565b600081905092915050565b7f68747470733a2f2f617175612d6a7573742d67726f7573652d3833342e6d797060008201527f696e6174612e636c6f75642f697066732f516d546b596f3673386b52484d5a4e60208201527f52786b3164463842554b7236554e72774b584b59753744643666586745516f2f604082015250565b60006132df606083613252565b91506132ea8261325d565b606082019050919050565b6000613300826129b5565b61330a8185613252565b935061331a8185602086016129d1565b80840191505092915050565b7f2e6a736f6e000000000000000000000000000000000000000000000000000000600082015250565b600061335c600583613252565b915061336782613326565b600582019050919050565b600061337d826132d2565b915061338982846132f5565b91506133948261334f565b915081905092915050565b7f455243313135353a2063616c6c6572206973206e6f7420746f6b656e206f776e60008201527f6572206e6f7220617070726f7665640000000000000000000000000000000000602082015250565b60006133fb602f836129c0565b91506134068261339f565b604082019050919050565b6000602082019050818103600083015261342a816133ee565b9050919050565b7f43616e6e6f742068617665206d6f7265207468616e206f6e652072616e6b204e60008201527f4654000000000000000000000000000000000000000000000000000000000000602082015250565b600061348d6022836129c0565b915061349882613431565b604082019050919050565b600060208201905081810360008301526134bc81613480565b9050919050565b7f455243313135353a206163636f756e747320616e6420696473206c656e67746860008201527f206d69736d617463680000000000000000000000000000000000000000000000602082015250565b600061351f6029836129c0565b915061352a826134c3565b604082019050919050565b6000602082019050818103600083015261354e81613512565b9050919050565b7f4e487b7100000000000000000000000000000000000000000000000000000000600052603260045260246000fd5b7f4e487b7100000000000000000000000000000000000000000000000000000000600052601160045260246000fd5b60006135be8261269e565b91507fffffffffffffffffffffffffffffffffffffffffffffffffffffffffffffffff82036135f0576135ef613584565b5b600182019050919050565b60006136068261269e565b91506136118361269e565b925082820190508082111561362957613628613584565b5b92915050565b7f4f776e61626c653a206e6577206f776e657220697320746865207a65726f206160008201527f6464726573730000000000000000000000000000000000000000000000000000602082015250565b600061368b6026836129c0565b91506136968261362f565b604082019050919050565b600060208201905081810360008301526136ba8161367e565b9050919050565b7f596f752063616e6e6f74206275726e20796f7572206f776e204e465400000000600082015250565b60006136f7601c836129c0565b9150613702826136c1565b602082019050919050565b60006020820190508181036000830152613726816136ea565b9050919050565b7f4f776e61626c653a2063616c6c6572206973206e6f7420746865206f776e6572600082015250565b60006137636020836129c0565b915061376e8261372d565b602082019050919050565b6000602082019050818103600083015261379281613756565b9050919050565b7f4e487b7100000000000000000000000000000000000000000000000000000000600052602260045260246000fd5b600060028204905060018216806137e057607f821691505b6020821081036137f3576137f2613799565b5b50919050565b60008190508160005260206000209050919050565b60006020601f8301049050919050565b600082821b905092915050565b60006008830261385b7fffffffffffffffffffffffffffffffffffffffffffffffffffffffffffffffff8261381e565b613865868361381e565b95508019841693508086168417925050509392505050565b6000819050919050565b60006138a261389d6138988461269e565b61387d565b61269e565b9050919050565b6000819050919050565b6138bc83613887565b6138d06138c8826138a9565b84845461382b565b825550505050565b600090565b6138e56138d8565b6138f08184846138b3565b505050565b5b81811015613914576139096000826138dd565b6001810190506138f6565b5050565b601f8211156139595761392a816137f9565b6139338461380e565b81016020851015613942578190505b61395661394e8561380e565b8301826138f5565b50505b505050565b600082821c905092915050565b600061397c6000198460080261395e565b1980831691505092915050565b6000613995838361396b565b9150826002028217905092915050565b6139ae826129b5565b67ffffffffffffffff8111156139c7576139c6612814565b5b6139d182546137c8565b6139dc828285613918565b600060209050601f831160018114613a0f57600084156139fd578287015190505b613a078582613989565b865550613a6f565b601f198416613a1d866137f9565b60005b82811015613a4557848901518255600182019150602085019450602081019050613a20565b86831015613a625784890151613a5e601f89168261396b565b8355505b6001600288020188555050505b505050505050565b7f4e487b7100000000000000000000000000000000000000000000000000000000600052601260045260246000fd5b6000613ab18261269e565b9150613abc8361269e565b925082613acc57613acb613a77565b5b828204905092915050565b6000613ae28261269e565b9150613aed8361269e565b9250828203905081811115613b0557613b04613584565b5b92915050565b6000613b168261269e565b9150613b218361269e565b925082613b3157613b30613a77565b5b828206905092915050565b7f455243313135353a2069647320616e6420616d6f756e7473206c656e6774682060008201527f6d69736d61746368000000000000000000000000000000000000000000000000602082015250565b6000613b986028836129c0565b9150613ba382613b3c565b604082019050919050565b60006020820190508181036000830152613bc781613b8b565b9050919050565b7f455243313135353a207472616e7366657220746f20746865207a65726f20616460008201527f6472657373000000000000000000000000000000000000000000000000000000602082015250565b6000613c2a6025836129c0565b9150613c3582613bce565b604082019050919050565b60006020820190508181036000830152613c5981613c1d565b9050919050565b7f455243313135353a20696e73756666696369656e742062616c616e636520666f60008201527f72207472616e7366657200000000000000000000000000000000000000000000602082015250565b6000613cbc602a836129c0565b9150613cc782613c60565b604082019050919050565b60006020820190508181036000830152613ceb81613caf565b9050919050565b60006040820190508181036000830152613d0c8185612e56565b90508181036020830152613d208184612e56565b90509392505050565b7f455243313135353a206d696e7420746f20746865207a65726f2061646472657360008201527f7300000000000000000000000000000000000000000000000000000000000000602082015250565b6000613d856021836129c0565b9150613d9082613d29565b604082019050919050565b60006020820190508181036000830152613db481613d78565b9050919050565b6000604082019050613dd06000830185612714565b613ddd6020830184612714565b9392505050565b7f455243313135353a206275726e2066726f6d20746865207a65726f206164647260008201527f6573730000000000000000000000000000000000000000000000000000000000602082015250565b6000613e406023836129c0565b9150613e4b82613de4565b604082019050919050565b60006020820190508181036000830152613e6f81613e33565b9050919050565b7f455243313135353a206275726e20616d6f756e7420657863656564732062616c60008201527f616e636500000000000000000000000000000000000000000000000000000000602082015250565b6000613ed26024836129c0565b9150613edd82613e76565b604082019050919050565b60006020820190508181036000830152613f0181613ec5565b9050919050565b7f455243313135353a2073657474696e6720617070726f76616c2073746174757360008201527f20666f722073656c660000000000000000000000000000000000000000000000602082015250565b6000613f646029836129c0565b9150613f6f82613f08565b604082019050919050565b60006020820190508181036000830152613f9381613f57565b9050919050565b7f596f752063616e6e6f74207472616e7366657220796f7572204e465420746f2060008201527f6f74686572730000000000000000000000000000000000000000000000000000602082015250565b6000613ff66026836129c0565b915061400182613f9a565b604082019050919050565b6000602082019050818103600083015261402581613fe9565b9050919050565b600081519050919050565b600082825260208201905092915050565b60006140538261402c565b61405d8185614037565b935061406d8185602086016129d1565b61407681612803565b840191505092915050565b600060a0820190506140966000830188613000565b6140a36020830187613000565b81810360408301526140b58186612e56565b905081810360608301526140c98185612e56565b905081810360808301526140dd8184614048565b90509695505050505050565b6000815190506140f88161276a565b92915050565b60006020828403121561411457614113612636565b5b6000614122848285016140e9565b91505092915050565b60008160e01c9050919050565b600060033d11156141575760046000803e61415460005161412b565b90505b90565b600060443d106141e75761416c61262c565b60043d036004823e80513d602482011167ffffffffffffffff821117156141945750506141e7565b808201805167ffffffffffffffff8111156141b257505050506141e7565b80602083010160043d0385018111156141cf5750505050506141e7565b6141de82602001850186612843565b82955050505050505b90565b7f455243313135353a207472616e7366657220746f206e6f6e204552433131353560008201527f526563656976657220696d706c656d656e746572000000000000000000000000602082015250565b60006142466034836129c0565b9150614251826141ea565b604082019050919050565b6000602082019050818103600083015261427581614239565b9050919050565b7f455243313135353a204552433131353552656365697665722072656a6563746560008201527f6420746f6b656e73000000000000000000000000000000000000000000000000602082015250565b60006142d86028836129c0565b91506142e38261427c565b604082019050919050565b60006020820190508181036000830152614307816142cb565b9050919050565b600060a0820190506143236000830188613000565b6143306020830187613000565b61433d6040830186612714565b61434a6060830185612714565b818103608083015261435c8184614048565b90509695505050505050565b7f455243313135353a206275726e20616d6f756e74206578636565647320746f7460008201527f616c537570706c79000000000000000000000000000000000000000000000000602082015250565b60006143c46028836129c0565b91506143cf82614368565b604082019050919050565b600060208201905081810360008301526143f3816143b7565b905091905056fea26469706673582212207b33646683a356a9038b5a1efbd549ba7d70a8c4328f278e80ed4562122ec6d764736f6c634300081100332f697066732f516d546b596f3673386b52484d5a4e52786b3164463842554b7236554e72774b584b59753744643666586745516f",
  "linkReferences": {},
  "deployedLinkReferences": {}
}